:08133800C2A1C2A08E80D2A068
:02134000002289
:1012DF00EF7005C2A4C2A322BF0105C2A4D2A322EC
:0812EF00BF0204D2A4C2A32235
:1012A900D2A1C2A2C2A0D2A0E58030E70CC2A0AFF1
:0B12B9001D051DEFD3940A40EDC2A0FC
:0112C4002207
:1011EE00EEC41313540304FF1212DFEE543FFCED52
:0E11FE00131313541FFBED5407FDEB44B8FF11
:0D120C00AE071212A9C2A2121338C2A0220E
:0D000600AE071212A9D2A2121338C2A02216
:10130C007F3F12120C7FC012120C7FB812120C7F8E
:04131C004002120C6D
:10126700E4FF1212DF7DB8AF0512120C7F40121295
:101277000CE4FCE4FF1200060CBC40F70DBDC0E710
:011287002244
:101288001212A9D2A2D2A17580FFD2A0AF80C2A0AB
:101298001212A9D2A2D2A17580FFD2A0AF80C2A09B
:0112A8002223
:02114C00AE07EC
:10114E00EEC394805033EDC39440502D1211EEEC4B
:10115E004440FF12120C121288AA07AF057401A8A0
:10116E0007088002C333D8FC4202121208EC444036
:09117E00FF12120CAF0212000670
:011187002245
:02110F00AE0729
:10111100EEC394805034EDC39440502E1211EEEC86
:101121004440FF12120C121288AA07AF057401A8DD
:1011310007088002C333D8FCF45202121208EC44AF
:0A11410040FF12120CAF021200066C
:01114B002281
:02102F00AE070A
:10103100EEC394805042EDC39440503CEEC4131370
:10104100540304FF1212DFEE543FFCED131313544B
:101051001FFFED5407FDEF44B8FF12120CEC4440A2
:10106100FF12120C121288AE05EFA806088002C307
:0C10710013D8FC13920B8002D20BA20BD0
:01107D002250
:0312C500011E0007
:0C132000758910758D63758BC0D28E220C
:05001600D288D28A220D
:09134200D2AFD2ABD2A8D2AA228C
:09134B00121320120016021342D5
:1012F70012134B12135DE51EC3940340F91205B296
:05130700E4F51E80F179
:03001B0002135479
:09135400051E758D63758BC03216
:0300030002136382
:03136300C2033290
:030013000213666F
:03136600D203327D
:10001E0004FCFC040000000004FCFC040003FF8050
:10002E0000FCFC0080FF03000000033F3C03033C88
:10003E003F030000000000040404FCFC0404040060
:10004E00000000000000FFFF000000000000002084
:10005E0020203F3F2020200004FCFCE00000000494
:10006E00FCFC040000FFFF01071C70C0FFFF000036
:10007E00203F3F20000000030F3F00000000000063
:10008E0000FCFEFC00000000000000000003FF0367
:10009E000000000000000000003079300000000079
:1000AE0004FCFC0404040C1870E0800000FFFF0048
:1000BE000000000000FFFF00203F3F2020203018EE
:1000CE000E070100000000040404FCFC04040400FC
:1000DE00000000000000FFFF0000000000000020F4
:1000EE0020203F3F2020200004FCFC0404040404D4
:1000FE000C1C7C0000FFFF0808081C7F000000009D
:10010E00203F3F202020202030383E0000000000FD
:10011E0000FCFEFC00000000000000000003FF03D6
:10012E0000000000000000000030793000000000E8
:10013E0004FCFC04000000000000000000FFFF00B3
:10014E000000000000000000203F3F202020202063
:10015E0030383E00000000040404FCFC04040400DB
:10016E00000000000000FFFF000000000000002063
:10017E0020203F3F2020200004FCFC040404040443
:10018E000C1C7C0000FFFF0808081C7F000000000C
:10019E00203F3F20000000000000000004FCFC0493
:1001AE00040404040C1C7C0000FFFF0808081C7FDC
:1001BE0000000000203F3F202020202030383E004D
:1001CE0000000000000000000000000000C3C3C3D8
:1001DE00C3C3C3C3C3C3C3000000000000000000BC
:1001EE000000000000C0F0380C040C38F0C0000015
:1001FE00FFFF00000000000000FFFF0000030F1CC7
:10020E003020301C0F0300000010101818FCFC00EA
:10021E00000000000000000000FFFF0000000000D2
:10022E0000002020203F3F202020000060F0F80C2E
:10023E000404040C18F0E00000000080C0603018C8
:10024E000E070100383E3F333030303030303C0046
:10025E00003078780C04040C18F8F0000000000050
:10026E0008081C1633E1C0000C1E3E302020203042
:10027E00181F0F000000000080E038FCFC0000009A
:10028E0080E0380E030000FFFF00000001010101B5
:10029E000121213F3F21210100FCFC0C0C0C0C0C18
:1002AE000C0C0000001F0F08040202061CF8E000F0
:1002BE000C1E3E30202020301C0F030004FCFC04DA
:1002CE0004040C18F0E0000000FFFF0808081C16DC
:1002DE0073E18000203F3F20202020301C0F0300C0
:1002EE0004FCFC0404040C18F8E0000000FFFF08F6
:1002FE0038F8CC0607010000203F3F200000032FF6
:10030E003C30200004FCFC04040404040C1C7C009F
:10031E0000FFFF0808081C7F00000000203F3F2060
:10032E002020202030383E0000000000F00C3CF071
:10033E00000000000000F0FF43404043FFF00000CB
:10034E00203E3F2000000000203F3E2004FCFC0425
:10035E000080E47C1C04040000FFFF781E7FE18017
:10036E0000000000203F3F20000001273E382020E3
:10037E00E0F0180C0404040C18F0E000FFFF00007D
:10038E000000000000FFFF00070F18302020203073
:10039E00180F070004FCFC0400000004FCFC040021
:1003AE0000FFFF0000000000FFFF0000000F1F30E5
:1003BE00202020301F0F00007C1C0C0404FCFC04C9
:1003CE00040C1C7C0000000000FFFF000000000079
:1003DE0000000020203F3F202000000000FC020211
:1003EE0002860000010101000002FE0200C00001B1
:1003FE000101010100FC020202FC000001010100EA
:10040E0002FE0E7082FE01010100010102FE123A8F
:10041E0002860101010101010002FE22221C0001DF
:10042E00010100000008F810080800010101010197
:10043E0000F0282828300000010101010090282832
:10044E0028D80001010101000090282828D80001B9
:10045E00010101000000000000000000000000008B
:10046E00008C921214E6000100010100000602FE4B
:10047E00020600000101010000C07A4678C00101A9
:10048E000100010102FE2222629C01010100000016
:10049E00000602FE0206000001010100FFFFFFFF41
:1004AE00FFFFFFFFFFFFFFFFFFFFFFFFFFF7EFEF76
:1004BE00DFDFBF7FFFFFFFFFFFFFFFFFFFFFFF7FBE
:1004CE009FE7FBFDFFFFFFFFFFFFFFFFFFFFFFFFAC
:1004DE00FFFFFFFFFFFFFFFFFFFFFFFFFFFFFFFF1E
:1004EE00FFFFFFFFFFFFFFFFFF01FDFD0DEDEDED38
:1004FE00EDED6D6D2C2DEDEDEDEDEDEDEDED2D2C20
:10050E006D6D6DEDEDEDEDED0DFDFD01FFFFFFFFF1
:10051E00FFFFFFFFFFFFFFFFFFFFFFFFFFFFFFFFDD
:10052E00FFFFFFFFFFFFFFFFFF00FFFF80BFBFBF0B
:10053E00BCBCBEBEB3ADAFB7BBB9B7AFAFB5BBBF3B
:10054E00BEBEBEBFBFBFBFBF80FFFF00FFFFFFFF2E
:10055E00FFFFFFFFFFFFFFFFFFFFFFFFFFFFFFFF9D
:10056E00FFFFFFFFFFFFFFFFFFFCFDFDFDFDCDC108
:10057E00F1FDFDFDFDFDFDFDFDFDFDFDFDFDFDFDA9
:10058E00F1C1CDFDFDFDFDFDFDFDFDFCFFFFFFFFFE
:10059E00FFFFFFFFFFFFFFFFFFFFFFFF003F011801
:0405AE00013E000109
:1012C800010C04010A05011300010B00C106C10746
:0612D800C182C104C10542
:10118800E4FF1212DF751B04E4F51CE51B44B8FFED
:1011980012120CE51C4440FF12120CE4FF12000668
:1011A800051CE51CC3944040E2051BE51BC39408DD
:0211B80040D61F
:0111BA002212
:020DD7008F1774
:100DD900121188E4F51AE4F519E4F518C209E51ABF
:100DE90075F00FA424142519F51974042518F5189C
:100DF900E519C3944050077F011212DF800D7F026D
:100E09001212DF74C02519F519D209E51844B8FF83
:100E190012120CE5194440FF12120C3009067440F5
:100E29002519F519E51A75F00FA42414FFC3E5195E
:100E39009FF51974FC2518F518E51AC3940575F082
:100E49000CE518501EA42519F582E435F0F58375D3
:100E5900F024E51A12132CE582243EF582E5833449
:100E690001801CA42519F582E435F0F58375F02479
:100E7900E51712132CE58224F2F582E5833401F596
:100E890083E493FF1200060518E518C39403500381
:100E9900020DE50519E519C3940C5003020DE2058D
:0B0EA9001AE51AC394065003020DDF87
:010EB400221B
:10107E00E4FF1212DFE4F517E4F518E51744B8FFA4
:10108E0012120CE5184440FF12120C75F040E517D1
:10109E00A42518F582E435F0F583E58224AAF582BD
:1010AE00E5833404F583E493FF1200060518E51872
:0E10BE00C3944040C60517E517C3940440BA1A
:0110CC002201
:100FD800850C1A750C02751701AF171212DFE4F5AC
:100FE80018E4F519E51844B8FF12120CE519444045
:100FF800FF12120C121288EF6005851A0C80090581
:1010080019E519C3944040DCE50C651A6009051818
:10101800E518C3940440CAE50C651A60090517E58C
:0610280017C3940340B35E
:01102E00229F
:1011BB009005AAE493F511A3E493F512A3E493F538
:1011CB000DA3E493F510A2029203E4F517E517C300
:1011DB009510500EE5112517FFAD1212114C051786
:0211EB0080EB97
:0111ED0022DF
:100EB50030034DC374809510C3950DFFE511D39F85
:100EC5004003020F4B751701E50D2401FFE433FEC6
:100ED500C3E5179FEE6480F8748098501CE51125D2
:100EE5001714FFAD1212110FE5112510142517FF68
:100EF500AD1212114C051780CFE50D2511F5112204
:100F0500C3E511950D7480F898403B751701E50D03
:100F15002401FFE433FEC3E5179FEE6480F8748077
:100F250098501CE5112510C39517FFAD1212110F2E
:100F3500C3E5119517FFAD1212114C051780CFC3EC
:060F4500E511950DF51108
:010F4B002283
:1010CD009005AEE493F50EA3E493F50FA3E493F529
:1010DD0008A3E493F509A2049200A2059201AD0FB5
:1010ED00AF0E12114CE50F14FDAF0E12114CE50EA3
:1010FD0004FFAD0F12114CE50E04FFE50F14FD02B8
:02110D00114C83
:10124300AD0FAF0E12110FE50E04FFAD0F12110F0C
:10125300E50F14FDAF0E12110FE50E04FFE50F1499
:04126300FD02110F68
:100ADB0030015DE50F24FEFDAF0E12102F4016E521
:100AEB000E04FFE50F24FEFD12102F4008E50F1436
:100AFB006003020BA3E50F146032E50F24FEFDAF7C
:100B0B000E12110FE50E04FFE50F24FEFD12110F5F
:100B1B00E50F24FE6016E50F24FDFDAF0E12110F3D
:100B2B00E50E04FFE50F24FDFD12110FB2018068E5
:100B3B00E50F04FDAF0E12102F400DE50E04FFE57F
:100B4B000F04FD12102F5050E50F643F6047E50F67
:100B5B002401FFE433FEEF65127001EE602CE50F0C
:100B6B0004FDAF0E12110FE50E04FFE50F04FD128D
:100B7B00110FE50F2402FDAF0E12110FE50E04FF4E
:100B8B00E50F2402FD12110F8007850D08A20392B9
:100B9B0000B2018003E4F50CE50C64016003020D67
:100BAB00D630005BE50E2402FFAD0F12102F401F55
:100BBB00E50E2402FFE50F14FD12102F4011E50E78
:100BCB002401FFE433FEEF647F4E6003020C59E512
:100BDB000E2402FFAD0F12110FE50E2402FFE50FDD
:100BEB0014FD12110FE50E2403FFAD0F12110FE5CB
:100BFB000E2403FFE50F14FD12110FB200804FE519
:100C0B000E14FFAD0F12102F4011E50E14FFE50F60
:100C1B0014FD12102F4004E50E7033E50E602D14F9
:100C2B00FFAD0F12110FE50E14FFE50F14FD12119E
:100C3B000FE50E146016E50E24FEFFAD0F12110F1B
:100C4B00E50E24FEFFE50F14FD12110FB200C209D1
:100C5B00300162751701E5092401FFE433FEC3E59A
:100C6B00179FEE6480F8748098503CE50F14C39581
:100C7B0017FD700BD209C3E50F9517F50F8028AF41
:100C8B000E12102F400FE50E04FFE50F149517FD04
:100C9B0012102F500ED209E51714FFC3E50F9FF565
:100CAB000F8004051780AFA209B35055C3E50F950C
:100CBB0009F50F804C751701E5092401FFE433FE9C
:100CCB00C3E5179FEE6480F87480985029E50F25D3
:100CDB0017FDAF0E12102F400EE50E04FFE50F258A
:100CEB0017FD12102F500BD209E51714250FF50F16
:100CFB008004051780C2A209B35006E509250FF53C
:100D0B000FC20A30006C751701E5092401FFE433AB
:100D1B00FEC3E5179FEE6480F87480985048E50E8B
:100D2B002401FFE433FE7C00EF2517FFEC3EFEEFC2
:100D3B00647F4E7006D20AE5178021E50E04251755
:100D4B00FFAD0F12102F400FE50E042517FFE50F17
:100D5B0014FD12102F500BD20AE51714250EF50EA9
:100D6B008004051780A3A20AB35060E508250EF591
:100D7B000E22751701E5092401FFE433FEC3E517C5
:100D8B009FEE6480F87480985035C3E50E9517FF7D
:100D9B007006D20A8F0E8027AD0F12102F400EE572
:100DAB000E9517FFE50F14FD12102F500ED20AE50A
:100DBB001714FFC3E50E9FF50E8004051780B6A22E
:0B0DCB000AB35007C3E50E9508F50EB3
:010DD60022FA
:10121900121243120ADBAD0FAF0E12114CE50F1477
:10122900FDAF0E12114CE50E04FFAD0F12114CE586
:0A1239000E04FFE50F14FD02114C36
:1005B200E50C640160020513E50C640460030207A4
:1005C200C1200705F513D207223006030207B9E559
:1005D20013C39450400302069EE51375F00A84F596
:1005E20014E51375F00A842401FFE433FEC3E51415
:1005F2009FEE6480F87480984003020ADAE4F516EC
:10060200E4F515C208E51475F00FA424052516F5C6
:10061200160515C3944050077F011212DF800D7F2B
:10062200021212DF74C02516F516D208E51544B879
:10063200FF12120CE5164440FF12120C3008067429
:10064200402516F516E51475F00FA42405FFC3E541
:10065200169FF5161515FF75F00CE515A42FF582FA
:10066200E435F0F58375F024E51412132CE58224A9
:10067200CAF582E5833402F583E493FF120006058E
:1006820015E515C3940350030206050516E516C3C6
:10069200940C500302060205140205E3E513D394F9
:1006A2005050030207ACE513947840030207ACE410
:1006B200FF1212DF751504C374909513F516E51633
:1006C200C394405019E51544B8FF12120CE51644C4
:1006D20040FF12120CE4FF120006051680E0051519
:1006E200E515C3940640D0E4F514E4F516E4F515D7
:1006F200C208C374CF9513FFE51475F007A42F2524
:1007020016F51674042515F515E516C39440500721
:100712007F011212DF800D7F021212DF74C02516D4
:10072200F516D208E516C39440505AE51544B8FFB1
:1007320012120CE5164440FF12120C3008067440E7
:100742002516F516C374CF9513FFE51475F007A4AB
:100752002FFFC3E5169FF51674FC2515F51575F0E8
:1007620006A42516F582E435F0F58375F00CE51440
:1007720012132CE58224EAF582E5833403F583E43F
:1007820093FF1200060515E515C3940250030206F5
:10079200F20516E516C3940650030206EF0514E5AA
:1007A20014C3940550030206EC22E513D394785047
:1007B20003020ADAD20622750C05C206C20722E536
:1007C2000C640560030208F1200705D207F5132225
:1007D200D2B420B40C12126712107E750C03C20739
:1007E20022E513D394144004E4F51322E513D394C1
:1007F2000A4039E51394145033E4FF1212DF7515E1
:1008020006E4F516E51544B8FF12120CE51644404D
:10081200FF12120CE4FF1200060516E516C39440FF
:1008220040E20515E515C3940840D622E513C394AA
:100832001E4003020ADAE4F514E4F516E4F515C2E3
:1008420008E51475F007A424142516F51674062578
:1008520015F515E516C3944050077F011212DF808B
:100862000D7F021212DF74C02516F516D208E516A6
:10087200C394405055E51544B8FF12120CE51644D6
:1008820040FF12120C30080674402516F516E514C6
:1008920075F007A42414FFC3E5169FF51674FA2514
:1008A20015F51575F006A42516F582E435F0F583E5
:1008B20075F00CE51412132CE5822426F582E583EB
:1008C2003404F583E493FF1200060515E515C3947D
:1008D2000250030208410516E516C39406500302AE
:1008E200083E0514E514C3940B500302083B22E5AD
:1008F2000C6403701B200602F513750B1EE513C36F
:10090200950B5009300603020ADA020A0C020A1495
:10091200120FD8E50CB40106120EB5021219E50C3D
:100922006003020A23E50A60030209F4200602F5C5
:1009320013750B1EE513C3950B5009300603020A0B
:10094200DA020A0C121267E4F514E4F516E4F5155E
:10095200C208E51475F014A4241E2516F516051513
:10096200C3944050077F011212DF800D7F021212E2
:10097200DF74C02516F516D208E51544B8FF121229
:100982000CE5164440FF12120C300806744025167E
:10099200F516E51475F014A4241EFFC3E5169FF5A1
:1009A200161515FF75F00CE515A42FF582E435F048
:1009B200F58375F024E51412132CE58224AEF5823A
:1009C200E5833400F583E493FF1200060515E5156F
:1009D200C3940350030209520516E516C3940C5042
:1009E2000302094F0514E514C39404500302094C91
:1009F20080FE200605E4F513150A750B1EE513C3E8
:100A0200950B500E300603020ADAAF0A120DD7D246
:100A120006221211881210CD1211BB750C01C206EA
:100A220022E50C64026003020ADA121267E4F5148A
:100A3200E4F516E4F515C208E51475F014A4241EB5
:100A42002516F5160515C3944050077F011212DFD3
:100A5200800D7F021212DF74C02516F516D208E54A
:100A62001544B8FF12120CE5164440FF12120C3066
:100A7200080674402516F516E51475F014A4241E14
:100A8200FFC3E5169FF5161515FF75F00CE515A4C5
:100A92002FF582E435F0F58375F024E51412132C5A
:100AA200E582241EF582E5833400F583E493FF1288
:100AB20000060515E515C394035003020A3805160E
:100AC200E516C3940C5003020A350514E514C394C9
:080AD200045003020A3280FE09
:010ADA0022F9
:06135D0012130C021267DE
:03000000020F4CA0
:0C0F4C00787FE4F6D8FD758121020F9338
:0C132C00A42582F582E5F03583F58322CC
:100F58000212F7E493A3F8E493A34003F68001F2A6
:100F680008DFF48029E493A3F85407240CC8C3339A
:100F7800C4540F4420C8834004F456800146F6DF69
:100F8800E4800B01020408102040809012C5E47E22
:100F9800019360BCA3FF543F30E509541FFEE4935E
:100FA800A360010ECF54C025E060A840B8E493A325
:100FB800FAE493A3F8E493A3C8C582C8CAC583CA50
:100FC800F0A3C8C582C8CAC583CADFE9DEE780BE08
:0112DE00000F
:00000001FF
