:08333900C2A1C2A08E80D2A047
:02334100002268
:1032C300EF7005C2A4C2A322BF0105C2A4D2A322E8
:0832D300BF0204D2A4C2A32231
:10328C00D2A1C2A2C2A0D2A0E58030E70CC2A0AFEE
:0B329C002B052BEFD3940A40EDC2A0DD
:0132A7002204
:1031D100EEC41313540304FF1232C3EE543FFCED4B
:0E31E100131313541FFBED5407FDEB44B8FF0E
:0D31EF00AE0712328CC2A2123339C2A022E8
:0D000600AE0712328CD2A2123339C2A022F2
:1032F1007F3F1231EF7FC01231EF7FB81231EF7F84
:04330100400231EF66
:10324A00E4FF1232C37DB8AF051231EF7F4012316D
:10325A00EFE4FCE4FF1200060CBC40F70DBDC0E72A
:01326A002241
:10326B0012328CD2A2D2A17580FFD2A0AF80C2A0A5
:10327B0012328CD2A2D2A17580FFD2A0AF80C2A095
:01328B002220
:02313400AE07E4
:10313600EEC394805033EDC39440502D1231D1EC40
:103146004440FF1231EF12326BAA07AF057401A893
:1031560007088002C333D8FC42021231EBEC44402C
:09316600FF1231EFAF0212000666
:01316F00223D
:0230F700AE0722
:1030F900EEC394805034EDC39440502E1231D1EC7C
:103109004440FF1231EF12326BAA07AF057401A8D0
:1031190007088002C333D8FCF452021231EBEC44A5
:0A31290040FF1231EFAF0212000662
:013133002279
:02306600AE07B3
:10306800EEC394805042EDC39440503CEEC4131319
:10307800540304FF1232C3EE543FFCED13131354F0
:103088001FFFED5407FDEF44B8FF1231EFEC444049
:10309800FF1231EF12326BAE05EFA806088002C3AB
:0C30A80013D8FC13920D8002D20DA20D73
:0130B40022F9
:0331A300011E000A
:0C331500438910758D63758BC0D28E2229
:0C332100438902758A89758C89C28C2250
:05001600D288D28A220D
:09334300D2AFD2ABD2A8D2AA226B
:103305001233151233211200161233437590FF2222
:1032A800123305123363E51EC3940340F920B703B4
:0B32B8001232DB1213B6E4F51E80EBAF
:03001B0002334C61
:09334C00051E758D63758BC032FE
:0300030002335570
:0733550030B70375190032C7
:0300130002335C59
:07335C0030B70375190132BF
:1020FE0004FCFC040000000004FCFC040003FF8050
:10210E0000FCFC0080FF03000000033F3C03033C87
:10211E003F030000000000040404FCFC040404005F
:10212E00000000000000FFFF000000000000002083
:10213E0020203F3F2020200004FCFCE00000000493
:10214E00FCFC040000FFFF01071C70C0FFFF000035
:10215E00203F3F20000000030F3F00000000000062
:10216E0000FCFEFC00000000000000000003FF0366
:10217E000000000000000000003079300000000078
:10218E0004FCFC0404040C1870E0800000FFFF0047
:10219E000000000000FFFF00203F3F2020203018ED
:1021AE000E070100000000040404FCFC04040400FB
:1021BE00000000000000FFFF0000000000000020F3
:1021CE0020203F3F2020200004FCFC0404040404D3
:1021DE000C1C7C0000FFFF0808081C7F000000009C
:1021EE00203F3F202020202030383E0000000000FD
:1021FE0000FCFEFC00000000000000000003FF03D6
:10220E0000000000000000000030793000000000E7
:10221E0004FCFC04000000000000000000FFFF00B2
:10222E000000000000000000203F3F202020202062
:10223E0030383E00000000040404FCFC04040400DA
:10224E00000000000000FFFF000000000000002062
:10225E0020203F3F2020200004FCFC040404040442
:10226E000C1C7C0000FFFF0808081C7F000000000B
:10227E00203F3F20000000000000000004FCFC0492
:10228E00040404040C1C7C0000FFFF0808081C7FDB
:10229E0000000000203F3F202020202030383E004C
:1022AE0000000000000000000000000000C3C3C3D7
:1022BE00C3C3C3C3C3C3C3000000000000000000BB
:1022CE000000000004FCFC04000000000000000000
:1022DE0000FFFF000000000000000000203F3F2034
:1022EE002020202030383E0004FCFC0404040404AA
:1022FE000C1C7C0000FFFF0808081C7F000000007B
:10230E00203F3F202020202030383E0004FCFC04DB
:10231E0000000004FCFC040000003FFFC000C0FFF2
:10232E003F000000000000031F3C1F0300000000E0
:10233E0004FCFC04040404040C1C7C0000FFFF08D5
:10234E0008081C7F00000000203F3F202020202096
:10235E0030383E0004FCFC040000000000000000C9
:10236E0000FFFF000000000000000000203F3F20A3
:10237E002020202030383E00000000000000000029
:10238E000000000000C3C3C3C3C3C3C3C3C3C300A1
:10239E0000000000000000000000000000C0F03847
:1023AE000C040C38F0C00000FFFF0000000000001D
:1023BE0000FFFF0000030F1C3020301C0F03000035
:1023CE000010101818FCFC000000000000000000B7
:1023DE0000FFFF000000000000002020203F3F20F3
:1023EE002020000060F0F80C0404040C18F0E0004B
:1023FE0000000080C06030180E070100383E3F33E9
:10240E003030303030303C00003078780C04040C22
:10241E0018F8F0000000000008081C1633E1C00098
:10242E000C1E3E3020202030181F0F000000000030
:10243E0080E038FCFC00000080E0380E030000FF56
:10244E00FF000000010101010121213F3F21210177
:10245E0000FCFC0C0C0C0C0C0C0C0000001F0F08EC
:10246E00040202061CF8E0000C1E3E302020203034
:10247E001C0F030004FCFC0404040C18F0E0000024
:10248E0000FFFF0808081C1673E18000203F3F2064
:10249E00202020301C0F030004FCFC0404040C1844
:1024AE00F8E0000000FFFF0838F8CC060701000036
:1024BE00203F3F200000032F3C30200004FCFC0492
:1024CE00040404040C1C7C0000FFFF0808081C7F99
:1024DE0000000000203F3F202020202030383E000A
:1024EE0000000000F00C3CF0000000000000F0FFC7
:1024FE0043404043FFF00000203E3F20000000001C
:10250E00203F3E2004FCFC040080E47C1C040400FC
:10251E0000FFFF781E7FE18000000000203F3F207B
:10252E00000001273E382020E0F0180C0404040CB3
:10253E0018F0E000FFFF00000000000000FFFF00A9
:10254E00070F183020202030180F070004FCFC0461
:10255E0000000004FCFC040000FFFF00000000006F
:10256E00FFFF0000000F1F30202020301F0F000043
:10257E007C1C0C0404FCFC04040C1C7C00000000FD
:10258E0000FFFF000000000000000020203F3F2061
:10259E002000000000FC0202028600000101010082
:1025AE000002FE0200C000010101010100FC020256
:1025BE0002FC00000101010002FE0E7082FE01010C
:1025CE000100010102FE123A028601010101010120
:1025DE000002FE22221C0001010100000008F8107A
:1025EE00080800010101010100F028282830000030
:1025FE00010101010090282828D8000101010100E5
:10260E000090282828D800010101010000000000D8
:10261E000000000000000000008C921214E6000181
:10262E0000010100000602FE020600000101010089
:10263E0000C07A4678C001010100010102FE22228B
:10264E00629C010101000000000602FE020600006D
:10265E0001010100FF8181BFBFBFBFFFFFC3BDBD31
:10266E00BDBDDBFFFFC1BFC3C3BFC1FFFF8181BDC6
:10267E00BDDBE7FFFFFFFFFFFFFFFFFFFFFFFFFFDA
:10268E00FFFFFFFFFFF7EFEFDFDFBF7FFFFFFFFF74
:10269E00FFFFFFFFFFFFFF7F9FE7FBFDFFFFFFFF3A
:1026AE00FFFFFFFFFFFFFFFFFFFFFFFFFFFFFFFF2C
:1026BE00FFFFFFFFFFFFFFFFFFFFFFFFFFFFFFFF1C
:1026CE00FF01FDFD0DEDEDEDEDED6D6D2C2DEDED47
:1026DE00EDEDEDEDEDED2D2C6D6D6DEDEDEDEDED1D
:1026EE000DFDFD01FFFFFFFFFFFFFFFFFFFFFFFFE0
:1026FE00FFFFFFFFFFFFFFFFFFFFFFFFFFFFFFFFDC
:10270E00FF00FFFF80BFBFBFBCBCBEBEB3ADAFB747
:10271E00BBB9B7AFAFB5BBBFBEBEBEBFBFBFBFBFFE
:10272E0080FFFF00FFFFFFFFFFFFFFFFFFFFFFFF29
:10273E00FFFFFFFFFFFFFFFFFFFFFFFFFFFFFFFF9B
:10274E00FFFCFDFDFDFDCDC1F1FDFDFDFDFDFDFD22
:10275E00FDFDFDFDFDFDFDFDF1C1CDFDFDFDFDFD13
:10276E00FDFDFDFCFFFFFFFFFFFFFFFFFFFFFFFF74
:10277E00FFFFFFFFFFFFFFFFFFFFFFFFFFFFFFFF5B
:10278E00FFFFFFFFFFFFFFFFFFFFFFFFFFFFFF7FCB
:10279E00BFBF7FFFFFFFFFFFFFFFFFFFFFFFFFFF3B
:1027AE00FFFFFFFFFFFFFF7FBFBF7FFFFFFFFFFFAB
:1027BE00FFFFFFFFFFFFFFFFFFFFFFFFFFFFFFFF1B
:1027CE00FFFFFFFFFF0703010101010307010603DE
:1027DE00010101010307FFFFFFFFFFFFFF070301D9
:1027EE000101010307010603010171F9FFFFFFFF5C
:1027FE00FFFFFFFFFFFFFFFFFFFFFFFFFFFFFFFFDB
:10280E00FFFFFFFFFFF0E0C080808080808080802F
:10281E00808080C0E0F0FFFFFFFFFFFFFFF0E0C011
:10282E008080808080808080808080C0E0F0FFFF8C
:10283E00FFFFFFFFFFFFFFFFFFFFFFFFFFFFFFFF9A
:10284E00FFFFFFFFFFFFFFFFFFFFFFFFFFFFFFFF8A
:10285E00FFFFFFFFFFFFFFFFFFFFFFFFFFFFFFFF7A
:10286E00FFFFFFFFFFFFFFFFFFFFFFFFFFFFFFFF6A
:10287E00FFFFFFFFFFFFFFFFFFFFFFFFFFFFFFFF5A
:10288E00FFFFFFFFFFFFFFFFFFFFFFFFFFFF7F7F4A
:10289E007F7F7F7F7F7F7F7F7F7F7F7F7FFFFFFFBA
:1028AE00FFFFFFFFFFFFFFFFFFFFFFFFFFFFFFFF2A
:1028BE00FFFFFFFFFFFFFFFFFFFFFFFFFFFFFFFF1A
:1028CE00FFFFBF1F4FE7F3FBF9FDFDFCFEBE1E0F22
:1028DE000703010140E0F0E0410103070E1EBEFCBC
:1028EE00FDFDF9FBF3E74F1FBFFFFFFFFFFFFFFFEC
:1028FE00FFFFFFFFFFFFFFFFFFFFFFFFFFFFFFFFDA
:10290E00FFFFFFFFFEFCF9FBF3F7F7E7EFEFCFDE7C
:10291E00DCD8D0D0C0C0C1C0D0D0D8DCCEEFEFE76D
:10292E00F7F7F3FBF9FCFEFFFFFFFFFFFFFFFFFFD3
:10293E00FFFFFFFFFFFFFFFFFFFFFFFFFFFFFFFF99
:10294E00FFFFFFFFFFFFFFFFFFFFFFFFFFFFFFFF89
:10295E00FFFFFFFFFFFFFFFFFFFFFFFFFFFFFFFF79
:10296E00FFFFFFFFFFFFFFFFFFFFFFFFFFFFFFFF69
:0B297E00FFFFFFFF003F01073E0001CC
:1031A600011004010E05011D00010F00C106C10733
:1031B600010A01C103011600C100010D00010B0047
:0A31C600010C00011300C104C10553
:10298900300013E50DC394FF5004050D8008C20003
:10299900E4F50D75100BE5166003022BB7C374FF40
:1029A900958A24EC7003022B3B24E27003022A432C
:1029B90024CE7003022ABF24636003022C2A7516F1
:1029C90001858A26C374FF9526F52575F0058424AB
:1029D90021F52685250BF50C131313541FF526E451
:1029E900F527E5252527FFE433FEC3EF9440EE6480
:1029F90080948050097F011232C3C20A800D74C0CD
:102A09002525F5257F021232C3D20AE5252527445B
:102A190040FF1231EFE52644B8FF1231EFE5279068
:102A2900266293FF120006300A0674402525F52513
:102A39000527E527C3940840A922751602858A2629
:102A4900C374FF9526F52575F005842421F526859F
:102A5900250BF50C131313541FF526E4F527E5256B
:102A69002527FFE433FEC3EF9440EE648094805041
:102A7900097F011232C3C20A800D74C02525F525CC
:102A89007F021232C3D20AE52525274440FF1231BD
:102A9900EFE52644B8FF1231EFE52790266A93FF48
:102AA900120006300A0674402525F5250527E52775
:102AB900C3940840A922751603858A26C374FF9515
:102AC90026F52575F005842421F52685250BF50CB9
:102AD900131313541FF526E4F527E5252527FFE4ED
:102AE90033FEC3EF9440EE6480948050097F011255
:102AF90032C3C20A800D74C02525F5257F02123222
:102B0900C3D20AE52525274440FF1231EFE52644C3
:102B1900B8FF1231EFE52790267293FF12000630B5
:102B29000A0674402525F5250527E527C39408409D
:102B3900A922751604858A26C374FF9526F525757D
:102B4900F005842421F52685250BF50C1313135460
:102B59001FF526E4F527E5252527FFE433FEC3EF16
:102B69009440EE6480948050097F011232C3C20AF6
:102B7900800D74C02525F5257F021232C3D20AE5DE
:102B89002525274440FF1231EFE52644B8FF1231CD
:102B9900EFE52790267A93FF120006300A06744063
:102BA9002525F5250527E527C3940840A922E5131E
:102BB900D39464406A850B25850C26E526131313E7
:102BC900541FF526E4F527E5252527FFE433FEC341
:102BD900EF9440EE6480948050097F011232C3C2A1
:102BE9000A800D74C02525F5257F021232C3D20A49
:102BF900E52525274440FF1231EFE52644B8FF12A9
:102C090031EFE4FF120006300A0674402525F52548
:102C19000527E527C3940840AEE4F513F516220508
:012C29001397
:012C2A002287
:10317000E4FF1232C3752904E4F52AE52944B8FFB7
:103180001231EFE52A4440FF1231EFE4FF1200064E
:10319000052AE52AC3944040E20529E529C394089D
:0231A00040D617
:0131A200220A
:022C2B008F25F3
:102C2D00123170E4F528E4F527E4F526C20AE5280B
:102C3D0075F00FA424142527F52774042526F526F1
:102C4D00E527C3944050077F011232C3800D7F02E8
:102C5D001232C374C02527F527D20AE52644B8FFE2
:102C6D001231EFE5274440FF1231EF300A06744070
:102C7D002527F527E52875F00FA42414FFC3E527B4
:102C8D009FF52774FC2526F526E528C3940575F0D8
:102C9D000CE526501EA42527F582E435F0F5837545
:102CAD00F024E52812332DE582241EF582E58334C8
:102CBD0022801CA42527F582E435F0F58375F024D8
:102CCD00E52512332DE58224AAF582E5833423F51B
:102CDD0083E493FF1200060526E526C394035003F3
:102CED00022C390527E527C3940C5003022C360519
:0B2CFD0028E528C394065003022C3386
:012D080022A8
:022D09008F2514
:102D0B00123170E4F528E4F527E4F526C20AE5282C
:102D1B0075F00FA424142527F52774042526F52612
:102D2B00E527C3944050077F011232C3800D7F0209
:102D3B001232C374C02527F527D20AE52644B8FF03
:102D4B001231EFE5274440FF1231EF300A06744091
:102D5B002527F527E52875F00FA42414FFC3E527D5
:102D6B009FF52774FC2526F526E528C3940675F0F8
:102D7B000CE526501EA42527F582E435F0F5837566
:102D8B00F024E52812332DE58224D2F582E5833435
:102D9B0022801CA42527F582E435F0F58375F024F9
:102DAB00E52512332DE58224AAF582E5833423F53C
:102DBB0083E493FF1200060526E526C39403500314
:102DCB00022D170527E527C3940C5003022D14057C
:0B2DDB0028E528C394075003022D11C7
:012DE60022CA
:102E9B00E4FF1232C3E4F525E4F526E52544B8FF3B
:102EAB001231EFE5264440FF1231EFE50A24FE60B4
:102EBB000714601F2402803675F040E525A42526F3
:102ECB00F582E435F0F583E5822482F582E58334DF
:102EDB0027803475F040E525A42526F582E435F0EE
:102EEB00F583E5822482F582E5833428801975F019
:102EFB0040E525A42526F582E435F0F583E582240B
:102F0B0082F582E5833426F583E493FF12000605F0
:102F1B0026E526C3944040830525E525C39404503C
:042F2B0003022EA3CC
:012F2F00227F
:102FBC00851028751002752501AF251232C3E4F572
:102FCC0026E4F527E52644B8FF1231EFE527444007
:102FDC00FF1231EF12326BEF600585281080090566
:102FEC0027E527C3944040DCE510652860090526D9
:102FFC00E526C3940440CAE510652860090525E55B
:06300C0025C3940340B34C
:01301200229B
:1032DB0020B203E4F51920B30375190130B206309F
:0632EB00B3037519022275
:10301300E50A24FE600714600C24028010751C026C
:10302300751114800E751C0375110C8006751C0137
:10303300751118902982E493F51AA3E493F51B857F
:103043001C12851117A3E493F519E4F525E525C3AF
:103053009517500EE51A2525FFAD1B1231340525B2
:0230630080EB00
:013065002248
:102DE700E51964017063C374809517C39512FFE5F5
:102DF7001AD39F4003022E9AE5172512FFE433FEEC
:102E0700D3EF9480EE648094804003022E9A752558
:102E170001E5122401FFE433FEC3E5259FEE64803C
:102E2700F8748098501CE51A252514FFAD1B123045
:102E3700F7E51A2517142525FFAD1B123134052593
:102E470080CFE512251AF51A22E5197046C3E51A4F
:102E570095127480F898403B752501E5122401FF0F
:102E6700E433FEC3E5259FEE6480F8748098501C18
:102E7700E51A2517C39525FFAD1B1230F7C3E51AD1
:102E87009525FFAD1B123134052580CFC3E51A9573
:032E970012F51A17
:012E9A002215
:1030B500902985E493F514A3E493F515A3E493F51A
:1030C50008A3E493F509A2049201A2059202AD15A5
:1030D500AF14123134E51514FDAF14123134E51473
:1030E50004FFAD15123134E51404FFE51514FD0296
:0230F500313474
:10322600AD15AF141230F7E51404FFAD151230F7E3
:10323600E51514FDAF141230F7E51404FFE5151477
:04324600FD0230F75E
:10001E00E4F59020020302042BE51524FEFDAF1437
:10002E001230664016E51404FFE51524FEFD12306D
:10003E00664008E51514600302081EE515D39422E8
:10004E005003020102E515943E4003020102E5143D
:10005E00C3947E4003020102E51494005003020192
:10006E0002E50C131313541FF50CE4F525E50B25CF
:10007E0025FFE433FEC3EF9440EE64809480500974
:10008E007F011232C3C20C800D74C0250BF50B7F9D
:10009E00021232C3D20CE50B25254440FF1231EF7C
:1000AE00E50C44B8FF1231EFE4FF120006300C06E7
:1000BE007440250BF50B0525E525C3940840AEE5E8
:1000CE000C75F008A4F50CE4F513E51624FE601289
:1000DE0014601514601824037017D20075100702EF
:1000EE000502751008020502751009020502751049
:1000FE000A020502759004D203E51514700302047A
:10010E0026E51524FEFDAF141230F7E51404FFE5C5
:10011E001524FEFD1230F7E51414FFE51524FEFD3F
:10012E001230F7E51424FEFFE51524FEFD1230F71C
:10013E00E51424FDFFE51524FEFD1230F7E5142429
:10014E00FCFFE51524FEFD1230F7E51424FBFFE558
:10015E001524FEFD1230F7E5142402FFE51524FEEA
:10016E00FD1230F7E5142403FFE51524FEFD1230D1
:10017E00F7E5142404FFE51524FEFD1230F7E5140F
:10018E002405FFE51524FEFD1230F7E5142406FFC5
:10019E00E51524FEFD1230F7E51524FE700302046A
:1001AE0026E51524FDFDAF141230F7E51404FFE526
:1001BE001524FDFD1230F7E51414FFE51524FDFDA1
:1001CE001230F7E51424FEFFE51524FDFD1230F77D
:1001DE00E51424FDFFE51524FDFD1230F7E514248A
:1001EE00FCFFE51524FDFD1230F7E51424FBFFE5B9
:1001FE001524FDFD1230F7E5142402FFE51524FD4C
:10020E00FD1230F7E5142403FFE51524FDFD123031
:10021E00F7E5142404FFE51524FDFD1230F7E5146F
:10022E002405FFE51524FDFD1230F7E5142406FF25
:10023E00E51524FDFD1230F7E51524FD70030204CB
:10024E0026E51524FCFDAF141230F7E51404FFE586
:10025E001524FCFD1230F7E51414FFE51524FCFD02
:10026E001230F7E51424FEFFE51524FCFD1230F7DD
:10027E00E51424FDFFE51524FCFD1230F7E51424EA
:10028E00FCFFE51524FCFD1230F7E51424FBFFE519
:10029E001524FCFD1230F7E5142402FFE51524FCAD
:1002AE00FD1230F7E5142403FFE51524FCFD123092
:1002BE00F7E5142404FFE51524FCFD1230F7E514D0
:1002CE002405FFE51524FCFD1230F7E5142406FF86
:1002DE00E51524FCFD1230F7E51524FC700302042D
:1002EE0026E51524FBFDAF141230F7E51404FFE5E7
:1002FE001524FBFD1230F7E51414FFE51524FBFD64
:10030E001230F7E51424FEFFE51524FBFD1230F73D
:10031E00E51424FDFFE51524FBFD1230F7E514244A
:10032E00FCFFE51524FBFD1230F7E51424FBFFE579
:10033E001524FBFD1230F7E5142402FFE51524FB0E
:10034E00FD1230F7E5142403FFE51524FBFD1230F2
:10035E00F7E5142404FFE51524FBFD1230F7E51430
:10036E002405FFE51524FBFD1230F7E5142406FFE6
:10037E00E51524FBFD1230F7E51524FB700302048E
:10038E0026E51524FAFDAF141230F7E51404FFE547
:10039E001524FAFD1230F7E51414FFE51524FAFDC5
:1003AE001230F7E51424FEFFE51524FAFD1230F79E
:1003BE00E51424FDFFE51524FAFD1230F7E51424AB
:1003CE00FCFFE51524FAFD1230F7E51424FBFFE5DA
:1003DE001524FAFD1230F7E5142402FFE51524FA70
:1003EE00FD1230F7E5142403FFE51524FAFD123053
:1003FE00F7E5142404FFE51524FAFD1230F7E51491
:10040E002405FFE51524FAFD1230F7E5142406FF46
:10041E00E51524FAFD1230F7B20202081EE51504A6
:10042E00FDAF141230664010E51404FFE51504FD0F
:10043E00123066400302081EE515643F7003020881
:10044E001BE515D394225003020508E515943E4092
:10045E0003020508E514C3947E4003020508E51463
:10046E0094005003020508E50C131313541FF50CEA
:10047E00E4F525E50B2525FFE433FEC3EF9440EEAE
:10048E006480948050097F011232C3C20C800D74B7
:10049E00C0250BF50B7F021232C3D20CE50B2525BE
:1004AE004440FF1231EFE50C44B8FF1231EFE4FF88
:1004BE00120006300C067440250BF50B0525E525BC
:1004CE00C3940840AEE50C75F008A4F50CE4F513E2
:1004DE00E51624FE601114601314601524037014C5
:1004EE00D200751007800D751008800875100980F0
:1004FE000375100AE4F51602081E759004D203E582
:10050E00152401FFE433FEEF651B7001EE7003024C
:10051E000809E51504FDAF141230F7E51404FFE5E4
:10052E001504FD1230F7E51414FFE51504FD123025
:10053E00F7E51424FEFFE51504FD1230F7E514244B
:10054E00FDFFE51504FD1230F7E51424FCFFE5155B
:10055E0004FD1230F7E51424FBFFE51504FD1230FF
:10056E00F7E5142402FFE51504FD1230F7E5142417
:10057E0003FFE51504FD1230F7E5142404FFE5151D
:10058E0004FD1230F7E5142405FFE51504FD1230C5
:10059E00F7E5142406FFE51504FD1230F7E51524E2
:1005AE0002FDAF141230F7E51404FFE5152402FD29
:1005BE001230F7E51414FFE5152402FD1230F7E5AD
:1005CE001424FEFFE5152402FD1230F7E51424FD78
:1005DE00FFE5152402FD1230F7E51424FCFFE515A6
:1005EE002402FD1230F7E51424FBFFE5152402FD6D
:1005FE001230F7E5142402FFE5152402FD1230F740
:10060E00E5142403FFE5152402FD1230F7E514244A
:10061E0004FFE5152402FD1230F7E5142405FFE56D
:10062E00152402FD1230F7E5142406FFE515240209
:10063E00FD1230F7E5152403FDAF141230F7E51463
:10064E0004FFE5152403FD1230F7E51414FFE5153C
:10065E002403FD1230F7E51424FEFFE5152403FDF7
:10066E001230F7E51424FDFFE5152403FD1230F7D3
:10067E00E51424FCFFE5152403FD1230F7E51424E0
:10068E00FBFFE5152403FD1230F7E5142402FFE508
:10069E00152403FD1230F7E5142403FFE51524039A
:1006AE00FD1230F7E5142404FFE5152403FD123086
:1006BE00F7E5142405FFE5152403FD1230F7E514C4
:1006CE002406FFE5152403FD1230F7E5152404FD7D
:1006DE00AF141230F7E51404FFE5152404FD1230B3
:1006EE00F7E51414FFE5152404FD1230F7E5142484
:1006FE00FEFFE5152404FD1230F7E51424FDFFE599
:10070E00152404FD1230F7E51424FCFFE51524042E
:10071E00FD1230F7E51424FBFFE5152404FD12301D
:10072E00F7E5142402FFE5152404FD1230F7E51455
:10073E002403FFE5152404FD1230F7E5142404FF0D
:10074E00E5152404FD1230F7E5142405FFE5152404
:10075E0004FD1230F7E5142406FFE5152404FD12FE
:10076E0030F7E5152405FDAF141230F7E51404FF3C
:10077E00E5152405FD1230F7E51414FFE5152405E3
:10078E00FD1230F7E51424FEFFE5152405FD1230A9
:10079E00F7E51424FDFFE5152405FD1230F7E514E9
:1007AE0024FCFFE5152405FD1230F7E51424FBFFAC
:1007BE00E5152405FD1230F7E5142402FFE5152496
:1007CE0005FD1230F7E5142403FFE5152405FD128F
:1007DE0030F7E5142404FFE5152405FD1230F7E586
:1007EE00142405FFE5152405FD1230F7E514240643
:1007FE00FFE5152405FD1230F7800E759005D20326
:10080E00851208E51924FF9201B2028003E4F51067
:10081E00E510640160030213B5200103020CB6E576
:10082E00142402FFAD15123066401FE5142402FF9A
:10083E00E51514FD1230664011E5142401FFE43372
:10084E00FEEF647F4E6003021238E515D3942250FA
:10085E0003020911E515943E4003020911E514C384
:10086E00947E4003020911E514940050030209110D
:10087E00E50C131313541FF50CE4F525E50B252594
:10088E00FFE433FEC3EF9440EE6480948050097F02
:10089E00011232C3C20C800D74C0250BF50B7F0202
:1008AE001232C3D20CE50B25254440FF1231EFE581
:1008BE000C44B8FF1231EFE4FF120006300C067440
:1008CE0040250BF50B0525E525C3940840AEE50C38
:1008DE0075F008A4F50CE4F513E51624FE60121469
:1008EE00601514601824037017D200751007020DDE
:1008FE0088751008020D88751009020D8875100A8A
:10090E00020D88759004D203E5142402FFAD151272
:10091E0030F7E5142402FFE51514FD1230F7E51447
:10092E002403FFAD151230F7E5142403FFE515146B
:10093E00FD1230F7E5142404FFAD151230F7E5145F
:10094E002404FFE51514FD1230F7E5142405FFAD60
:10095E00151230F7E5142405FFE51514FD1230F7D6
:10096E00E5142406FFAD151230F7E5142406FFE555
:10097E001514FD1230F7E5142407FFAD151230F7EC
:10098E00E5142407FFE51514FD1230F7E5142408CD
:10099E00FFAD151230F7E5142408FFE51514FD120E
:1009AE0030F7E5142409FFAD151230F7E5142409CC
:1009BE00FFE51514FD1230F7E514240AFFAD1512EC
:1009CE0030F7E514240AFFE51514FD1230F7E5148F
:1009DE00240BFFAD151230F7E514240BFFE51514AB
:1009EE00FD1230F7E514240CFFAD151230F7E514A7
:1009FE00240CFFE51514FD1230F7E514240DFFADA0
:100A0E00151230F7E514240DFFE51514FD1230F71D
:100A1E00E515147003020CB1E5142402FFE515244C
:100A2E00FEFD1230F7E5142403FFE51524FEFD123A
:100A3E0030F7E5142404FFE51524FEFD1230F7E52A
:100A4E00142405FFE51524FEFD1230F7E5142406E7
:100A5E00FFE51524FEFD1230F7E5142407FFE5151A
:100A6E0024FEFD1230F7E5142408FFE51524FEFDE3
:100A7E001230F7E5142409FFE51524FEFD1230F7B8
:100A8E00E514240AFFE51524FEFD1230F7E51424C3
:100A9E000BFFE51524FEFD1230F7E514240CFFE5DF
:100AAE001524FEFD1230F7E514240DFFE51524FE86
:100ABE00FD1230F7E51524FE7003020CB1E5142487
:100ACE0002FFE51524FDFD1230F7E5142403FFE5C2
:100ADE001524FDFD1230F7E5142404FFE51524FD61
:100AEE00FD1230F7E5142405FFE51524FDFD123047
:100AFE00F7E5142406FFE51524FDFD1230F7E51485
:100B0E002407FFE51524FDFD1230F7E5142408FF38
:100B1E00E51524FDFD1230F7E5142409FFE5152433
:100B2E00FDFD1230F7E514240AFFE51524FDFD1234
:100B3E0030F7E514240BFFE51524FDFD1230F7E523
:100B4E0014240CFFE51524FDFD1230F7E514240DD9
:100B5E00FFE51524FDFD1230F7E51524FD700302A7
:100B6E000CB1E5142402FFE51524FCFD1230F7E567
:100B7E00142403FFE51524FCFD1230F7E5142404BC
:100B8E00FFE51524FCFD1230F7E5142405FFE515ED
:100B9E0024FCFD1230F7E5142406FFE51524FCFDB8
:100BAE001230F7E5142407FFE51524FCFD1230F78B
:100BBE00E5142408FFE51524FCFD1230F7E5142496
:100BCE0009FFE51524FCFD1230F7E514240AFFE5B4
:100BDE001524FCFD1230F7E514240BFFE51524FC5B
:100BEE00FD1230F7E514240CFFE51524FCFD123040
:100BFE00F7E514240DFFE51524FCFD1230F7E5157D
:100C0E0024FC7003020CB1E5142402FFE51524FB4D
:100C1E00FD1230F7E5142403FFE51524FBFD123019
:100C2E00F7E5142404FFE51524FBFD1230F7E51457
:100C3E002405FFE51524FBFD1230F7E5142406FF0D
:100C4E00E51524FBFD1230F7E5142407FFE5152406
:100C5E00FBFD1230F7E5142408FFE51524FBFD1209
:100C6E0030F7E5142409FFE51524FBFD1230F7E5F6
:100C7E0014240AFFE51524FBFD1230F7E514240BAE
:100C8E00FFE51524FBFD1230F7E514240CFFE515E6
:100C9E0024FBFD1230F7E514240DFFE51524FBFDB2
:100CAE001230F7B201021238E51414FFAD151230EE
:100CBE00664014E51414FFE51514FD123066400766
:100CCE00E5146003021238E515D394225003020D89
:100CDE008EE515943E4003020D8EE514C3947E40BE
:100CEE0003020D8EE51494005003020D8EE50C13D5
:100CFE001313541FF50CE4F525E50B2525FFE433FE
:100D0E00FEC3EF9440EE6480948050097F0112324E
:100D1E00C3C20C800D74C0250BF50B7F021232C3BB
:100D2E00D20CE50B25254440FF1231EFE50C44B8FB
:100D3E00FF1231EFE4FF120006300C067440250B53
:100D4E00F50B0525E525C3940840AEE50C75F008B6
:100D5E00A4F50CE4F513E51624FE601114601314CB
:100D6E00601524037014D200751007800D751008DD
:100D7E008008751009800375100AE4F51602123802
:100D8E00759004D203E514700302123614FFAD15EC
:100D9E001230F7E51414FFE51514FD1230F7E514C3
:100DAE00147003021236E51424FEFFAD151230F74F
:100DBE00E51424FEFFE51514FD1230F7E515146059
:100DCE0046E51424FEFFE51524FEFD1230F7E51569
:100DDE0024FE6033E51424FEFFE51524FDFD1230DC
:100DEE00F7E51524FD6020E51424FEFFE51524FC2F
:100DFE00FD1230F7E51524FC600DE51424FEFFE529
:100E0E001524FBFD1230F7E51424FE700302123692
:100E1E00E51424FDFFAD151230F7E51424FDFFE5B2
:100E2E001514FD1230F7E515146046E51424FDFF88
:100E3E00E51524FEFD1230F7E51524FE6033E514AA
:100E4E0024FDFFE51524FDFD1230F7E51524FD60A8
:100E5E0020E51424FDFFE51524FCFD1230F7E51501
:100E6E0024FC600DE51424FDFFE51524FBFD123076
:100E7E00F7E51424FD7003021236E51424FCFFADD1
:100E8E00151230F7E51424FCFFE51514FD1230F7AA
:100E9E00E515146046E51424FCFFE51524FEFD124D
:100EAE0030F7E51524FE6033E51424FCFFE5152428
:100EBE00FDFD1230F7E51524FD6020E51424FCFF3E
:100ECE00E51524FCFD1230F7E51524FC600DE51444
:100EDE0024FCFFE51524FBFD1230F7E51424FC700D
:100EEE0003021236E51424FBFFAD151230F7E5149C
:100EFE0024FBFFE51514FD1230F7E515146046E5E9
:100F0E001424FBFFE51524FEFD1230F7E51524FE33
:100F1E006033E51424FBFFE51524FDFD1230F7E5E3
:100F2E001524FD6020E51424FBFFE51524FCFD12BD
:100F3E0030F7E51524FC600DE51424FBFFE51524C0
:100F4E00FBFD1230F7E51424FB7003021236E51494
:100F5E0024FAFFAD151230F7E51424FAFFE5151447
:100F6E00FD1230F7E515146046E51424FAFFE51579
:100F7E0024FEFD1230F7E51524FE6033E51424FA45
:100F8E00FFE51524FDFD1230F7E51524FD6020E583
:100F9E001424FAFFE51524FCFD1230F7E51524FCA8
:100FAE00600DE51424FAFFE51524FBFD1230F7E57C
:100FBE001424FA7003021236E51424F9FFAD15124B
:100FCE0030F7E51424F9FFE51514FD1230F7E51599
:100FDE00146046E51424F9FFE51524FEFD1230F7E2
:100FEE00E51524FE6033E51424F9FFE51524FDFD17
:100FFE001230F7E51524FD6020E51424F9FFE51500
:10100E0024FCFD1230F7E51524FC600DE51424F9DF
:10101E00FFE51524FBFD1230F7E51424F9700302E9
:10102E001236E51424F8FFAD151230F7E51424F846
:10103E00FFE51514FD1230F7E515146046E514248E
:10104E00F8FFE51524FEFD1230F7E51524FE60339A
:10105E00E51424F8FFE51524FDFD1230F7E51524FF
:10106E00FD6020E51424F8FFE51524FCFD1230F791
:10107E00E51524FC600DE51424F8FFE51524FBFDB1
:10108E001230F7E51424F87003021236E51424F733
:10109E00FFAD151230F7E51424F7FFE51514FD1218
:1010AE0030F7E515146046E51424F7FFE51524FE28
:1010BE00FD1230F7E51524FE6033E51424F7FFE545
:1010CE001524FDFD1230F7E51524FD6020E51424EE
:1010DE00F7FFE51524FCFD1230F7E51524FC600D35
:1010EE00E51424F7FFE51524FBFD1230F7E5142473
:1010FE00F77003021236E51424F6FFAD151230F721
:10110E00E51424F6FFE51514FD1230F7E51514600D
:10111E0046E51424F6FFE51524FEFD1230F7E5151D
:10112E0024FE6033E51424F6FFE51524FDFD123090
:10113E00F7E51524FD6020E51424F6FFE51524FCE3
:10114E00FD1230F7E51524FC600DE51424F6FFE5DD
:10115E001524FBFD1230F7E51424F6700302123647
:10116E00E51424F5FFAD151230F7E51424F5FFE56F
:10117E001514FD1230F7E515146046E51424F5FF3D
:10118E00E51524FEFD1230F7E51524FE6033E51457
:10119E0024F5FFE51524FDFD1230F7E51524FD605D
:1011AE0020E51424F5FFE51524FCFD1230F7E515B6
:1011BE0024FC600DE51424F5FFE51524FBFD12302B
:1011CE00F7E51424F56061E51424F4FFAD15123033
:1011DE00F7E51424F4FFE51514FD1230F7E51514A8
:1011EE006046E51424F4FFE51524FEFD1230F7E504
:1011FE001524FE6033E51424F4FFE51524FDFD12DD
:10120E0030F7E51524FD6020E51424F4FFE51524E0
:10121E00FCFD1230F7E51524FC600DE51424F4FFF7
:10122E00E51524FBFD1230F7B201C20A30026275D9
:10123E002501E5092401FFE433FEC3E5259FEE6495
:10124E0080F8748098503CE51514C39525FD700BFD
:10125E00D20AC3E5159525F5158028AF1412306610
:10126E00400FE51404FFE515149525FD1230665068
:10127E000ED20AE52514FFC3E5159FF5158004056A
:10128E002580AFA20AB35055C3E5159509F5158013
:10129E004C752501E5092401FFE433FEC3E5259FC6
:1012AE00EE6480F87480985029E5152525FDAF145D
:1012BE00123066400EE51404FFE5152525FD1230AB
:1012CE0066500BD20AE525142515F5158004052563
:1012DE0080C2A20AB35006E5092515F515C20B30DA
:1012EE00016C752501E5092401FFE433FEC3E525F4
:1012FE009FEE6480F87480985048E5142401FFE452
:10130E0033FE7C00EF2525FFEC3EFEEF647F4E7032
:10131E0006D20BE5258021E514042525FFAD151217
:10132E003066400FE514042525FFE51514FD123037
:10133E0066500BD20BE525142514F51480040525F3
:10134E0080A3A20BB35060E5082514F51422752571
:10135E0001E5092401FFE433FEC3E5259FEE648019
:10136E00F87480985035C3E5149525FF7006D20B9E
:10137E008F148027AD15123066400EE5149525FFAB
:10138E00E51514FD123066500ED20BE52514FFC381
:10139E00E5149FF5148004052580B6A20BB3500703
:0713AE00C3E5149508F514D6
:0113B5002215
:1031FC0012322612001EAD15AF14123134E515141F
:10320C00FDAF14123134E51404FFAD15123134E561
:0A321C001404FFE51514FD0231341F
:1013B600E51064016002051DE51064046003021572
:1013C600CF759001200705F51DD2072230060302CE
:1013D60015C7E51DC3945040030214ACE51D700308
:1013E60030B6FDE51D75F00A84F522E51D75F00A97
:1013F600842401FFE433FEC3E5229FEE6480F87483
:10140600809840030220FDE4F524E4F523C208E5B4
:101416002275F00FA424052524F5240523C3944042
:1014260050077F011232C3800D7F021232C374C08F
:101436002524F524D208E52344B8FF1231EFE5242C
:101446004440FF1231EF30080674402524F524E5A8
:101456002275F00FA42405FFC3E5249FF524152368
:10146600FF75F00CE523A42FF582E435F0F58375BE
:10147600F024E52212332DE5822482F582E58334B9
:1014860024F583E493FF1200060523E523C39403A2
:1014960050030214130524E524C3940C50030214CC
:1014A6001005220213F1E51DD3945050030215BA1C
:1014B600E51D947840030215BAE4FF1232C3752382
:1014C60004C37490951DF524E524C394405019E592
:1014D6002344B8FF1231EFE5244440FF1231EFE414
:1014E600FF120006052480E00523E523C394064089
:1014F600D0E4F522E4F524E4F523C208C374CF95BD
:101506001DFFE52275F007A42F2524F52474042574
:1015160023F523E524C3944050077F011232C3808C
:101526000D7F021232C374C02524F524D208E524A7
:10153600C39440505AE52344B8FF1231EFE52444E2
:1015460040FF1231EF30080674402524F524C37499
:10155600CF951DFFE52275F007A42FFFC3E5249F55
:10156600F52474FC2523F52375F006A42524F582BD
:10157600E435F0F58375F00CE52212332DE582246F
:10158600A2F582E5833425F583E493FF1200060570
:1015960023E523C3940250030215000524E524C362
:1015A600940650030214FD0522E522C39405500358
:1015B6000214FA22E51DD3947850030220FDD206C8
:1015C60022751005C206C20722E5106405600302F3
:1015D6001731200703021799D2B420B40FE4F5900F
:1015E60012324A122E9B751006C20722E51DD394AD
:1015F600144003021FF7E51DD3940A406BE51D94C2
:101606001450657F011232C3752306752414E52331
:1016160044B8FF1231EFE5244440FF1231EFE4FFF6
:101626001200060524E524C3944040E20523E52381
:10163600C3940840D67F021232C3752306E4F5240C
:10164600E52344B8FF1231EFE5244440FF1231EFA1
:10165600E4FF1200060524E524C3942B40E205238B
:10166600E523C3940840D622E51DC3941E40030219
:1016760020FDE4F522E4F524E4F523C208E522750D
:10168600F007A424142524F52474062523F523E560
:1016960024C3944050077F011232C3800D7F02128B
:1016A60032C374C02524F524D208E524C3944050DF
:1016B60055E52344B8FF1231EFE5244440FF1231CB
:1016C600EF30080674402524F524E52275F007A4BA
:1016D6002414FFC3E5249FF52474FA2523F5237506
:1016E600F006A42524F582E435F0F58375F00CE5C3
:1016F6002212332DE58224DEF582E5833425F58337
:10170600E493FF1200060523E523C3940250030267
:1017160016810524E524C39406500302167E05228D
:10172600E522C3940B500302167B22E51064067073
:1017360030759002200602F51D750F1EE51DC39536
:101746000F5015E51D700330B6FD3006030220FD6F
:10175600AF0A122D09D20622123170751003C20685
:1017660022E51064037020200602F51D750F1EE5A4
:101776001DC3950F50093006030220FD021EE3D259
:101786008CE4F590021EEBE5106407600302185C1A
:10179600200705D207F51D22E51DC39432503FE50B
:1017A6001D75F00A84E5F0701AF522E522C3951737
:1017B60040030220FDE522251AFFAD1B1230F70576
:1017C6002280E8E4F522E522C3951740030220FDB6
:1017D600E522251AFFAD1B123134052280E8E51DEE
:1017E600B4320A751780851A18E4F51A22E51DC366
:1017F6009464503FE51D75F00A84E5F0701AF522F1
:10180600E522C3951740030220FDE522251AFFAD08
:101816001B1230F7052280E8E4F522E522C395176E
:1018260040030220FDE522251AFFAD1B12313405C7
:101836002280E8E4F522E522C39517500EE522251D
:101846001AFFAD1B123134052280EBC20775100159
:10185600E4F50DD20022E5106408600302192F207A
:101866000716C374FF958AC394555006E4F5230200
:101876001A8B752302021A8BE51DC394325073E549
:101886001D75F00A84E5F07034F522E4F524E4FFD2
:101896001232C3E523252244B8FF1231EFE5244472
:1018A60040FF1231EFE4FF1200060524E524C3943D
:1018B6004040DB0522E522C3940240CF22E4F52214
:1018C600E4F524E4FF1232C3E523252244B8FF12CF
:1018D60031EFE5244440FF1231EF7FFF1200060589
:1018E60024E524C3944040DB0522E522C39402404C
:1018F600CF22E4F522E4F524E4FF1232C3E52325E2
:101906002244B8FF1231EFE5244440FF1231EFE4E0
:10191600FF1200060524E524C3944040DB0522E5BA
:1019260022C3940240CF021C8EE5106409600302B4
:101936001A70850B23850C24E524131313541FF505
:1019460024200703021A8BE51DC394324003021AB2
:1019560015E51D75F00A84E5F07059F522E5232595
:1019660022FFE433FEC3EF9440EE64809480500976
:101976007F011232C3C209800D74C02523F5237F6F
:10198600021232C3D209E52325224440FF1231EF69
:10199600E52444B8FF1231EF902662E493FF12006B
:1019A6000630090674402523F5230522E522C39453
:1019B6000840AA22E4F522E5232522FFE433FEC3EC
:1019C600EF9440EE6480948050097F011232C3C2C6
:1019D60009800D74C02523F5237F021232C3D20974
:1019E600E52325224440FF1231EFE52444B8FF12D7
:1019F60031EFE52290267293FF1200063009067435
:101A0600402523F5230522E522C3940840A922E4B4
:101A1600F522E5232522FFE433FEC3EF9440EE646E
:101A260080948050097F011232C3C209800D74C0B0
:101A36002523F5237F021232C3D209E5232522444A
:101A460040FF1231EFE52444B8FF1231EFE4FF12F4
:101A5600000630090674402523F5230522E522C336
:101A6600940840AEC20775100222E510640A6003AE
:101A7600021BB3850B23850C24E524131313541F73
:101A8600F524200705D207021FF7E51DC39432404F
:101A960003021B58E51D75F00A84E5F07059F5221E
:101AA600E5232522FFE433FEC3EF9440EE648094E1
:101AB6008050097F011232C3C209800D74C02523EC
:101AC600F5237F021232C3D209E52325224440FFC3
:101AD6001231EFE52444B8FF1231EF902662E49309
:101AE600FF12000630090674402523F5230522E57A
:101AF60022C3940840AA22E4F522E5232522FFE426
:101B060033FEC3EF9440EE6480948050097F011247
:101B160032C3C209800D74C02523F5237F02123219
:101B2600C3D209E52325224440FF1231EFE52444C0
:101B3600B8FF1231EFE52290267A93FF12000630A5
:101B4600090674402523F5230522E522C39408409F
:101B5600A922E4F522E5232522FFE433FEC3EF9410
:101B660040EE6480948050097F011232C3C209801E
:101B76000D74C02523F5237F021232C3D209E52353
:101B860025224440FF1231EFE52444B8FF1231EF1D
:101B9600E4FF12000630090674402523F5230522CA
:101BA600E522C3940840AEC207E4F51022E51064AE
:101BB6000B6003021C94200707D207F51DC2002202
:101BC600E51DC39432503FE51D75F00A84E5F070BB
:101BD6001AF522E522C3951740030220FDE52225CA
:101BE6001AFFAD1B1230F7052280E8E4F522E52244
:101BF600C3951740030220FDE522251AFFAD1B12EF
:101C06003134052280E8E51DB4321FE4F522E522D1
:101C1600C39517500EE522251AFFAD1B1230F705A6
:101C26002280EB85111785181A22E51DC39464508E
:101C36003FE51D75F00A84E5F0701AF522E522C32A
:101C4600951740030220FDE522251AFFAD1B123031
:101C5600F7052280E8E4F522E522C3951740030242
:101C660020FDE522251AFFAD1B123134052280E83E
:101C7600E4F522E522C39517500EE522251AFFAD9D
:101C86001B123134052280EBC20775100122122F78
:101C9600BCE510B4011430030530B5FDC2037590E0
:101CA60003122989122DE70231FCE5106003021E9A
:101CB600FA759006E50E6003021EC5750A01200638
:101CC60002F51DE51DC3941E5010E51D700330B6C8
:101CD600FD3006030220FD021EE3E51D641E6003BF
:101CE600021D9C12324AE4F516C200F50DF522E4F7
:101CF600F524E4F523C208E52275F014A4241E2574
:101D060024F5240523C3944050077F011232C38073
:101D16000D7F021232C374C02524F524D208E523B0
:101D260044B8FF1231EFE5244440FF1231EF30088A
:101D36000674402524F524E52275F014A4241EFF1C
:101D4600C3E5249FF5241523FF75F00CE523A42F86
:101D5600F582E435F0F58375F024E52212332DE59E
:101D660082248EF582E5833421F583E493FF120005
:101D7600060523E523C394035003021CFB0524E553
:101D860024C3940C5003021CF80522E522C39404D4
:101D96005003021CF522E51DD3941E50030220FDBC
:101DA600D2B420B40C12324A750E05751004C20660
:101DB60022E51DD394324004751D1F22E51DD394E0
:101DC600284039E51D94325033E4FF1232C375239F
:101DD60006E4F524E52344B8FF1231EFE524444038
:101DE600FF1231EFE4FF1200060524E524C39440F8
:101DF60040E20523E523C3940840D622E51DC3949B
:101E06002840030220FDE4F522E4F524E4F523C28C
:101E160008E52275F007A424142524F52474062564
:101E260023F523E524C3944050077F011232C38073
:101E36000D7F021232C374C02524F524D208E5248E
:101E4600C394405055E52344B8FF1231EFE52444CE
:101E560040FF1231EF30080674402524F524E522B0
:101E660075F007A42414FFC3E5249FF52474FA250E
:101E760023F52375F006A42524F582E435F0F583D1
:101E860075F00CE52212332DE58224DEF582E5831A
:101E96003425F583E493FF1200060523E523C39456
:101EA600025003021E150524E524C39406500302BE
:101EB6001E120522E522C3940B5003021E0F222098
:101EC6000605E4F51D150E750F1EE51DC3950F508D
:101ED60014200603E4F51D3006030220FDAF0E12A2
:101EE6002C2BD206221231701230B5123013751017
:101EF60001C20622E510640260030220FD75900708
:101F0600F516C200F50D300603021FCBE51D700362
:101F160030B6FDD206E4F51D12324AE4F522E4F5A8
:101F260024E4F523C208E52275F014A4241E252412
:101F3600F5240523C3944050077F011232C3800D58
:101F46007F021232C374C02524F524D208E5234447
:101F5600B8FF1231EFE5244440FF1231EF30080696
:101F660074402524F524E52275F014A4241EFFC32D
:101F7600E5249FF5241523FF75F00CE523A42FF522
:101F860082E435F0F58375F024E52212332DE582DF
:101F960024FEF582E5833420F583E493FF120006E0
:101FA6000523E523C394035003021F2A0524E524D1
:101FB600C3940C5003021F270522E522C394045044
:101FC60003021F2422D2B420B42012324AE50AC3E7
:101FD6009403500A050A122E9B7510068009750A8D
:101FE60001750E05751004C20622E51DD394144032
:101FF60004E4F51D22E51DD3940A4039E51D941429
:102006005033E4FF1232C3752306E4F524E5234476
:10201600B8FF1231EFE5244440FF1231EFE4FF121E
:1020260000060524E524C3944040E20523E523C3C6
:10203600940840D622E51DC3941E40030220FDE409
:10204600F522E4F524E4F523C208E52275F007A499
:1020560024142524F52474062523F523E524C394A6
:102066004050077F011232C3800D7F021232C374C3
:10207600C02524F524D208E524C394405055E52311
:1020860044B8FF1231EFE5244440FF1231EF300827
:102096000674402524F524E52275F007A42414FFD0
:1020A600C3E5249FF52474FA2523F52375F006A4C9
:1020B6002524F582E435F0F58375F00CE52212331C
:1020C6002DE58224DEF582E5833425F583E493FF4E
:1020D6001200060523E523C39402500302204E0591
:1020E60024E524C39406500302204B0522E522C3AF
:0720F600940B500302204887
:0120FD0022C0
:063363001232F102324AB1
:03000000022F309C
:0C2F3000787FE4F6D8FD75812B022F7726
:0C332D00A42582F582E5F03583F58322AB
:102F3C000232A8E493A3F8E493A34003F68001F2D1
:102F4C0008DFF48029E493A3F85407240CC8C33396
:102F5C00C4540F4420C8834004F456800146F6DF65
:102F6C00E4800B01020408102040809031A3E47E21
:102F7C00019360BCA3FF543F30E509541FFEE4935A
:102F8C00A360010ECF54C025E060A840B8E493A321
:102F9C00FAE493A3F8E493A3C8C582C8CAC583CA4C
:102FAC00F0A3C8C582C8CAC583CADFE9DEE780BE04
:0131D00000FE
:00000001FF
