:08091400C2A1C2A08E80D2A096
:02091C000022B7
:1008A800EF7005C2A4C2A322BF0105C2A4D2A3222D
:0808B800BF0204D2A4C2A32276
:10088C00D2A1C2A2C2A0D2A0E58030E70CC2A0AF18
:0B089C00190519EFD3940A40EDC2A02B
:0108A700222E
:1007D100EEC41313540304FF1208A8EE543FFCEDBA
:0E07E100131313541FFBED5407FDEB44B8FF38
:0D07EF00AE0712088CC2A2120914C2A0228B
:0D000600AE0712088CD2A2120914C2A0226B
:1008D5007F3F1207EF7FC01207EF7FB81207EF7F48
:0408E500400207EFD7
:10084A00E4FF1208A87DB8AF051207EF7F40120730
:10085A00EFE4FCE4FF1200060CBC40F70DBDC0E754
:01086A00226B
:10086B0012088CD2A2D2A17580FFD2A0AF80C2A0F9
:10087B0012088CD2A2D2A17580FFD2A0AF80C2A0E9
:01088B00224A
:02076200AE07E0
:10076400EEC394805033EDC39440502D1207D1EC66
:100774004440FF1207EF12086BAA07AF057401A8E3
:1007840007088002C333D8FC42021207EBEC444052
:09079400FF1207EFAF021200068C
:01079D002239
:02072500AE071D
:10072700EEC394805034EDC39440502E1207D1ECA1
:100737004440FF1207EF12086BAA07AF057401A820
:1007470007088002C333D8FCF452021207EBEC44CB
:0A07570040FF1207EFAF0212000688
:010761002275
:02064500AE07FE
:10064700EEC394805042EDC39440503CEEC4131364
:10065700540304FF1208A8EE543FFCED1313135480
:100667001FFFED5407FDEF44B8FF1207EFEC4440BE
:10067700FF1207EF12086BAE05EFA806088002C34A
:0C06870013D8FC1392088002D208A208CD
:010693002244
:0308E900011A00F1
:0C090800758910758D63758BC0D28E222E
:05001600D288D28A220D
:09091E00D2AFD2ABD2A8D2AA22BA
:0909270012090812001602091E53
:1008C0001209271208F9E51AC3940340F912042209
:0508D000E4F51A80F1BF
:03001B00020930A7
:09093000051A758D63758BC03248
:03000300020939B6
:03093900C20332C4
:0300130002093CA3
:03093C00D20332B1
:10031A00FFFFFFFFFFFFFFFFFFFFFFFFFFFFFFFFE3
:10032A00FFF7EFEFDFDFBF7FFFFFFFFFFFFFFFFFFB
:10033A00FFFFFF7F9FE7FBFDFFFFFFFFFFFFFFFFC1
:10034A00FFFFFFFFFFFFFFFFFFFFFFFFFFFFFFFFB3
:10035A00FFFFFFFFFFFFFFFFFFFFFFFFFF01FDFDA5
:10036A000DEDEDEDEDED6D6D2C2DEDEDEDEDEDED14
:10037A00EDED2D2C6D6D6DEDEDEDEDED0DFDFD0150
:10038A00FFFFFFFFFFFFFFFFFFFFFFFFFFFFFFFF73
:10039A00FFFFFFFFFFFFFFFFFFFFFFFFFF00FFFF62
:1003AA0080BFBFBFBCBCBEBEB3ADAFB7BBB9B7AFF2
:1003BA00AFB5BBBFBEBEBEBFBFBFBFBF80FFFF00E2
:1003CA00FFFFFFFFFFFFFFFFFFFFFFFFFFFFFFFF33
:1003DA00FFFFFFFFFFFFFFFFFFFFFFFFFFFCFDFD2A
:1003EA00FDFDCDC1F1FDFDFDFDFDFDFDFDFDFDFDAB
:1003FA00FDFDFDFDF1C1CDFDFDFDFDFDFDFDFDFC9C
:10040A00FFFFFFFFFFFFFFFFFFFFFFFFFFFFFFFFF2
:08041A00003F0118013E000142
:0C08EC00010B01010A05C182C104C10515
:10069400E4FF1208A8E4F512E4F513E51244B8FFE8
:1006A4001207EFE5134440FF1207EF75F040E5121F
:1006B400A42513F582E435F0F583E582241AF58246
:1006C400E5833403F583E493FF1200060513E51371
:0E06D400C3944040C60512E512C3940440BA18
:0106E20022F5
:1005EE00850B18750B02751501AF151208A8E4F5E9
:1005FE0016E4F517E51644B8FF1207EFE517444069
:10060E00FF1207EF12086BEF600585180B800905C6
:10061E0017E517C3944040DCE50B65186009051615
:10062E00E516C3940440CAE50B651860090515E587
:06063E0015C3940340B354
:010644002293
:10079E0090041AE493F510A3E493F511A3E493F5F2
:1007AE000CA3E493F50FA2029203E4F515E515C32D
:1007BE00950F500EE5102515FFAD111207620515A8
:0207CE0080EBBE
:0107D0002206
:1004CB0030034DC37480950FC3950CFFE510D39F7C
:1004DB004003020561751501E50C2401FFE433FEB1
:1004EB00C3E5159FEE6480F8748098501CE51025C9
:1004FB001514FFAD11120725E510250F142515FF57
:10050B00AD11120762051580CFE50C2510F51022F1
:10051B00C3E510950C7480F898403B751501E50CFC
:10052B002401FFE433FEC3E5159FEE6480F874806D
:10053B0098501CE510250FC39515FFAD111207251B
:10054B00C3E5109515FFAD11120762051580CFC3DA
:06055B00E510950CF510FF
:010561002277
:1006E30090041EE493F50DA3E493F50EA3E493F5B0
:1006F30008A3E493F509A2049200A2059201AD0EAA
:10070300AF0D120762E50E14FDAF0D120762E50D82
:1007130004FFAD0E120762E50D04FFE50E14FD02A2
:0207230007626B
:10082600AD0EAF0D120725E50D04FFAD0E1207251F
:10083600E50E14FDAF0D120725E50D04FFE50E14B8
:04084600FD02072583
:10001E0030015DE50E24FEFDAF0D1206454016E5DE
:10002E000D04FFE50E24FEFD1206454008E50E14F4
:10003E0060030200E6E50E146032E50E24FEFDAF0D
:10004E000D120725E50D04FFE50E24FEFD12072512
:10005E00E50E24FE6016E50E24FDFDAF0D120725FC
:10006E00E50D04FFE50E24FDFD120725B2018068A3
:10007E00E50E04FDAF0D120645400DE50D04FFE53E
:10008E000E04FD1206455050E50E643F6047E50E26
:10009E002401FFE433FEEF65117001EE602CE50ED6
:1000AE0004FDAF0D120725E50D04FFE50E04FD124C
:1000BE000725E50E2402FDAF0D120725E50D04FF01
:1000CE00E50E2402FD1207258007850C08A2039277
:1000DE0000B2018003E4F50BE50B6401600302033B
:1000EE001930005BE50D2402FFAD0E120645401FD0
:1000FE00E50D2402FFE50E14FD1206454011E50D37
:10010E002401FFE433FEEF647F4E600302019CE5A1
:10011E000D2402FFAD0E120725E50D2402FFE50E9C
:10012E0014FD120725E50D2403FFAD0E120725E57C
:10013E000D2403FFE50E14FD120725B200804FE5D6
:10014E000D14FFAD0E1206454011E50D14FFE50E20
:10015E0014FD1206454004E50D7033E50D602D14B7
:10016E00FFAD0E120725E50D14FFE50E14FD120767
:10017E0025E50D146016E50D24FEFFAD0E120725C4
:10018E00E50D24FEFFE50E14FD120725B200C20692
:10019E00300162751501E5092401FFE433FEC3E564
:1001AE00159FEE6480F8748098503CE50E14C3954C
:1001BE0015FD700BD206C3E50E9515F50E8028AF12
:1001CE000D120645400FE50D04FFE50E149515FDC5
:1001DE00120645500ED206E51514FFC3E50E9FF527
:1001EE000E8004051580AFA206B35055C3E50E95DB
:1001FE0009F50E804C751501E5092401FFE433FE67
:10020E00C3E5159FEE6480F87480985029E50E259D
:10021E0015FDAF0D120645400EE50D04FFE50E254A
:10022E0015FD120645500BD206E51514250EF50EDA
:10023E008004051580C2A206B35006E509250EF509
:10024E000EC20730006C751501E5092401FFE43379
:10025E00FEC3E5159FEE6480F87480985048E50D56
:10026E002401FFE433FE7C00EF2515FFEC3EFEEF8C
:10027E00647F4E7006D207E5158021E50D04251525
:10028E00FFAD0E120645400FE50D042515FFE50ED8
:10029E0014FD120645500BD207E51514250DF50D6C
:1002AE008004051580A3A207B35060E508250DF55F
:1002BE000D22751501E5092401FFE433FEC3E51592
:1002CE009FEE6480F87480985035C3E50D9515FF48
:1002DE007006D2078F0D8027AD0E120645400EE533
:1002EE000D9515FFE50E14FD120645500ED207E5CD
:1002FE001514FFC3E50D9FF50D8004051580B6A2FC
:0B030E0007B35007C3E50D9508F50D7F
:0103190022C1
:1007FC0012082612001EAD0EAF0D120762E50E1484
:10080C00FDAF0D120762E50D04FFAD0E120762E598
:0A081C000D04FFE50E14FD02076253
:100422001205EEE50BB401061204CB0207FCE50B44
:10043200705DE50A7033FF1208A8E4F513E4F514C1
:10044200E51344B8FF1207EFE5144440FF1207EF2B
:10045200E4FF1200060514E514C3944040E20513BC
:10046200E513C3940840D680FE150A750B01E4F526
:1004720012E512C3950F500EE5102512FFAD1112B1
:100482000725051280EB1208261206E302079EE5F5
:100492000B64027033FF1208A8E4F513E4F514E5C7
:1004A2001344B8FF1207EFE5144440FF1207EF7F31
:1004B200FF1200060514E514C3944040E20513E55B
:0804C20013C3940840D680FE2C
:0104CA00220F
:0F08F9001208D512084A1206941206E302079E4F
:0300000002056294
:0C056200787FE4F6D8FD7581210205A920
:10056E000208C0E493A3F8E493A34003F68001F2DB
:10057E0008DFF48029E493A3F85407240CC8C3338E
:10058E00C4540F4420C8834004F456800146F6DF5D
:10059E00E4800B01020408102040809008E9E47EFC
:1005AE00019360BCA3FF543F30E509541FFEE49352
:1005BE00A360010ECF54C025E060A840B8E493A319
:1005CE00FAE493A3F8E493A3C8C582C8CAC583CA44
:1005DE00F0A3C8C582C8CAC583CADFE9DEE780BEFC
:0108F80000FF
:00000001FF
