:0832DD00C2A1C2A08E80D2A0A4
:0232E5000022C5
:10326800EF7005C2A4C2A322BF0105C2A4D2A32243
:08327800BF0204D2A4C2A3228C
:10324C00D2A1C2A2C2A0D2A0E58030E70CC2A0AF2E
:0B325C002B052BEFD3940A40EDC2A01D
:013267002244
:10319100EEC41313540304FF123268EE543FFCEDE6
:0E31A100131313541FFBED5407FDEB44B8FF4E
:0D31AF00AE0712324CC2A21232DDC2A022C5
:0D000600AE0712324CD2A21232DDC2A0228F
:103295007F3F1231AF7FC01231AF7FB81231AF7FA0
:0432A500400231AF03
:10320A00E4FF1232687DB8AF051231AF7F40123148
:10321A00AFE4FCE4FF1200060CBC40F70DBDC0E7AA
:01322A002281
:10322B0012324CD2A2D2A17580FFD2A0AF80C2A025
:10323B0012324CD2A2D2A17580FFD2A0AF80C2A015
:01324B002260
:0230F400AE0725
:1030F600EEC394805033EDC39440502D123191ECC1
:103106004440FF1231AF12322BAA07AF057401A853
:1031160007088002C333D8FC42021231ABEC4440AC
:09312600FF1231AFAF02120006E6
:01312F00227D
:0230B700AE0762
:1030B900EEC394805034EDC39440502E123191ECFC
:1030C9004440FF1231AF12322BAA07AF057401A891
:1030D90007088002C333D8FCF452021231ABEC4426
:0A30E90040FF1231AFAF02120006E3
:0130F30022BA
:02302600AE07F3
:10302800EEC394805042EDC39440503CEEC4131359
:10303800540304FF123268EE543FFCED131313548B
:103048001FFFED5407FDEF44B8FF1231AFEC4440C9
:10305800FF1231AF12322BAE05EFA806088002C36B
:0C30680013D8FC13920E8002D20EA20EB0
:013074002239
:03316300011D004B
:0C32B900438910758D63758BC0D28E2286
:0C32C500438902758A89758C89C28C22AD
:05001600D288D28A220D
:0932E700D2AFD2ABD2A8D2AA22C8
:1032A9001232B91232C51200161232E77590FF2296
:103280001232A91232F9E51DC3940340F91213AAB0
:05329000E4F51D80F1D2
:03001B000232F0BE
:0932F000051D758D63758BC0325C
:030003000232FFC7
:0332FF00C20432D4
:03001300023302B3
:03330200D20432C0
:1020C70004FCFC040000000004FCFC040003FF8087
:1020D70000FCFC0080FF03000000033F3C03033CBF
:1020E7003F030000000000040404FCFC0404040097
:1020F700000000000000FFFF0000000000000020BB
:1021070020203F3F2020200004FCFCE000000004CA
:10211700FCFC040000FFFF01071C70C0FFFF00006C
:10212700203F3F20000000030F3F00000000000099
:1021370000FCFEFC00000000000000000003FF039D
:1021470000000000000000000030793000000000AF
:1021570004FCFC0404040C1870E0800000FFFF007E
:102167000000000000FFFF00203F3F202020301824
:102177000E070100000000040404FCFC0404040032
:10218700000000000000FFFF00000000000000202A
:1021970020203F3F2020200004FCFC04040404040A
:1021A7000C1C7C0000FFFF0808081C7F00000000D3
:1021B700203F3F202020202030383E000000000034
:1021C70000FCFEFC00000000000000000003FF030D
:1021D700000000000000000000307930000000001F
:1021E70004FCFC04000000000000000000FFFF00EA
:1021F7000000000000000000203F3F20202020209A
:1022070030383E00000000040404FCFC0404040011
:10221700000000000000FFFF000000000000002099
:1022270020203F3F2020200004FCFC040404040479
:102237000C1C7C0000FFFF0808081C7F0000000042
:10224700203F3F20000000000000000004FCFC04C9
:10225700040404040C1C7C0000FFFF0808081C7F12
:1022670000000000203F3F202020202030383E0083
:1022770000000000000000000000000000C3C3C30E
:10228700C3C3C3C3C3C3C3000000000000000000F2
:102297000000000004FCFC04000000000000000037
:1022A70000FFFF000000000000000000203F3F206B
:1022B7002020202030383E0004FCFC0404040404E1
:1022C7000C1C7C0000FFFF0808081C7F00000000B2
:1022D700203F3F202020202030383E0004FCFC0413
:1022E70000000004FCFC040000003FFFC000C0FF2A
:1022F7003F000000000000031F3C1F030000000018
:1023070004FCFC04040404040C1C7C0000FFFF080C
:1023170008081C7F00000000203F3F2020202020CD
:1023270030383E0004FCFC04000000000000000000
:1023370000FFFF000000000000000000203F3F20DA
:102347002020202030383E00000000000000000060
:102357000000000000C3C3C3C3C3C3C3C3C3C300D8
:1023670000000000000000000000000000C0F0387E
:102377000C040C38F0C00000FFFF00000000000054
:1023870000FFFF0000030F1C3020301C0F0300006C
:102397000010101818FCFC000000000000000000EE
:1023A70000FFFF000000000000002020203F3F202A
:1023B7002020000060F0F80C0404040C18F0E00082
:1023C70000000080C06030180E070100383E3F3320
:1023D7003030303030303C00003078780C04040C5A
:1023E70018F8F0000000000008081C1633E1C000D0
:1023F7000C1E3E3020202030181F0F000000000068
:1024070080E038FCFC00000080E0380E030000FF8D
:10241700FF000000010101010121213F3F212101AE
:1024270000FCFC0C0C0C0C0C0C0C0000001F0F0823
:10243700040202061CF8E0000C1E3E30202020306B
:102447001C0F030004FCFC0404040C18F0E000005B
:1024570000FFFF0808081C1673E18000203F3F209B
:10246700202020301C0F030004FCFC0404040C187B
:10247700F8E0000000FFFF0838F8CC06070100006D
:10248700203F3F200000032F3C30200004FCFC04C9
:10249700040404040C1C7C0000FFFF0808081C7FD0
:1024A70000000000203F3F202020202030383E0041
:1024B70000000000F00C3CF0000000000000F0FFFE
:1024C70043404043FFF00000203E3F200000000053
:1024D700203F3E2004FCFC040080E47C1C04040034
:1024E70000FFFF781E7FE18000000000203F3F20B3
:1024F700000001273E382020E0F0180C0404040CEB
:1025070018F0E000FFFF00000000000000FFFF00E0
:10251700070F183020202030180F070004FCFC0498
:1025270000000004FCFC040000FFFF0000000000A6
:10253700FFFF0000000F1F30202020301F0F00007A
:102547007C1C0C0404FCFC04040C1C7C0000000034
:1025570000FFFF000000000000000020203F3F2098
:102567002000000000FC02020286000001010100B9
:102577000002FE0200C000010101010100FC02028D
:1025870002FC00000101010002FE0E7082FE010143
:102597000100010102FE123A028601010101010157
:1025A7000002FE22221C0001010100000008F810B1
:1025B700080800010101010100F028282830000067
:1025C700010101010090282828D80001010101001C
:1025D7000090282828D80001010101000000000010
:1025E7000000000000000000008C921214E60001B9
:1025F70000010100000602FE0206000001010100C1
:1026070000C07A4678C001010100010102FE2222C2
:10261700629C010101000000000602FE02060000A4
:1026270001010100FF8181BFBFBFBFFFFFC3BDBD68
:10263700BDBDDBFFFFC1BFC3C3BFC1FFFF8181BDFD
:10264700BDDBE7FFFFFFFFFFFFFFFFFFFFFFFFFF11
:10265700FFFFFFFFFFF7EFEFDFDFBF7FFFFFFFFFAB
:10266700FFFFFFFFFFFFFF7F9FE7FBFDFFFFFFFF71
:10267700FFFFFFFFFFFFFFFFFFFFFFFFFFFFFFFF63
:10268700FFFFFFFFFFFFFFFFFFFFFFFFFFFFFFFF53
:10269700FF01FDFD0DEDEDEDEDED6D6D2C2DEDED7E
:1026A700EDEDEDEDEDED2D2C6D6D6DEDEDEDEDED54
:1026B7000DFDFD01FFFFFFFFFFFFFFFFFFFFFFFF17
:1026C700FFFFFFFFFFFFFFFFFFFFFFFFFFFFFFFF13
:1026D700FF00FFFF80BFBFBFBCBCBEBEB3ADAFB77F
:1026E700BBB9B7AFAFB5BBBFBEBEBEBFBFBFBFBF36
:1026F70080FFFF00FFFFFFFFFFFFFFFFFFFFFFFF61
:10270700FFFFFFFFFFFFFFFFFFFFFFFFFFFFFFFFD2
:10271700FFFCFDFDFDFDCDC1F1FDFDFDFDFDFDFD59
:10272700FDFDFDFDFDFDFDFDF1C1CDFDFDFDFDFD4A
:10273700FDFDFDFCFFFFFFFFFFFFFFFFFFFFFFFFAB
:10274700FFFFFFFFFFFFFFFFFFFFFFFFFFFFFFFF92
:10275700FFFFFFFFFFFFFFFFFFFFFFFFFFFFFF7F02
:10276700BFBF7FFFFFFFFFFFFFFFFFFFFFFFFFFF72
:10277700FFFFFFFFFFFFFF7FBFBF7FFFFFFFFFFFE2
:10278700FFFFFFFFFFFFFFFFFFFFFFFFFFFFFFFF52
:10279700FFFFFFFFFF070301010101030701060315
:1027A700010101010307FFFFFFFFFFFFFF07030110
:1027B7000101010307010603010171F9FFFFFFFF93
:1027C700FFFFFFFFFFFFFFFFFFFFFFFFFFFFFFFF12
:1027D700FFFFFFFFFFF0E0C0808080808080808067
:1027E700808080C0E0F0FFFFFFFFFFFFFFF0E0C049
:1027F7008080808080808080808080C0E0F0FFFFC4
:10280700FFFFFFFFFFFFFFFFFFFFFFFFFFFFFFFFD1
:10281700FFFFFFFFFFFFFFFFFFFFFFFFFFFFFFFFC1
:10282700FFFFFFFFFFFFFFFFFFFFFFFFFFFFFFFFB1
:10283700FFFFFFFFFFFFFFFFFFFFFFFFFFFFFFFFA1
:10284700FFFFFFFFFFFFFFFFFFFFFFFFFFFFFFFF91
:10285700FFFFFFFFFFFFFFFFFFFFFFFFFFFF7F7F81
:102867007F7F7F7F7F7F7F7F7F7F7F7F7FFFFFFFF1
:10287700FFFFFFFFFFFFFFFFFFFFFFFFFFFFFFFF61
:10288700FFFFFFFFFFFFFFFFFFFFFFFFFFFFFFFF51
:10289700FFFFBF1F4FE7F3FBF9FDFDFCFEBE1E0F59
:1028A7000703010140E0F0E0410103070E1EBEFCF3
:1028B700FDFDF9FBF3E74F1FBFFFFFFFFFFFFFFF23
:1028C700FFFFFFFFFFFFFFFFFFFFFFFFFFFFFFFF11
:1028D700FFFFFFFFFEFCF9FBF3F7F7E7EFEFCFDEB4
:1028E700DCD8D0D0C0C0C1C0D0D0D8DCCEEFEFE7A5
:1028F700F7F7F3FBF9FCFEFFFFFFFFFFFFFFFFFF0B
:10290700FFFFFFFFFFFFFFFFFFFFFFFFFFFFFFFFD0
:10291700FFFFFFFFFFFFFFFFFFFFFFFFFFFFFFFFC0
:10292700FFFFFFFFFFFFFFFFFFFFFFFFFFFFFFFFB0
:10293700FFFFFFFFFFFFFFFFFFFFFFFFFFFFFFFFA0
:0A294700FFFFFFFF003F073E000105
:10316600011004010E05011C00010F00C107C10872
:10317600010A01011600C100010D00010B00010C3E
:0A31860000011300C183C105C1065A
:10295100300013E50DC394FF5004050D8008C2003B
:10296100E4F50D75100BE5166003022B7FC374FFB0
:10297100958A24EC7003022B0324E27003022A0BD4
:1029810024CE7003022A8724636003022BF275169A
:1029910001858A26C374FF9526F52575F0058424E3
:1029A10021F52685250BF50C131313541FF526E489
:1029B100F527E5252527FFE433FEC3EF9440EE64B8
:1029C10080948050097F01123268C20B800D74C05F
:1029D1002525F5257F02123268D20BE525252744EE
:1029E10040FF1231AFE52644B8FF1231AFE5279021
:1029F100262B93FF120006300B0674402525F52582
:102A01000527E527C3940840A922751602858A2661
:102A1100C374FF9526F52575F005842421F52685D7
:102A2100250BF50C131313541FF526E4F527E525A3
:102A31002527FFE433FEC3EF9440EE648094805079
:102A4100097F01123268C20B800D74C02525F5255E
:102A51007F02123268D20BE52525274440FF12314F
:102A6100AFE52644B8FF1231AFE52790263393FF37
:102A7100120006300B0674402525F5250527E527AC
:102A8100C3940840A922751603858A26C374FF954D
:102A910026F52575F005842421F52685250BF50CF1
:102AA100131313541FF526E4F527E5252527FFE425
:102AB10033FEC3EF9440EE6480948050097F01128D
:102AC1003268C20B800D74C02525F5257F021232B4
:102AD10068D20BE52525274440FF1231AFE5264496
:102AE100B8FF1231AFE52790263B93FF1200063065
:102AF1000B0674402525F5250527E527C3940840D5
:102B0100A922751604858A26C374FF9526F52575B5
:102B1100F005842421F52685250BF50C1313135498
:102B21001FF526E4F527E5252527FFE433FEC3EF4E
:102B31009440EE6480948050097F01123268C20B88
:102B4100800D74C02525F5257F02123268D20BE570
:102B51002525274440FF1231AFE52644B8FF123145
:102B6100AFE52790264393FF120006300B06744011
:102B71002525F5250527E527C3940840A922E51356
:102B8100D39464406A850B25850C26E5261313131F
:102B9100541FF526E4F527E5252527FFE433FEC379
:102BA100EF9440EE6480948050097F01123268C234
:102BB1000B800D74C02525F5257F02123268D20BDA
:102BC100E52525274440FF1231AFE52644B8FF1221
:102BD10031AFE4FF120006300B0674402525F525C0
:102BE1000527E527C3940840AEE4F513F516220541
:012BF10013D0
:012BF20022C0
:10313000E4FF123268752904E4F52AE52944B8FF52
:103140001231AFE52A4440FF1231AFE4FF1200060E
:10315000052AE52AC3944040E20529E529C39408DD
:0231600040D657
:01316200224A
:022BF3008F252C
:102BF500123130E4F528E4F527E4F526C20BE52883
:102C050075F00FA424142527F52774042526F52629
:102C1500E527C3944050077F01123268800D7F027B
:102C250012326874C02527F527D20BE52644B8FF74
:102C35001231AFE5274440FF1231AF300B06744027
:102C45002527F527E52875F00FA42414FFC3E527EC
:102C55009FF52774FC2526F526E528C3940575F010
:102C65000CE526501EA42527F582E435F0F583757D
:102C7500F024E5281232D1E58224E7F582E5833494
:102C850021801CA42527F582E435F0F58375F02411
:102C9500E5251232D1E5822473F582E5833423F5E7
:102CA50083E493FF1200060526E526C3940350032B
:102CB500022C010527E527C3940C5003022BFE05C2
:0B2CC50028E528C394065003022BFBF7
:012CD00022E1
:022CD1008F254D
:102CD300123130E4F528E4F527E4F526C20BE528A4
:102CE30075F00FA424142527F52774042526F5264B
:102CF300E527C3944050077F01123268800D7F029D
:102D030012326874C02527F527D20BE52644B8FF95
:102D13001231AFE5274440FF1231AF300B06744048
:102D23002527F527E52875F00FA42414FFC3E5270D
:102D33009FF52774FC2526F526E528C3940675F030
:102D43000CE526501EA42527F582E435F0F583759E
:102D5300F024E5281232D1E582249BF582E5833401
:102D630022801CA42527F582E435F0F58375F02431
:102D7300E5251232D1E5822473F582E5833423F508
:102D830083E493FF1200060526E526C3940350034C
:102D9300022CDF0527E527C3940C5003022CDC0526
:0B2DA30028E528C394075003022CD938
:012DAE002202
:102E5C00E4FF123268E4F525E4F526E52544B8FFD5
:102E6C001231AFE5264440FF1231AFE50A24FE6073
:102E7C000714601F2402803675F040E525A4252632
:102E8C00F582E435F0F583E582244BF582E5833455
:102E9C0027803475F040E525A42526F582E435F02D
:102EAC00F583E582244BF582E5833428801975F08F
:102EBC0040E525A42526F582E435F0F583E582244A
:102ECC004BF582E5833426F583E493FF1200060567
:102EDC0026E526C3944040830525E525C39404507C
:042EEC0003022E644B
:012EF00022BF
:102F7D00851028751002752501AF25123268E4F50C
:102F8D0026E4F527E52644B8FF1231AFE527444086
:102F9D00FF1231AF12322BEF600585281080090525
:102FAD0027E527C3944040DCE51065286009052618
:102FBD00E526C3940440CAE510652860090525E59A
:062FCD0025C3940340B38C
:012FD30022DB
:102FD400E50A24FE600714600C24028010751B02AD
:102FE400751114800E751B0375110C8006751B0179
:102FF40075111890294BE493F519A3E493F51A85F8
:103004001B12851117A2039204E4F525E525C39547
:1030140017500EE5192525FFAD1A1230F405258049
:01302400EBC0
:013025002288
:102DAF00300463C374809517C39512FFE519D39F41
:102DBF004003022E5BE5172512FFE433FED3EF9499
:102DCF0080EE648094804003022E5B752501E5122E
:102DDF002401FFE433FEC3E5259FEE6480F8748081
:102DEF0098501CE519252514FFAD1A1230B7E519B7
:102DFF002517142525FFAD1A1230F4052580CFE5D0
:102E0F00122519F51922C3E51995127480F8984007
:102E1F003B752501E5122401FFE433FEC3E5259F31
:102E2F00EE6480F8748098501CE5192517C395251A
:102E3F00FFAD1A1230B7C3E5199525FFAD1A123041
:0C2E4F00F4052580CFC3E5199512F51994
:012E5B002254
:1030750090294DE493F514A3E493F515A3E493F592
:1030850008A3E493F509A2059201A2069202AD15E3
:10309500AF141230F4E51514FDAF141230F4E51435
:1030A50004FFAD151230F4E51404FFE51514FD0217
:0230B50030F4F5
:1031E600AD15AF141230B7E51404FFAD151230B7A4
:1031F600E51514FDAF141230B7E51404FFE51514F8
:04320600FD0230B7DE
:10001E00E4F590200203020429E51524FEFDAF1439
:10002E001230264016E51404FFE51524FEFD1230AD
:10003E00264008E515146003020816E515D3942230
:10004E005003020102E515943E4003020102E5143D
:10005E00C3947E4003020102E51494005003020192
:10006E0002E50C131313541FF50CE4F525E50B25CF
:10007E0025FFE433FEC3EF9440EE64809480500974
:10008E007F01123268C20D800D74C0250BF50B7FF7
:10009E0002123268D20DE50B25254440FF1231AF16
:1000AE00E50C44B8FF1231AFE4FF120006300D0626
:1000BE007440250BF50B0525E525C3940840AEE5E8
:1000CE000C75F008A4F50CE4F513E51624FE601289
:1000DE0014601514601824037017D20075100702EF
:1000EE00050075100802050075100902050075104F
:1000FE000A020500759004E515147003020424E548
:10010E001524FEFDAF141230B7E51404FFE51524D7
:10011E00FEFD1230B7E51414FFE51524FEFD123076
:10012E00B7E51424FEFFE51524FEFD1230B7E514E5
:10013E0024FDFFE51524FEFD1230B7E51424FCFF67
:10014E00E51524FEFD1230B7E51424FBFFE515245A
:10015E00FEFD1230B7E5142402FFE51524FEFD1254
:10016E0030B7E5142403FFE51524FEFD1230B7E584
:10017E00142404FFE51524FEFD1230B7E514240502
:10018E00FFE51524FEFD1230B7E5142406FFE51534
:10019E0024FEFD1230B7E51524FE7003020424E59B
:1001AE001524FDFDAF141230B7E51404FFE5152438
:1001BE00FDFD1230B7E51414FFE51524FDFD1230D8
:1001CE00B7E51424FEFFE51524FDFD1230B7E51446
:1001DE0024FDFFE51524FDFD1230B7E51424FCFFC8
:1001EE00E51524FDFD1230B7E51424FBFFE51524BB
:1001FE00FDFD1230B7E5142402FFE51524FDFD12B6
:10020E0030B7E5142403FFE51524FDFD1230B7E5E4
:10021E00142404FFE51524FDFD1230B7E514240562
:10022E00FFE51524FDFD1230B7E5142406FFE51594
:10023E0024FDFD1230B7E51524FD7003020424E5FC
:10024E001524FCFDAF141230B7E51404FFE5152498
:10025E00FCFD1230B7E51414FFE51524FCFD123039
:10026E00B7E51424FEFFE51524FCFD1230B7E514A6
:10027E0024FDFFE51524FCFD1230B7E51424FCFF28
:10028E00E51524FCFD1230B7E51424FBFFE515241B
:10029E00FCFD1230B7E5142402FFE51524FCFD1217
:1002AE0030B7E5142403FFE51524FCFD1230B7E545
:1002BE00142404FFE51524FCFD1230B7E5142405C3
:1002CE00FFE51524FCFD1230B7E5142406FFE515F5
:1002DE0024FCFD1230B7E51524FC7003020424E55E
:1002EE001524FBFDAF141230B7E51404FFE51524F9
:1002FE00FBFD1230B7E51414FFE51524FBFD12309B
:10030E00B7E51424FEFFE51524FBFD1230B7E51406
:10031E0024FDFFE51524FBFD1230B7E51424FCFF88
:10032E00E51524FBFD1230B7E51424FBFFE515247B
:10033E00FBFD1230B7E5142402FFE51524FBFD1278
:10034E0030B7E5142403FFE51524FBFD1230B7E5A5
:10035E00142404FFE51524FBFD1230B7E514240523
:10036E00FFE51524FBFD1230B7E5142406FFE51555
:10037E0024FBFD1230B7E51524FB7003020424E5BF
:10038E001524FAFDAF141230B7E51404FFE5152459
:10039E00FAFD1230B7E51414FFE51524FAFD1230FC
:1003AE00B7E51424FEFFE51524FAFD1230B7E51467
:1003BE0024FDFFE51524FAFD1230B7E51424FCFFE9
:1003CE00E51524FAFD1230B7E51424FBFFE51524DC
:1003DE00FAFD1230B7E5142402FFE51524FAFD12DA
:1003EE0030B7E5142403FFE51524FAFD1230B7E506
:1003FE00142404FFE51524FAFD1230B7E514240584
:10040E00FFE51524FAFD1230B7E5142406FFE515B5
:10041E0024FAFD1230B7B202020816E51504FDAF3C
:10042E00141230264010E51404FFE51504FD1230B9
:10043E00264003020816E515643F7003020813E513
:10044E0015D394225003020506E515943E4003028F
:10045E000506E514C3947E4003020506E5149400D8
:10046E005003020506E50C131313541FF50CE4F5A7
:10047E0025E50B2525FFE433FEC3EF9440EE6480A3
:10048E00948050097F01123268C20D800D74C02510
:10049E000BF50B7F02123268D20DE50B2525444079
:1004AE00FF1231AFE50C44B8FF1231AFE4FF12007A
:1004BE0006300D067440250BF50B0525E525C39476
:1004CE000840AEE50C75F008A4F50CE4F513E5163E
:1004DE0024FE601114601314601524037014D200EE
:1004EE00751007800D75100880087510098003754A
:1004FE00100AE4F516020816759004E5152401FF9E
:10050E00E433FEEF651A7001EE7003020805E5157F
:10051E0004FDAF141230B7E51404FFE51504FD1207
:10052E0030B7E51414FFE51504FD1230B7E51424B9
:10053E00FEFFE51504FD1230B7E51424FDFFE515A9
:10054E0004FD1230B7E51424FCFFE51504FD12304E
:10055E00B7E51424FBFFE51504FD1230B7E51424AE
:10056E0002FFE51504FD1230B7E5142403FFE5156F
:10057E0004FD1230B7E5142404FFE51504FD123016
:10058E00B7E5142405FFE51504FD1230B7E5142474
:10059E0006FFE51504FD1230B7E5152402FDAF1474
:1005AE001230B7E51404FFE5152402FD1230B7E54D
:1005BE001414FFE5152402FD1230B7E51424FEFFD6
:1005CE00E5152402FD1230B7E51424FDFFE51524D0
:1005DE0002FD1230B7E51424FCFFE5152402FD12CE
:1005EE0030B7E51424FBFFE5152402FD1230B7E504
:1005FE00142402FFE5152402FD1230B7E51424037E
:10060E00FFE5152402FD1230B7E5142404FFE515AD
:10061E002402FD1230B7E5142405FFE5152402FD72
:10062E001230B7E5142406FFE5152402FD1230B78B
:10063E00E5152403FDAF141230B7E51404FFE515DC
:10064E002403FD1230B7E51414FFE5152403FD1243
:10065E0030B7E51424FEFFE5152403FD1230B7E58F
:10066E001424FDFFE5152403FD1230B7E51424FC18
:10067E00FFE5152403FD1230B7E51424FBFFE51545
:10068E002403FD1230B7E5142402FFE5152403FD03
:10069E001230B7E5142403FFE5152403FD1230B71D
:1006AE00E5142404FFE5152403FD1230B7E51424E8
:1006BE0005FFE5152403FD1230B7E5142406FFE50A
:1006CE00152403FD1230B7E5152404FDAF141230C6
:1006DE00B7E51404FFE5152404FD1230B7E5141434
:1006EE00FFE5152404FD1230B7E51424FEFFE515D1
:1006FE002404FD1230B7E51424FDFFE5152404FD96
:10070E001230B7E51424FCFFE5152404FD1230B7B2
:10071E00E51424FBFFE5152404FD1230B7E514247F
:10072E0002FFE5152404FD1230B7E5142403FFE59E
:10073E00152404FD1230B7E5142404FFE515240436
:10074E00FD1230B7E5142405FFE5152404FD123023
:10075E00B7E5142406FFE5152404FD1230B7E515A0
:10076E002405FDAF141230B7E51404FFE51524057A
:10077E00FD1230B7E51414FFE5152405FD1230B750
:10078E00E51424FEFFE5152405FD1230B7E514240B
:10079E00FDFFE5152405FD1230B7E51424FCFFE539
:1007AE00152405FD1230B7E51424FBFFE5152405CD
:1007BE00FD1230B7E5142402FFE5152405FD1230B5
:1007CE00B7E5142403FFE5152405FD1230B7E51433
:1007DE002404FFE5152405FD1230B7E5142405FFAA
:1007EE00E5152405FD1230B7E5142406FFE51524A2
:1007FE0005FD1230B7800A759005851208A2049285
:10080E0001B2028003E4F510E510640160030213E7
:10081E00A9200103020CACE5142402FFAD15123021
:10082E0026401FE5142402FFE51514FD1230264064
:10083E0011E5142401FFE433FEEF647F4E600302E2
:10084E00122CE515D394225003020909E515943EA6
:10085E004003020909E514C3947E4003020909E529
:10086E001494005003020909E50C131313541FF5D9
:10087E000CE4F525E50B2525FFE433FEC3EF94408C
:10088E00EE6480948050097F01123268C20D800D93
:10089E0074C0250BF50B7F02123268D20DE50B25C5
:1008AE00254440FF1231AFE50C44B8FF1231AFE4DE
:1008BE00FF120006300D067440250BF50B0525E5DD
:1008CE0025C3940840AEE50C75F008A4F50CE4F5CC
:1008DE0013E51624FE6012146015146018240370BC
:1008EE0017D200751007020D7E751008020D7E7569
:1008FE001009020D7E75100A020D7E759004E51426
:10090E002402FFAD151230B7E5142402FFE51514CD
:10091E00FD1230B7E5142403FFAD151230B7E51400
:10092E002403FFE51514FD1230B7E5142404FFADC2
:10093E00151230B7E5142404FFE51514FD1230B777
:10094E00E5142405FFAD151230B7E5142405FFE5B7
:10095E001514FD1230B7E5142406FFAD151230B78D
:10096E00E5142406FFE51514FD1230B7E51424072F
:10097E00FFAD151230B7E5142407FFE51514FD126F
:10098E0030B7E5142408FFAD151230B7E51424086E
:10099E00FFE51514FD1230B7E5142409FFAD15124D
:1009AE0030B7E5142409FFE51514FD1230B7E51430
:1009BE00240AFFAD151230B7E514240AFFE515140D
:1009CE00FD1230B7E514240BFFAD151230B7E51448
:1009DE00240BFFE51514FD1230B7E514240CFFAD02
:1009EE00151230B7E514240CFFE51514FD1230B7BF
:1009FE00E514240DFFAD151230B7E514240DFFE5F7
:100A0E001514FD1230B7E515147003020CA7E5148A
:100A1E002402FFE51524FEFD1230B7E5142403FF72
:100A2E00E51524FEFD1230B7E5142404FFE5152468
:100A3E00FEFD1230B7E5142405FFE51524FEFD1268
:100A4E0030B7E5142406FFE51524FEFD1230B7E598
:100A5E00142407FFE51524FEFD1230B7E514240813
:100A6E00FFE51524FEFD1230B7E5142409FFE51548
:100A7E0024FEFD1230B7E514240AFFE51524FEFD11
:100A8E001230B7E514240BFFE51524FEFD1230B726
:100A9E00E514240CFFE51524FEFD1230B7E51424F1
:100AAE000DFFE51524FEFD1230B7E51524FE70038B
:100ABE00020CA7E5142402FFE51524FDFD1230B744
:100ACE00E5142403FFE51524FDFD1230B7E51424CB
:100ADE0004FFE51524FDFD1230B7E5142405FFE5EE
:100AEE001524FDFD1230B7E5142406FFE51524FD8F
:100AFE00FD1230B7E5142407FFE51524FDFD123075
:100B0E00B7E5142408FFE51524FDFD1230B7E514F2
:100B1E002409FFE51524FDFD1230B7E514240AFF64
:100B2E00E51524FDFD1230B7E514240BFFE5152461
:100B3E00FDFD1230B7E514240CFFE51524FDFD1262
:100B4E0030B7E514240DFFE51524FDFD1230B7E591
:100B5E001524FD7003020CA7E5142402FFE51524ED
:100B6E00FCFD1230B7E5142403FFE51524FCFD123D
:100B7E0030B7E5142404FFE51524FCFD1230B7E56B
:100B8E00142405FFE51524FCFD1230B7E5142406E8
:100B9E00FFE51524FCFD1230B7E5142407FFE5151B
:100BAE0024FCFD1230B7E5142408FFE51524FCFDE6
:100BBE001230B7E5142409FFE51524FCFD1230B7F9
:100BCE00E514240AFFE51524FCFD1230B7E51424C4
:100BDE000BFFE51524FCFD1230B7E514240CFFE5E0
:100BEE001524FCFD1230B7E514240DFFE51524FC89
:100BFE00FD1230B7E51524FC7003020CA7E5142492
:100C0E0002FFE51524FBFD1230B7E5142403FFE5C2
:100C1E001524FBFD1230B7E5142404FFE51524FB63
:100C2E00FD1230B7E5142405FFE51524FBFD123047
:100C3E00B7E5142406FFE51524FBFD1230B7E514C5
:100C4E002407FFE51524FBFD1230B7E5142408FF39
:100C5E00E51524FBFD1230B7E5142409FFE5152434
:100C6E00FBFD1230B7E514240AFFE51524FBFD1237
:100C7E0030B7E514240BFFE51524FBFD1230B7E564
:100C8E0014240CFFE51524FBFD1230B7E514240DDA
:100C9E00FFE51524FBFD1230B7B20102122CE5144C
:100CAE0014FFAD151230264014E51414FFE515148B
:100CBE00FD1230264007E514600302122CE515D311
:100CCE0094225003020D84E515943E4003020D84D8
:100CDE00E514C3947E4003020D84E5149400500382
:100CEE00020D84E50C131313541FF50CE4F525E5E2
:100CFE000B2525FFE433FEC3EF9440EE6480948011
:100D0E0050097F01123268C20D800D74C0250BF59B
:100D1E000B7F02123268D20DE50B25254440FF12DF
:100D2E0031AFE50C44B8FF1231AFE4FF12000630CC
:100D3E000D067440250BF50B0525E525C3940840DB
:100D4E00AEE50C75F008A4F50CE4F513E51624FEDB
:100D5E00601114601314601524037014D200751002
:100D6E0007800D7510088008751009800375100A2C
:100D7E00E4F51602122C759004E514700302122A83
:100D8E0014FFAD151230B7E51414FFE51514FD125E
:100D9E0030B7E51414700302122AE51424FEFFADD9
:100DAE00151230B7E51424FEFFE51514FD1230B709
:100DBE00E515146046E51424FEFFE51524FEFD122C
:100DCE0030B7E51524FE6033E51424FEFFE5152447
:100DDE00FDFD1230B7E51524FD6020E51424FEFF5D
:100DEE00E51524FCFD1230B7E51524FC600DE51465
:100DFE0024FEFFE51524FBFD1230B7E51424FE702A
:100E0E000302122AE51424FDFFAD151230B7E514C6
:100E1E0024FDFFE51514FD1230B7E515146046E507
:100E2E001424FDFFE51524FEFD1230B7E51524FE52
:100E3E006033E51424FDFFE51524FDFD1230B7E502
:100E4E001524FD6020E51424FDFFE51524FCFD129C
:100E5E0030B7E51524FC600DE51424FDFFE51524DF
:100E6E00FBFD1230B7E51424FD700302122AE514BF
:100E7E0024FCFFAD151230B7E51424FCFFE5151464
:100E8E00FD1230B7E515146046E51424FCFFE51598
:100E9E0024FEFD1230B7E51524FE6033E51424FC64
:100EAE00FFE51524FDFD1230B7E51524FD6020E5A4
:100EBE001424FCFFE51524FCFD1230B7E51524FCC7
:100ECE00600DE51424FCFFE51524FBFD1230B7E59B
:100EDE001424FC700302122AE51424FBFFAD151234
:100EEE0030B7E51424FBFFE51514FD1230B7E515F8
:100EFE00146046E51424FBFFE51524FEFD1230B701
:100F0E00E51524FE6033E51424FBFFE51524FDFDF5
:100F1E001230B7E51524FD6020E51424FBFFE5151E
:100F2E0024FCFD1230B7E51524FC600DE51424FBFE
:100F3E00FFE51524FBFD1230B7E51424FB70030208
:100F4E00122AE51424FAFFAD151230B7E51424FA6F
:100F5E00FFE51514FD1230B7E515146046E51424AF
:100F6E00FAFFE51524FEFD1230B7E51524FE6033B9
:100F7E00E51424FAFFE51524FDFD1230B7E515241E
:100F8E00FD6020E51424FAFFE51524FCFD1230B7B0
:100F9E00E51524FC600DE51424FAFFE51524FBFD90
:100FAE001230B7E51424FA700302122AE51424F95C
:100FBE00FFAD151230B7E51424F9FFE51514FD1237
:100FCE0030B7E515146046E51424F9FFE51524FE47
:100FDE00FD1230B7E51524FE6033E51424F9FFE564
:100FEE001524FDFD1230B7E51524FD6020E514240F
:100FFE00F9FFE51524FCFD1230B7E51524FC600D54
:10100E00E51424F9FFE51524FBFD1230B7E5142491
:10101E00F9700302122AE51424F8FFAD151230B749
:10102E00E51424F8FFE51514FD1230B7E51514602C
:10103E0046E51424F8FFE51524FEFD1230B7E5153C
:10104E0024FE6033E51424F8FFE51524FDFD12306F
:10105E00B7E51524FD6020E51424F8FFE51524FC02
:10106E00FD1230B7E51524FC600DE51424F8FFE5FC
:10107E001524FBFD1230B7E51424F8700302122A72
:10108E00E51424F7FFAD151230B7E51424F7FFE58C
:10109E001514FD1230B7E515146046E51424F7FF5C
:1010AE00E51524FEFD1230B7E51524FE6033E51478
:1010BE0024F7FFE51524FDFD1230B7E51524FD607C
:1010CE0020E51424F7FFE51524FCFD1230B7E515D5
:1010DE0024FC600DE51424F7FFE51524FBFD12300A
:1010EE00B7E51424F7700302122AE51424F6FFADB7
:1010FE00151230B7E51424F6FFE51514FD1230B7BE
:10110E00E515146046E51424F6FFE51524FEFD12E0
:10111E0030B7E51524FE6033E51424F6FFE51524FB
:10112E00FDFD1230B7E51524FD6020E51424F6FF11
:10113E00E51524FCFD1230B7E51524FC600DE51411
:10114E0024F6FFE51524FBFD1230B7E51424F670E6
:10115E000302122AE51424F5FFAD151230B7E5147B
:10116E0024F5FFE51514FD1230B7E515146046E5BC
:10117E001424F5FFE51524FEFD1230B7E51524FE07
:10118E006033E51424F5FFE51524FDFD1230B7E5B7
:10119E001524FD6020E51424F5FFE51524FCFD1251
:1011AE0030B7E51524FC600DE51424F5FFE5152494
:1011BE00FBFD1230B7E51424F56061E51424F4FF4D
:1011CE00AD151230B7E51424F4FFE51514FD1230F9
:1011DE00B7E515146046E51424F4FFE51524FEFD6D
:1011EE001230B7E51524FE6033E51424F4FFE5153F
:1011FE0024FDFD1230B7E51524FD6020E51424F41E
:10120E00FFE51524FCFD1230B7E51524FC600DE555
:10121E001424F4FFE51524FBFD1230B7B201C20B06
:10122E00300262752501E5092401FFE433FEC3E5B2
:10123E00259FEE6480F8748098503CE51514C39594
:10124E0025FD700BD20BC3E5159525F5158028AF3E
:10125E0014123026400FE51404FFE515149525FDF4
:10126E00123026500ED20BE52514FFC3E5159FF55F
:10127E00158004052580AFA20BB35055C3E5159517
:10128E0009F515804C752501E5092401FFE433FEAF
:10129E00C3E5259FEE6480F87480985029E51525E6
:1012AE0025FDAF14123026400EE51404FFE515257A
:1012BE0025FD123026500BD20BE525142515F515FC
:1012CE008004052580C2A20BB35006E5092515F54D
:1012DE0015C20C30016C752501E5092401FFE433BC
:1012EE00FEC3E5259FEE6480F87480985048E5149F
:1012FE002401FFE433FE7C00EF2525FFEC3EFEEFDC
:10130E00647F4E7006D20CE5258021E51404252558
:10131E00FFAD15123026400FE514042525FFE51507
:10132E0014FD123026500BD20CE525142514F5149D
:10133E008004052580A3A20CB35060E5082514F5A2
:10134E001422752501E5092401FFE433FEC3E525CA
:10135E009FEE6480F87480985035C3E5149525FF90
:10136E007006D20C8F148027AD15123026400EE574
:10137E00149525FFE51514FD123026500ED20CE5FE
:10138E002514FFC3E5149FF5148004052580B6A22D
:0B139E000CB35007C3E5149508F514CC
:0113A9002221
:1031BC001231E612001EAD15AF141230F4E51514E1
:1031CC00FDAF141230F4E51404FFAD151230F4E524
:0A31DC001404FFE51514FD0230F4A1
:1013AA00E51064016002051CE5106404600302157F
:1013BA00BC759001200805F51CD2082230070302EB
:1013CA0015B4E51CC394504003021499E51C75F04A
:1013DA000A84F522E51C75F00A842401FFE433FE31
:1013EA00C3E5229FEE6480F874809840030220C609
:1013FA00E4F524E4F523C209E52275F00FA42405D7
:10140A002524F5240523C3944050077F011232682E
:10141A00800D7F0212326874C02524F524D209E5B2
:10142A002344B8FF1231AFE5244440FF1231AF30F4
:10143A00090674402524F524E52275F00FA4240535
:10144A00FFC3E5249FF5241523FF75F00CE523A4BB
:10145A002FF582E435F0F58375F024E5221232D1B6
:10146A00E582244BF582E5833424F583E493FF1265
:10147A0000060523E523C394035003021400052440
:10148A00E524C3940C50030213FD05220213DEE582
:10149A001CD3945050030215A7E51C94784003020C
:1014AA0015A7E4FF123268752304C37490951CF5DE
:1014BA0024E524C394405019E52344B8FF1231AF00
:1014CA00E5244440FF1231AFE4FF120006052480F0
:1014DA00E00523E523C3940640D0E4F522E4F5248D
:1014EA00E4F523C209C374CF951CFFE52275F00702
:1014FA00A42F2524F52474042523F523E524C39475
:10150A004050077F01123268800D7F0212326874E0
:10151A00C02524F524D209E524C39440505AE52372
:10152A0044B8FF1231AFE5244440FF1231AF30090D
:10153A000674402524F524C374CF951CFFE5227553
:10154A00F007A42FFFC3E5249FF52474FC2523F597
:10155A002375F006A42524F582E435F0F58375F0A9
:10156A000CE5221232D1E582246BF582E58334251B
:10157A00F583E493FF1200060523E523C394025082
:10158A00030214ED0524E524C3940650030214EA69
:10159A000522E522C3940550030214E722E51CD371
:1015AA00947850030220C6D20722751005C207C2DA
:1015BA000822E5106405600302171E2008030217BB
:1015CA007FD2B420B40FE4F59012320A122E5C7561
:1015DA001006C20822E51CD394144003021FC0E57A
:1015EA001CD3940A406BE51C941450657F01123297
:1015FA0068752306752414E52344B8FF1231AFE554
:10160A00244440FF1231AFE4FF1200060524E5240A
:10161A00C3944040E20523E523C3940840D67F02E1
:10162A00123268752306E4F524E52344B8FF123123
:10163A00AFE5244440FF1231AFE4FF12000605244F
:10164A00E524C3942B40E20523E523C3940840D63E
:10165A0022E51CC3941E40030220C6E4F522E4F5E9
:10166A0024E4F523C209E52275F007A424142524ED
:10167A00F52474062523F523E524C3944050077FF7
:10168A0001123268800D7F0212326874C02524F577
:10169A0024D209E524C394405055E52344B8FF12E7
:1016AA0031AFE5244440FF1231AF300906744025BA
:1016BA0024F524E52275F007A42414FFC3E5249F2A
:1016CA00F52474FA2523F52375F006A42524F5825A
:1016DA00E435F0F58375F00CE5221232D1E5822467
:1016EA00A7F582E5833425F583E493FF1200060506
:1016FA0023E523C39402500302166E0524E524C38E
:10170A009406500302166B0522E522C3940B50037C
:10171A0002166822E51064067029759002200702F5
:10172A00F51C750F1EE51CC3950F500E30070302FA
:10173A0020C6AF0A122CD1D20722123130751003FB
:10174A00C20722E51064037020200702F51C750FFA
:10175A001EE51CC3950F50093007030220C6021E5E
:10176A00B4D28CE4F590021EBCE510640760030253
:10177A001842200805D208F51C22E51CC3943250F1
:10178A003FE51C75F00A84E5F0701AF522E522C3DC
:10179A00951740030220C6E5222519FFAD1A12301B
:1017AA00B7052280E8E4F522E522C3951740030233
:1017BA0020C6E5222519FFAD1A1230F4052280E869
:1017CA00E51CB4320A751780851918E4F51922E563
:1017DA001CC39464503FE51C75F00A84E5F0701A46
:1017EA00F522E522C3951740030220C6E5222519F2
:1017FA00FFAD1A1230B7052280E8E4F522E522C3CC
:10180A00951740030220C6E5222519FFAD1A1230AA
:10181A00F4052280E8E4F522E522C39517500EE587
:10182A00222519FFAD1A1230F4052280EBC2087581
:10183A001001E4F50DD20022E510640860030219D4
:10184A0015200816C374FF958AC394555006E4F50B
:10185A0023021A71752302021A71E51CC3943250CD
:10186A0073E51C75F00A84E5F07034F522E4F5247A
:10187A00E4FF123268E523252244B8FF1231AFE5AE
:10188A00244440FF1231AFE4FF1200060524E52488
:10189A00C3944040DB0522E522C3940240CF22E4F0
:1018AA00F522E4F524E4FF123268E523252244B840
:1018BA00FF1231AFE5244440FF1231AF7FFF12001F
:1018CA00060524E524C3944040DB0522E522C3949F
:1018DA000240CF22E4F522E4F524E4FF123268E55F
:1018EA0023252244B8FF1231AFE5244440FF1231C8
:1018FA00AFE4FF1200060524E524C3944040DB054B
:10190A0022E522C3940240CF021C74E510640960E8
:10191A0003021A56850B23850C24E524131313544A
:10192A001FF524200803021A71E51CC394324003F0
:10193A000219FBE51C75F00A84E5F07059F522E5F9
:10194A00232522FFE433FEC3EF9440EE64809480A3
:10195A0050097F01123268C20A800D74C02523F52E
:10196A00237F02123268D20AE52325224440FF125D
:10197A0031AFE52444B8FF1231AF90262BE493FF30
:10198A00120006300A0674402523F5230522E522B3
:10199A00C3940840AA22E4F522E5232522FFE43372
:1019AA00FEC3EF9440EE6480948050097F011232A6
:1019BA0068C20A800D74C02523F5237F021232689B
:1019CA00D20AE52325224440FF1231AFE52444B868
:1019DA00FF1231AFE52290263B93FF120006300A30
:1019EA000674402523F5230522E522C3940840A95D
:1019FA0022E4F522E5232522FFE433FEC3EF9440D7
:101A0A00EE6480948050097F01123268C20A800D08
:101A1A0074C02523F5237F02123268D20AE52325F2
:101A2A00224440FF1231AFE52444B8FF1231AFE43B
:101A3A00FF120006300A0674402523F5230522E525
:101A4A0022C3940840AEC20875100222E510640A47
:101A5A006003021B99850B23850C24E524131313B9
:101A6A00541FF524200805D208021FC0E51CC394A0
:101A7A00324003021B3EE51C75F00A84E5F07059FA
:101A8A00F522E5232522FFE433FEC3EF9440EE64FA
:101A9A0080948050097F01123268C20A800D74C096
:101AAA002523F5237F02123268D20AE52325224430
:101ABA0040FF1231AFE52444B8FF1231AF90262B14
:101ACA00E493FF120006300A0674402523F5230525
:101ADA0022E522C3940840AA22E4F522E52325221E
:101AEA00FFE433FEC3EF9440EE6480948050097F94
:101AFA0001123268C20A800D74C02523F5237F02C1
:101B0A00123268D20AE52325224440FF1231AFE59A
:101B1A002444B8FF1231AFE52290264393FF120006
:101B2A0006300A0674402523F5230522E522C394CC
:101B3A000840A922E4F522E5232522FFE433FEC367
:101B4A00EF9440EE6480948050097F01123268C29B
:101B5A000A800D74C02523F5237F02123268D20A47
:101B6A00E52325224440FF1231AFE52444B8FF1291
:101B7A0031AFE4FF120006300A0674402523F5232C
:101B8A000522E522C3940840AEC208E4F51022E516
:101B9A0010640B6003021C7A200807D208F51CC2E5
:101BAA000022E51CC39432503FE51C75F00A84E517
:101BBA00F0701AF522E522C3951740030220C6E504
:101BCA00222519FFAD1A1230B7052280E8E4F52262
:101BDA00E522C3951740030220C6E5222519FFAD69
:101BEA001A1230F4052280E8E51CB4321FE4F5220B
:101BFA00E522C39517500EE5222519FFAD1A1230BA
:101C0A00B7052280EB85111785181922E51CC394A4
:101C1A0064503FE51C75F00A84E5F0701AF522E578
:101C2A0022C3951740030220C6E5222519FFAD1AE3
:101C3A001230B7052280E8E4F522E522C395174061
:101C4A00030220C6E5222519FFAD1A1230F4052237
:101C5A0080E8E4F522E522C39517500EE5222519FE
:101C6A00FFAD1A1230F4052280EBC208751001226A
:101C7A00122F7DE510B4010C759003122951122D13
:101C8A00AF0231BCE5106003021ECB759006E50E6B
:101C9A006003021E9C750A01200702F51CE51CC39D
:101CAA00941E50093007030220C6021EB4E51C64C4
:101CBA001E6003021D7312320AE4F516C200F50D06
:101CCA00F522E4F524E4F523C209E52275F014A40B
:101CDA00241E2524F5240523C3944050077F0112AE
:101CEA003268800D7F0212326874C02524F524D22E
:101CFA0009E52344B8FF1231AFE5244440FF12310D
:101D0A00AF30090674402524F524E52275F014A4A1
:101D1A00241EFFC3E5249FF5241523FF75F00CE567
:101D2A0023A42FF582E435F0F58375F024E5221219
:101D3A0032D1E5822457F582E5833421F583E49391
:101D4A00FF1200060523E523C394035003021CD2A5
:101D5A000524E524C3940C5003021CCF0522E52276
:101D6A00C394045003021CCC22E51CD3941E5003D6
:101D7A000220C6D2B420B40C12320A750E057510B0
:101D8A0004C20722E51CD394324004751C1F22E5C5
:101D9A001CD394284039E51C94325033E4FF1232A4
:101DAA0068752306E4F524E52344B8FF1231AFE54C
:101DBA00244440FF1231AFE4FF1200060524E52453
:101DCA00C3944040E20523E523C3940840D622E5A4
:101DDA001CC3942840030220C6E4F522E4F524E457
:101DEA00F523C209E52275F007A424142524F52455
:101DFA0074062523F523E524C3944050077F011276
:101E0A003268800D7F0212326874C02524F524D20C
:101E1A0009E524C394405055E52344B8FF1231AF75
:101E2A00E5244440FF1231AF30090674402524F5F9
:101E3A0024E52275F007A42414FFC3E5249FF524A2
:101E4A0074FA2523F52375F006A42524F582E435D2
:101E5A00F0F58375F00CE5221232D1E58224A7F55C
:101E6A0082E5833425F583E493FF1200060523E512
:101E7A0023C394025003021DEC0524E524C39406EF
:101E8A005003021DE90522E522C3940B5003021DEB
:101E9A00E622200705E4F51C150E750F1EE51CC386
:101EAA00950F500E3007030220C6AF0E122BF3D245
:101EBA000722123130123075122FD4751001C20761
:101ECA0022E510640260030220C6759007F516C267
:101EDA0000F50D300703021F94D207F51C12320ACF
:101EEA00E4F522E4F524E4F523C209E52275F014A9
:101EFA00A4241E2524F5240523C3944050077F01FA
:101F0A00123268800D7F0212326874C02524F524CB
:101F1A00D209E52344B8FF1231AFE5244440FF1249
:101F2A0031AF30090674402524F524E52275F014F2
:101F3A00A4241EFFC3E5249FF5241523FF75F00C86
:101F4A00E523A42FF582E435F0F58375F024E52224
:101F5A001232D1E58224C7F582E5833420F583E481
:101F6A0093FF1200060523E523C394035003021EC0
:101F7A00F30524E524C3940C5003021EF00522E560
:101F8A0022C394045003021EED22D2B420B42012BC
:101F9A00320AE50AC39403500A050A122E5C751028
:101FAA00068009750A01750E05751004C20722E537
:101FBA001CD394144004E4F51C22E51CD3940A4073
:101FCA0039E51C94145033E4FF123268752306E491
:101FDA00F524E52344B8FF1231AFE5244440FF124B
:101FEA0031AFE4FF1200060524E524C3944040E221
:101FFA000523E523C3940840D622E51CC3941E405A
:10200A00030220C6E4F522E4F524E4F523C209E537
:10201A002275F007A424142524F52474062523F533
:10202A0023E524C3944050077F01123268800D7F54
:10203A000212326874C02524F524D209E524C39417
:10204A00405055E52344B8FF1231AFE5244440FF20
:10205A001231AF30090674402524F524E52275F0C3
:10206A0007A42414FFC3E5249FF52474FA2523F555
:10207A002375F006A42524F582E435F0F58375F07E
:10208A000CE5221232D1E58224A7F582E5833425B4
:10209A00F583E493FF1200060523E523C394025057
:1020AA00030220170524E524C394065003022014D2
:0C20BA000522E522C3940B500302201104
:0120C60022F7
:0632F90012329502320AB8
:03000000022EF1DC
:0C2EF100787FE4F6D8FD75812B022F38A5
:0C32D100A42582F582E5F03583F5832208
:102EFD00023280E493A3F8E493A34003F68001F239
:102F0D0008DFF48029E493A3F85407240CC8C333D5
:102F1D00C4540F4420C8834004F456800146F6DFA4
:102F2D00E4800B0102040810204080903163E47EA0
:102F3D00019360BCA3FF543F30E509541FFEE49399
:102F4D00A360010ECF54C025E060A840B8E493A360
:102F5D00FAE493A3F8E493A3C8C582C8CAC583CA8B
:102F6D00F0A3C8C582C8CAC583CADFE9DEE780BE43
:01319000003E
:00000001FF
