:08255200C2A1C2A08E80D2A03C
:02255A0000225D
:1024DD00EF7005C2A4C2A322BF0105C2A4D2A322DC
:0824ED00BF0204D2A4C2A32225
:1024C100D2A1C2A2C2A0D2A0E58030E70CC2A0AFC7
:0B24D1002B052BEFD3940A40EDC2A0B6
:0124DC0022DD
:10240600EEC41313540304FF1224DDEE543FFCED17
:0E241600131313541FFBED5407FDEB44B8FFE6
:0D242400AE071224C1C2A2122552C2A0228E
:0D000600AE071224C1D2A2122552C2A022C0
:10250A007F3F1224247FC01224247FB81224247F00
:04251A004002242433
:10247F00E4FF1224DD7DB8AF051224247F4012241F
:10248F0024E4FCE4FF1200060CBC40F70DBDC0E7CE
:01249F00221A
:1024A0001224C1D2A2D2A17580FFD2A0AF80C2A057
:1024B0001224C1D2A2D2A17580FFD2A0AF80C2A047
:0124C00022F9
:02236900AE07BD
:10236B00EEC394805033EDC39440502D122406ECF1
:10237B004440FF1224241224A0AA07AF057401A81D
:10238B0007088002C333D8FC4202122420EC4440DD
:09239B00FF122424AF0212000617
:0123A4002216
:02232C00AE07FA
:10232E00EEC394805034EDC39440502E122406EC2C
:10233E004440FF1224241224A0AA07AF057401A85A
:10234E0007088002C333D8FCF45202122420EC4456
:0A235E0040FF122424AF0212000613
:012368002252
:02229B00AE078C
:10229D00EEC394805042EDC39440503CEEC41313F2
:1022AD00540304FF1224DDEE543FFCED13131354BD
:1022BD001FFFED5407FDEF44B8FF122424EC4440FA
:1022CD00FF1224241224A0AE05EFA806088002C335
:0C22DD0013D8FC13920E8002D20EA20E49
:0122E90022D2
:0323D800011D00E4
:0C252E00438910758D63758BC0D28E221E
:0C253A00438902758A89758C89C28C2245
:05001600D288D28A220D
:09255C00D2AFD2ABD2A8D2AA2260
:10251E0012252E12253A12001612255C7590FF22F6
:1024F50012251E12256EE51DC3940340F912001E18
:05250500E4F51D80F16A
:03001B0002256556
:09256500051D758D63758BC032F4
:030003000225745F
:03257400C204326C
:030013000225774C
:03257700D2043259
:100D3B0004FCFC040000000004FCFC040003FF8026
:100D4B0000FCFC0080FF03000000033F3C03033C5E
:100D5B003F030000000000040404FCFC0404040036
:100D6B00000000000000FFFF00000000000000205A
:100D7B0020203F3F2020200004FCFCE0000000046A
:100D8B00FCFC040000FFFF01071C70C0FFFF00000C
:100D9B00203F3F20000000030F3F00000000000039
:100DAB0000FCFEFC00000000000000000003FF033D
:100DBB00000000000000000000307930000000004F
:100DCB0004FCFC0404040C1870E0800000FFFF001E
:100DDB000000000000FFFF00203F3F2020203018C4
:100DEB000E070100000000040404FCFC04040400D2
:100DFB00000000000000FFFF0000000000000020CA
:100E0B0020203F3F2020200004FCFC0404040404A9
:100E1B000C1C7C0000FFFF0808081C7F0000000072
:100E2B00203F3F202020202030383E0000000000D3
:100E3B0000FCFEFC00000000000000000003FF03AC
:100E4B0000000000000000000030793000000000BE
:100E5B0004FCFC04000000000000000000FFFF0089
:100E6B000000000000000000203F3F202020202039
:100E7B0030383E00000000040404FCFC04040400B1
:100E8B00000000000000FFFF000000000000002039
:100E9B0020203F3F2020200004FCFC040404040419
:100EAB000C1C7C0000FFFF0808081C7F00000000E2
:100EBB00203F3F20000000000000000004FCFC0469
:100ECB00040404040C1C7C0000FFFF0808081C7FB2
:100EDB0000000000203F3F202020202030383E0023
:100EEB0000000000000000000000000000C3C3C3AE
:100EFB00C3C3C3C3C3C3C300000000000000000092
:100F0B000000000004FCFC040000000000000000D6
:100F1B0000FFFF000000000000000000203F3F200A
:100F2B002020202030383E0004FCFC040404040480
:100F3B000C1C7C0000FFFF0808081C7F0000000051
:100F4B00203F3F202020202030383E0004FCFC04B2
:100F5B0000000004FCFC040000003FFFC000C0FFC9
:100F6B003F000000000000031F3C1F0300000000B7
:100F7B0004FCFC04040404040C1C7C0000FFFF08AC
:100F8B0008081C7F00000000203F3F20202020206D
:100F9B0030383E0004FCFC040000000000000000A0
:100FAB0000FFFF000000000000000000203F3F207A
:100FBB002020202030383E00000000000000000000
:100FCB000000000000C3C3C3C3C3C3C3C3C3C30078
:100FDB0000000000000000000000000000C0F0381E
:100FEB000C040C38F0C00000FFFF000000000000F4
:100FFB0000FFFF0000030F1C3020301C0F0300000C
:10100B000010101818FCFC0000000000000000008D
:10101B0000FFFF000000000000002020203F3F20C9
:10102B002020000060F0F80C0404040C18F0E00021
:10103B0000000080C06030180E070100383E3F33BF
:10104B003030303030303C00003078780C04040CF9
:10105B0018F8F0000000000008081C1633E1C0006F
:10106B000C1E3E3020202030181F0F000000000007
:10107B0080E038FCFC00000080E0380E030000FF2D
:10108B00FF000000010101010121213F3F2121014E
:10109B0000FCFC0C0C0C0C0C0C0C0000001F0F08C3
:1010AB00040202061CF8E0000C1E3E30202020300B
:1010BB001C0F030004FCFC0404040C18F0E00000FB
:1010CB0000FFFF0808081C1673E18000203F3F203B
:1010DB00202020301C0F030004FCFC0404040C181B
:1010EB00F8E0000000FFFF0838F8CC06070100000D
:1010FB00203F3F200000032F3C30200004FCFC0469
:10110B00040404040C1C7C0000FFFF0808081C7F6F
:10111B0000000000203F3F202020202030383E00E0
:10112B0000000000F00C3CF0000000000000F0FF9D
:10113B0043404043FFF00000203E3F2000000000F2
:10114B00203F3E2004FCFC040080E47C1C040400D3
:10115B0000FFFF781E7FE18000000000203F3F2052
:10116B00000001273E382020E0F0180C0404040C8A
:10117B0018F0E000FFFF00000000000000FFFF0080
:10118B00070F183020202030180F070004FCFC0438
:10119B0000000004FCFC040000FFFF000000000046
:1011AB00FFFF0000000F1F30202020301F0F00001A
:1011BB007C1C0C0404FCFC04040C1C7C00000000D4
:1011CB0000FFFF000000000000000020203F3F2038
:1011DB002000000000FC0202028600000101010059
:1011EB000002FE0200C000010101010100FC02022D
:1011FB0002FC00000101010002FE0E7082FE0101E3
:10120B000100010102FE123A0286010101010101F6
:10121B000002FE22221C0001010100000008F81050
:10122B00080800010101010100F028282830000006
:10123B00010101010090282828D8000101010100BB
:10124B000090282828D800010101010000000000AF
:10125B000000000000000000008C921214E6000158
:10126B0000010100000602FE020600000101010060
:10127B0000C07A4678C001010100010102FE222262
:10128B00629C010101000000000602FE0206000044
:10129B0001010100FF8181BFBFBFBFFFFFC3BDBD08
:1012AB00BDBDDBFFFFC1BFC3C3BFC1FFFF8181BD9D
:1012BB00BDDBE7FFFFFFFFFFFFFFFFFFFFFFFFFFB1
:1012CB00FFFFFFFFFFF7EFEFDFDFBF7FFFFFFFFF4B
:1012DB00FFFFFFFFFFFFFF7F9FE7FBFDFFFFFFFF11
:1012EB00FFFFFFFFFFFFFFFFFFFFFFFFFFFFFFFF03
:1012FB00FFFFFFFFFFFFFFFFFFFFFFFFFFFFFFFFF3
:10130B00FF01FDFD0DEDEDEDEDED6D6D2C2DEDED1D
:10131B00EDEDEDEDEDED2D2C6D6D6DEDEDEDEDEDF3
:10132B000DFDFD01FFFFFFFFFFFFFFFFFFFFFFFFB6
:10133B00FFFFFFFFFFFFFFFFFFFFFFFFFFFFFFFFB2
:10134B00FF00FFFF80BFBFBFBCBCBEBEB3ADAFB71E
:10135B00BBB9B7AFAFB5BBBFBEBEBEBFBFBFBFBFD5
:10136B0080FFFF00FFFFFFFFFFFFFFFFFFFFFFFF00
:10137B00FFFFFFFFFFFFFFFFFFFFFFFFFFFFFFFF72
:10138B00FFFCFDFDFDFDCDC1F1FDFDFDFDFDFDFDF9
:10139B00FDFDFDFDFDFDFDFDF1C1CDFDFDFDFDFDEA
:1013AB00FDFDFDFCFFFFFFFFFFFFFFFFFFFFFFFF4B
:1013BB00FFFFFFFFFFFFFFFFFFFFFFFFFFFFFFFF32
:1013CB00FFFFFFFFFFFFFFFFFFFFFFFFFFFFFF7FA2
:1013DB00BFBF7FFFFFFFFFFFFFFFFFFFFFFFFFFF12
:1013EB00FFFFFFFFFFFFFF7FBFBF7FFFFFFFFFFF82
:1013FB00FFFFFFFFFFFFFFFFFFFFFFFFFFFFFFFFF2
:10140B00FFFFFFFFFF0703010101010307010603B4
:10141B00010101010307FFFFFFFFFFFFFF070301AF
:10142B000101010307010603010171F9FFFFFFFF32
:10143B00FFFFFFFFFFFFFFFFFFFFFFFFFFFFFFFFB1
:10144B00FFFFFFFFFFF0E0C0808080808080808006
:10145B00808080C0E0F0FFFFFFFFFFFFFFF0E0C0E8
:10146B008080808080808080808080C0E0F0FFFF63
:10147B00FFFFFFFFFFFFFFFFFFFFFFFFFFFFFFFF71
:10148B00FFFFFFFFFFFFFFFFFFFFFFFFFFFFFFFF61
:10149B00FFFFFFFFFFFFFFFFFFFFFFFFFFFFFFFF51
:1014AB00FFFFFFFFFFFFFFFFFFFFFFFFFFFFFFFF41
:1014BB00FFFFFFFFFFFFFFFFFFFFFFFFFFFFFFFF31
:1014CB00FFFFFFFFFFFFFFFFFFFFFFFFFFFF7F7F21
:1014DB007F7F7F7F7F7F7F7F7F7F7F7F7FFFFFFF91
:1014EB00FFFFFFFFFFFFFFFFFFFFFFFFFFFFFFFF01
:1014FB00FFFFFFFFFFFFFFFFFFFFFFFFFFFFFFFFF1
:10150B00FFFFBF1F4FE7F3FBF9FDFDFCFEBE1E0FF8
:10151B000703010140E0F0E0410103070E1EBEFC92
:10152B00FDFDF9FBF3E74F1FBFFFFFFFFFFFFFFFC2
:10153B00FFFFFFFFFFFFFFFFFFFFFFFFFFFFFFFFB0
:10154B00FFFFFFFFFEFCF9FBF3F7F7E7EFEFCFDE53
:10155B00DCD8D0D0C0C0C1C0D0D0D8DCCEEFEFE744
:10156B00F7F7F3FBF9FCFEFFFFFFFFFFFFFFFFFFAA
:10157B00FFFFFFFFFFFFFFFFFFFFFFFFFFFFFFFF70
:10158B00FFFFFFFFFFFFFFFFFFFFFFFFFFFFFFFF60
:10159B00FFFFFFFFFFFFFFFFFFFFFFFFFFFFFFFF50
:1015AB00FFFFFFFFFFFFFFFFFFFFFFFFFFFFFFFF40
:0A15BB00FFFFFFFF003F073E0001A5
:1023DB00011004010E05011C00010F00C107C1080B
:1023EB00010A01011600C100010D00010B00010CD7
:0A23FB0000011300C183C105C106F3
:101BC600300013E50DC394FF5004050D8008C200D4
:101BD600E4F50D75100BE5166003021DF4C374FFE2
:101BE600958A24EC7003021D7824E27003021C809F
:101BF60024CE7003021CFC24636003021E67751664
:101C060001858A26C374FF9526F52575F00584247B
:101C160021F52685250BF50C131313541FF526E421
:101C2600F527E5252527FFE433FEC3EF9440EE6450
:101C360080948050097F011224DDC20B800D74C090
:101C46002525F5257F021224DDD20BE5252527441F
:101C560040FF122424E52644B8FF122424E52790E9
:101C6600129F93FF120006300B0674402525F525BA
:101C76000527E527C3940840A922751602858A26FA
:101C8600C374FF9526F52575F005842421F5268570
:101C9600250BF50C131313541FF526E4F527E5253C
:101CA6002527FFE433FEC3EF9440EE648094805012
:101CB600097F011224DDC20B800D74C02525F52590
:101CC6007F021224DDD20BE52525274440FF12248E
:101CD60024E52644B8FF122424E5279012A793FF93
:101CE600120006300B0674402525F5250527E52745
:101CF600C3940840A922751603858A26C374FF95E6
:101D060026F52575F005842421F52685250BF50C89
:101D1600131313541FF526E4F527E5252527FFE4BD
:101D260033FEC3EF9440EE6480948050097F011225
:101D360024DDC20B800D74C02525F5257F021224F3
:101D4600DDD20BE52525274440FF122424E5264451
:101D5600B8FF122424E5279012AF93FF1200063035
:101D66000B0674402525F5250527E527C39408406D
:101D7600A922751604858A26C374FF9526F525754E
:101D8600F005842421F52685250BF50C1313135431
:101D96001FF526E4F527E5252527FFE433FEC3EFE7
:101DA6009440EE6480948050097F011224DDC20BBA
:101DB600800D74C02525F5257F021224DDD20BE5A2
:101DC6002525274440FF122424E52644B8FF122483
:101DD60024E5279012B793FF120006300B067440D5
:101DE6002525F5250527E527C3940840A922E513EF
:101DF600D39464406A850B25850C26E526131313B8
:101E0600541FF526E4F527E5252527FFE433FEC311
:101E1600EF9440EE6480948050097F011224DDC265
:101E26000B800D74C02525F5257F021224DDD20B0B
:101E3600E52525274440FF122424E52644B8FF1251
:101E46002424E4FF120006300B0674402525F525F0
:101E56000527E527C3940840AEE4F513F5162205D9
:011E66001368
:011E67002258
:1023A500E4FF1224DD752904E4F52AE52944B8FF84
:1023B500122424E52A4440FF122424E4FF120006D7
:1023C500052AE52AC3944040E20529E529C3940876
:0223D50040D6F0
:0123D70022E3
:021E68008F25C4
:101E6A001223A5E4F528E4F527E4F526C20BE528B4
:101E7A0075F00FA424142527F52774042526F526C2
:101E8A00E527C3944050077F011224DD800D7F02AD
:101E9A001224DD74C02527F527D20BE52644B8FFA6
:101EAA00122424E5274440FF122424300B067440F0
:101EBA002527F527E52875F00FA42414FFC3E52785
:101ECA009FF52774FC2526F526E528C3940575F0A9
:101EDA000CE526501EA42527F582E435F0F5837516
:101EEA00F024E528122546E582245BF582E5833451
:101EFA000E801CA42527F582E435F0F58375F024BD
:101F0A00E525122546E58224E7F582E583340FF5B7
:101F1A0083E493FF1200060526E526C394035003C3
:101F2A00021E760527E527C3940C5003021E73058B
:0B1F3A0028E528C394065003021E7027
:011F45002279
:021F46008F25E5
:101F48001223A5E4F528E4F527E4F526C20BE528D5
:101F580075F00FA424142527F52774042526F526E3
:101F6800E527C3944050077F011224DD800D7F02CE
:101F78001224DD74C02527F527D20BE52644B8FFC7
:101F8800122424E5274440FF122424300B06744011
:101F98002527F527E52875F00FA42414FFC3E527A6
:101FA8009FF52774FC2526F526E528C3940675F0C9
:101FB8000CE526501EA42527F582E435F0F5837537
:101FC800F024E528122546E582240FF582E58334BE
:101FD8000F801CA42527F582E435F0F58375F024DD
:101FE800E525122546E58224E7F582E583340FF5D9
:101FF80083E493FF1200060526E526C394035003E5
:10200800021F540527E527C3940C5003021F5105EE
:0B20180028E528C394075003021F4E68
:01202300229A
:1020D100E4FF1224DDE4F525E4F526E52544B8FF07
:1020E100122424E5264440FF122424E50A24FE603C
:1020F1000714601F2402803675F040E525A42526CB
:10210100F582E435F0F583E58224BFF582E5833479
:1021110013803475F040E525A42526F582E435F0D9
:10212100F583E58224BFF582E5833414801975F0C7
:1021310040E525A42526F582E435F0F583E58224E2
:10214100BFF582E5833412F583E493FF120006059F
:1021510026E526C3944040830525E525C394045014
:04216100030220D97C
:012165002257
:1021F200851028751002752501AF251224DDE4F53E
:1022020026E4F527E52644B8FF122424E5274440B6
:10221200FF1224241224A0EF6005852810800905EE
:1022220027E527C3944040DCE510652860090526B0
:10223200E526C3940440CAE510652860090525E532
:0622420025C3940340B324
:012248002273
:10224900E50A24FE600714600C24028010751B0245
:10225900751114800E751B0375110C8006751B0111
:102269007511189015BFE493F519A3E493F51A8530
:102279001B12851117A2039204E4F525E525C395E0
:1022890017500EE5192525FFAD1A1223690525807A
:01229900EB59
:01229A002221
:10202400300463C374809517C39512FFE519D39FD9
:1020340040030220D0E5172512FFE433FED3EF94CA
:1020440080EE6480948040030220D0752501E5125F
:102054002401FFE433FEC3E5259FEE6480F8748019
:1020640098501CE519252514FFAD1A12232CE519E7
:102074002517142525FFAD1A122369052580CFE500
:10208400122519F51922C3E51995127480F89840A0
:102094003B752501E5122401FFE433FEC3E5259FCA
:1020A400EE6480F8748098501CE5192517C39525B3
:1020B400FFAD1A12232CC3E5199525FFAD1A12237F
:0C20C40069052580CFC3E5199512F519B8
:0120D00022ED
:1022EA009015C1E493F514A3E493F515A3E493F5CB
:1022FA0008A3E493F509A2059201A2069202AD157C
:10230A00AF14122369E51514FDAF14122369E514FD
:10231A0004FFAD15122369E51404FFE51514FD0247
:02232A00236925
:10245B00AD15AF1412232CE51404FFAD1512232C6C
:10246B00E51514FDAF1412232CE51404FFE5151428
:04247B00FD02232C0F
:1015C500E4F5902002030216E8E51524FEFDAF14AC
:1015D50012229B4016E51404FFE51524FEFD122298
:1015E5009B4008E515146003021814E515D39422F1
:1015F50050030216A9E515943E40030216A9E51409
:10160500C3947E40030216A9E51494005003021604
:10161500A9E50C131313541FF50CE4F525E50B256B
:1016250025FFE433FEC3EF9440EE648094805009B7
:101635007F011224DDC20D800D74C0250BF50B7FD3
:10164500021224DDD20DE50B25254440FF1224248A
:10165500E50C44B8FF122424E4FF120006300D0601
:101665007440250BF50B0525E525C3940840AEE52B
:101675000C75F008A4F50CE4F513E51624FE6012CC
:1016850014601514601824037017D2007510070232
:1016950017BF7510080217BF7510090217BF75101F
:1016A5000A0217BF759004E515146032E51524FE8E
:1016B500FDAF1412232CE51404FFE51524FEFD12DD
:1016C500232CE51524FE6016E51524FDFDAF141247
:1016D500232CE51404FFE51524FDFD12232CB2028D
:1016E500021814E51504FDAF1412229B4010E514F1
:1016F50004FFE51504FD12229B4003021814E515AD
:10170500643F7003021811E515D3942250030217A4
:10171500C4E515943E40030217C4E514C3947E4006
:10172500030217C4E514940050030217C4E50C1313
:101735001313541FF50CE4F525E50B2525FFE433BC
:10174500FEC3EF9440EE6480948050097F0112241B
:10175500DDC20D800D74C0250BF50B7F021224DD53
:10176500D20DE50B25254440FF122424E50C44B891
:10177500FF122424E4FF120006300D067440250BE9
:10178500F50B0525E525C3940840AEE50C75F00875
:10179500A4F50CE4F513E51624FE6011146013148A
:1017A500601524037014D200751007800D7510089C
:1017B5008008751009800375100AE4F516805075C8
:1017C5009004E5152401FFE433FEEF651A7001EE80
:1017D500602CE51504FDAF1412232CE51404FFE578
:1017E5001504FD12232CE5152402FDAF1412232C3C
:1017F500E51404FFE5152402FD12232C800A7590DB
:1018050005851208A2049201B2028003E4F510E5F1
:101815001064016003021BC520010302193BE51496
:101825002402FFAD1512229B401FE5142402FFE59B
:101835001514FD12229B4011E5142401FFE433FE2B
:10184500EF647F4E6003021A48E515D394225003D6
:10185500021907E515943E4003021907E514C394E0
:101865007E4003021907E51494005003021907E5A9
:101875000C131313541FF50CE4F525E50B2525FF73
:10188500E433FEC3EF9440EE6480948050097F01F9
:101895001224DDC20D800D74C0250BF50B7F0212DD
:1018A50024DDD20DE50B25254440FF122424E50C4B
:1018B50044B8FF122424E4FF120006300D067440DC
:1018C500250BF50B0525E525C3940840AEE50C75FC
:1018D500F008A4F50CE4F513E51624FE6012146077
:1018E5001514601824037017D200751007021A0D1D
:1018F500751008021A0D751009021A0D75100A02E5
:101905001A0D759004E5142402FFAD1512232CE57C
:10191500142402FFE51514FD12232CE5142403FFFE
:10192500AD1512232CE5142403FFE51514FD122330
:101935002CB201021A48E51414FFAD1512229B4082
:1019450014E51414FFE51514FD12229B4007E51458
:101955006003021A48E515D394225003021A12E5D2
:1019650015943E4003021A12E514C3947E40030207
:101975001A12E51494005003021A12E50C131313FE
:10198500541FF50CE4F525E50B2525FFE433FEC3CF
:10199500EF9440EE6480948050097F011224DDC2EB
:1019A5000D800D74C0250BF50B7F021224DDD20DC1
:1019B500E50B25254440FF122424E50C44B8FF120D
:1019C5002424E4FF120006300D067440250BF50BA8
:1019D5000525E525C3940840AEE50C75F008A4F58A
:1019E5000CE4F513E51624FE60111460131460155C
:1019F50024037014D200751007800D751008800837
:101A0500751009800375100AE4F516803675900483
:101A1500E514602D14FFAD1512232CE51414FFE514
:101A25001514FD12232CE514146016E51424FEFF8D
:101A3500AD1512232CE51424FEFFE51514FD122324
:101A45002CB201C20B300262752501E5092401FFA4
:101A5500E433FEC3E5259FEE6480F8748098503C1E
:101A6500E51514C39525FD700BD20BC3E51595251A
:101A7500F5158028AF1412229B400FE51404FFE5ED
:101A850015149525FD12229B500ED20BE52514FF4A
:101A9500C3E5159FF5158004052580AFA20BB3504E
:101AA50055C3E5159509F515804C752501E50924FE
:101AB50001FFE433FEC3E5259FEE6480F87480984A
:101AC5005029E5152525FDAF1412229B400EE5147E
:101AD50004FFE5152525FD12229B500BD20BE525AC
:101AE500142515F5158004052580C2A20BB35006F3
:101AF500E5092515F515C20C30016C752501E509BB
:101B05002401FFE433FEC3E5259FEE6480F874806D
:101B1500985048E5142401FFE433FE7C00EF2525A9
:101B2500FFEC3EFEEF647F4E7006D20CE52580216A
:101B3500E514042525FFAD1512229B400FE514047D
:101B45002525FFE51514FD12229B500BD20CE5252A
:101B5500142514F5148004052580A3A20CB3506048
:101B6500E5082514F51422752501E5092401FFE48E
:101B750033FEC3E5259FEE6480F87480985035C325
:101B8500E5149525FF7006D20C8F148027AD15122C
:101B9500229B400EE5149525FFE51514FD12229BA9
:101BA500500ED20CE52514FFC3E5149FF5148004EF
:101BB500052580B6A20CB35007C3E5149508F514A6
:011BC50022FD
:1024310012245B1215C5AD15AF14122369E51514ED
:10244100FDAF14122369E51404FFAD15122369E5EC
:0A2451001404FFE51514FD022369D1
:10001E00E51064016002051CE51064046003020231
:10002E0030759001200805F51CD208223007030216
:10003E000228E51CC39450400302010DE51C75F027
:10004E000A84F522E51C75F00A842401FFE433FED0
:10005E00C3E5229FEE6480F87480984003020D3A47
:10006E00E4F524E4F523C209E52275F00FA4240576
:10007E002524F5240523C3944050077F011224DD67
:10008E00800D7F021224DD74C02524F524D209E5EB
:10009E002344B8FF122424E5244440FF12242430C4
:1000AE00090674402524F524E52275F00FA42405D5
:1000BE00FFC3E5249FF5241523FF75F00CE523A45B
:1000CE002FF582E435F0F58375F024E522122546EE
:1000DE00E58224BFF582E5833410F583E493FF12A5
:1000EE0000060523E523C394035003020074052480
:1000FE00E524C3940C50030200710522020052E560
:10010E001CD39450500302021BE51C94784003024A
:10011E00021BE4FF1224DD752304C37490951CF5B5
:10012E0024E524C394405019E52344B8FF12242437
:10013E00E5244440FF122424E4FF12000605248027
:10014E00E00523E523C3940640D0E4F522E4F5242C
:10015E00E4F523C209C374CF951CFFE52275F007A1
:10016E00A42F2524F52474042523F523E524C39414
:10017E004050077F011224DD800D7F021224DD74B2
:10018E00C02524F524D209E524C39440505AE52312
:10019E0044B8FF122424E5244440FF1224243009DD
:1001AE000674402524F524C374CF951CFFE52275F3
:1001BE00F007A42FFFC3E5249FF52474FC2523F537
:1001CE002375F006A42524F582E435F0F58375F049
:1001DE000CE522122546E58224DFF582E5833411F3
:1001EE00F583E493FF1200060523E523C394025022
:1001FE00030201610524E524C39406500302015E47
:10020E000522E522C39405500302015B22E51CD3AF
:10021E0094785003020D3AD20722751005C207C218
:10022E000822E5106405600302039220080302030E
:10023E00F3D2B420B40FE4F59012247F1220D175BE
:10024E001006C20822E51CD394144003020C34E5B8
:10025E001CD3940A406BE51C941450657F01122444
:10026E00DD752306752414E52344B8FF122424E516
:10027E00244440FF122424E4FF1200060524E52442
:10028E00C3944040E20523E523C3940840D67F0281
:10029E001224DD752306E4F524E52344B8FF122469
:1002AE0024E5244440FF122424E4FF120006052412
:1002BE00E524C3942B40E20523E523C3940840D6DE
:1002CE0022E51CC3941E4003020D3AE4F522E4F528
:1002DE0024E4F523C209E52275F007A4241425248D
:1002EE00F52474062523F523E524C3944050077F97
:1002FE00011224DD800D7F021224DD74C02524F549
:10030E0024D209E524C394405055E52344B8FF1286
:10031E002424E5244440FF12242430090674402589
:10032E0024F524E52275F007A42414FFC3E5249FC9
:10033E00F52474FA2523F52375F006A42524F582F9
:10034E00E435F0F58375F00CE522122546E582249E
:10035E001BF582E5833412F583E493FF1200060544
:10036E0023E523C3940250030202E20524E524C3CD
:10037E00940650030202DF0522E522C3940B5003BC
:10038E000202DC22E5106406702975900220070235
:10039E00F51C750F1EE51CC3950F500E300703029A
:1003AE000D3AAF0A121F46D207221223A57510036B
:1003BE00C20722E51064037020200702F51C750F9A
:1003CE001EE51CC3950F5009300703020D3A020BB0
:1003DE0028D28CE4F590020B30E51064076003021E
:1003EE0004B6200805D208F51C22E51CC394325031
:1003FE003FE51C75F00A84E5F0701AF522E522C37C
:10040E0095174003020D3AE5222519FFAD1A122366
:10041E002C052280E8E4F522E522C395174003025D
:10042E000D3AE5222519FFAD1A122369052280E83F
:10043E00E51CB4320A751780851918E4F51922E502
:10044E001CC39464503FE51C75F00A84E5F0701AE5
:10045E00F522E522C395174003020D3AE522251930
:10046E00FFAD1A12232C052280E8E4F522E522C303
:10047E0095174003020D3AE5222519FFAD1A1223F6
:10048E0069052280E8E4F522E522C39517500EE5B2
:10049E00222519FFAD1A122369052280EBC20875B9
:1004AE001001E4F50DD20022E51064086003020588
:1004BE0089200816C374FF958AC394555006E4F537
:1004CE00230206E57523020206E5E51CC3943250AD
:1004DE0073E51C75F00A84E5F07034F522E4F5241A
:1004EE00E4FF1224DDE523252244B8FF122424E57F
:1004FE00244440FF122424E4FF1200060524E524C0
:10050E00C3944040DB0522E522C3940240CF22E48F
:10051E00F522E4F524E4FF1224DDE523252244B878
:10052E00FF122424E5244440FF1224247FFF1200EE
:10053E00060524E524C3944040DB0522E522C3943E
:10054E000240CF22E4F522E4F524E4FF1224DDE597
:10055E0023252244B8FF122424E5244440FF12240C
:10056E0024E4FF1200060524E524C3944040DB0575
:10057E0022E522C3940240CF0208E8E51064096028
:10058E00030206CA850B23850C24E524131313548A
:10059E001FF5242008030206E5E51CC39432400330
:1005AE0002066FE51C75F00A84E5F07059F522E538
:1005BE00232522FFE433FEC3EF9440EE6480948043
:1005CE0050097F011224DDC20A800D74C02523F567
:1005DE00237F021224DDD20AE52325224440FF1296
:1005EE002424E52444B8FF12242490129FE493FFA0
:1005FE00120006300A0674402523F5230522E52253
:10060E00C3940840AA22E4F522E5232522FFE43311
:10061E00FEC3EF9440EE6480948050097F01122453
:10062E00DDC20A800D74C02523F5237F021224DD5E
:10063E00D20AE52325224440FF122424E52444B89F
:10064E00FF122424E5229012AF93FF120006300A07
:10065E000674402523F5230522E522C3940840A9FC
:10066E0022E4F522E5232522FFE433FEC3EF944076
:10067E00EE6480948050097F011224DDC20A800D41
:10068E0074C02523F5237F021224DDD20AE523252B
:10069E00224440FF122424E52444B8FF122424E40B
:1006AE00FF120006300A0674402523F5230522E5C5
:1006BE0022C3940840AEC20875100222E510640AE7
:1006CE00600302080D850B23850C24E524131313F8
:1006DE00541FF524200805D208020C34E51CC394DF
:1006EE003240030207B2E51C75F00A84E5F070593A
:1006FE00F522E5232522FFE433FEC3EF9440EE649A
:10070E0080948050097F011224DDC20A800D74C0CE
:10071E002523F5237F021224DDD20AE52325224468
:10072E0040FF122424E52444B8FF12242490129F83
:10073E00E493FF120006300A0674402523F52305C4
:10074E0022E522C3940840AA22E4F522E5232522BD
:10075E00FFE433FEC3EF9440EE6480948050097F33
:10076E00011224DDC20A800D74C02523F5237F02F9
:10077E001224DDD20AE52325224440FF122424E56B
:10078E002444B8FF122424E5229012B793FF1200DE
:10079E0006300A0674402523F5230522E522C3946C
:1007AE000840A922E4F522E5232522FFE433FEC307
:1007BE00EF9440EE6480948050097F011224DDC2D4
:1007CE000A800D74C02523F5237F021224DDD20A80
:1007DE00E52325224440FF122424E52444B8FF12C9
:1007EE002424E4FF120006300A0674402523F52364
:1007FE000522E522C3940840AEC208E4F51022E5B6
:10080E0010640B60030208EE200807D208F51CC224
:10081E000022E51CC39432503FE51C75F00A84E5B6
:10082E00F0701AF522E522C395174003020D3AE542
:10083E00222519FFAD1A12232C052280E8E4F52299
:10084E00E522C395174003020D3AE5222519FFADA7
:10085E001A122369052280E8E51CB4321FE4F52242
:10086E00E522C39517500EE5222519FFAD1A122366
:10087E002C052280EB85111785181922E51CC394CF
:10088E0064503FE51C75F00A84E5F0701AF522E518
:10089E0022C395174003020D3AE5222519FFAD1A22
:1008AE0012232C052280E8E4F522E522C395174099
:1008BE0003020D3AE5222519FFAD1A12236905220E
:1008CE0080E8E4F522E522C39517500EE52225199E
:1008DE00FFAD1A122369052280EBC20875100122A2
:1008EE001221F2E510B4010C759003121BC61220F2
:1008FE0024022431E5106003020B3F759006E50ECD
:10090E006003020B10750A01200702F51CE51CC3DB
:10091E00941E5009300703020D3A020B28E51C64A1
:10092E001E60030209E712247FE4F516C200F50DDE
:10093E00F522E4F524E4F523C209E52275F014A4AA
:10094E00241E2524F5240523C3944050077F01124D
:10095E0024DD800D7F021224DD74C02524F524D2FF
:10096E0009E52344B8FF122424E5244440FF122451
:10097E002430090674402524F524E52275F014A4CC
:10098E00241EFFC3E5249FF5241523FF75F00CE507
:10099E0023A42FF582E435F0F58375F024E52212B9
:1009AE002546E58224CBF582E583340DF583E49369
:1009BE00FF1200060523E523C394035003020946E4
:1009CE000524E524C3940C50030209430522E522B5
:1009DE00C39404500302094022E51CD3941E500315
:1009EE00020D3AD2B420B40C12247F750E05751088
:1009FE0004C20722E51CD394324004751C1F22E565
:100A0E001CD394284039E51C94325033E4FF122451
:100A1E00DD752306E4F524E52344B8FF122424E50E
:100A2E00244440FF122424E4FF1200060524E5248A
:100A3E00C3944040E20523E523C3940840D622E543
:100A4E001CC394284003020D3AE4F522E4F524E495
:100A5E00F523C209E52275F007A424142524F524F4
:100A6E0074062523F523E524C3944050077F011215
:100A7E0024DD800D7F021224DD74C02524F524D2DE
:100A8E0009E524C394405055E52344B8FF122424AD
:100A9E00E5244440FF12242430090674402524F531
:100AAE0024E52275F007A42414FFC3E5249FF52442
:100ABE0074FA2523F52375F006A42524F582E43572
:100ACE00F0F58375F00CE522122546E582241BF520
:100ADE0082E5833412F583E493FF1200060523E5C5
:100AEE0023C394025003020A600524E524C394062E
:100AFE005003020A5D0522E522C3940B5003020A3D
:100B0E005A22200705E4F51C150E750F1EE51CC3B1
:100B1E00950F500E300703020D3AAF0E121E68D21B
:100B2E0007221223A51222EA122249751001C207CA
:100B3E0022E51064026003020D3A759007F516C2A5
:100B4E0000F50D300703020C08D207F51C12247FA6
:100B5E00E4F522E4F524E4F523C209E52275F01448
:100B6E00A4241E2524F5240523C3944050077F0199
:100B7E001224DD800D7F021224DD74C02524F5249D
:100B8E00D209E52344B8FF122424E5244440FF1281
:100B9E00242430090674402524F524E52275F0142A
:100BAE00A4241EFFC3E5249FF5241523FF75F00C26
:100BBE00E523A42FF582E435F0F58375F024E522C4
:100BCE00122546E582243BF582E583340DF583E458
:100BDE0093FF1200060523E523C394035003020B73
:100BEE00670524E524C3940C5003020B640522E52B
:100BFE0022C394045003020B6122D2B420B42012FB
:100C0E00247FE50AC39403500A050A1220D17510F9
:100C1E00068009750A01750E05751004C20722E5D6
:100C2E001CD394144004E4F51C22E51CD3940A4012
:100C3E0039E51C94145033E4FF1224DD752306E4C9
:100C4E00F524E52344B8FF122424E5244440FF1282
:100C5E002424E4FF1200060524E524C3944040E258
:100C6E000523E523C3940840D622E51CC3941E40F9
:100C7E0003020D3AE4F522E4F524E4F523C209E576
:100C8E002275F007A424142524F52474062523F5D3
:100C9E0023E524C3944050077F011224DD800D7F8D
:100CAE00021224DD74C02524F524D209E524C39450
:100CBE00405055E52344B8FF122424E5244440FF58
:100CCE0012242430090674402524F524E52275F0FB
:100CDE0007A42414FFC3E5249FF52474FA2523F5F5
:100CEE002375F006A42524F582E435F0F58375F01E
:100CFE000CE522122546E582241BF582E58334128B
:100D0E00F583E493FF1200060523E523C3940250F6
:100D1E0003020C8B0524E524C394065003020C88B1
:0C0D2E000522E522C3940B5003020C8543
:010D3A002296
:06256E0012250A02247F81
:0300000002216674
:0C216600787FE4F6D8FD75812B0221ADD6
:0C254600A42582F582E5F03583F58322A0
:102172000224F5E493A3F8E493A34003F68001F26A
:1021820008DFF48029E493A3F85407240CC8C3336E
:10219200C4540F4420C8834004F456800146F6DF3D
:1021A200E4800B01020408102040809023D8E47ED2
:1021B200019360BCA3FF543F30E509541FFEE49332
:1021C200A360010ECF54C025E060A840B8E493A3F9
:1021D200FAE493A3F8E493A3C8C582C8CAC583CA24
:1021E200F0A3C8C582C8CAC583CADFE9DEE780BEDC
:0124050000D6
:00000001FF
