:08158000C2A1C2A08E80D2A01E
:0215880000223F
:10152700EF7005C2A4C2A322BF0105C2A4D2A322A1
:08153700BF0204D2A4C2A322EA
:1014F100D2A1C2A2C2A0D2A0E58030E70CC2A0AFA7
:0B1501001D051DEFD3940A40EDC2A0B1
:01150C0022BC
:10143600EEC41313540304FF121527EE543FFCEDBC
:0E144600131313541FFBED5407FDEB44B8FFC6
:0D145400AE071214F1C2A2121580C2A02230
:0D000600AE071214F1D2A2121580C2A02282
:101554007F3F1214547FC01214547FB81214547F66
:0415640040021454D9
:1014AF00E4FF1215277DB8AF051214547F401214B4
:1014BF0054E4FCE4FF1200060CBC40F70DBDC0E77E
:0114CF0022FA
:1014D0001214F1D2A2D2A17580FFD2A0AF80C2A017
:1014E0001214F1D2A2D2A17580FFD2A0AF80C2A007
:0114F00022D9
:02139400AE07A2
:10139600EEC394805033EDC39440502D121436ECB6
:1013A6004440FF1214541214D0AA07AF057401A8C2
:1013B60007088002C333D8FC4202121450EC4440A2
:0913C600FF121454AF02120006DC
:0113CF0022FB
:02135700AE07DF
:10135900EEC394805034EDC39440502E121436ECF1
:101369004440FF1214541214D0AA07AF057401A8FF
:1013790007088002C333D8FCF45202121450EC441B
:0A13890040FF121454AF02120006D8
:011393002237
:02127700AE07C0
:10127900EEC394805042EDC39440503CEEC4131326
:10128900540304FF121527EE543FFCED13131354B6
:101299001FFFED5407FDEF44B8FF121454EC44400E
:1012A900FF1214541214D0AE05EFA806088002C329
:0C12B90013D8FC13920B8002D20BA20B86
:0112C5002206
:03150D00011E00BC
:0C156800758910758D63758BC0D28E22C2
:05001600D288D28A220D
:09158A00D2AFD2ABD2A8D2AA2242
:0915930012156812001602158AF7
:10153F001215931215A5E51EC3940340F912001E50
:05154F00E4F51E80F12F
:03001B0002159C2F
:09159C00051E758D63758BC032CC
:030003000215AB38
:0315AB00C2033246
:030013000215AE25
:0315AE00D2033233
:10078F0004FCFC040000000004FCFC040003FF80D8
:10079F0000FCFC0080FF03000000033F3C03033C10
:1007AF003F030000000000040404FCFC04040400E8
:1007BF00000000000000FFFF00000000000000200C
:1007CF0020203F3F2020200004FCFCE0000000041C
:1007DF00FCFC040000FFFF01071C70C0FFFF0000BE
:1007EF00203F3F20000000030F3F000000000000EB
:1007FF0000FCFEFC00000000000000000003FF03EF
:10080F000000000000000000003079300000000000
:10081F0004FCFC0404040C1870E0800000FFFF00CF
:10082F000000000000FFFF00203F3F202020301875
:10083F000E070100000000040404FCFC0404040083
:10084F00000000000000FFFF00000000000000207B
:10085F0020203F3F2020200004FCFC04040404045B
:10086F000C1C7C0000FFFF0808081C7F0000000024
:10087F00203F3F202020202030383E000000000085
:10088F0000FCFEFC00000000000000000003FF035E
:10089F000000000000000000003079300000000070
:1008AF0004FCFC04000000000000000000FFFF003B
:1008BF000000000000000000203F3F2020202020EB
:1008CF0030383E00000000040404FCFC0404040063
:1008DF00000000000000FFFF0000000000000020EB
:1008EF0020203F3F2020200004FCFC0404040404CB
:1008FF000C1C7C0000FFFF0808081C7F0000000094
:10090F00203F3F20000000000000000004FCFC041A
:10091F00040404040C1C7C0000FFFF0808081C7F63
:10092F0000000000203F3F202020202030383E00D4
:10093F0000000000000000000000000000C3C3C35F
:10094F00C3C3C3C3C3C3C300000000000000000043
:10095F000000000000C0F0380C040C38F0C000009C
:10096F00FFFF00000000000000FFFF0000030F1C4E
:10097F003020301C0F0300000010101818FCFC0072
:10098F00000000000000000000FFFF00000000005A
:10099F0000002020203F3F202020000060F0F80CB6
:1009AF000404040C18F0E00000000080C060301850
:1009BF000E070100383E3F333030303030303C00CE
:1009CF00003078780C04040C18F8F00000000000D8
:1009DF0008081C1633E1C0000C1E3E3020202030CA
:1009EF00181F0F000000000080E038FCFC00000022
:1009FF0080E0380E030000FFFF000000010101013D
:100A0F000121213F3F21210100FCFC0C0C0C0C0C9F
:100A1F000C0C0000001F0F08040202061CF8E00077
:100A2F000C1E3E30202020301C0F030004FCFC0461
:100A3F0004040C18F0E0000000FFFF0808081C1663
:100A4F0073E18000203F3F20202020301C0F030047
:100A5F0004FCFC0404040C18F8E0000000FFFF087D
:100A6F0038F8CC0607010000203F3F200000032F7D
:100A7F003C30200004FCFC04040404040C1C7C0027
:100A8F0000FFFF0808081C7F00000000203F3F20E8
:100A9F002020202030383E0000000000F00C3CF0F9
:100AAF00000000000000F0FF43404043FFF0000053
:100ABF00203E3F2000000000203F3E2004FCFC04AD
:100ACF000080E47C1C04040000FFFF781E7FE1809F
:100ADF0000000000203F3F20000001273E3820206B
:100AEF00E0F0180C0404040C18F0E000FFFF000005
:100AFF000000000000FFFF00070F183020202030FB
:100B0F00180F070004FCFC0400000004FCFC0400A8
:100B1F0000FFFF0000000000FFFF0000000F1F306C
:100B2F00202020301F0F00007C1C0C0404FCFC0450
:100B3F00040C1C7C0000000000FFFF000000000000
:100B4F0000000020203F3F202000000000FC020298
:100B5F0002860000010101000002FE0200C0000138
:100B6F000101010100FC020202FC00000101010071
:100B7F0002FE0E7082FE01010100010102FE123A17
:100B8F0002860101010101010002FE22221C000167
:100B9F00010100000008F81008080001010101011F
:100BAF0000F02828283000000101010100902828BA
:100BBF0028D80001010101000090282828D8000141
:100BCF000101010000000000000000000000000013
:100BDF00008C921214E6000100010100000602FED3
:100BEF00020600000101010000C07A4678C0010131
:100BFF000100010102FE2222629C0101010000009E
:100C0F00000602FE0206000001010100FFFFFFFFC8
:100C1F00FFFFFFFFFFFFFFFFFFFFFFFFFFF7EFEFFD
:100C2F00DFDFBF7FFFFFFFFFFFFFFFFFFFFFFF7F45
:100C3F009FE7FBFDFFFFFFFFFFFFFFFFFFFFFFFF33
:100C4F00FFFFFFFFFFFFFFFFFFFFFFFFFFFFFFFFA5
:100C5F00FFFFFFFFFFFFFFFFFF01FDFD0DEDEDEDBF
:100C6F00EDED6D6D2C2DEDEDEDEDEDEDEDED2D2CA7
:100C7F006D6D6DEDEDEDEDED0DFDFD01FFFFFFFF79
:100C8F00FFFFFFFFFFFFFFFFFFFFFFFFFFFFFFFF65
:100C9F00FFFFFFFFFFFFFFFFFF00FFFF80BFBFBF93
:100CAF00BCBCBEBEB3ADAFB7BBB9B7AFAFB5BBBFC3
:100CBF00BEBEBEBFBFBFBFBF80FFFF00FFFFFFFFB6
:100CCF00FFFFFFFFFFFFFFFFFFFFFFFFFFFFFFFF25
:100CDF00FFFFFFFFFFFFFFFFFFFCFDFDFDFDCDC190
:100CEF00F1FDFDFDFDFDFDFDFDFDFDFDFDFDFDFD31
:100CFF00F1C1CDFDFDFDFDFDFDFDFDFCFFFFFFFF86
:100D0F00FFFFFFFFFFFFFFFFFFFFFFFF003F011888
:040D1F00013E000190
:10151000010C04010A05011300010B00C106C107FB
:06152000C182C104C105F7
:1013D000E4FF121527751B04E4F51CE51B44B8FF58
:1013E000121454E51C4440FF121454E4FF1200068A
:1013F000051CE51CC3944040E2051BE51BC3940893
:0214000040D6D4
:0114020022C7
:02101F008F1729
:101021001213D0E4F51AE4F519E4F518C209E51A2A
:1010310075F00FA424142519F51974042518F51851
:10104100E519C3944050077F01121527800D7F02D7
:1010510012152774C02519F519D209E51844B8FFEE
:10106100121454E5194440FF121454300906744017
:101071002519F519E51A75F00FA42414FFC3E51914
:101081009FF51974FC2518F518E51AC3940575F038
:101091000CE518501EA42519F582E435F0F5837589
:1010A100F024E51A121574E58224AFF582E5833444
:1010B10008801CA42519F582E435F0F58375F02428
:1010C100E517121574E5822463F582E5833409F589
:1010D10083E493FF1200060518E518C39403500337
:1010E10002102D0519E519C3940C500302102A05AD
:0B10F1001AE51AC394065003021027F2
:0110FC0022D1
:1012C600E4FF121527E4F517E4F518E51744B8FF0F
:1012D600121454E5184440FF12145475F040E517F3
:1012E600A42518F582E435F0F583E582241BF58202
:1012F600E583340CF583E493FF1200060518E51820
:0E130600C3944040C60517E517C3940440BACF
:0113140022B6
:10122000850C1A750C02751701AF17121527E4F516
:1012300018E4F519E51844B8FF121454E5194440B0
:10124000FF1214541214D0EF6005851A0C800905A2
:1012500019E519C3944040DCE50C651A60090518CE
:10126000E518C3940440CAE50C651A60090517E542
:0612700017C3940340B314
:011276002255
:10140300900D1BE493F511A3E493F512A3E493F574
:101413000DA3E493F510A2029203E4F517E517C3B5
:101423009510500EE5112517FFAD121213940517F1
:0214330080EB4C
:011435002294
:1010FD0030034DC374809510C3950DFFE511D39F3B
:10110D004003021193751701E50D2401FFE433FE31
:10111D00C3E5179FEE6480F8748098501CE5112587
:10112D001714FFAD12121357E5112510142517FFD3
:10113D00AD12121394051780CFE50D2511F511226F
:10114D00C3E511950D7480F898403B751701E50DB9
:10115D002401FFE433FEC3E5179FEE6480F874802D
:10116D0098501CE5112510C39517FFAD121213579A
:10117D00C3E5119517FFAD12121394051780CFC358
:06118D00E511950DF511BE
:011193002239
:10131500900D1FE493F50EA3E493F50FA3E493F565
:1013250008A3E493F509A2049200A2059201AD0F6A
:10133500AF0E121394E50F14FDAF0E121394E50EC4
:1013450004FFAD0F121394E50E04FFE50F14FD0223
:021355001394EF
:10148B00AD0FAF0E121357E50E04FFAD0F1213572E
:10149B00E50F14FDAF0E121357E50E04FFE50F1405
:0414AB00FD021357D4
:100D230030015DE50F24FEFDAF0E1212774016E58C
:100D33000E04FFE50F24FEFD1212774008E50F14A1
:100D43006003020DEBE50F146032E50F24FEFDAFE7
:100D53000E121357E50E04FFE50F24FEFD12135781
:100D6300E50F24FE6016E50F24FDFDAF0E121357A9
:100D7300E50E04FFE50F24FDFD121357B201806851
:100D8300E50F04FDAF0E121277400DE50E04FFE5EB
:100D93000F04FD1212775050E50F643F6047E50FD3
:100DA3002401FFE433FEEF65127001EE602CE50FC2
:100DB30004FDAF0E121357E50E04FFE50F04FD12F9
:100DC3001357E50F2402FDAF0E121357E50E04FF70
:100DD300E50F2402FD1213578007850D08A2039225
:100DE30000B2018003E4F50CE50C6401600302101A
:100DF3001E30005BE50E2402FFAD0F121277401F79
:100E0300E50E2402FFE50F14FD1212774011E50EE3
:100E13002401FFE433FEEF647F4E6003020EA1E57D
:100E23000E2402FFAD0F121357E50E2402FFE50F48
:100E330014FD121357E50E2403FFAD0F121357E5EC
:100E43000E2403FFE50F14FD121357B200804FE584
:100E53000E14FFAD0F1212774011E50E14FFE50FCC
:100E630014FD1212774004E50E7033E50E602D1465
:100E7300FFAD0F121357E50E14FFE50F14FD121308
:100E830057E50E146016E50E24FEFFAD0F1213573F
:100E9300E50E24FEFFE50F14FD121357B200C2093D
:100EA300300162751701E5092401FFE433FEC3E550
:100EB300179FEE6480F8748098503CE50F14C39537
:100EC30017FD700BD209C3E50F9517F50F8028AFF7
:100ED3000E121277400FE50E04FFE50F149517FD70
:100EE300121277500ED209E51714FFC3E50F9FF5D1
:100EF3000F8004051780AFA209B35055C3E50F95C2
:100F030009F50F804C751701E5092401FFE433FE51
:100F1300C3E5179FEE6480F87480985029E50F2588
:100F230017FDAF0E121277400EE50E04FFE50F25F5
:100F330017FD121277500BD209E51714250FF50F81
:100F43008004051780C2A209B35006E509250FF5F1
:100F53000FC20A30006C751701E5092401FFE43361
:100F6300FEC3E5179FEE6480F87480985048E50E41
:100F73002401FFE433FE7C00EF2517FFEC3EFEEF78
:100F8300647F4E7006D20AE5178021E50E0425170B
:100F9300FFAD0F121277400FE50E042517FFE50F83
:100FA30014FD121277500BD20AE51714250EF50E15
:100FB3008004051780A3A20AB35060E508250EF547
:100FC3000E22751701E5092401FFE433FEC3E5177B
:100FD3009FEE6480F87480985035C3E50E9517FF33
:100FE3007006D20A8F0E8027AD0F121277400EE5DE
:100FF3000E9517FFE50F14FD121277500ED20AE576
:101003001714FFC3E50E9FF50E8004051780B6A2E3
:0B1013000AB35007C3E50E9508F50E68
:01101E0022AF
:1014610012148B120D23AD0FAF0E121394E50F144E
:10147100FDAF0E121394E50E04FFAD0F121394E5A8
:0A1481000E04FFE50F14FD021394A2
:10001E00E50C640160020513E50C64046003020242
:10002E002D200705F513D20722300603020225E51F
:10003E0013C39450400302010AE51375F00A84F5C8
:10004E0014E51375F00A842401FFE433FEC3E514AE
:10005E009FEE6480F8748098400302078EE4F516D4
:10006E00E4F515C208E51475F00FA424052516F560
:10007E00160515C3944050077F01121527800D7F7A
:10008E000212152774C02516F516D208E51544B8C8
:10009E00FF121454E5164440FF121454300806742F
:1000AE00402516F516E51475F00FA42405FFC3E5DB
:1000BE00169FF5161515FF75F00CE515A42FF58294
:1000CE00E435F0F58375F024E514121574E58224F9
:1000DE003BF582E583340AF583E493FF12000605AF
:1000EE0015E515C3940350030200710516E516C3FA
:1000FE00940C500302006E051402004FE513D394C6
:10010E00505003020218E51394784003020218E4DB
:10011E00FF121527751504C374909513F516E51681
:10012E00C394405019E51544B8FF121454E5164413
:10013E0040FF121454E4FF120006051680E0051568
:10014E00E515C3940640D0E4F514E4F516E4F51570
:10015E00C208C374CF9513FFE51475F007A42F25BD
:10016E0016F51674042515F515E516C394405007BB
:10017E007F01121527800D7F0212152774C02516D8
:10018E00F516D208E516C39440505AE51544B8FF4B
:10019E00121454E5164440FF1214543008067440ED
:1001AE002516F516C374CF9513FFE51475F007A445
:1001BE002FFFC3E5169FF51674FC2515F51575F082
:1001CE0006A42516F582E435F0F58375F00CE514DA
:1001DE00121574E582245BF582E583340BF583E416
:1001EE0093FF1200060515E515C394025003020194
:1001FE005E0516E516C39406500302015B0514E571
:10020E0014C39405500302015822E513D394785079
:10021E000302078ED20622750C05C206C20722E51E
:10022E000C6405600302035C200705D207F5132258
:10023E00D2B420B40C1214AF1212C6750C03C2073E
:10024E0022E513D394144003020688E513D3940ACF
:10025E004039E51394145033E4FF12152775150633
:10026E00E4F516E51544B8FF121454E5164440FFA4
:10027E00121454E4FF1200060516E516C39440400E
:10028E00E20515E515C3940840D622E513C3941E66
:10029E00400302078EE4F514E4F516E4F515C208E2
:1002AE00E51475F007A424142516F5167406251505
:1002BE00F515E516C3944050077F01121527800DE2
:1002CE007F0212152774C02516F516D208E516C33F
:1002DE0094405055E51544B8FF121454E5164440A9
:1002EE00FF12145430080674402516F516E51475E1
:1002FE00F007A42414FFC3E5169FF51674FA25150E
:10030E00F51575F006A42516F582E435F0F583751E
:10031E00F00CE514121574E5822497F582E583340A
:10032E000BF583E493FF1200060515E515C3940241
:10033E0050030202AC0516E516C3940650030202E2
:10034E00A90514E514C3940B50030202A622E50C72
:10035E006403701B200602F513750B1EE513C3957F
:10036E000B500930060302078E02059C0205A412EB
:10037E001220E50CB401061210FD021461E50C60AA
:10038E00030205B3E50A6003020584200602F51395
:10039E00E513C3941E500930060302078E02059C16
:1003AE00E513641E60030204641214AFE4F514E452
:1003BE00F516E4F515C208E51475F014A4241E25EF
:1003CE0016F5160515C3944050077F0112152780A8
:1003DE000D7F0212152774C02516F516D208E515E5
:1003EE0044B8FF121454E5164440FF12145430085A
:1003FE000674402516F516E51475F014A4241EFF98
:10040E00C3E5169FF5161515FF75F00CE515A42F0F
:10041E00F582E435F0F58375F024E514121574E5D4
:10042E0082241FF582E5833408F583E493FF1200DE
:10043E00060515E515C3940350030203C30516E51F
:10044E0016C3940C50030203C00514E514C39404A0
:10045E0050030203BD22E513D3941E500302078EF0
:10046E00D2B420B403020678E513D3943240047557
:10047E00131F22E513D394284039E51394325033D9
:10048E00E4FF121527751506E4F516E51544B8FFB9
:10049E00121454E5164440FF121454E4FF120006E1
:1004AE000516E516C3944040E20515E515C39408FC
:1004BE0040D622E513C39428400302078EE4F514B8
:1004CE00E4F516E4F515C208E51475F007A4241436
:1004DE002516F51674062515F515E516C394405028
:1004EE00077F01121527800D7F0212152774C02574
:1004FE0016F516D208E516C394405055E51544B8C6
:10050E00FF121454E5164440FF12145430080674BA
:10051E00402516F516E51475F007A42414FFC3E55F
:10052E00169FF51674FA2515F51575F006A4251601
:10053E00F582E435F0F58375F00CE514121574E5CB
:10054E00822497F582E583340BF583E493FF120042
:10055E00060515E515C3940250030204D40516E5ED
:10056E0016C3940650030204D10514E514C3940B6C
:10057E0050030204CE22200605E4F513150A750B6E
:10058E001EE513C3950B500E30060302078EAF0AFD
:10059E0012101FD206221213D01213151214037545
:1005AE000C01C20622E50C6402600302078E3006BF
:1005BE0003020673D206F5131214AFE4F514E4F534
:1005CE0016E4F515C208E51475F014A4241E2516BC
:1005DE00F5160515C3944050077F01121527800D9F
:1005EE007F0212152774C02516F516D208E515449C
:1005FE00B8FF121454E5164440FF12145430080686
:10060E0074402516F516E51475F014A4241EFFC3C8
:10061E00E5169FF5161515FF75F00CE515A42FF5CB
:10062E0082E435F0F58375F024E514121574E58235
:10063E00248FF582E5833407F583E493FF120006D9
:10064E000515E515C3940350030205D20516E516EC
:10065E00C3940C50030205CF0514E514C394045043
:10066E00030205CC22D2B420B4091214AF750C04C7
:10067E00C20622E513D394144004E4F51322E513C5
:10068E00D3940A4039E51394145033E4FF1215271E
:10069E00751506E4F516E51544B8FF121454E51663
:1006AE004440FF121454E4FF1200060516E516C36B
:1006BE00944040E20515E515C3940840D622E51393
:1006CE00C3941E400302078EE4F514E4F516E4F518
:1006DE0015C208E51475F007A424142516F5167432
:1006EE00062515F515E516C3944050077F01121522
:1006FE0027800D7F0212152774C02516F516D20815
:10070E00E516C394405055E51544B8FF121454E550
:10071E00164440FF12145430080674402516F51680
:10072E00E51475F007A42414FFC3E5169FF516749F
:10073E00FA2515F51575F006A42516F582E435F0A3
:10074E00F58375F00CE514121574E5822497F58285
:10075E00E583340BF583E493FF1200060515E515CA
:10076E00C3940250030206DF0516E516C394065025
:10077E00030206DC0514E514C3940B50030206D9DC
:01078E002248
:0615A5001215540214AF00
:0300000002119456
:0C119400787FE4F6D8FD7581210211DBA4
:0C157400A42582F582E5F03583F5832282
:1011A00002153FE493A3F8E493A34003F68001F211
:1011B00008DFF48029E493A3F85407240CC8C33350
:1011C000C4540F4420C8834004F456800146F6DF1F
:1011D000E4800B010204081020408090150DE47E8D
:1011E000019360BCA3FF543F30E509541FFEE49314
:1011F000A360010ECF54C025E060A840B8E493A3DB
:10120000FAE493A3F8E493A3C8C582C8CAC583CA05
:10121000F0A3C8C582C8CAC583CADFE9DEE780BEBD
:0115260000C4
:00000001FF
