:08254600C2A1C2A08E80D2A048
:02254E00002269
:1024D100EF7005C2A4C2A322BF0105C2A4D2A322E8
:0824E100BF0204D2A4C2A32231
:1024B500D2A1C2A2C2A0D2A0E58030E70CC2A0AFD3
:0B24C5002B052BEFD3940A40EDC2A0C2
:0124D00022E9
:1023FA00EEC41313540304FF1224D1EE543FFCED30
:0E240A00131313541FFBED5407FDEB44B8FFF2
:0D241800AE071224B5C2A2122546C2A022B2
:0D000600AE071224B5D2A2122546C2A022D8
:1024FE007F3F1224187FC01224187FB81224187F31
:04250E00400224184B
:10247300E4FF1224D17DB8AF051224187F40122443
:1024830018E4FCE4FF1200060CBC40F70DBDC0E7E6
:012493002226
:102494001224B5D2A2D2A17580FFD2A0AF80C2A06F
:1024A4001224B5D2A2D2A17580FFD2A0AF80C2A05F
:0124B4002205
:02235D00AE07C9
:10235F00EEC394805033EDC39440502D1223FAEC0A
:10236F004440FF122418122494AA07AF057401A841
:10237F0007088002C333D8FC4202122414EC4440F5
:09238F00FF122418AF021200062F
:012398002222
:02232000AE0706
:10232200EEC394805034EDC39440502E1223FAEC45
:102332004440FF122418122494AA07AF057401A87E
:1023420007088002C333D8FCF45202122414EC446E
:0A23520040FF122418AF021200062B
:01235C00225E
:02228F00AE0798
:10229100EEC394805042EDC39440503CEEC41313FE
:1022A100540304FF1224D1EE543FFCED13131354D5
:1022B1001FFFED5407FDEF44B8FF122418EC444012
:1022C100FF122418122494AE05EFA806088002C359
:0C22D10013D8FC13920E8002D20EA20E55
:0122DD0022DE
:0323CC00011D00F0
:0C252200438910758D63758BC0D28E222A
:0C252E00438902758A89758C89C28C2251
:05001600D288D28A220D
:09255000D2AFD2ABD2A8D2AA226C
:1025120012252212252E1200161225507590FF2226
:1024E900122512122562E51DC3940340F912001E3C
:0524F900E4F51D80F177
:03001B0002255962
:09255900051D758D63758BC03200
:030003000225686B
:03256800C2043278
:0300130002256B58
:03256B00D2043265
:100D2F0004FCFC040000000004FCFC040003FF8032
:100D3F0000FCFC0080FF03000000033F3C03033C6A
:100D4F003F030000000000040404FCFC0404040042
:100D5F00000000000000FFFF000000000000002066
:100D6F0020203F3F2020200004FCFCE00000000476
:100D7F00FCFC040000FFFF01071C70C0FFFF000018
:100D8F00203F3F20000000030F3F00000000000045
:100D9F0000FCFEFC00000000000000000003FF0349
:100DAF00000000000000000000307930000000005B
:100DBF0004FCFC0404040C1870E0800000FFFF002A
:100DCF000000000000FFFF00203F3F2020203018D0
:100DDF000E070100000000040404FCFC04040400DE
:100DEF00000000000000FFFF0000000000000020D6
:100DFF0020203F3F2020200004FCFC0404040404B6
:100E0F000C1C7C0000FFFF0808081C7F000000007E
:100E1F00203F3F202020202030383E0000000000DF
:100E2F0000FCFEFC00000000000000000003FF03B8
:100E3F0000000000000000000030793000000000CA
:100E4F0004FCFC04000000000000000000FFFF0095
:100E5F000000000000000000203F3F202020202045
:100E6F0030383E00000000040404FCFC04040400BD
:100E7F00000000000000FFFF000000000000002045
:100E8F0020203F3F2020200004FCFC040404040425
:100E9F000C1C7C0000FFFF0808081C7F00000000EE
:100EAF00203F3F20000000000000000004FCFC0475
:100EBF00040404040C1C7C0000FFFF0808081C7FBE
:100ECF0000000000203F3F202020202030383E002F
:100EDF0000000000000000000000000000C3C3C3BA
:100EEF00C3C3C3C3C3C3C30000000000000000009E
:100EFF000000000004FCFC040000000000000000E3
:100F0F0000FFFF000000000000000000203F3F2016
:100F1F002020202030383E0004FCFC04040404048C
:100F2F000C1C7C0000FFFF0808081C7F000000005D
:100F3F00203F3F202020202030383E0004FCFC04BE
:100F4F0000000004FCFC040000003FFFC000C0FFD5
:100F5F003F000000000000031F3C1F0300000000C3
:100F6F0004FCFC04040404040C1C7C0000FFFF08B8
:100F7F0008081C7F00000000203F3F202020202079
:100F8F0030383E0004FCFC040000000000000000AC
:100F9F0000FFFF000000000000000000203F3F2086
:100FAF002020202030383E0000000000000000000C
:100FBF000000000000C3C3C3C3C3C3C3C3C3C30084
:100FCF0000000000000000000000000000C0F0382A
:100FDF000C040C38F0C00000FFFF00000000000000
:100FEF0000FFFF0000030F1C3020301C0F03000018
:100FFF000010101818FCFC0000000000000000009A
:10100F0000FFFF000000000000002020203F3F20D5
:10101F002020000060F0F80C0404040C18F0E0002D
:10102F0000000080C06030180E070100383E3F33CB
:10103F003030303030303C00003078780C04040C05
:10104F0018F8F0000000000008081C1633E1C0007B
:10105F000C1E3E3020202030181F0F000000000013
:10106F0080E038FCFC00000080E0380E030000FF39
:10107F00FF000000010101010121213F3F2121015A
:10108F0000FCFC0C0C0C0C0C0C0C0000001F0F08CF
:10109F00040202061CF8E0000C1E3E302020203017
:1010AF001C0F030004FCFC0404040C18F0E0000007
:1010BF0000FFFF0808081C1673E18000203F3F2047
:1010CF00202020301C0F030004FCFC0404040C1827
:1010DF00F8E0000000FFFF0838F8CC060701000019
:1010EF00203F3F200000032F3C30200004FCFC0475
:1010FF00040404040C1C7C0000FFFF0808081C7F7C
:10110F0000000000203F3F202020202030383E00EC
:10111F0000000000F00C3CF0000000000000F0FFA9
:10112F0043404043FFF00000203E3F2000000000FE
:10113F00203F3E2004FCFC040080E47C1C040400DF
:10114F0000FFFF781E7FE18000000000203F3F205E
:10115F00000001273E382020E0F0180C0404040C96
:10116F0018F0E000FFFF00000000000000FFFF008C
:10117F00070F183020202030180F070004FCFC0444
:10118F0000000004FCFC040000FFFF000000000052
:10119F00FFFF0000000F1F30202020301F0F000026
:1011AF007C1C0C0404FCFC04040C1C7C00000000E0
:1011BF0000FFFF000000000000000020203F3F2044
:1011CF002000000000FC0202028600000101010065
:1011DF000002FE0200C000010101010100FC020239
:1011EF0002FC00000101010002FE0E7082FE0101EF
:1011FF000100010102FE123A028601010101010103
:10120F000002FE22221C0001010100000008F8105C
:10121F00080800010101010100F028282830000012
:10122F00010101010090282828D8000101010100C7
:10123F000090282828D800010101010000000000BB
:10124F000000000000000000008C921214E6000164
:10125F0000010100000602FE02060000010101006C
:10126F0000C07A4678C001010100010102FE22226E
:10127F00629C010101000000000602FE0206000050
:10128F0001010100FF8181BFBFBFBFFFFFC3BDBD14
:10129F00BDBDDBFFFFC1BFC3C3BFC1FFFF8181BDA9
:1012AF00BDDBE7FFFFFFFFFFFFFFFFFFFFFFFFFFBD
:1012BF00FFFFFFFFFFF7EFEFDFDFBF7FFFFFFFFF57
:1012CF00FFFFFFFFFFFFFF7F9FE7FBFDFFFFFFFF1D
:1012DF00FFFFFFFFFFFFFFFFFFFFFFFFFFFFFFFF0F
:1012EF00FFFFFFFFFFFFFFFFFFFFFFFFFFFFFFFFFF
:1012FF00FF01FDFD0DEDEDEDEDED6D6D2C2DEDED2A
:10130F00EDEDEDEDEDED2D2C6D6D6DEDEDEDEDEDFF
:10131F000DFDFD01FFFFFFFFFFFFFFFFFFFFFFFFC2
:10132F00FFFFFFFFFFFFFFFFFFFFFFFFFFFFFFFFBE
:10133F00FF00FFFF80BFBFBFBCBCBEBEB3ADAFB72A
:10134F00BBB9B7AFAFB5BBBFBEBEBEBFBFBFBFBFE1
:10135F0080FFFF00FFFFFFFFFFFFFFFFFFFFFFFF0C
:10136F00FFFFFFFFFFFFFFFFFFFFFFFFFFFFFFFF7E
:10137F00FFFCFDFDFDFDCDC1F1FDFDFDFDFDFDFD05
:10138F00FDFDFDFDFDFDFDFDF1C1CDFDFDFDFDFDF6
:10139F00FDFDFDFCFFFFFFFFFFFFFFFFFFFFFFFF57
:1013AF00FFFFFFFFFFFFFFFFFFFFFFFFFFFFFFFF3E
:1013BF00FFFFFFFFFFFFFFFFFFFFFFFFFFFFFF7FAE
:1013CF00BFBF7FFFFFFFFFFFFFFFFFFFFFFFFFFF1E
:1013DF00FFFFFFFFFFFFFF7FBFBF7FFFFFFFFFFF8E
:1013EF00FFFFFFFFFFFFFFFFFFFFFFFFFFFFFFFFFE
:1013FF00FFFFFFFFFF0703010101010307010603C1
:10140F00010101010307FFFFFFFFFFFFFF070301BB
:10141F000101010307010603010171F9FFFFFFFF3E
:10142F00FFFFFFFFFFFFFFFFFFFFFFFFFFFFFFFFBD
:10143F00FFFFFFFFFFF0E0C0808080808080808012
:10144F00808080C0E0F0FFFFFFFFFFFFFFF0E0C0F4
:10145F008080808080808080808080C0E0F0FFFF6F
:10146F00FFFFFFFFFFFFFFFFFFFFFFFFFFFFFFFF7D
:10147F00FFFFFFFFFFFFFFFFFFFFFFFFFFFFFFFF6D
:10148F00FFFFFFFFFFFFFFFFFFFFFFFFFFFFFFFF5D
:10149F00FFFFFFFFFFFFFFFFFFFFFFFFFFFFFFFF4D
:1014AF00FFFFFFFFFFFFFFFFFFFFFFFFFFFFFFFF3D
:1014BF00FFFFFFFFFFFFFFFFFFFFFFFFFFFF7F7F2D
:1014CF007F7F7F7F7F7F7F7F7F7F7F7F7FFFFFFF9D
:1014DF00FFFFFFFFFFFFFFFFFFFFFFFFFFFFFFFF0D
:1014EF00FFFFFFFFFFFFFFFFFFFFFFFFFFFFFFFFFD
:1014FF00FFFFBF1F4FE7F3FBF9FDFDFCFEBE1E0F05
:10150F000703010140E0F0E0410103070E1EBEFC9E
:10151F00FDFDF9FBF3E74F1FBFFFFFFFFFFFFFFFCE
:10152F00FFFFFFFFFFFFFFFFFFFFFFFFFFFFFFFFBC
:10153F00FFFFFFFFFEFCF9FBF3F7F7E7EFEFCFDE5F
:10154F00DCD8D0D0C0C0C1C0D0D0D8DCCEEFEFE750
:10155F00F7F7F3FBF9FCFEFFFFFFFFFFFFFFFFFFB6
:10156F00FFFFFFFFFFFFFFFFFFFFFFFFFFFFFFFF7C
:10157F00FFFFFFFFFFFFFFFFFFFFFFFFFFFFFFFF6C
:10158F00FFFFFFFFFFFFFFFFFFFFFFFFFFFFFFFF5C
:10159F00FFFFFFFFFFFFFFFFFFFFFFFFFFFFFFFF4C
:0A15AF00FFFFFFFF003F073E0001B1
:1023CF00011004010E05011C00010F00C107C10817
:1023DF00010A01011600C100010D00010B00010CE3
:0A23EF0000011300C183C105C106FF
:101BBA00300013E50DC394FF5004050D8008C200E0
:101BCA00E4F50D75100BE5166003021DE8C374FFFA
:101BDA00958A24EC7003021D6C24E27003021C74C3
:101BEA0024CE7003021CF024636003021E5B751688
:101BFA0001858A26C374FF9526F52575F005842488
:101C0A0021F52685250BF50C131313541FF526E42D
:101C1A00F527E5252527FFE433FEC3EF9440EE645C
:101C2A0080948050097F011224D1C20B800D74C0A8
:101C3A002525F5257F021224D1D20BE52525274437
:101C4A0040FF122418E52644B8FF122418E527900D
:101C5A00129393FF120006300B0674402525F525D2
:101C6A000527E527C3940840A922751602858A2606
:101C7A00C374FF9526F52575F005842421F526857C
:101C8A00250BF50C131313541FF526E4F527E52548
:101C9A002527FFE433FEC3EF9440EE64809480501E
:101CAA00097F011224D1C20B800D74C02525F525A8
:101CBA007F021224D1D20BE52525274440FF1224A6
:101CCA0018E52644B8FF122418E52790129B93FFC3
:101CDA00120006300B0674402525F5250527E52751
:101CEA00C3940840A922751603858A26C374FF95F2
:101CFA0026F52575F005842421F52685250BF50C96
:101D0A00131313541FF526E4F527E5252527FFE4C9
:101D1A0033FEC3EF9440EE6480948050097F011231
:101D2A0024D1C20B800D74C02525F5257F0212240B
:101D3A00D1D20BE52525274440FF122418E5264475
:101D4A00B8FF122418E5279012A393FF1200063059
:101D5A000B0674402525F5250527E527C394084079
:101D6A00A922751604858A26C374FF9526F525755A
:101D7A00F005842421F52685250BF50C131313543D
:101D8A001FF526E4F527E5252527FFE433FEC3EFF3
:101D9A009440EE6480948050097F011224D1C20BD2
:101DAA00800D74C02525F5257F021224D1D20BE5BA
:101DBA002525274440FF122418E52644B8FF12249B
:101DCA0018E5279012AB93FF120006300B067440F9
:101DDA002525F5250527E527C3940840A922E513FB
:101DEA00D39464406A850B25850C26E526131313C4
:101DFA00541FF526E4F527E5252527FFE433FEC31E
:101E0A00EF9440EE6480948050097F011224D1C27D
:101E1A000B800D74C02525F5257F021224D1D20B23
:101E2A00E52525274440FF122418E52644B8FF1269
:101E3A002418E4FF120006300B0674402525F52508
:101E4A000527E527C3940840AEE4F513F5162205E5
:011E5A001374
:011E5B002264
:10239900E4FF1224D1752904E4F52AE52944B8FF9C
:1023A900122418E52A4440FF122418E4FF120006FB
:1023B900052AE52AC3944040E20529E529C3940882
:0223C90040D6FC
:0123CB0022EF
:021E5C008F25D0
:101E5E00122399E4F528E4F527E4F526C20BE528CC
:101E6E0075F00FA424142527F52774042526F526CE
:101E7E00E527C3944050077F011224D1800D7F02C5
:101E8E001224D174C02527F527D20BE52644B8FFBE
:101E9E00122418E5274440FF122418300B06744014
:101EAE002527F527E52875F00FA42414FFC3E52791
:101EBE009FF52774FC2526F526E528C3940575F0B5
:101ECE000CE526501EA42527F582E435F0F5837522
:101EDE00F024E52812253AE582244FF582E5833475
:101EEE000E801CA42527F582E435F0F58375F024C9
:101EFE00E52512253AE58224DBF582E583340FF5DC
:101F0E0083E493FF1200060526E526C394035003CF
:101F1E00021E6A0527E527C3940C5003021E6705AF
:0B1F2E0028E528C394065003021E643F
:011F39002285
:021F3A008F25F1
:101F3C00122399E4F528E4F527E4F526C20BE528ED
:101F4C0075F00FA424142527F52774042526F526EF
:101F5C00E527C3944050077F011224D1800D7F02E6
:101F6C001224D174C02527F527D20BE52644B8FFDF
:101F7C00122418E5274440FF122418300B06744035
:101F8C002527F527E52875F00FA42414FFC3E527B2
:101F9C009FF52774FC2526F526E528C3940675F0D5
:101FAC000CE526501EA42527F582E435F0F5837543
:101FBC00F024E52812253AE5822403F582E58334E2
:101FCC000F801CA42527F582E435F0F58375F024E9
:101FDC00E52512253AE58224DBF582E583340FF5FD
:101FEC0083E493FF1200060526E526C394035003F1
:101FFC00021F480527E527C3940C5003021F450513
:0B200C0028E528C394075003021F4280
:0120170022A6
:1020C500E4FF1224D1E4F525E4F526E52544B8FF1F
:1020D500122418E5264440FF122418E50A24FE6060
:1020E5000714601F2402803675F040E525A42526D7
:1020F500F582E435F0F583E58224B3F582E5833492
:1021050013803475F040E525A42526F582E435F0E5
:10211500F583E58224B3F582E5833414801975F0DF
:1021250040E525A42526F582E435F0F583E58224EE
:10213500B3F582E5833412F583E493FF12000605B7
:1021450026E526C3944040830525E525C394045020
:04215500030220CD94
:012159002263
:1021E600851028751002752501AF251224D1E4F556
:1021F60026E4F527E52644B8FF122418E5274440CF
:10220600FF122418122494EF600585281080090512
:1022160027E527C3944040DCE510652860090526BC
:10222600E526C3940440CAE510652860090525E53E
:0622360025C3940340B330
:01223C00227F
:10223D00E50A24FE600714600C24028010751B0251
:10224D00751114800E751B0375110C8006751B011D
:10225D007511189015B3E493F519A3E493F51A8548
:10226D001B12851117A2039204E4F525E525C395EC
:10227D0017500EE5192525FFAD1A12235D05258092
:01228D00EB65
:01228E00222D
:10201800300463C374809517C39512FFE519D39FE5
:1020280040030220C4E5172512FFE433FED3EF94E2
:1020380080EE6480948040030220C4752501E51277
:102048002401FFE433FEC3E5259FEE6480F8748025
:1020580098501CE519252514FFAD1A122320E519FF
:102068002517142525FFAD1A12235D052580CFE518
:10207800122519F51922C3E51995127480F89840AC
:102088003B752501E5122401FFE433FEC3E5259FD6
:10209800EE6480F8748098501CE5192517C39525BF
:1020A800FFAD1A122320C3E5199525FFAD1A122397
:0C20B8005D052580CFC3E5199512F519D0
:0120C40022F9
:1022DE009015B5E493F514A3E493F515A3E493F5E3
:1022EE0008A3E493F509A2059201A2069202AD1588
:1022FE00AF1412235DE51514FDAF1412235DE51422
:10230E0004FFAD1512235DE51404FFE51514FD025F
:02231E00235D3D
:10244F00AD15AF14122320E51404FFAD1512232090
:10245F00E51514FDAF14122320E51404FFE5151440
:04246F00FD02232027
:1015B900E4F5902002030216DCE51524FEFDAF14C4
:1015C90012228F4016E51404FFE51524FEFD1222B0
:1015D9008F4008E515146003021808E515D3942215
:1015E900500302169DE515943E400302169DE5142D
:1015F900C3947E400302169DE5149400500302161D
:101609009DE50C131313541FF50CE4F525E50B2583
:1016190025FFE433FEC3EF9440EE648094805009C3
:101629007F011224D1C20D800D74C0250BF50B7FEB
:10163900021224D1D20DE50B25254440FF122418AE
:10164900E50C44B8FF122418E4FF120006300D0619
:101659007440250BF50B0525E525C3940840AEE537
:101669000C75F008A4F50CE4F513E51624FE6012D8
:1016790014601514601824037017D200751007023E
:1016890017B37510080217B37510090217B375104F
:101699000A0217B3759004E515146032E51524FEA6
:1016A900FDAF14122320E51404FFE51524FEFD12F5
:1016B9002320E51524FE6016E51524FDFDAF14125F
:1016C9002320E51404FFE51524FDFD122320B202B1
:1016D900021808E51504FDAF1412228F4010E51415
:1016E90004FFE51504FD12228F4003021808E515D1
:1016F900643F7003021805E515D3942250030217BD
:10170900B8E515943E40030217B8E514C3947E402A
:10171900030217B8E514940050030217B8E50C1337
:101729001313541FF50CE4F525E50B2525FFE433C8
:10173900FEC3EF9440EE6480948050097F01122427
:10174900D1C20D800D74C0250BF50B7F021224D177
:10175900D20DE50B25254440FF122418E50C44B8A9
:10176900FF122418E4FF120006300D067440250B01
:10177900F50B0525E525C3940840AEE50C75F00881
:10178900A4F50CE4F513E51624FE60111460131496
:10179900601524037014D200751007800D751008A8
:1017A9008008751009800375100AE4F516805075D4
:1017B9009004E5152401FFE433FEEF651A7001EE8C
:1017C900602CE51504FDAF14122320E51404FFE590
:1017D9001504FD122320E5152402FDAF1412232060
:1017E900E51404FFE5152402FD122320800A7590F3
:1017F90005851208A2049201B2028003E4F510E5FE
:101809001064016003021BB920010302192FE514BA
:101819002402FFAD1512228F401FE5142402FFE5B3
:101829001514FD12228F4011E5142401FFE433FE43
:10183900EF647F4E6003021A3CE515D394225003EE
:101849000218FBE515943E40030218FBE514C39406
:101859007E40030218FBE514940050030218FBE5CF
:101869000C131313541FF50CE4F525E50B2525FF7F
:10187900E433FEC3EF9440EE6480948050097F0105
:101889001224D1C20D800D74C0250BF50B7F0212F5
:1018990024D1D20DE50B25254440FF122418E50C6F
:1018A90044B8FF122418E4FF120006300D067440F4
:1018B900250BF50B0525E525C3940840AEE50C7508
:1018C900F008A4F50CE4F513E51624FE6012146083
:1018D9001514601824037017D200751007021A0135
:1018E900751008021A01751009021A0175100A0209
:1018F9001A01759004E5142402FFAD15122320E5A1
:10190900142402FFE51514FD122320E5142403FF16
:10191900AD15122320E5142403FFE51514FD122348
:1019290020B201021A3CE51414FFAD1512228F40B2
:1019390014E51414FFE51514FD12228F4007E51470
:101949006003021A3CE515D394225003021A06E5F6
:1019590015943E4003021A06E514C3947E4003021F
:101969001A06E51494005003021A06E50C13131322
:10197900541FF50CE4F525E50B2525FFE433FEC3DB
:10198900EF9440EE6480948050097F011224D1C203
:101999000D800D74C0250BF50B7F021224D1D20DD9
:1019A900E50B25254440FF122418E50C44B8FF1225
:1019B9002418E4FF120006300D067440250BF50BC0
:1019C9000525E525C3940840AEE50C75F008A4F596
:1019D9000CE4F513E51624FE601114601314601568
:1019E90024037014D200751007800D751008800843
:1019F900751009800375100AE4F516803675900490
:101A0900E514602D14FFAD15122320E51414FFE52C
:101A19001514FD122320E514146016E51424FEFFA5
:101A2900AD15122320E51424FEFFE51514FD12233C
:101A390020B201C20B300262752501E5092401FFBC
:101A4900E433FEC3E5259FEE6480F8748098503C2A
:101A5900E51514C39525FD700BD20BC3E515952526
:101A6900F5158028AF1412228F400FE51404FFE505
:101A790015149525FD12228F500ED20BE52514FF62
:101A8900C3E5159FF5158004052580AFA20BB3505A
:101A990055C3E5159509F515804C752501E509240A
:101AA90001FFE433FEC3E5259FEE6480F874809856
:101AB9005029E5152525FDAF1412228F400EE51496
:101AC90004FFE5152525FD12228F500BD20BE525C4
:101AD900142515F5158004052580C2A20BB35006FF
:101AE900E5092515F515C20C30016C752501E509C7
:101AF9002401FFE433FEC3E5259FEE6480F874807A
:101B0900985048E5142401FFE433FE7C00EF2525B5
:101B1900FFEC3EFEEF647F4E7006D20CE525802176
:101B2900E514042525FFAD1512228F400FE5140495
:101B39002525FFE51514FD12228F500BD20CE52542
:101B4900142514F5148004052580A3A20CB3506054
:101B5900E5082514F51422752501E5092401FFE49A
:101B690033FEC3E5259FEE6480F87480985035C331
:101B7900E5149525FF7006D20C8F148027AD151238
:101B8900228F400EE5149525FFE51514FD12228FCD
:101B9900500ED20CE52514FFC3E5149FF5148004FB
:101BA900052580B6A20CB35007C3E5149508F514B2
:011BB9002209
:1024250012244F1215B9AD15AF1412235DE515141D
:10243500FDAF1412235DE51404FFAD1512235DE510
:0A2445001404FFE51514FD02235DE9
:10001E00E51064016002051CE51064046003020231
:10002E0030759001200805F51CD208223007030216
:10003E000228E51CC39450400302010DE51C75F027
:10004E000A84F522E51C75F00A842401FFE433FED0
:10005E00C3E5229FEE6480F87480984003020D2E53
:10006E00E4F524E4F523C209E52275F00FA4240576
:10007E002524F5240523C3944050077F011224D173
:10008E00800D7F021224D174C02524F524D209E5F7
:10009E002344B8FF122418E5244440FF12241830DC
:1000AE00090674402524F524E52275F00FA42405D5
:1000BE00FFC3E5249FF5241523FF75F00CE523A45B
:1000CE002FF582E435F0F58375F024E52212253AFA
:1000DE00E58224B3F582E5833410F583E493FF12B1
:1000EE0000060523E523C394035003020074052480
:1000FE00E524C3940C50030200710522020052E560
:10010E001CD39450500302021BE51C94784003024A
:10011E00021BE4FF1224D1752304C37490951CF5C1
:10012E0024E524C394405019E52344B8FF12241843
:10013E00E5244440FF122418E4FF12000605248033
:10014E00E00523E523C3940640D0E4F522E4F5242C
:10015E00E4F523C209C374CF951CFFE52275F007A1
:10016E00A42F2524F52474042523F523E524C39414
:10017E004050077F011224D1800D7F021224D174CA
:10018E00C02524F524D209E524C39440505AE52312
:10019E0044B8FF122418E5244440FF1224183009F5
:1001AE000674402524F524C374CF951CFFE52275F3
:1001BE00F007A42FFFC3E5249FF52474FC2523F537
:1001CE002375F006A42524F582E435F0F58375F049
:1001DE000CE52212253AE58224D3F582E58334110B
:1001EE00F583E493FF1200060523E523C394025022
:1001FE00030201610524E524C39406500302015E47
:10020E000522E522C39405500302015B22E51CD3AF
:10021E0094785003020D2ED20722751005C207C224
:10022E000822E5106405600302039220080302030E
:10023E00F3D2B420B40FE4F5901224731220C575D6
:10024E001006C20822E51CD394144003020C28E5C4
:10025E001CD3940A406BE51C941450657F01122444
:10026E00D1752306752414E52344B8FF122418E52E
:10027E00244440FF122418E4FF1200060524E5244E
:10028E00C3944040E20523E523C3940840D67F0281
:10029E001224D1752306E4F524E52344B8FF122475
:1002AE0018E5244440FF122418E4FF12000605242A
:1002BE00E524C3942B40E20523E523C3940840D6DE
:1002CE0022E51CC3941E4003020D2EE4F522E4F534
:1002DE0024E4F523C209E52275F007A4241425248D
:1002EE00F52474062523F523E524C3944050077F97
:1002FE00011224D1800D7F021224D174C02524F561
:10030E0024D209E524C394405055E52344B8FF1286
:10031E002418E5244440FF122418300906744025A1
:10032E0024F524E52275F007A42414FFC3E5249FC9
:10033E00F52474FA2523F52375F006A42524F582F9
:10034E00E435F0F58375F00CE52212253AE58224AA
:10035E000FF582E5833412F583E493FF1200060550
:10036E0023E523C3940250030202E20524E524C3CD
:10037E00940650030202DF0522E522C3940B5003BC
:10038E000202DC22E5106406702975900220070235
:10039E00F51C750F1EE51CC3950F500E300703029A
:1003AE000D2EAF0A121F3AD207221223997510038F
:1003BE00C20722E51064037020200702F51C750F9A
:1003CE001EE51CC3950F5009300703020D2E020BBC
:1003DE0022D28CE4F590020B2AE51064076003022A
:1003EE0004B6200805D208F51C22E51CC394325031
:1003FE003FE51C75F00A84E5F0701AF522E522C37C
:10040E0095174003020D2EE5222519FFAD1A122372
:10041E0020052280E8E4F522E522C3951740030269
:10042E000D2EE5222519FFAD1A12235D052280E857
:10043E00E51CB4320A751780851918E4F51922E502
:10044E001CC39464503FE51C75F00A84E5F0701AE5
:10045E00F522E522C395174003020D2EE52225193C
:10046E00FFAD1A122320052280E8E4F522E522C30F
:10047E0095174003020D2EE5222519FFAD1A122302
:10048E005D052280E8E4F522E522C39517500EE5BE
:10049E00222519FFAD1A12235D052280EBC20875C5
:1004AE001001E4F50DD20022E51064086003020588
:1004BE0089200816C374FF958AC394555006E4F537
:1004CE00230206E57523020206E5E51CC3943250AD
:1004DE0073E51C75F00A84E5F07034F522E4F5241A
:1004EE00E4FF1224D1E523252244B8FF122418E597
:1004FE00244440FF122418E4FF1200060524E524CC
:10050E00C3944040DB0522E522C3940240CF22E48F
:10051E00F522E4F524E4FF1224D1E523252244B884
:10052E00FF122418E5244440FF1224187FFF120006
:10053E00060524E524C3944040DB0522E522C3943E
:10054E000240CF22E4F522E4F524E4FF1224D1E5A3
:10055E0023252244B8FF122418E5244440FF122418
:10056E0018E4FF1200060524E524C3944040DB0581
:10057E0022E522C3940240CF0208E8E51064096028
:10058E00030206CA850B23850C24E524131313548A
:10059E001FF5242008030206E5E51CC39432400330
:1005AE0002066FE51C75F00A84E5F07059F522E538
:1005BE00232522FFE433FEC3EF9440EE6480948043
:1005CE0050097F011224D1C20A800D74C02523F573
:1005DE00237F021224D1D20AE52325224440FF12A2
:1005EE002418E52444B8FF122418901293E493FFC4
:1005FE00120006300A0674402523F5230522E52253
:10060E00C3940840AA22E4F522E5232522FFE43311
:10061E00FEC3EF9440EE6480948050097F01122453
:10062E00D1C20A800D74C02523F5237F021224D176
:10063E00D20AE52325224440FF122418E52444B8AB
:10064E00FF122418E5229012A393FF120006300A1F
:10065E000674402523F5230522E522C3940840A9FC
:10066E0022E4F522E5232522FFE433FEC3EF944076
:10067E00EE6480948050097F011224D1C20A800D4D
:10068E0074C02523F5237F021224D1D20AE5232537
:10069E00224440FF122418E52444B8FF122418E423
:1006AE00FF120006300A0674402523F5230522E5C5
:1006BE0022C3940840AEC20875100222E510640AE7
:1006CE00600302080D850B23850C24E524131313F8
:1006DE00541FF524200805D208020C28E51CC394EB
:1006EE003240030207B2E51C75F00A84E5F070593A
:1006FE00F522E5232522FFE433FEC3EF9440EE649A
:10070E0080948050097F011224D1C20A800D74C0DA
:10071E002523F5237F021224D1D20AE52325224474
:10072E0040FF122418E52444B8FF122418901293A7
:10073E00E493FF120006300A0674402523F52305C4
:10074E0022E522C3940840AA22E4F522E5232522BD
:10075E00FFE433FEC3EF9440EE6480948050097F33
:10076E00011224D1C20A800D74C02523F5237F0205
:10077E001224D1D20AE52325224440FF122418E583
:10078E002444B8FF122418E5229012AB93FF1200F6
:10079E0006300A0674402523F5230522E522C3946C
:1007AE000840A922E4F522E5232522FFE433FEC307
:1007BE00EF9440EE6480948050097F011224D1C2E0
:1007CE000A800D74C02523F5237F021224D1D20A8C
:1007DE00E52325224440FF122418E52444B8FF12D5
:1007EE002418E4FF120006300A0674402523F52370
:1007FE000522E522C3940840AEC208E4F51022E5B6
:10080E0010640B60030208EE200807D208F51CC224
:10081E000022E51CC39432503FE51C75F00A84E5B6
:10082E00F0701AF522E522C395174003020D2EE54E
:10083E00222519FFAD1A122320052280E8E4F522A5
:10084E00E522C395174003020D2EE5222519FFADB3
:10085E001A12235D052280E8E51CB4321FE4F5224E
:10086E00E522C39517500EE5222519FFAD1A122366
:10087E0020052280EB85111785181922E51CC394DB
:10088E0064503FE51C75F00A84E5F0701AF522E518
:10089E0022C395174003020D2EE5222519FFAD1A2E
:1008AE00122320052280E8E4F522E522C3951740A5
:1008BE0003020D2EE5222519FFAD1A12235D052226
:1008CE0080E8E4F522E522C39517500EE52225199E
:1008DE00FFAD1A12235D052280EBC20875100122AE
:1008EE001221E6E510B4010C759003121BBA12200A
:1008FE0018022425E5106003020B39759006E50EEB
:10090E006003020B0A750A01750E05200702F51C1D
:10091E00E51CC3941E5009300703020D2E020B2254
:10092E00E51C641E60030209E4122473E4F522E45C
:10093E00F524E4F523C209E52275F014A4241E253E
:10094E0024F5240523C3944050077F011224D1803F
:10095E000D7F021224D174C02524F524D209E5237B
:10096E0044B8FF122418E5244440FF12241830091D
:10097E000674402524F524E52275F014A4241EFFE8
:10098E00C3E5249FF5241523FF75F00CE523A42F52
:10099E00F582E435F0F58375F024E52212253AE56B
:1009AE008224BFF582E583340DF583E493FF1200B4
:1009BE00060523E523C3940350030209430524E5EA
:1009CE0024C3940C50030209400522E522C394046B
:1009DE00500302093D22E51CD3941E5003020D2E36
:1009EE00D2B420B409122473751004C20722E51C78
:1009FE00D394324004751C1F22E51CD39428403931
:100A0E00E51C94325033E4FF1224D1752306E4F52D
:100A1E0024E52344B8FF122418E5244440FF122491
:100A2E0018E4FF1200060524E524C3944040E205B5
:100A3E0023E523C3940840D622E51CC39428400323
:100A4E00020D2EE4F522E4F524E4F523C209E52295
:100A5E0075F007A424142524F52474062523F52304
:100A6E00E524C3944050077F011224D1800D7F02EC
:100A7E001224D174C02524F524D209E524C3944050
:100A8E005055E52344B8FF122418E5244440FF12C4
:100A9E00241830090674402524F524E52275F00744
:100AAE00A42414FFC3E5249FF52474FA2523F5230B
:100ABE0075F006A42524F582E435F0F58375F00C67
:100ACE00E52212253AE582240FF582E5833412F5EC
:100ADE0083E493FF1200060523E523C3940250031B
:100AEE00020A5A0524E524C394065003020A570548
:100AFE0022E522C3940B5003020A5422200705E478
:100B0E00F51C150E750F1EE51CC3950F500E300704
:100B1E0003020D2EAF0E121E5CD207221223991263
:100B2E0022DE12223D751001C20722E5106402601A
:100B3E0003020D2E759007300703020BFCD207F54A
:100B4E001C122473E4F522E4F524E4F523C209E52E
:100B5E002275F014A4241E2524F5240523C39440E5
:100B6E0050077F011224D1800D7F021224D174C050
:100B7E002524F524D209E52344B8FF122418E524D0
:100B8E004440FF12241830090674402524F524E54C
:100B9E002275F014A4241EFFC3E5249FF52415230B
:100BAE00FF75F00CE523A42FF582E435F0F583757F
:100BBE00F024E52212253AE582242FF582E58334CE
:100BCE000DF583E493FF1200060523E523C394037A
:100BDE005003020B5B0524E524C3940C5003020B57
:100BEE00580522E522C394045003020B5522D2B4B9
:100BFE0020B420122473E50AC39403500A050A1286
:100C0E0020C57510068009750A01750E057510044C
:100C1E00C20722E51CD394144004E4F51C22E51C03
:100C2E00D3940A4039E51C94145033E4FF1224D1B6
:100C3E00752306E4F524E52344B8FF122418E524B1
:100C4E004440FF122418E4FF1200060524E524C3D5
:100C5E00944040E20523E523C3940840D622E51CC8
:100C6E00C3941E4003020D2EE4F522E4F524E4F5B0
:100C7E0023C209E52275F007A424142524F5247453
:100C8E00062523F523E524C3944050077F01122443
:100C9E00D1800D7F021224D174C02524F524D209EF
:100CAE00E524C394405055E52344B8FF122418E5BB
:100CBE00244440FF12241830090674402524F524DC
:100CCE00E52275F007A42414FFC3E5249FF52474D0
:100CDE00FA2523F52375F006A42524F582E435F0D4
:100CEE00F58375F00CE52212253AE582240FF58284
:100CFE00E5833412F583E493FF1200060523E52302
:100D0E00C394025003020C7F0524E524C3940650BD
:100D1E0003020C7C0522E522C3940B5003020C79CE
:010D2E0022A2
:062562001224FE022473A6
:0300000002215A80
:0C215A00787FE4F6D8FD75812B0221A1EE
:0C253A00A42582F582E5F03583F58322AC
:102166000224E9E493A3F8E493A34003F68001F282
:1021760008DFF48029E493A3F85407240CC8C3337A
:10218600C4540F4420C8834004F456800146F6DF49
:10219600E4800B01020408102040809023CCE47EEA
:1021A600019360BCA3FF543F30E509541FFEE4933E
:1021B600A360010ECF54C025E060A840B8E493A305
:1021C600FAE493A3F8E493A3C8C582C8CAC583CA30
:1021D600F0A3C8C582C8CAC583CADFE9DEE780BEE8
:0123F90000E3
:00000001FF
