:0819E500C2A1C2A08E80D2A0B5
:0219ED000022D6
:10198C00EF7005C2A4C2A322BF0105C2A4D2A32238
:08199C00BF0204D2A4C2A32281
:10197000D2A1C2A2C2A0D2A0E58030E70CC2A0AF23
:0B1980002B052BEFD3940A40EDC2A012
:01198B002239
:10189800EEC41313540304FF12198CEE543FFCEDED
:0E18A800131313541FFBED5407FDEB44B8FF60
:0D18B600AE07121970C2A21219E5C2A022DD
:0D000600AE07121970D2A21219E5C2A02295
:1019B9007F3F1218B67FC01218B67FB81218B67FCB
:0419C900400218B60A
:10191100E4FF12198C7DB8AF051218B67F4012187A
:10192100B6E4FCE4FF1200060CBC40F70DBDC0E7B5
:011931002293
:10193200121970D2A2D2A17580FFD2A0AF80C2A02C
:10194200121970D2A2D2A17580FFD2A0AF80C2A01C
:011952002272
:02182900AE0708
:10182B00EEC394805033EDC39440502D121898ECB6
:10183B004440FF1218B6121932AA07AF057401A85B
:10184B0007088002C333D8FC42021218B2EC4440A2
:09185B00FF1218B6AF02120006DC
:011864002261
:0217EC00AE0746
:1017EE00EEC394805034EDC39440502E121898ECF2
:1017FE004440FF1218B6121932AA07AF057401A899
:10180E0007088002C333D8FCF452021218B2EC441B
:0A181E0040FF1218B6AF02120006D8
:01182800229D
:02175B00AE07D7
:10175D00EEC394805042EDC39440503CEEC413133D
:10176D00540304FF12198CEE543FFCED1313135464
:10177D001FFFED5407FDEF44B8FF1218B6EC4440BF
:10178D00FF1218B6121932AE05EFA806088002C373
:0C179D0013D8FC13920B8002D20BA20B9D
:0117A900221D
:0319530001170079
:0C19CD00758910758D63758BC0D28E2259
:05001600D288D28A220D
:0919EF00D2AFD2ABD2A8D2AA22D9
:0919F8001219CD1200160219EFBC
:1019A4001219F8121A0AE517C3940340F9120888A9
:0519B400E4F51780F1CD
:03001B00021A01C5
:091A01000517758D63758BC03269
:03000300021A10CE
:031A1000C20332DC
:03001300021A13BB
:031A1300D20332C9
:10001E0004FCFC040000000004FCFC040003FF8050
:10002E0000FCFC0080FF03000000033F3C03033C88
:10003E003F030000000000040404FCFC0404040060
:10004E00000000000000FFFF000000000000002084
:10005E0020203F3F2020200004FCFCE00000000494
:10006E00FCFC040000FFFF01071C70C0FFFF000036
:10007E00203F3F20000000030F3F00000000000063
:10008E0000FCFEFC00000000000000000003FF0367
:10009E000000000000000000003079300000000079
:1000AE0004FCFC0404040C1870E0800000FFFF0048
:1000BE000000000000FFFF00203F3F2020203018EE
:1000CE000E070100000000040404FCFC04040400FC
:1000DE00000000000000FFFF0000000000000020F4
:1000EE0020203F3F2020200004FCFC0404040404D4
:1000FE000C1C7C0000FFFF0808081C7F000000009D
:10010E00203F3F202020202030383E0000000000FD
:10011E0000FCFEFC00000000000000000003FF03D6
:10012E0000000000000000000030793000000000E8
:10013E0004FCFC04000000000000000000FFFF00B3
:10014E000000000000000000203F3F202020202063
:10015E0030383E00000000040404FCFC04040400DB
:10016E00000000000000FFFF000000000000002063
:10017E0020203F3F2020200004FCFC040404040443
:10018E000C1C7C0000FFFF0808081C7F000000000C
:10019E00203F3F20000000000000000004FCFC0493
:1001AE00040404040C1C7C0000FFFF0808081C7FDC
:1001BE0000000000203F3F202020202030383E004D
:1001CE0000000000000000000000000000C3C3C3D8
:1001DE00C3C3C3C3C3C3C3000000000000000000BC
:1001EE000000000004FCFC04000000000000000001
:1001FE0000FFFF000000000000000000203F3F2035
:10020E002020202030383E0004FCFC0404040404AA
:10021E000C1C7C0000FFFF0808081C7F000000007B
:10022E00203F3F202020202030383E0004FCFC04DC
:10023E0000000004FCFC040000003FFFC000C0FFF3
:10024E003F000000000000031F3C1F0300000000E1
:10025E0004FCFC04040404040C1C7C0000FFFF08D6
:10026E0008081C7F00000000203F3F202020202097
:10027E0030383E0004FCFC040000000000000000CA
:10028E0000FFFF000000000000000000203F3F20A4
:10029E002020202030383E0000000000000000002A
:1002AE000000000000C3C3C3C3C3C3C3C3C3C300A2
:1002BE0000000000000000000000000000C0F03848
:1002CE000C040C38F0C00000FFFF0000000000001E
:1002DE0000FFFF0000030F1C3020301C0F03000036
:1002EE000010101818FCFC000000000000000000B8
:1002FE0000FFFF000000000000002020203F3F20F4
:10030E002020000060F0F80C0404040C18F0E0004B
:10031E0000000080C06030180E070100383E3F33E9
:10032E003030303030303C00003078780C04040C23
:10033E0018F8F0000000000008081C1633E1C00099
:10034E000C1E3E3020202030181F0F000000000031
:10035E0080E038FCFC00000080E0380E030000FF57
:10036E00FF000000010101010121213F3F21210178
:10037E0000FCFC0C0C0C0C0C0C0C0000001F0F08ED
:10038E00040202061CF8E0000C1E3E302020203035
:10039E001C0F030004FCFC0404040C18F0E0000025
:1003AE0000FFFF0808081C1673E18000203F3F2065
:1003BE00202020301C0F030004FCFC0404040C1845
:1003CE00F8E0000000FFFF0838F8CC060701000037
:1003DE00203F3F200000032F3C30200004FCFC0493
:1003EE00040404040C1C7C0000FFFF0808081C7F9A
:1003FE0000000000203F3F202020202030383E000B
:10040E0000000000F00C3CF0000000000000F0FFC7
:10041E0043404043FFF00000203E3F20000000001C
:10042E00203F3E2004FCFC040080E47C1C040400FD
:10043E0000FFFF781E7FE18000000000203F3F207C
:10044E00000001273E382020E0F0180C0404040CB4
:10045E0018F0E000FFFF00000000000000FFFF00AA
:10046E00070F183020202030180F070004FCFC0462
:10047E0000000004FCFC040000FFFF000000000070
:10048E00FFFF0000000F1F30202020301F0F000044
:10049E007C1C0C0404FCFC04040C1C7C00000000FE
:1004AE0000FFFF000000000000000020203F3F2062
:1004BE002000000000FC0202028600000101010083
:1004CE000002FE0200C000010101010100FC020257
:1004DE0002FC00000101010002FE0E7082FE01010D
:1004EE000100010102FE123A028601010101010121
:1004FE000002FE22221C0001010100000008F8107B
:10050E00080800010101010100F028282830000030
:10051E00010101010090282828D8000101010100E5
:10052E000090282828D800010101010000000000D9
:10053E000000000000000000008C921214E6000182
:10054E0000010100000602FE02060000010101008A
:10055E0000C07A4678C001010100010102FE22228C
:10056E00629C010101000000000602FE020600006E
:10057E0001010100FFFFFFFFFFFFFFFFFFFFFFFF76
:10058E00FFFFFFFFFFF7EFEFDFDFBF7FFFFFFFFF95
:10059E00FFFFFFFFFFFFFF7F9FE7FBFDFFFFFFFF5B
:1005AE00FFFFFFFFFFFFFFFFFFFFFFFFFFFFFFFF4D
:1005BE00FFFFFFFFFFFFFFFFFFFFFFFFFFFFFFFF3D
:1005CE00FF01FDFD0DEDEDEDEDED6D6D2C2DEDED68
:1005DE00EDEDEDEDEDED2D2C6D6D6DEDEDEDEDED3E
:1005EE000DFDFD01FFFFFFFFFFFFFFFFFFFFFFFF01
:1005FE00FFFFFFFFFFFFFFFFFFFFFFFFFFFFFFFFFD
:10060E00FF00FFFF80BFBFBFBCBCBEBEB3ADAFB768
:10061E00BBB9B7AFAFB5BBBFBEBEBEBFBFBFBFBF1F
:10062E0080FFFF00FFFFFFFFFFFFFFFFFFFFFFFF4A
:10063E00FFFFFFFFFFFFFFFFFFFFFFFFFFFFFFFFBC
:10064E00FFFCFDFDFDFDCDC1F1FDFDFDFDFDFDFD43
:10065E00FDFDFDFDFDFDFDFDF1C1CDFDFDFDFDFD34
:10066E00FDFDFDFCFFFFFFFFFFFFFFFFFFFFFFFF95
:10067E00FFFFFFFFFFFFFFFFFFFFFFFFFFFFFFFF7C
:10068E00FFFFFFFFFFFFFFFFFFFFFFFFFFFFFF7FEC
:10069E00BFBF7FFFFFFFFFFFFFFFFFFFFFFFFFFF5C
:1006AE00FFFFFFFFFFFFFF7FBFBF7FFFFFFFFFFFCC
:1006BE00FFFFFFFFFFFFFFFFFFFFFFFFFFFFFFFF3C
:1006CE00FFFFFFFFFF0703010101010307010603FF
:1006DE00010101010307FFFFFFFFFFFFFF070301FA
:1006EE000101010307010603010171F9FFFFFFFF7D
:1006FE00FFFFFFFFFFFFFFFFFFFFFFFFFFFFFFFFFC
:10070E00FFFFFFFFFFF0E0C0808080808080808050
:10071E00808080C0E0F0FFFFFFFFFFFFFFF0E0C032
:10072E008080808080808080808080C0E0F0FFFFAD
:10073E00FFFFFFFFFFFFFFFFFFFFFFFFFFFFFFFFBB
:10074E00FFFFFFFFFFFFFFFFFFFFFFFFFFFFFFFFAB
:10075E00FFFFFFFFFFFFFFFFFFFFFFFFFFFFFFFF9B
:10076E00FFFFFFFFFFFFFFFFFFFFFFFFFFFFFFFF8B
:10077E00FFFFFFFFFFFFFFFFFFFFFFFFFFFFFFFF7B
:10078E00FFFFFFFFFFFFFFFFFFFFFFFFFFFF7F7F6B
:10079E007F7F7F7F7F7F7F7F7F7F7F7F7FFFFFFFDB
:1007AE00FFFFFFFFFFFFFFFFFFFFFFFFFFFFFFFF4B
:1007BE00FFFFFFFFFFFFFFFFFFFFFFFFFFFFFFFF3B
:1007CE00FFFFBF1F4FE7F3FBF9FDFDFCFEBE1E0F43
:1007DE000703010140E0F0E0410103070E1EBEFCDD
:1007EE00FDFDF9FBF3E74F1FBFFFFFFFFFFFFFFF0D
:1007FE00FFFFFFFFFFFFFFFFFFFFFFFFFFFFFFFFFB
:10080E00FFFFFFFFFEFCF9FBF3F7F7E7EFEFCFDE9D
:10081E00DCD8D0D0C0C0C1C0D0D0D8DCCEEFEFE78E
:10082E00F7F7F3FBF9FCFEFFFFFFFFFFFFFFFFFFF4
:10083E00FFFFFFFFFFFFFFFFFFFFFFFFFFFFFFFFBA
:10084E00FFFFFFFFFFFFFFFFFFFFFFFFFFFFFFFFAA
:10085E00FFFFFFFFFFFFFFFFFFFFFFFFFFFFFFFF9A
:10086E00FFFFFFFFFFFFFFFFFFFFFFFFFFFFFFFF8A
:0A087E00FFFFFFFF003F073E0001EF
:10195600010D04010B05011600010C00C106C107AB
:09196600010A01C182C104C1059E
:10186500E4FF12198C752904E4F52AE52944B8FF2B
:101875001218B6E52A4440FF1218B6E4FF12000616
:10188500052AE52AC3944040E20529E529C39408C1
:0218950040D63B
:01189700222E
:02133E008F25F9
:10134000121865E4F528E4F527E4F526C209E52836
:1013500075F00FA424142527F52774042526F526F7
:10136000E527C3944050077F0112198C800D7F023E
:1013700012198C74C02527F527D209E52644B8FF39
:101380001218B6E5274440FF1218B630090674401B
:101390002527F527E52875F00FA42414FFC3E527BA
:1013A0009FF52774FC2526F526E528C3940575F0DE
:1013B0000CE526501EA42527F582E435F0F583754B
:1013C000F024E5281219D9E582243EF582E583341C
:1013D00001801CA42527F582E435F0F58375F024FF
:1013E000E5251219D9E58224CAF582E5833402F590
:1013F00083E493FF1200060526E526C394035003F9
:1014000002134C0527E527C3940C5003021349052A
:0B14100028E528C39406500302134691
:01141B0022AE
:02141C008F251A
:10141E00121865E4F528E4F527E4F526C209E52857
:10142E0075F00FA424142527F52774042526F52618
:10143E00E527C3944050077F0112198C800D7F025F
:10144E0012198C74C02527F527D209E52644B8FF5A
:10145E001218B6E5274440FF1218B630090674403C
:10146E002527F527E52875F00FA42414FFC3E527DB
:10147E009FF52774FC2526F526E528C3940675F0FE
:10148E000CE526501EA42527F582E435F0F583756C
:10149E00F024E5281219D9E58224F2F582E5833489
:1014AE0001801CA42527F582E435F0F58375F02420
:1014BE00E5251219D9E58224CAF582E5833402F5B1
:1014CE0083E493FF1200060526E526C3940350031A
:1014DE0002142A0527E527C3940C5003021427058E
:0B14EE0028E528C394075003021424D3
:0114F90022D0
:10159100E4FF12198CE4F525E4F526E52544B8FFAE
:1015A1001218B6E5264440FF1218B6E50A24FE607B
:1015B1000714601F2402803675F040E525A4252616
:1015C100F582E435F0F583E5822482F582E5833402
:1015D10006803475F040E525A42526F582E435F032
:1015E100F583E5822482F582E5833407801975F05D
:1015F10040E525A42526F582E435F0F583E582242E
:1016010082F582E5833405F583E493FF1200060534
:1016110026E526C3944040830525E525C39404505F
:041621000302159912
:0116250022A2
:1016B200850D28750D02752501AF2512198CE4F5EB
:1016C20026E4F527E52644B8FF1218B6E52744407C
:1016D200FF1218B6121932EF600585280D80090530
:1016E20027E527C3944040DCE50D652860090526FF
:1016F200E526C3940440CAE50D652860090525E581
:0617020025C3940340B36F
:0117080022BE
:10170900E50A24FE600714600C2402801075150395
:10171900750E14800E751506750E0C80067515016B
:10172900750E18900882E493F513A3E493F51485D4
:10173900150F850E12A2029203E4F525E525C3953E
:1017490012500EE5132525FFAD1412182905258021
:01175900EBA4
:01175A00226C
:1014FA0030034DC374809512C3950FFFE513D39F34
:10150A004003021590752501E50F2401FFE433FE1F
:10151A00C3E5259FEE6480F8748098501CE5132576
:10152A002514FFAD141217ECE5132512142525FF17
:10153A00AD14121829052580CFE50F2513F51322BE
:10154A00C3E513950F7480F898403B752501E50FA4
:10155A002401FFE433FEC3E5259FEE6480F874801E
:10156A0098501CE5132512C39525FFAD141217ECEC
:10157A00C3E5139525FFAD14121829052580CFC39D
:06158A00E513950FF513B7
:011590002238
:1017AA00900884E493F510A3E493F511A3E493F568
:1017BA0008A3E493F509A2049200A2059201AD11CF
:1017CA00AF10121829E51114FDAF10121829E510EF
:1017DA0004FFAD11121829E51004FFE51114FD02EA
:0217EA001829BC
:1018ED00AD11AF101217ECE51004FFAD111217EC8E
:1018FD00E51114FDAF101217ECE51004FFE51114FE
:04190D00FD0217ECD4
:1010420030015DE51124FEFDAF1012175B4016E57D
:101052001004FFE51124FEFD12175B4008E5111490
:10106200600302110AE511146032E51124FEFDAF9E
:10107200101217ECE51004FFE51124FEFD1217EC27
:10108200E51124FE6016E51124FDFDAF101217ECE8
:10109200E51004FFE51124FDFD1217ECB201806892
:1010A200E51104FDAF1012175B400DE51004FFE5DA
:1010B2001104FD12175B5050E511643F6047E511C2
:1010C2002401FFE433FEEF65147001EE602CE5119C
:1010D20004FDAF101217ECE51004FFE51104FD1238
:1010E20017ECE5112402FDAF101217ECE51004FF16
:1010F200E5112402FD1217EC8007850F08A2039266
:1011020000B2018003E4F50DE50D640160030213F2
:101112003D30005BE5102402FFAD1112175B401F4A
:10112200E5102402FFE51114FD12175B4011E510D2
:101132002401FFE433FEEF647F4E60030211C0E539
:10114200102402FFAD111217ECE5102402FFE51185
:1011520014FD1217ECE5102403FFAD111217ECE594
:10116200102403FFE51114FD1217ECB200804FE5C5
:101172001014FFAD1112175B4011E51014FFE511B9
:1011820014FD12175B4004E5107033E510602D1456
:10119200FFAD111217ECE51014FFE51114FD121743
:1011A200ECE510146016E51024FEFFAD111217ECE9
:1011B200E51024FEFFE51114FD1217ECB200C2097E
:1011C200300162752501E5092401FFE433FEC3E520
:1011D200259FEE6480F8748098503CE51114C39505
:1011E20025FD700BD209C3E5119525F5118028AFB5
:1011F2001012175B400FE51004FFE511149525FD51
:1012020012175B500ED209E52514FFC3E5119FF5B5
:10121200118004052580AFA209B35055C3E511958D
:1012220009F511804C752501E5092401FFE433FE1F
:10123200C3E5259FEE6480F87480985029E5112556
:1012420025FDAF1012175B400EE51004FFE51125D6
:1012520025FD12175B500BD209E525142511F51156
:101262008004052580C2A209B35006E5092511F5BF
:1012720011C20A30006C752501E5092401FFE4332F
:10128200FEC3E5259FEE6480F87480985048E5100F
:101292002401FFE433FE7C00EF2525FFEC3EFEEF48
:1012A200647F4E7006D20AE5258021E510042525CB
:1012B200FFAD1112175B400FE510042525FFE51164
:1012C20014FD12175B500BD20AE525142510F510F8
:1012D2008004052580A3A20AB35060E5082510F515
:1012E2001022752501E5092401FFE433FEC3E5253B
:1012F2009FEE6480F87480985035C3E5109525FF01
:101302007006D20A8F108027AD1112175B400EE5CE
:10131200109525FFE51114FD12175B500ED20AE558
:101322002514FFC3E5109FF5108004052580B6A2A1
:0B1332000AB35007C3E5109508F51042
:01133D00228D
:1018C3001218ED121042AD11AF10121829E51114C0
:1018D300FDAF10121829E51004FFAD11121829E508
:0A18E3001004FFE51114FD0218299E
:10088800E50D640160020516E50D64046003020AC3
:1008980097200705F516D20722300603020A8FE5CE
:1008A80016C394504003020974E51675F00A84F5DE
:1008B80022E51675F00A842401FFE433FEC3E5221D
:1008C8009FEE6480F87480984003021041E4F52498
:1008D800E4F523C208E52275F00FA424052524F5C4
:1008E800240523C3944050077F0112198C800D7F83
:1008F8000212198C74C02524F524D208E52344B8C3
:10090800FF1218B6E5244440FF1218B630080674E2
:10091800402524F524E52275F00FA42405FFC3E53E
:10092800249FF5241523FF75F00CE523A42FF582E9
:10093800E435F0F58375F024E5221219D9E582240F
:10094800A2F582E5833403F583E493FF12000605DC
:1009580023E523C3940350030208DB0524E524C3DD
:10096800940C50030208D805220208B9E516D3945E
:10097800505003020A82E51694784003020A82E482
:10098800FF12198C752304C374909516F524E52479
:10099800C394405019E52344B8FF1218B6E524441F
:1009A80040FF1218B6E4FF120006052480E0052374
:1009B800E523C3940640D0E4F522E4F524E4F523C6
:1009C800C208C374CF9516FFE52275F007A42F253A
:1009D80024F52474042523F523E524C39440500703
:1009E8007F0112198C800D7F0212198C74C0252486
:1009F800F524D208E524C39440505AE52344B8FFAF
:100A08001218B6E5244440FF1218B63008067440A0
:100A18002524F524C374CF9516FFE52275F007A4A5
:100A28002FFFC3E5249FF52474FC2523F52375F0D7
:100A380006A42524F582E435F0F58375F00CE5224B
:100A48001219D9E58224C2F582E5833404F583E4DA
:100A580093FF1200060523E523C3940250030209FD
:100A6800C80524E524C3940650030209C50522E5F8
:100A780022C3940550030209C222E516D394785084
:100A880003021041D20622750D05C206C20722E5EF
:100A98000D64056003020BC6200705D207F5162270
:100AA800D2B420B40C121911121591750D06C20793
:100AB80022E516D394144003020F3BE516D3940A9B
:100AC8004039E51694145033E4FF12198C75230647
:100AD800E4F524E52344B8FF1218B6E5244440FFA2
:100AE8001218B6E4FF1200060524E524C39440401A
:100AF800E20523E523C3940840D622E516C3941ED5
:100B08004003021041E4F522E4F524E4F523C20889
:100B1800E52275F007A424142524F524740625235A
:100B2800F523E524C3944050077F0112198C800DEA
:100B38007F0212198C74C02524F524D208E524C339
:100B480094405055E52344B8FF1218B6E5244440B4
:100B5800FF1218B630080674402524F524E52275DE
:100B6800F007A42414FFC3E5249FF52474FA252371
:100B7800F52375F006A42524F582E435F0F5837590
:100B8800F00CE5221219D9E58224FEF582E58334BA
:100B980004F583E493FF1200060523E523C39402BA
:100BA8005003020B160524E524C394065003020BD8
:100BB800130522E522C3940B5003020B1022E50D06
:100BC80064067026200602F516750C1EE516C395F8
:100BD8000C500E300603021041AF0A12141CD20644
:100BE80022121865750D03C20622E50D6403701BF9
:100BF800200602F516750C1EE516C3950C50093033
:100C08000603021041020E3B020E431216B2E50D16
:100C1800B401061214FA0218C3E50D6003020E525D
:100C2800E50B6003020E23750A01200602F516E59E
:100C380016C3941E5009300603021041020E3BE50C
:100C480016641E6003020CFD121911E4F522E4F586
:100C580024E4F523C208E52275F014A4241E2524F3
:100C6800F5240523C3944050077F0112198C800D89
:100C78007F0212198C74C02524F524D208E5234478
:100C8800B8FF1218B6E5244440FF1218B63008061B
:100C980074402524F524E52275F014A4241EFFC30E
:100CA800E5249FF5241523FF75F00CE523A42FF503
:100CB80082E435F0F58375F024E5221219D9E5822E
:100CC80024AEF582E5833400F583E493FF12000631
:100CD8000523E523C394035003020C5C0524E52493
:100CE800C3940C5003020C590522E522C394045006
:100CF80003020C5622E516D3941E5003021041D26B
:100D0800B420B409121911750D04C20622E516D3D0
:100D18009432400475161F22E516D394284039E50D
:100D28001694325033E4FF12198C752306E4F52427
:100D3800E52344B8FF1218B6E5244440FF1218B65C
:100D4800E4FF1200060524E524C3944040E205238D
:100D5800E523C3940840D622E516C394284003022D
:100D68001041E4F522E4F524E4F523C208E52275F0
:100D7800F007A424142524F52474062523F523E577
:100D880024C3944050077F0112198C800D7F0212F2
:100D9800198C74C02524F524D208E524C394405046
:100DA80055E52344B8FF1218B6E5244440FF12184D
:100DB800B630080674402524F524E52275F007A40A
:100DC8002414FFC3E5249FF52474FA2523F523751D
:100DD800F006A42524F582E435F0F58375F00CE5DA
:100DE800221219D9E58224FEF582E5833404F583BD
:100DF800E493FF1200060523E523C394025003027F
:100E08000D730524E524C394065003020D700522D2
:100E1800E522C3940B5003020D6D22200605E4F56C
:100E280016150B750C1EE516C3950C500E300603EF
:100E3800021041AF0B12133ED20622121865121788
:100E4800AA121709750D01C20622E50D6402600396
:100E5800021041300603020F12D206F516121911BC
:100E6800E4F522E4F524E4F523C208E52275F0143C
:100E7800A4241E2524F5240523C3944050077F018C
:100E880012198C800D7F0212198C74C02524F52448
:100E9800D208E52344B8FF1218B6E5244440FF12EF
:100EA80018B630080674402524F524E52275F01498
:100EB800A4241EFFC3E5249FF5241523FF75F00C19
:100EC800E523A42FF582E435F0F58375F024E522B7
:100ED8001219D9E582241EF582E5833400F583E4EE
:100EE80093FF1200060523E523C394035003020E63
:100EF800710524E524C3940C5003020E6E0522E507
:100F080022C394045003020E6B22D2B420B41D12E3
:100F18001911E50AC39403500A050A121591750DB3
:100F2800068006750A01750D04C20622E516D394DB
:100F3800144004E4F51622E516D3940A4039E51660
:100F480094145033E4FF12198C752306E4F524E554
:100F58002344B8FF1218B6E5244440FF1218B6E43B
:100F6800FF1200060524E524C3944040E20523E56A
:100F780023C3940840D622E516C3941E40030210EA
:100F880041E4F522E4F524E4F523C208E52275F0EE
:100F980007A424142524F52474062523F523E52421
:100FA800C3944050077F0112198C800D7F021219DB
:100FB8008C74C02524F524D208E524C394405055E8
:100FC800E52344B8FF1218B6E5244440FF1218B6CA
:100FD80030080674402524F524E52275F007A4247A
:100FE80014FFC3E5249FF52474FA2523F52375F02F
:100FF80006A42524F582E435F0F58375F00CE52286
:101008001219D9E58224FEF582E5833404F583E4D8
:1010180093FF1200060523E523C394025003020F31
:10102800920524E524C394065003020F8F0522E598
:0910380022C3940B5003020F8C3B
:01104100228C
:061A0A001219B9021911C6
:03000000021626BF
:0C162600787FE4F6D8FD75812B02166D6C
:0C19D900A42582F582E5F03583F5832219
:101632000219A4E493A3F8E493A34003F68001F211
:1016420008DFF48029E493A3F85407240CC8C333B9
:10165200C4540F4420C8834004F456800146F6DF88
:10166200E4800B0102040810204080901953E47EAC
:10167200019360BCA3FF543F30E509541FFEE4937D
:10168200A360010ECF54C025E060A840B8E493A344
:10169200FAE493A3F8E493A3C8C582C8CAC583CA6F
:1016A200F0A3C8C582C8CAC583CADFE9DEE780BE27
:01196F000077
:00000001FF
