:08026400C2A1C2A08E80D2A04D
:02026C0000226E
:10020500EF7005C2A4C2A322BF0105C2A4D2A322D6
:08021500BF0204D2A4C2A3221F
:1001B700D2A1C2A2C2A0D2A0E58030E70CC2A0AFF4
:0B01C7000D050DEFD3940A40EDC2A01F
:0101D200220A
:10012200EEC41313540304FF120205EE543FFCED18
:0E013200131313541FFBED5407FDEB44B8FFED
:0D014000AE071201B7C2A2120264C2A022D3
:0D000600AE071201B7D2A2120264C2A022FE
:100232007F3F1201407FC01201407FB81201407F10
:040242004002014035
:10017500E4FF1202057DB8AF051201407F40120170
:1001850040E4FCE4FF1200060CBC40F70DBDC0E7DF
:010195002247
:100196001201B7D2A2D2A17580FFD2A0AF80C2A0B1
:1001A6001201B7D2A2D2A17580FFD2A0AF80C2A0A1
:0101B6002226
:0200AA00AE079F
:1000AC00EEC394805033EDC39440502D120122ECDA
:1000BC004440FF120140120196AA07AF057401A833
:1000CC0007088002C333D8FC420212013CEC4440C6
:0900DC00FF120140AF0212000600
:0100E50022F8
:0200E600AE0763
:1000E800EEC394805033EDC39440502D120122EC9E
:1000F8004440FF120140120196AA07AF0574FEA8FA
:1001080007088002C333D8FC520212013CEC444079
:09011800FF120140AF02120006C3
:0101210022BB
:03024600010E00A6
:0C025800758910758D63758BC0D28E22E5
:05001600D288D28A220D
:09026E00D2AFD2ABD2A8D2AA2271
:0902770012025812001602026E78
:10021D00120277120292E50EC3940340F91202897D
:05022D00E4F50E80F174
:03001B000202805E
:09028000050E758D63758BC0320B
:030003000202985E
:03029800C200326F
:0300130002029B4B
:03029B00D200325C
:0E024900010917010A3F010803010B10C10053
:06029200120232020175A8
:1001D300E4F50CE50CC3950B500EE509250CFFADBA
:0801E3000A1200E6050C80EB96
:0101EB0022F1
:1001EC00E4F50CE50CC3950B500EE509250CFFADA1
:0801FC000A1200AA050C80EBB9
:0102040022D7
:10014D00300013C374719508FFE509D39F5018E56E
:10015D00082509F50922C3E50995087480F898402A
:08016D0006E5099508F50922D9
:090289001201D312014D0201EC37
:0300000002001EDD
:0C001E00787FE4F6D8FD758120020065B3
:10002A0002021DE493A3F8E493A34003F68001F2CD
:10003A0008DFF48029E493A3F85407240CC8C333D7
:10004A00C4540F4420C8834004F456800146F6DFA6
:10005A00E4800B0102040810204080900246E47EEE
:10006A00019360BCA3FF543F30E509541FFEE4939B
:10007A00A360010ECF54C025E060A840B8E493A362
:10008A00FAE493A3F8E493A3C8C582C8CAC583CA8D
:10009A00F0A3C8C582C8CAC583CADFE9DEE780BE45
:0102570000A6
:00000001FF
