:08074900C2A1C2A08E80D2A063
:02075100002284
:1006EF00EF7005C2A4C2A322BF0105C2A4D2A322E8
:0806FF00BF0204D2A4C2A32231
:1006D300D2A1C2A2C2A0D2A0E58030E70CC2A0AFD3
:0B06E300190519EFD3940A40EDC2A0E6
:0106EE0022E9
:10062500EEC41313540304FF1206EFEE543FFCED22
:0E063500131313541FFBED5407FDEB44B8FFE5
:0D064300AE071206D3C2A2120749C2A022C0
:0D000600AE071206D3D2A2120749C2A022F3
:10071C007F3F1206437FC01206437FB81206437F09
:04072C00400206433E
:10067200E4FF1206EF7DB8AF051206437F40120673
:1006820043E4FCE4FF1200060CBC40F70DBDC0E7DA
:010692002245
:100693001206D3D2A2D2A17580FFD2A0AF80C2A08E
:1006A3001206D3D2A2D2A17580FFD2A0AF80C2A07E
:0106B3002224
:0205E900AE075B
:1005EB00EEC394805033EDC39440502D120625EC8E
:1005FB004440FF120643120693AA07AF057401A8E5
:10060B0007088002C333D8FC420212063FEC444079
:09061B00FF120643AF02120006B3
:0106240022B3
:0205AC00AE0798
:1005AE00EEC394805034EDC39440502E120625ECC9
:1005BE004440FF120643120693AA07AF057401A822
:1005CE0007088002C333D8FCF4520212063FEC44F3
:0A05DE0040FF120643AF02120006B0
:0105E80022F0
:02050E00AE0736
:10051000EEC394805042EDC39440503CEEC413139C
:10052000540304FF1206EFEE543FFCED1313135473
:100530001FFFED5407FDEF44B8FF120643EC4440A3
:10054000FF120643120693AE05EFA806088002C309
:0C05500013D8FC1392058002D205A2050E
:01055C00227C
:0306B400011A0028
:0C073D00758910758D63758BC0D28E22FB
:05001600D288D28A220D
:09075300D2AFD2ABD2A8D2AA2287
:09075C0012073D120016020753BA
:1007070012075C120650E51AC3940340F91202ED72
:05071700E4F51A80F179
:03001B0002076574
:09076500051A758D63758BC03215
:030003000207757C
:03077500C202328B
:0300130002077869
:03077800D2023278
:1001ED00FFFFFFFFFFFFFFFFFFFFFFFFFFFFFFFF12
:1001FD00FFF7EFEFDFDFBF7FFFFFFFFFFFFFFFFF2A
:10020D00FFFFFF7F9FE7FBFDFFFFFFFFFFFFFFFFEF
:10021D00FFFFFFFFFFFFFFFFFFFFFFFFFFFFFFFFE1
:10022D00FFFFFFFFFFFFFFFFFFFFFFFFFF01FDFDD3
:10023D000DEDEDEDEDED6D6D2C2DEDEDEDEDEDED42
:10024D00EDED2D2C6D6D6DEDEDEDEDED0DFDFD017E
:10025D00FFFFFFFFFFFFFFFFFFFFFFFFFFFFFFFFA1
:10026D00FFFFFFFFFFFFFFFFFFFFFFFFFF00FFFF90
:10027D0080BFBFBFBCBCBEBEB3ADAFB7BBB9B7AF20
:10028D00AFB5BBBFBEBEBEBFBFBFBFBF80FFFF0010
:10029D00FFFFFFFFFFFFFFFFFFFFFFFFFFFFFFFF61
:1002AD00FFFFFFFFFFFFFFFFFFFFFFFFFFFCFDFD58
:1002BD00FDFDCDC1F1FDFDFDFDFDFDFDFDFDFDFDD9
:1002CD00FDFDFDFDF1C1CDFDFDFDFDFDFDFDFDFCCA
:1002DD00FFFFFFFFFFFFFFFFFFFFFFFFFFFFFFFF21
:1006B700010A01020F003F010B01010E18C182025E
:0B06C7000C013E02080001C100C1014F
:10055D00E4FF1206EFE4F512E4F513E51244B8FFDB
:10056D00120643E5134440FF12064375F040E512B1
:10057D00A42513F582E435F0F583E58224EDF582AB
:10058D00E5833401F583E493FF1200060513E513AB
:0E059D00C3944040C60512E512C3940440BA50
:0105AB00222D
:1004B700850A18750A02751501AF151206EFE4F5DE
:1004C70016E4F517E51644B8FF120643E51744404E
:1004D700FF120643120693EF600585180A80090587
:1004E70017E517C3944040DCE50A6518600905164F
:1004F700E516C3940440CAE50A651860090515E5C1
:0605070015C3940340B38C
:01050D0022CB
:1006500012071C12067212055DE4F511E511C3952F
:100660000E500EE50F2511FFAD101205E9051180A2
:01067000EB9E
:010671002266
:1003940030024DC37480950EC3950BFFE50FD39FB8
:1003A400400302042A751501E50B2401FFE433FE22
:1003B400C3E5159FEE6480F8748098501CE50F2502
:1003C4001514FFAD101205ACE50F250E142515FF0D
:1003D400AD101205E9051580CFE50B250FF50F22A9
:1003E400C3E50F950B7480F898403B751501E50B38
:1003F4002401FFE433FEC3E5159FEE6480F87480A6
:1004040098501CE50F250EC39515FFAD101205ACD1
:10041400C3E50F9515FFAD101205E9051580CFC38F
:06042400E50F950BF50F3A
:01042A0022AF
:07076E00AD0DAF0C0205AC5C
:10001E0030011CE50D14FDAF0C12050E4004E50D6C
:10002E007047E50D14FDAF0C1205ACB201803AE538
:10003E000D04FDAF0C12050E502FE50D643F60262A
:10004E00E50D2401FFE433FEEF65107001EE600B49
:10005E00E50D04FDAF0C1205AC8007850B08A2025E
:10006E009200B2018003E4F50AE50A64016003021E
:10007E0001EC300016E50C04FFAD0D12050E400626
:10008E00E50C647F701FE50C048012E50C14FFADC7
:10009E000D12050E4004E50C700BE50C14FFAD0DB2
:1000AE001205ACB200C203300153751501E50924E7
:1000BE0001FFE433FEC3E5159FEE6480F87480986B
:1000CE00502DC3E50D9515FF7006D2038F0D801FC1
:1000DE00C3E50D9515FDAF0C12050E500ED203E5BE
:1000EE001514FFC3E50D9FF50D8004051580BEA206
:1000FE0003B35047C3E50D9509F50D803E75150107
:10010E00E5092401FFE433FEC3E5159FEE6480F894
:10011E00748098501BE50D2515FDAF0C12050E5081
:10012E000BD203E51514250DF50D8004051580D0B1
:10013E00A203B35006E509250DF50DC20430005398
:10014E00751501E5092401FFE433FEC3E5159FEEA5
:10015E006480F8748098502FE50C2515FFE433FE6B
:10016E00EF647F4E7006D204E5158011E50C25155F
:10017E00FFAD0D12050E500BD204E51514250CF52E
:10018E000C8004051580BCA204B35052E508250C62
:10019E00F50C22751501E5092401FFE433FEC3E5D4
:1001AE00159FEE6480F87480985027C3E50C951562
:1001BE00FF7006D2048F0C8019AD0D12050E500E75
:1001CE00D204E51514FFC3E50C9FF50C800405154C
:0E01DE0080C4A204B35007C3E50C9508F50CCD
:0101EC0022F0
:0D07300012076E12001EAD0DAF0C0205E9A0
:1002ED001204B7E50AB40106120394020730E50AB9
:1002FD007047FF1206EFE4F511F512E4F513F5144E
:10030D00E51244B8FF120643E5144440FF120643BC
:10031D00E4FF1200060514E51470020513C39440A2
:10032D00E513940040DA0512E51270020511C3942D
:10033D0008E511940040C480FEE50A64027047FF91
:10034D001206EFE4F511F512E4F513F514E5124478
:10035D00B8FF120643E5144440FF1206437FFF1217
:10036D0000060514E51470020513C39440E51394BB
:10037D000040DA0512E51270020511C39408E5116B
:06038D00940040C480FE54
:010393002247
:0300000002042BCC
:0C042B00787FE4F6D8FD75812002047291
:10043700020707E493A3F8E493A34003F68001F2CD
:1004470008DFF48029E493A3F85407240CC8C333C6
:10045700C4540F4420C8834004F456800146F6DF95
:10046700E4800B01020408102040809006B4E47E6B
:10047700019360BCA3FF543F30E509541FFEE4938A
:10048700A360010ECF54C025E060A840B8E493A351
:10049700FAE493A3F8E493A3C8C582C8CAC583CA7C
:1004A700F0A3C8C582C8CAC583CADFE9DEE780BE34
:0106D2000027
:00000001FF
