:08048C00C2A1C2A08E80D2A023
:02049400002244
:10043200EF7005C2A4C2A322BF0105C2A4D2A322A7
:08044200BF0204D2A4C2A322F0
:1003FD00D2A1C2A2C2A0D2A0E58030E70CC2A0AFAC
:0B040D00190519EFD3940A40EDC2A0BE
:0104180022C1
:10032A00EEC41313540304FF120432EE543FFCEDDF
:0E033A00131313541FFBED5407FDEB44B8FFE3
:0D034800AE071203FDC2A212048CC2A02257
:0D000600AE071203FDD2A212048CC2A0228C
:10045F007F3F1203487FC01203487FB81203487FC3
:04046F0040020348FC
:10037D00E4FF1204327DB8AF051203487F4012032B
:10038D0048E4FCE4FF1200060CBC40F70DBDC0E7CD
:01039D00223D
:10039E001203FDD2A2D2A17580FFD2A0AF80C2A05F
:1003AE001203FDD2A2D2A17580FFD2A0AF80C2A04F
:0103BE00221C
:0202B200AE0795
:1002B400EEC394805033EDC39440502D12032AECC6
:1002C4004440FF12034812039EAA07AF057401A815
:1002D40007088002C333D8FC4202120344EC4440B2
:0902E400FF120348AF02120006EC
:0102ED0022EE
:0202EE00AE0759
:1002F000EEC394805033EDC39440502D12032AEC8A
:100300004440FF12034812039EAA07AF0574FEA8DB
:1003100007088002C333D8FC5202120344EC444065
:09032000FF120348AF02120006AF
:0103290022B1
:0303BF00011A0020
:0C048000758910758D63758BC0D28E22BB
:05001600D288D28A220D
:09049600D2AFD2ABD2A8D2AA2247
:09049F00120480120016020496FA
:10044A0012049F1204B1E51AC3940340F91201AAD7
:05045A00E4F51A80F139
:03001B000204A834
:0904A800051A758D63758BC032D5
:030003000204C133
:0304C100C2023242
:030013000204C420
:0304C400D202322F
:10001E00FFFFFFFFFFFFFFFFFFFFFFFFFFFFFFFFE2
:10002E00FFF7EFEFDFDFBF7FFFFFFFFFFFFFFFFFFA
:10003E00FFFFFF7F9FE7FBFDFFFFFFFFFFFFFFFFC0
:10004E00FFFFFFFFFFFFFFFFFFFFFFFFFFFFFFFFB2
:10005E00FFFFFFFFFFFFFFFFFFFFFFFFFF01FDFDA4
:10006E000DEDEDEDEDED6D6D2C2DEDEDEDEDEDED13
:10007E00EDED2D2C6D6D6DEDEDEDEDED0DFDFD014F
:10008E00FFFFFFFFFFFFFFFFFFFFFFFFFFFFFFFF72
:10009E00FFFFFFFFFFFFFFFFFFFFFFFFFF00FFFF61
:1000AE0080BFBFBFBCBCBEBEB3ADAFB7BBB9B7AFF1
:1000BE00AFB5BBBFBEBEBEBFBFBFBFBF80FFFF00E1
:1000CE00FFFFFFFFFFFFFFFFFFFFFFFFFFFFFFFF32
:1000DE00FFFFFFFFFFFFFFFFFFFFFFFFFFFCFDFD29
:1000EE00FDFDCDC1F1FDFDFDFDFDFDFDFDFDFDFDAA
:1000FE00FDFDFDFDF1C1CDFDFDFDFDFDFDFDFDFC9B
:10010E00FFFFFFFFFFFFFFFFFFFFFFFFFFFFFFFFF1
:1003C200010A01020F003F010B03010E10C182025C
:0B03D2000C073E02080003C100C1013F
:10026300E4FF120432E4F511E4F512E51144B8FF9A
:10027300120348E5124440FF12034875F040E511AC
:10028300A42512F582E435F0F583E582241EF58278
:10029300E5833400F583E493FF1200060512E512AB
:0E02A300C3944040C60511E511C3940440BA4F
:0102B100222A
:10020C00850A18750A02751501AF15120432E4F54A
:10021C0016E4F517E51644B8FF120348E5174440F9
:10022C00FF12034812039EEF600585180A8009052A
:10023C0017E517C3944040DCE50A651860090516FC
:10024C00E516C3940440CAE50A651860090515E56E
:06025C0015C3940340B33A
:010262002279
:0904B10012045F12037D020263D4
:10041900E4F516E516C3950E500EE50F2516FFAD4A
:08042900101202EE051680EB33
:0104310022A8
:10035500300213C37471950BFFE50FD39F5018E559
:100365000B250FF50F22C3E50F950B7480F8984008
:0803750006E50F950BF50F22C0
:1003DE00120419120355E4F515E515C3950E500ECA
:0E03EE00E50F2515FFAD101202B2051580EBCC
:0103FC0022DE
:0704BA00AD0DAF0C0202EED4
:0104C7002212
:0D0473001204BA1204C7AD0DAF0C0202B2A4
:1001AA0012020CE50AB401061203DE020473E50A20
:1001BA00700280FEE50A64027047FF120432E4F519
:1001CA0011F512E4F513F514E51244B8FF120348C9
:1001DA00E5144440FF1203487FFF1200060514E5A8
:1001EA001470020513C39440E513940040DA051213
:1001FA00E51270020511C39408E511940040C48009
:01020A00FEF5
:01020B0022D0
:0300000002011EDC
:0C011E00787FE4F6D8FD758120020165B1
:10012A0002044AE493A3F8E493A34003F68001F29D
:10013A0008DFF48029E493A3F85407240CC8C333D6
:10014A00C4540F4420C8834004F456800146F6DFA5
:10015A00E4800B01020408102040809003BFE47E73
:10016A00019360BCA3FF543F30E509541FFEE4939A
:10017A00A360010ECF54C025E060A840B8E493A361
:10018A00FAE493A3F8E493A3C8C582C8CAC583CA8C
:10019A00F0A3C8C582C8CAC583CADFE9DEE780BE44
:0103DD00001F
:00000001FF
