:08254200C2A1C2A08E80D2A04C
:02254A0000226D
:1024CD00EF7005C2A4C2A322BF0105C2A4D2A322EC
:0824DD00BF0204D2A4C2A32235
:1024B100D2A1C2A2C2A0D2A0E58030E70CC2A0AFD7
:0B24C1002B052BEFD3940A40EDC2A0C6
:0124CC0022ED
:1023F600EEC41313540304FF1224CDEE543FFCED38
:0E240600131313541FFBED5407FDEB44B8FFF6
:0D241400AE071224B1C2A2122542C2A022BE
:0D000600AE071224B1D2A2122542C2A022E0
:1024FA007F3F1224147FC01224147FB81224147F41
:04250A004002241453
:10246F00E4FF1224CD7DB8AF051224147F4012244F
:10247F0014E4FCE4FF1200060CBC40F70DBDC0E7EE
:01248F00222A
:102490001224B1D2A2D2A17580FFD2A0AF80C2A077
:1024A0001224B1D2A2D2A17580FFD2A0AF80C2A067
:0124B0002209
:02235900AE07CD
:10235B00EEC394805033EDC39440502D1223F6EC12
:10236B004440FF122414122490AA07AF057401A84D
:10237B0007088002C333D8FC4202122410EC4440FD
:09238B00FF122414AF0212000637
:012394002226
:02231C00AE070A
:10231E00EEC394805034EDC39440502E1223F6EC4D
:10232E004440FF122414122490AA07AF057401A88A
:10233E0007088002C333D8FCF45202122410EC4476
:0A234E0040FF122414AF0212000633
:012358002262
:02228B00AE079C
:10228D00EEC394805042EDC39440503CEEC4131302
:10229D00540304FF1224CDEE543FFCED13131354DD
:1022AD001FFFED5407FDEF44B8FF122414EC44401A
:1022BD00FF122414122490AE05EFA806088002C365
:0C22CD0013D8FC13920E8002D20EA20E59
:0122D90022E2
:0323C800011D00F4
:0C251E00438910758D63758BC0D28E222E
:0C252A00438902758A89758C89C28C2255
:05001600D288D28A220D
:09254C00D2AFD2ABD2A8D2AA2270
:10250E0012251E12252A12001612254C7590FF2236
:1024E50012250E12255EE51DC3940340F912001E48
:0524F500E4F51D80F17B
:03001B0002255566
:09255500051D758D63758BC03204
:030003000225646F
:03256400C204327C
:030013000225675C
:03256700D2043269
:100D2B0004FCFC040000000004FCFC040003FF8036
:100D3B0000FCFC0080FF03000000033F3C03033C6E
:100D4B003F030000000000040404FCFC0404040046
:100D5B00000000000000FFFF00000000000000206A
:100D6B0020203F3F2020200004FCFCE0000000047A
:100D7B00FCFC040000FFFF01071C70C0FFFF00001C
:100D8B00203F3F20000000030F3F00000000000049
:100D9B0000FCFEFC00000000000000000003FF034D
:100DAB00000000000000000000307930000000005F
:100DBB0004FCFC0404040C1870E0800000FFFF002E
:100DCB000000000000FFFF00203F3F2020203018D4
:100DDB000E070100000000040404FCFC04040400E2
:100DEB00000000000000FFFF0000000000000020DA
:100DFB0020203F3F2020200004FCFC0404040404BA
:100E0B000C1C7C0000FFFF0808081C7F0000000082
:100E1B00203F3F202020202030383E0000000000E3
:100E2B0000FCFEFC00000000000000000003FF03BC
:100E3B0000000000000000000030793000000000CE
:100E4B0004FCFC04000000000000000000FFFF0099
:100E5B000000000000000000203F3F202020202049
:100E6B0030383E00000000040404FCFC04040400C1
:100E7B00000000000000FFFF000000000000002049
:100E8B0020203F3F2020200004FCFC040404040429
:100E9B000C1C7C0000FFFF0808081C7F00000000F2
:100EAB00203F3F20000000000000000004FCFC0479
:100EBB00040404040C1C7C0000FFFF0808081C7FC2
:100ECB0000000000203F3F202020202030383E0033
:100EDB0000000000000000000000000000C3C3C3BE
:100EEB00C3C3C3C3C3C3C3000000000000000000A2
:100EFB000000000004FCFC040000000000000000E7
:100F0B0000FFFF000000000000000000203F3F201A
:100F1B002020202030383E0004FCFC040404040490
:100F2B000C1C7C0000FFFF0808081C7F0000000061
:100F3B00203F3F202020202030383E0004FCFC04C2
:100F4B0000000004FCFC040000003FFFC000C0FFD9
:100F5B003F000000000000031F3C1F0300000000C7
:100F6B0004FCFC04040404040C1C7C0000FFFF08BC
:100F7B0008081C7F00000000203F3F20202020207D
:100F8B0030383E0004FCFC040000000000000000B0
:100F9B0000FFFF000000000000000000203F3F208A
:100FAB002020202030383E00000000000000000010
:100FBB000000000000C3C3C3C3C3C3C3C3C3C30088
:100FCB0000000000000000000000000000C0F0382E
:100FDB000C040C38F0C00000FFFF00000000000004
:100FEB0000FFFF0000030F1C3020301C0F0300001C
:100FFB000010101818FCFC0000000000000000009E
:10100B0000FFFF000000000000002020203F3F20D9
:10101B002020000060F0F80C0404040C18F0E00031
:10102B0000000080C06030180E070100383E3F33CF
:10103B003030303030303C00003078780C04040C09
:10104B0018F8F0000000000008081C1633E1C0007F
:10105B000C1E3E3020202030181F0F000000000017
:10106B0080E038FCFC00000080E0380E030000FF3D
:10107B00FF000000010101010121213F3F2121015E
:10108B0000FCFC0C0C0C0C0C0C0C0000001F0F08D3
:10109B00040202061CF8E0000C1E3E30202020301B
:1010AB001C0F030004FCFC0404040C18F0E000000B
:1010BB0000FFFF0808081C1673E18000203F3F204B
:1010CB00202020301C0F030004FCFC0404040C182B
:1010DB00F8E0000000FFFF0838F8CC06070100001D
:1010EB00203F3F200000032F3C30200004FCFC0479
:1010FB00040404040C1C7C0000FFFF0808081C7F80
:10110B0000000000203F3F202020202030383E00F0
:10111B0000000000F00C3CF0000000000000F0FFAD
:10112B0043404043FFF00000203E3F200000000002
:10113B00203F3E2004FCFC040080E47C1C040400E3
:10114B0000FFFF781E7FE18000000000203F3F2062
:10115B00000001273E382020E0F0180C0404040C9A
:10116B0018F0E000FFFF00000000000000FFFF0090
:10117B00070F183020202030180F070004FCFC0448
:10118B0000000004FCFC040000FFFF000000000056
:10119B00FFFF0000000F1F30202020301F0F00002A
:1011AB007C1C0C0404FCFC04040C1C7C00000000E4
:1011BB0000FFFF000000000000000020203F3F2048
:1011CB002000000000FC0202028600000101010069
:1011DB000002FE0200C000010101010100FC02023D
:1011EB0002FC00000101010002FE0E7082FE0101F3
:1011FB000100010102FE123A028601010101010107
:10120B000002FE22221C0001010100000008F81060
:10121B00080800010101010100F028282830000016
:10122B00010101010090282828D8000101010100CB
:10123B000090282828D800010101010000000000BF
:10124B000000000000000000008C921214E6000168
:10125B0000010100000602FE020600000101010070
:10126B0000C07A4678C001010100010102FE222272
:10127B00629C010101000000000602FE0206000054
:10128B0001010100FF8181BFBFBFBFFFFFC3BDBD18
:10129B00BDBDDBFFFFC1BFC3C3BFC1FFFF8181BDAD
:1012AB00BDDBE7FFFFFFFFFFFFFFFFFFFFFFFFFFC1
:1012BB00FFFFFFFFFFF7EFEFDFDFBF7FFFFFFFFF5B
:1012CB00FFFFFFFFFFFFFF7F9FE7FBFDFFFFFFFF21
:1012DB00FFFFFFFFFFFFFFFFFFFFFFFFFFFFFFFF13
:1012EB00FFFFFFFFFFFFFFFFFFFFFFFFFFFFFFFF03
:1012FB00FF01FDFD0DEDEDEDEDED6D6D2C2DEDED2E
:10130B00EDEDEDEDEDED2D2C6D6D6DEDEDEDEDED03
:10131B000DFDFD01FFFFFFFFFFFFFFFFFFFFFFFFC6
:10132B00FFFFFFFFFFFFFFFFFFFFFFFFFFFFFFFFC2
:10133B00FF00FFFF80BFBFBFBCBCBEBEB3ADAFB72E
:10134B00BBB9B7AFAFB5BBBFBEBEBEBFBFBFBFBFE5
:10135B0080FFFF00FFFFFFFFFFFFFFFFFFFFFFFF10
:10136B00FFFFFFFFFFFFFFFFFFFFFFFFFFFFFFFF82
:10137B00FFFCFDFDFDFDCDC1F1FDFDFDFDFDFDFD09
:10138B00FDFDFDFDFDFDFDFDF1C1CDFDFDFDFDFDFA
:10139B00FDFDFDFCFFFFFFFFFFFFFFFFFFFFFFFF5B
:1013AB00FFFFFFFFFFFFFFFFFFFFFFFFFFFFFFFF42
:1013BB00FFFFFFFFFFFFFFFFFFFFFFFFFFFFFF7FB2
:1013CB00BFBF7FFFFFFFFFFFFFFFFFFFFFFFFFFF22
:1013DB00FFFFFFFFFFFFFF7FBFBF7FFFFFFFFFFF92
:1013EB00FFFFFFFFFFFFFFFFFFFFFFFFFFFFFFFF02
:1013FB00FFFFFFFFFF0703010101010307010603C5
:10140B00010101010307FFFFFFFFFFFFFF070301BF
:10141B000101010307010603010171F9FFFFFFFF42
:10142B00FFFFFFFFFFFFFFFFFFFFFFFFFFFFFFFFC1
:10143B00FFFFFFFFFFF0E0C0808080808080808016
:10144B00808080C0E0F0FFFFFFFFFFFFFFF0E0C0F8
:10145B008080808080808080808080C0E0F0FFFF73
:10146B00FFFFFFFFFFFFFFFFFFFFFFFFFFFFFFFF81
:10147B00FFFFFFFFFFFFFFFFFFFFFFFFFFFFFFFF71
:10148B00FFFFFFFFFFFFFFFFFFFFFFFFFFFFFFFF61
:10149B00FFFFFFFFFFFFFFFFFFFFFFFFFFFFFFFF51
:1014AB00FFFFFFFFFFFFFFFFFFFFFFFFFFFFFFFF41
:1014BB00FFFFFFFFFFFFFFFFFFFFFFFFFFFF7F7F31
:1014CB007F7F7F7F7F7F7F7F7F7F7F7F7FFFFFFFA1
:1014DB00FFFFFFFFFFFFFFFFFFFFFFFFFFFFFFFF11
:1014EB00FFFFFFFFFFFFFFFFFFFFFFFFFFFFFFFF01
:1014FB00FFFFBF1F4FE7F3FBF9FDFDFCFEBE1E0F09
:10150B000703010140E0F0E0410103070E1EBEFCA2
:10151B00FDFDF9FBF3E74F1FBFFFFFFFFFFFFFFFD2
:10152B00FFFFFFFFFFFFFFFFFFFFFFFFFFFFFFFFC0
:10153B00FFFFFFFFFEFCF9FBF3F7F7E7EFEFCFDE63
:10154B00DCD8D0D0C0C0C1C0D0D0D8DCCEEFEFE754
:10155B00F7F7F3FBF9FCFEFFFFFFFFFFFFFFFFFFBA
:10156B00FFFFFFFFFFFFFFFFFFFFFFFFFFFFFFFF80
:10157B00FFFFFFFFFFFFFFFFFFFFFFFFFFFFFFFF70
:10158B00FFFFFFFFFFFFFFFFFFFFFFFFFFFFFFFF60
:10159B00FFFFFFFFFFFFFFFFFFFFFFFFFFFFFFFF50
:0A15AB00FFFFFFFF003F073E0001B5
:1023CB00011004010E05011C00010F00C107C1081B
:1023DB00010A01011600C100010D00010B00010CE7
:0A23EB0000011300C183C105C10603
:101BB600300013E50DC394FF5004050D8008C200E4
:101BC600E4F50D75100BE5166003021DE4C374FF02
:101BD600958A24EC7003021D6824E27003021C70CF
:101BE60024CE7003021CEC24636003021E57751694
:101BF60001858A26C374FF9526F52575F00584248C
:101C060021F52685250BF50C131313541FF526E431
:101C1600F527E5252527FFE433FEC3EF9440EE6460
:101C260080948050097F011224CDC20B800D74C0B0
:101C36002525F5257F021224CDD20BE5252527443F
:101C460040FF122414E52644B8FF122414E5279019
:101C5600128F93FF120006300B0674402525F525DA
:101C66000527E527C3940840A922751602858A260A
:101C7600C374FF9526F52575F005842421F5268580
:101C8600250BF50C131313541FF526E4F527E5254C
:101C96002527FFE433FEC3EF9440EE648094805022
:101CA600097F011224CDC20B800D74C02525F525B0
:101CB6007F021224CDD20BE52525274440FF1224AE
:101CC60014E52644B8FF122414E52790129793FFD3
:101CD600120006300B0674402525F5250527E52755
:101CE600C3940840A922751603858A26C374FF95F6
:101CF60026F52575F005842421F52685250BF50C9A
:101D0600131313541FF526E4F527E5252527FFE4CD
:101D160033FEC3EF9440EE6480948050097F011235
:101D260024CDC20B800D74C02525F5257F02122413
:101D3600CDD20BE52525274440FF122414E5264481
:101D4600B8FF122414E52790129F93FF1200063065
:101D56000B0674402525F5250527E527C39408407D
:101D6600A922751604858A26C374FF9526F525755E
:101D7600F005842421F52685250BF50C1313135441
:101D86001FF526E4F527E5252527FFE433FEC3EFF7
:101D96009440EE6480948050097F011224CDC20BDA
:101DA600800D74C02525F5257F021224CDD20BE5C2
:101DB6002525274440FF122414E52644B8FF1224A3
:101DC60014E5279012A793FF120006300B06744005
:101DD6002525F5250527E527C3940840A922E513FF
:101DE600D39464406A850B25850C26E526131313C8
:101DF600541FF526E4F527E5252527FFE433FEC322
:101E0600EF9440EE6480948050097F011224CDC285
:101E16000B800D74C02525F5257F021224CDD20B2B
:101E2600E52525274440FF122414E52644B8FF1271
:101E36002414E4FF120006300B0674402525F52510
:101E46000527E527C3940840AEE4F513F5162205E9
:011E56001378
:011E57002268
:10239500E4FF1224CD752904E4F52AE52944B8FFA4
:1023A500122414E52A4440FF122414E4FF12000607
:1023B500052AE52AC3944040E20529E529C3940886
:0223C50040D600
:0123C70022F3
:021E58008F25D4
:101E5A00122395E4F528E4F527E4F526C20BE528D4
:101E6A0075F00FA424142527F52774042526F526D2
:101E7A00E527C3944050077F011224CD800D7F02CD
:101E8A001224CD74C02527F527D20BE52644B8FFC6
:101E9A00122414E5274440FF122414300B06744020
:101EAA002527F527E52875F00FA42414FFC3E52795
:101EBA009FF52774FC2526F526E528C3940575F0B9
:101ECA000CE526501EA42527F582E435F0F5837526
:101EDA00F024E528122536E582244BF582E5833481
:101EEA000E801CA42527F582E435F0F58375F024CD
:101EFA00E525122536E58224D7F582E583340FF5E8
:101F0A0083E493FF1200060526E526C394035003D3
:101F1A00021E660527E527C3940C5003021E6305BB
:0B1F2A0028E528C394065003021E6047
:011F35002289
:021F36008F25F5
:101F3800122395E4F528E4F527E4F526C20BE528F5
:101F480075F00FA424142527F52774042526F526F3
:101F5800E527C3944050077F011224CD800D7F02EE
:101F68001224CD74C02527F527D20BE52644B8FFE7
:101F7800122414E5274440FF122414300B06744041
:101F88002527F527E52875F00FA42414FFC3E527B6
:101F98009FF52774FC2526F526E528C3940675F0D9
:101FA8000CE526501EA42527F582E435F0F5837547
:101FB800F024E528122536E58224FFF582E58334EE
:101FC8000E801CA42527F582E435F0F58375F024EE
:101FD800E525122536E58224D7F582E583340FF509
:101FE80083E493FF1200060526E526C394035003F5
:101FF800021F440527E527C3940C5003021F41051F
:0B20080028E528C394075003021F3E88
:0120130022AA
:1020C100E4FF1224CDE4F525E4F526E52544B8FF27
:1020D100122414E5264440FF122414E50A24FE606C
:1020E1000714601F2402803675F040E525A42526DB
:1020F100F582E435F0F583E58224AFF582E583349A
:1021010013803475F040E525A42526F582E435F0E9
:10211100F583E58224AFF582E5833414801975F0E7
:1021210040E525A42526F582E435F0F583E58224F2
:10213100AFF582E5833412F583E493FF12000605BF
:1021410026E526C3944040830525E525C394045024
:04215100030220C99C
:012155002267
:1021E200851028751002752501AF251224CDE4F55E
:1021F20026E4F527E52644B8FF122414E5274440D7
:10220200FF122414122490EF60058528108009051E
:1022120027E527C3944040DCE510652860090526C0
:10222200E526C3940440CAE510652860090525E542
:0622320025C3940340B334
:012238002283
:10223900E50A24FE600714600C24028010751B0255
:10224900751114800E751B0375110C8006751B0121
:102259007511189015AFE493F519A3E493F51A8550
:102269001B12851117A2039204E4F525E525C395F0
:1022790017500EE5192525FFAD1A1223590525809A
:01228900EB69
:01228A002231
:10201400300463C374809517C39512FFE519D39FE9
:1020240040030220C0E5172512FFE433FED3EF94EA
:1020340080EE6480948040030220C0752501E5127F
:102044002401FFE433FEC3E5259FEE6480F8748029
:1020540098501CE519252514FFAD1A12231CE51907
:102064002517142525FFAD1A122359052580CFE520
:10207400122519F51922C3E51995127480F89840B0
:102084003B752501E5122401FFE433FEC3E5259FDA
:10209400EE6480F8748098501CE5192517C39525C3
:1020A400FFAD1A12231CC3E5199525FFAD1A12239F
:0C20B40059052580CFC3E5199512F519D8
:0120C00022FD
:1022DA009015B1E493F514A3E493F515A3E493F5EB
:1022EA0008A3E493F509A2059201A2069202AD158C
:1022FA00AF14122359E51514FDAF14122359E5142E
:10230A0004FFAD15122359E51404FFE51514FD0267
:02231A00235945
:10244B00AD15AF1412231CE51404FFAD1512231C9C
:10245B00E51514FDAF1412231CE51404FFE5151448
:04246B00FD02231C2F
:1015B500E4F5902002030216D8E51524FEFDAF14CC
:1015C50012228B4016E51404FFE51524FEFD1222B8
:1015D5008B4008E515146003021804E515D3942221
:1015E5005003021699E515943E4003021699E51439
:1015F500C3947E4003021699E51494005003021625
:1016050099E50C131313541FF50CE4F525E50B258B
:1016150025FFE433FEC3EF9440EE648094805009C7
:101625007F011224CDC20D800D74C0250BF50B7FF3
:10163500021224CDD20DE50B25254440FF122414BA
:10164500E50C44B8FF122414E4FF120006300D0621
:101655007440250BF50B0525E525C3940840AEE53B
:101665000C75F008A4F50CE4F513E51624FE6012DC
:1016750014601514601824037017D2007510070242
:1016850017AF7510080217AF7510090217AF75105F
:101695000A0217AF759004E515146032E51524FEAE
:1016A500FDAF1412231CE51404FFE51524FEFD12FD
:1016B500231CE51524FE6016E51524FDFDAF141267
:1016C500231CE51404FFE51524FDFD12231CB202BD
:1016D500021804E51504FDAF1412228B4010E51421
:1016E50004FFE51504FD12228B4003021804E515DD
:1016F500643F7003021801E515D3942250030217C5
:10170500B4E515943E40030217B4E514C3947E4036
:10171500030217B4E514940050030217B4E50C1343
:101725001313541FF50CE4F525E50B2525FFE433CC
:10173500FEC3EF9440EE6480948050097F0112242B
:10174500CDC20D800D74C0250BF50B7F021224CD83
:10175500D20DE50B25254440FF122414E50C44B8B1
:10176500FF122414E4FF120006300D067440250B09
:10177500F50B0525E525C3940840AEE50C75F00885
:10178500A4F50CE4F513E51624FE6011146013149A
:10179500601524037014D200751007800D751008AC
:1017A5008008751009800375100AE4F516805075D8
:1017B5009004E5152401FFE433FEEF651A7001EE90
:1017C500602CE51504FDAF1412231CE51404FFE598
:1017D5001504FD12231CE5152402FDAF1412231C6C
:1017E500E51404FFE5152402FD12231C800A7590FB
:1017F50005851208A2049201B2028003E4F510E502
:101805001064016003021BB520010302192BE514C6
:101815002402FFAD1512228B401FE5142402FFE5BB
:101825001514FD12228B4011E5142401FFE433FE4B
:10183500EF647F4E6003021A38E515D394225003F6
:101845000218F7E515943E40030218F7E514C39412
:101855007E40030218F7E514940050030218F7E5DB
:101865000C131313541FF50CE4F525E50B2525FF83
:10187500E433FEC3EF9440EE6480948050097F0109
:101885001224CDC20D800D74C0250BF50B7F0212FD
:1018950024CDD20DE50B25254440FF122414E50C7B
:1018A50044B8FF122414E4FF120006300D067440FC
:1018B500250BF50B0525E525C3940840AEE50C750C
:1018C500F008A4F50CE4F513E51624FE6012146087
:1018D5001514601824037017D2007510070219FD3E
:1018E5007510080219FD7510090219FD75100A0217
:1018F50019FD759004E5142402FFAD1512231CE5AE
:10190500142402FFE51514FD12231CE5142403FF1E
:10191500AD1512231CE5142403FFE51514FD122350
:101925001CB201021A38E51414FFAD1512228B40C2
:1019350014E51414FFE51514FD12228B4007E51478
:101945006003021A38E515D394225003021A02E502
:1019550015943E4003021A02E514C3947E40030227
:101965001A02E51494005003021A02E50C1313132E
:10197500541FF50CE4F525E50B2525FFE433FEC3DF
:10198500EF9440EE6480948050097F011224CDC20B
:101995000D800D74C0250BF50B7F021224CDD20DE1
:1019A500E50B25254440FF122414E50C44B8FF122D
:1019B5002414E4FF120006300D067440250BF50BC8
:1019C5000525E525C3940840AEE50C75F008A4F59A
:1019D5000CE4F513E51624FE60111460131460156C
:1019E50024037014D200751007800D751008800847
:1019F500751009800375100AE4F516803675900494
:101A0500E514602D14FFAD1512231CE51414FFE534
:101A15001514FD12231CE514146016E51424FEFFAD
:101A2500AD1512231CE51424FEFFE51514FD122344
:101A35001CB201C20B300262752501E5092401FFC4
:101A4500E433FEC3E5259FEE6480F8748098503C2E
:101A5500E51514C39525FD700BD20BC3E51595252A
:101A6500F5158028AF1412228B400FE51404FFE50D
:101A750015149525FD12228B500ED20BE52514FF6A
:101A8500C3E5159FF5158004052580AFA20BB3505E
:101A950055C3E5159509F515804C752501E509240E
:101AA50001FFE433FEC3E5259FEE6480F87480985A
:101AB5005029E5152525FDAF1412228B400EE5149E
:101AC50004FFE5152525FD12228B500BD20BE525CC
:101AD500142515F5158004052580C2A20BB3500603
:101AE500E5092515F515C20C30016C752501E509CB
:101AF5002401FFE433FEC3E5259FEE6480F874807E
:101B0500985048E5142401FFE433FE7C00EF2525B9
:101B1500FFEC3EFEEF647F4E7006D20CE52580217A
:101B2500E514042525FFAD1512228B400FE514049D
:101B35002525FFE51514FD12228B500BD20CE5254A
:101B4500142514F5148004052580A3A20CB3506058
:101B5500E5082514F51422752501E5092401FFE49E
:101B650033FEC3E5259FEE6480F87480985035C335
:101B7500E5149525FF7006D20C8F148027AD15123C
:101B8500228B400EE5149525FFE51514FD12228BD9
:101B9500500ED20CE52514FFC3E5149FF5148004FF
:101BA500052580B6A20CB35007C3E5149508F514B6
:011BB500220D
:1024210012244B1215B5AD15AF14122359E515142D
:10243100FDAF14122359E51404FFAD15122359E51C
:0A2441001404FFE51514FD022359F1
:10001E00E51064016002051CE51064046003020231
:10002E0030759001200805F51CD208223007030216
:10003E000228E51CC39450400302010DE51C75F027
:10004E000A84F522E51C75F00A842401FFE433FED0
:10005E00C3E5229FEE6480F87480984003020D2A57
:10006E00E4F524E4F523C209E52275F00FA4240576
:10007E002524F5240523C3944050077F011224CD77
:10008E00800D7F021224CD74C02524F524D209E5FB
:10009E002344B8FF122414E5244440FF12241430E4
:1000AE00090674402524F524E52275F00FA42405D5
:1000BE00FFC3E5249FF5241523FF75F00CE523A45B
:1000CE002FF582E435F0F58375F024E522122536FE
:1000DE00E58224AFF582E5833410F583E493FF12B5
:1000EE0000060523E523C394035003020074052480
:1000FE00E524C3940C50030200710522020052E560
:10010E001CD39450500302021BE51C94784003024A
:10011E00021BE4FF1224CD752304C37490951CF5C5
:10012E0024E524C394405019E52344B8FF12241447
:10013E00E5244440FF122414E4FF12000605248037
:10014E00E00523E523C3940640D0E4F522E4F5242C
:10015E00E4F523C209C374CF951CFFE52275F007A1
:10016E00A42F2524F52474042523F523E524C39414
:10017E004050077F011224CD800D7F021224CD74D2
:10018E00C02524F524D209E524C39440505AE52312
:10019E0044B8FF122414E5244440FF1224143009FD
:1001AE000674402524F524C374CF951CFFE52275F3
:1001BE00F007A42FFFC3E5249FF52474FC2523F537
:1001CE002375F006A42524F582E435F0F58375F049
:1001DE000CE522122536E58224CFF582E583341113
:1001EE00F583E493FF1200060523E523C394025022
:1001FE00030201610524E524C39406500302015E47
:10020E000522E522C39405500302015B22E51CD3AF
:10021E0094785003020D2AD20722751005C207C228
:10022E000822E5106405600302039220080302030E
:10023E00F3D2B420B40FE4F59012246F1220C175DE
:10024E001006C20822E51CD394144003020C24E5C8
:10025E001CD3940A406BE51C941450657F01122444
:10026E00CD752306752414E52344B8FF122414E536
:10027E00244440FF122414E4FF1200060524E52452
:10028E00C3944040E20523E523C3940840D67F0281
:10029E001224CD752306E4F524E52344B8FF122479
:1002AE0014E5244440FF122414E4FF120006052432
:1002BE00E524C3942B40E20523E523C3940840D6DE
:1002CE0022E51CC3941E4003020D2AE4F522E4F538
:1002DE0024E4F523C209E52275F007A4241425248D
:1002EE00F52474062523F523E524C3944050077F97
:1002FE00011224CD800D7F021224CD74C02524F569
:10030E0024D209E524C394405055E52344B8FF1286
:10031E002414E5244440FF122414300906744025A9
:10032E0024F524E52275F007A42414FFC3E5249FC9
:10033E00F52474FA2523F52375F006A42524F582F9
:10034E00E435F0F58375F00CE522122536E58224AE
:10035E000BF582E5833412F583E493FF1200060554
:10036E0023E523C3940250030202E20524E524C3CD
:10037E00940650030202DF0522E522C3940B5003BC
:10038E000202DC22E5106406702975900220070235
:10039E00F51C750F1EE51CC3950F500E300703029A
:1003AE000D2AAF0A121F36D207221223957510039B
:1003BE00C20722E51064037020200702F51C750F9A
:1003CE001EE51CC3950F5009300703020D2A020BC0
:1003DE001ED28CE4F590020B26E510640760030232
:1003EE0004B6200805D208F51C22E51CC394325031
:1003FE003FE51C75F00A84E5F0701AF522E522C37C
:10040E0095174003020D2AE5222519FFAD1A122376
:10041E001C052280E8E4F522E522C395174003026D
:10042E000D2AE5222519FFAD1A122359052280E85F
:10043E00E51CB4320A751780851918E4F51922E502
:10044E001CC39464503FE51C75F00A84E5F0701AE5
:10045E00F522E522C395174003020D2AE522251940
:10046E00FFAD1A12231C052280E8E4F522E522C313
:10047E0095174003020D2AE5222519FFAD1A122306
:10048E0059052280E8E4F522E522C39517500EE5C2
:10049E00222519FFAD1A122359052280EBC20875C9
:1004AE001001E4F50DD20022E51064086003020588
:1004BE0085E58AC3943C5005E4F523800375230239
:1004CE002008030206E1E51CC394325073E51C7547
:1004DE00F00A84E5F07034F522E4F524E4FF1224EA
:1004EE00CDE523252244B8FF122414E5244440FF11
:1004FE00122414E4FF1200060524E524C3944040A0
:10050E00DB0522E522C3940240CF22E4F522E4F576
:10051E0024E4FF1224CDE523252244B8FF1224142F
:10052E00E5244440FF1224147FFF1200060524E543
:10053E0024C3944040DB0522E522C3940240CF221F
:10054E00E4F522E4F524E4FF1224CDE5232522442C
:10055E00B8FF122414E5244440FF122414E4FF12C1
:10056E0000060524E524C3944040DB0522E522C3A2
:10057E00940240CF0208E4E510640960030206C647
:10058E00850B23850C24E524131313541FF5242007
:10059E0008030206E1E51CC39432400302066BE534
:1005AE001C75F00A84E5F07059F522E5232522FF2B
:1005BE00E433FEC3EF9440EE6480948050097F01D3
:1005CE001224CDC20A800D74C02523F5237F02129A
:1005DE0024CDD20AE52325224440FF122414E5241B
:1005EE0044B8FF12241490128FE493FF12000630C9
:1005FE000A0674402523F5230522E522C3940840FC
:10060E00AA22E4F522E5232522FFE433FEC3EF946C
:10061E0040EE6480948050097F011224CDC20A807E
:10062E000D74C02523F5237F021224CDD20AE523B3
:10063E0025224440FF122414E52444B8FF1224144A
:10064E00E52290129F93FF120006300A0674402591
:10065E0023F5230522E522C3940840A922E4F522BE
:10066E00E5232522FFE433FEC3EF9440EE6480942D
:10067E008050097F011224CDC20A800D74C025233B
:10068E00F5237F021224CDD20AE52325224440FF12
:10069E00122414E52444B8FF122414E4FF120006B9
:1006AE00300A0674402523F5230522E522C394085B
:1006BE0040AEC20875100222E510640A60030208FB
:1006CE0009850B23850C24E524131313541FF524DD
:1006DE00200805D208020C24E51CC3943240030204
:1006EE0007AEE51C75F00A84E5F07059F522E52396
:1006FE002522FFE433FEC3EF9440EE6480948050D5
:10070E00097F011224CDC20A800D74C02523F52362
:10071E007F021224CDD20AE52325224440FF122463
:10072E0014E52444B8FF12241490128FE493FF12A0
:10073E000006300A0674402523F5230522E522C360
:10074E00940840AA22E4F522E5232522FFE433FE95
:10075E00C3EF9440EE6480948050097F011224CD43
:10076E00C20A800D74C02523F5237F021224CDD238
:10077E000AE52325224440FF122414E52444B8FF41
:10078E00122414E5229012A793FF120006300A06D7
:10079E0074402523F5230522E522C3940840A9229F
:1007AE00E4F522E5232522FFE433FEC3EF9440EE69
:1007BE006480948050097F011224CDC20A800D748A
:1007CE00C02523F5237F021224CDD20AE52325224C
:1007DE004440FF122414E52444B8FF122414E4FF0D
:1007EE00120006300A0674402523F5230522E52261
:1007FE00C3940840AEC208E4F51022E510640B6005
:10080E00030208EA200807D208F51CC20022E51CE4
:10081E00C39432503FE51C75F00A84E5F0701AF56A
:10082E0022E522C395174003020D2AE5222519FF62
:10083E00AD1A12231C052280E8E4F522E522C395A9
:10084E00174003020D2AE5222519FFAD1A1223596E
:10085E00052280E8E51CB4321FE4F522E522C3959B
:10086E0017500EE5222519FFAD1A12231C05228002
:10087E00EB85111785181922E51CC39464503FE5CA
:10088E001C75F00A84E5F0701AF522E522C395175F
:10089E004003020D2AE5222519FFAD1A12231C056D
:1008AE002280E8E4F522E522C395174003020D2AC3
:1008BE00E5222519FFAD1A122359052280E8E4F529
:1008CE0022E522C39517500EE5222519FFAD1A1207
:1008DE002359052280EBC208751001221221E2E590
:1008EE0010B4010C759003121BB6122014022421B1
:1008FE00E5106003020B35759006E50E6003020BE2
:10090E0006750A01750E05200702F51CE51CC39439
:10091E001E5009300703020D2A020B1EE51C641E31
:10092E0060030209E012246FE4F522E4F524E4F5F5
:10093E0023C209E52275F014A4241E2524F52405EE
:10094E0023C3944050077F011224CD800D7F0212E5
:10095E0024CD74C02524F524D209E52344B8FF1212
:10096E002414E5244440FF12241430090674402553
:10097E0024F524E52275F014A4241EFFC3E5249F5C
:10098E00F5241523FF75F00CE523A42FF582E4352D
:10099E00F0F58375F024E522122536E58224BBF5A9
:1009AE0082E583340DF583E493FF1200060523E5FB
:1009BE0023C39403500302093F0524E524C3940C7A
:1009CE00500302093C0522E522C394045003020998
:1009DE003922E51CD3941E5003020D2AD2B420B442
:1009EE000912246F751004C20722E51CD3943240FD
:1009FE0004751C1F22E51CD394284039E51C943243
:100A0E005033E4FF1224CD752306E4F524E5234488
:100A1E00B8FF122414E5244440FF122414E4FF12FC
:100A2E0000060524E524C3944040E20523E523C3D4
:100A3E00940840D622E51CC394284003020D2AE4F4
:100A4E00F522E4F524E4F523C209E52275F007A4A6
:100A5E0024142524F52474062523F523E524C394B4
:100A6E004050077F011224CD800D7F021224CD74D9
:100A7E00C02524F524D209E524C394405055E5231E
:100A8E0044B8FF122414E5244440FF122414300904
:100A9E000674402524F524E52275F007A42414FFDE
:100AAE00C3E5249FF52474FA2523F52375F006A4D7
:100ABE002524F582E435F0F58375F00CE522122538
:100ACE0036E582240BF582E5833412F583E493FF39
:100ADE001200060523E523C394025003020A5605AD
:100AEE0024E524C394065003020A530522E522C3CB
:100AFE00940B5003020A5022200705E4F51C150E34
:100B0E00750F1EE51CC3950F500E300703020D2AFC
:100B1E00AF0E121E58D207221223951222DA12227B
:100B2E0039751001C20722E51064026003020D2A16
:100B3E00759007300703020BF8D207F51C12246FCD
:100B4E00E4F522E4F524E4F523C209E52275F01458
:100B5E00A4241E2524F5240523C3944050077F01A9
:100B6E001224CD800D7F021224CD74C02524F524CD
:100B7E00D209E52344B8FF122414E5244440FF12A1
:100B8E00241430090674402524F524E52275F0144A
:100B9E00A4241EFFC3E5249FF5241523FF75F00C36
:100BAE00E523A42FF582E435F0F58375F024E522D4
:100BBE00122536E582242BF582E583340DF583E488
:100BCE0093FF1200060523E523C394035003020B83
:100BDE00570524E524C3940C5003020B540522E55B
:100BEE0022C394045003020B5122D2B420B420121B
:100BFE00246FE50AC39403500A050A1220C175102A
:100C0E00068009750A01750E05751004C20722E5E6
:100C1E001CD394144004E4F51C22E51CD3940A4022
:100C2E0039E51C94145033E4FF1224CD752306E4E9
:100C3E00F524E52344B8FF122414E5244440FF12A2
:100C4E002414E4FF1200060524E524C3944040E278
:100C5E000523E523C3940840D622E51CC3941E4009
:100C6E0003020D2AE4F522E4F524E4F523C209E596
:100C7E002275F007A424142524F52474062523F5E3
:100C8E0023E524C3944050077F011224CD800D7FAD
:100C9E00021224CD74C02524F524D209E524C39470
:100CAE00405055E52344B8FF122414E5244440FF78
:100CBE0012241430090674402524F524E52275F01B
:100CCE0007A42414FFC3E5249FF52474FA2523F505
:100CDE002375F006A42524F582E435F0F58375F02E
:100CEE000CE522122536E582240BF582E5833412BB
:100CFE00F583E493FF1200060523E523C394025007
:100D0E0003020C7B0524E524C394065003020C78E1
:0C0D1E000522E522C3940B5003020C7563
:010D2A0022A6
:06255E001224FA02246FB2
:0300000002215684
:0C215600787FE4F6D8FD75812B02219DF6
:0C253600A42582F582E5F03583F58322B0
:102162000224E5E493A3F8E493A34003F68001F28A
:1021720008DFF48029E493A3F85407240CC8C3337E
:10218200C4540F4420C8834004F456800146F6DF4D
:10219200E4800B01020408102040809023C8E47EF2
:1021A200019360BCA3FF543F30E509541FFEE49342
:1021B200A360010ECF54C025E060A840B8E493A309
:1021C200FAE493A3F8E493A3C8C582C8CAC583CA34
:1021D200F0A3C8C582C8CAC583CADFE9DEE780BEEC
:0123F50000E7
:00000001FF
