:08330200C2A1C2A08E80D2A07E
:02330A0000229F
:10328C00EF7005C2A4C2A322BF0105C2A4D2A3221F
:08329C00BF0204D2A4C2A32268
:10325500D2A1C2A2C2A0D2A0E58030E70CC2A0AF25
:0B3265002B052BEFD3940A40EDC2A014
:01327000223B
:10319A00EEC41313540304FF12328CEE543FFCEDB9
:0E31AA00131313541FFBED5407FDEB44B8FF45
:0D31B800AE07123255C2A2123302C2A0228D
:0D000600AE07123255D2A2123302C2A02260
:1032BA007F3F1231B87FC01231B87FB81231B87F60
:0432CA00400231B8D5
:10321300E4FF12328C7DB8AF051231B87F40123112
:10322300B8E4FCE4FF1200060CBC40F70DBDC0E798
:013233002278
:10323400123255D2A2D2A17580FFD2A0AF80C2A013
:10324400123255D2A2D2A17580FFD2A0AF80C2A003
:013254002257
:0230FF00AE071A
:10310100EEC394805033EDC39440502D12319AECAC
:103111004440FF1231B8123234AA07AF057401A836
:1031210007088002C333D8FC42021231B4EC444098
:09313100FF1231B8AF02120006D2
:01313A002272
:0230C200AE0757
:1030C400EEC394805034EDC39440502E12319AECE8
:1030D4004440FF1231B8123234AA07AF057401A874
:1030E40007088002C333D8FCF452021231B4EC4412
:0A30F40040FF1231B8AF02120006CF
:0130FE0022AF
:02303100AE07E8
:10303300EEC394805042EDC39440503CEEC413134E
:10304300540304FF12328CEE543FFCED131313545C
:103053001FFFED5407FDEF44B8FF1231B8EC4440B5
:10306300FF1231B8123234AE05EFA806088002C34E
:0C30730013D8FC13920C8002D20CA20CAB
:01307F00222E
:03316E00011E003F
:0C32DE00438910758D63758BC0D28E2261
:0C32EA00438902758A89758C89C28C2288
:05001600D288D28A220D
:09330C00D2AFD2ABD2A8D2AA22A2
:1032CE001232DE1232EA12001612330C7590FF2201
:103271001232CE12332CE51EC3940340F930B7034A
:0B3281001232A41213ACE4F51E80EB27
:03001B0002331598
:09331500051E758D63758BC03235
:0300030002331EA7
:07331E0020B703751900320E
:0300130002332590
:0733250020B7037519013206
:1020C90004FCFC040000000004FCFC040003FF8085
:1020D90000FCFC0080FF03000000033F3C03033CBD
:1020E9003F030000000000040404FCFC0404040095
:1020F900000000000000FFFF0000000000000020B9
:1021090020203F3F2020200004FCFCE000000004C8
:10211900FCFC040000FFFF01071C70C0FFFF00006A
:10212900203F3F20000000030F3F00000000000097
:1021390000FCFEFC00000000000000000003FF039B
:1021490000000000000000000030793000000000AD
:1021590004FCFC0404040C1870E0800000FFFF007C
:102169000000000000FFFF00203F3F202020301822
:102179000E070100000000040404FCFC0404040030
:10218900000000000000FFFF000000000000002028
:1021990020203F3F2020200004FCFC040404040408
:1021A9000C1C7C0000FFFF0808081C7F00000000D1
:1021B900203F3F202020202030383E000000000032
:1021C90000FCFEFC00000000000000000003FF030B
:1021D900000000000000000000307930000000001D
:1021E90004FCFC04000000000000000000FFFF00E8
:1021F9000000000000000000203F3F202020202098
:1022090030383E00000000040404FCFC040404000F
:10221900000000000000FFFF000000000000002097
:1022290020203F3F2020200004FCFC040404040477
:102239000C1C7C0000FFFF0808081C7F0000000040
:10224900203F3F20000000000000000004FCFC04C7
:10225900040404040C1C7C0000FFFF0808081C7F10
:1022690000000000203F3F202020202030383E0081
:1022790000000000000000000000000000C3C3C30C
:10228900C3C3C3C3C3C3C3000000000000000000F0
:102299000000000004FCFC04000000000000000035
:1022A90000FFFF000000000000000000203F3F2069
:1022B9002020202030383E0004FCFC0404040404DF
:1022C9000C1C7C0000FFFF0808081C7F00000000B0
:1022D900203F3F202020202030383E0004FCFC0411
:1022E90000000004FCFC040000003FFFC000C0FF28
:1022F9003F000000000000031F3C1F030000000016
:1023090004FCFC04040404040C1C7C0000FFFF080A
:1023190008081C7F00000000203F3F2020202020CB
:1023290030383E0004FCFC040000000000000000FE
:1023390000FFFF000000000000000000203F3F20D8
:102349002020202030383E0000000000000000005E
:102359000000000000C3C3C3C3C3C3C3C3C3C300D6
:1023690000000000000000000000000000C0F0387C
:102379000C040C38F0C00000FFFF00000000000052
:1023890000FFFF0000030F1C3020301C0F0300006A
:102399000010101818FCFC000000000000000000EC
:1023A90000FFFF000000000000002020203F3F2028
:1023B9002020000060F0F80C0404040C18F0E00080
:1023C90000000080C06030180E070100383E3F331E
:1023D9003030303030303C00003078780C04040C58
:1023E90018F8F0000000000008081C1633E1C000CE
:1023F9000C1E3E3020202030181F0F000000000066
:1024090080E038FCFC00000080E0380E030000FF8B
:10241900FF000000010101010121213F3F212101AC
:1024290000FCFC0C0C0C0C0C0C0C0000001F0F0821
:10243900040202061CF8E0000C1E3E302020203069
:102449001C0F030004FCFC0404040C18F0E0000059
:1024590000FFFF0808081C1673E18000203F3F2099
:10246900202020301C0F030004FCFC0404040C1879
:10247900F8E0000000FFFF0838F8CC06070100006B
:10248900203F3F200000032F3C30200004FCFC04C7
:10249900040404040C1C7C0000FFFF0808081C7FCE
:1024A90000000000203F3F202020202030383E003F
:1024B90000000000F00C3CF0000000000000F0FFFC
:1024C90043404043FFF00000203E3F200000000051
:1024D900203F3E2004FCFC040080E47C1C04040032
:1024E90000FFFF781E7FE18000000000203F3F20B1
:1024F900000001273E382020E0F0180C0404040CE9
:1025090018F0E000FFFF00000000000000FFFF00DE
:10251900070F183020202030180F070004FCFC0496
:1025290000000004FCFC040000FFFF0000000000A4
:10253900FFFF0000000F1F30202020301F0F000078
:102549007C1C0C0404FCFC04040C1C7C0000000032
:1025590000FFFF000000000000000020203F3F2096
:102569002000000000FC02020286000001010100B7
:102579000002FE0200C000010101010100FC02028B
:1025890002FC00000101010002FE0E7082FE010141
:102599000100010102FE123A028601010101010155
:1025A9000002FE22221C0001010100000008F810AF
:1025B900080800010101010100F028282830000065
:1025C900010101010090282828D80001010101001A
:1025D9000090282828D8000101010100000000000E
:1025E9000000000000000000008C921214E60001B7
:1025F90000010100000602FE0206000001010100BF
:1026090000C07A4678C001010100010102FE2222C0
:10261900629C010101000000000602FE02060000A2
:1026290001010100FF8181BFBFBFBFFFFFC3BDBD66
:10263900BDBDDBFFFFC1BFC3C3BFC1FFFF8181BDFB
:10264900BDDBE7FFFFFFFFFFFFFFFFFFFFFFFFFF0F
:10265900FFFFFFFFFFF7EFEFDFDFBF7FFFFFFFFFA9
:10266900FFFFFFFFFFFFFF7F9FE7FBFDFFFFFFFF6F
:10267900FFFFFFFFFFFFFFFFFFFFFFFFFFFFFFFF61
:10268900FFFFFFFFFFFFFFFFFFFFFFFFFFFFFFFF51
:10269900FF01FDFD0DEDEDEDEDED6D6D2C2DEDED7C
:1026A900EDEDEDEDEDED2D2C6D6D6DEDEDEDEDED52
:1026B9000DFDFD01FFFFFFFFFFFFFFFFFFFFFFFF15
:1026C900FFFFFFFFFFFFFFFFFFFFFFFFFFFFFFFF11
:1026D900FF00FFFF80BFBFBFBCBCBEBEB3ADAFB77D
:1026E900BBB9B7AFAFB5BBBFBEBEBEBFBFBFBFBF34
:1026F90080FFFF00FFFFFFFFFFFFFFFFFFFFFFFF5F
:10270900FFFFFFFFFFFFFFFFFFFFFFFFFFFFFFFFD0
:10271900FFFCFDFDFDFDCDC1F1FDFDFDFDFDFDFD57
:10272900FDFDFDFDFDFDFDFDF1C1CDFDFDFDFDFD48
:10273900FDFDFDFCFFFFFFFFFFFFFFFFFFFFFFFFA9
:10274900FFFFFFFFFFFFFFFFFFFFFFFFFFFFFFFF90
:10275900FFFFFFFFFFFFFFFFFFFFFFFFFFFFFF7F00
:10276900BFBF7FFFFFFFFFFFFFFFFFFFFFFFFFFF70
:10277900FFFFFFFFFFFFFF7FBFBF7FFFFFFFFFFFE0
:10278900FFFFFFFFFFFFFFFFFFFFFFFFFFFFFFFF50
:10279900FFFFFFFFFF070301010101030701060313
:1027A900010101010307FFFFFFFFFFFFFF0703010E
:1027B9000101010307010603010171F9FFFFFFFF91
:1027C900FFFFFFFFFFFFFFFFFFFFFFFFFFFFFFFF10
:1027D900FFFFFFFFFFF0E0C0808080808080808065
:1027E900808080C0E0F0FFFFFFFFFFFFFFF0E0C047
:1027F9008080808080808080808080C0E0F0FFFFC2
:10280900FFFFFFFFFFFFFFFFFFFFFFFFFFFFFFFFCF
:10281900FFFFFFFFFFFFFFFFFFFFFFFFFFFFFFFFBF
:10282900FFFFFFFFFFFFFFFFFFFFFFFFFFFFFFFFAF
:10283900FFFFFFFFFFFFFFFFFFFFFFFFFFFFFFFF9F
:10284900FFFFFFFFFFFFFFFFFFFFFFFFFFFFFFFF8F
:10285900FFFFFFFFFFFFFFFFFFFFFFFFFFFF7F7F7F
:102869007F7F7F7F7F7F7F7F7F7F7F7F7FFFFFFFEF
:10287900FFFFFFFFFFFFFFFFFFFFFFFFFFFFFFFF5F
:10288900FFFFFFFFFFFFFFFFFFFFFFFFFFFFFFFF4F
:10289900FFFFBF1F4FE7F3FBF9FDFDFCFEBE1E0F57
:1028A9000703010140E0F0E0410103070E1EBEFCF1
:1028B900FDFDF9FBF3E74F1FBFFFFFFFFFFFFFFF21
:1028C900FFFFFFFFFFFFFFFFFFFFFFFFFFFFFFFF0F
:1028D900FFFFFFFFFEFCF9FBF3F7F7E7EFEFCFDEB2
:1028E900DCD8D0D0C0C0C1C0D0D0D8DCCEEFEFE7A3
:1028F900F7F7F3FBF9FCFEFFFFFFFFFFFFFFFFFF09
:10290900FFFFFFFFFFFFFFFFFFFFFFFFFFFFFFFFCE
:10291900FFFFFFFFFFFFFFFFFFFFFFFFFFFFFFFFBE
:10292900FFFFFFFFFFFFFFFFFFFFFFFFFFFFFFFFAE
:10293900FFFFFFFFFFFFFFFFFFFFFFFFFFFFFFFF9E
:0B294900FFFFFFFF003F01073E000101
:10317100011004010E05011D00010F00C105C1066A
:10318100010A01011600C100010D00010B00010C33
:0831910000011300C103C10499
:10295400300013E50DC394FF5004050D8008C20038
:10296400E4F50D75100BE5166003022B82C374FFAA
:10297400958A24EC7003022B0624E27003022A0ECB
:1029840024CE7003022A8A24636003022BF5751691
:1029940001858A26C374FF9526F52575F0058424E0
:1029A40021F52685250BF50C131313541FF526E486
:1029B400F527E5252527FFE433FEC3EF9440EE64B5
:1029C40080948050097F0112328CC209800D74C03A
:1029D4002525F5257F0212328CD209E525252744C9
:1029E40040FF1231B8E52644B8FF1231B8E527900C
:1029F400262D93FF12000630090674402525F5257F
:102A04000527E527C3940840A922751602858A265E
:102A1400C374FF9526F52575F005842421F52685D4
:102A2400250BF50C131313541FF526E4F527E525A0
:102A34002527FFE433FEC3EF9440EE648094805076
:102A4400097F0112328CC209800D74C02525F52539
:102A54007F0212328CD209E52525274440FF12312A
:102A6400B8E52644B8FF1231B8E52790263593FF20
:102A740012000630090674402525F5250527E527AB
:102A8400C3940840A922751603858A26C374FF954A
:102A940026F52575F005842421F52685250BF50CEE
:102AA400131313541FF526E4F527E5252527FFE422
:102AB40033FEC3EF9440EE6480948050097F01128A
:102AC400328CC209800D74C02525F5257F0212328F
:102AD4008CD209E52525274440FF1231B8E5264468
:102AE400B8FF1231B8E52790263D93FF1200063057
:102AF400090674402525F5250527E527C3940840D4
:102B0400A922751604858A26C374FF9526F52575B2
:102B1400F005842421F52685250BF50C1313135495
:102B24001FF526E4F527E5252527FFE433FEC3EF4B
:102B34009440EE6480948050097F0112328CC20963
:102B4400800D74C02525F5257F0212328CD209E54B
:102B54002525274440FF1231B8E52644B8FF123139
:102B6400B8E52790264593FF120006300906744005
:102B74002525F5250527E527C3940840A922E51353
:102B8400D39464406A850B25850C26E5261313131C
:102B9400541FF526E4F527E5252527FFE433FEC376
:102BA400EF9440EE6480948050097F0112328CC20D
:102BB40009800D74C02525F5257F0212328CD209B7
:102BC400E52525274440FF1231B8E52644B8FF1215
:102BD40031B8E4FF12000630090674402525F525B6
:102BE4000527E527C3940840AEE4F513F51622053E
:012BF40013CD
:012BF50022BD
:10313B00E4FF12328C752904E4F52AE52944B8FF23
:10314B001231B8E52A4440FF1231B8E4FF120006F1
:10315B00052AE52AC3944040E20529E529C39408D2
:02316B0040D64C
:01316D00223F
:022BF6008F2529
:102BF80012313BE4F528E4F527E4F526C209E52877
:102C080075F00FA424142527F52774042526F52626
:102C1800E527C3944050077F0112328C800D7F0254
:102C280012328C74C02527F527D209E52644B8FF4F
:102C38001231B8E5274440FF1231B8300906744014
:102C48002527F527E52875F00FA42414FFC3E527E9
:102C58009FF52774FC2526F526E528C3940575F00D
:102C68000CE526501EA42527F582E435F0F583757A
:102C7800F024E5281232F6E58224E9F582E583346A
:102C880021801CA42527F582E435F0F58375F0240E
:102C9800E5251232F6E5822475F582E5833423F5BD
:102CA80083E493FF1200060526E526C39403500328
:102CB800022C040527E527C3940C5003022C0105B8
:0B2CC80028E528C394065003022BFEF1
:012CD30022DE
:022CD4008F254A
:102CD60012313BE4F528E4F527E4F526C209E52898
:102CE60075F00FA424142527F52774042526F52648
:102CF600E527C3944050077F0112328C800D7F0276
:102D060012328C74C02527F527D209E52644B8FF70
:102D16001231B8E5274440FF1231B8300906744035
:102D26002527F527E52875F00FA42414FFC3E5270A
:102D36009FF52774FC2526F526E528C3940675F02D
:102D46000CE526501EA42527F582E435F0F583759B
:102D5600F024E5281232F6E582249DF582E58334D7
:102D660022801CA42527F582E435F0F58375F0242E
:102D7600E5251232F6E5822475F582E5833423F5DE
:102D860083E493FF1200060526E526C39403500349
:102D9600022CE20527E527C3940C5003022CDF051D
:0B2DA60028E528C394075003022CDC32
:012DB10022FF
:102E6600E4FF12328CE4F525E4F526E52544B8FFA7
:102E76001231B8E5264440FF1231B8E50A24FE6057
:102E86000714601F2402803675F040E525A4252628
:102E9600F582E435F0F583E582244DF582E5833449
:102EA60027803475F040E525A42526F582E435F023
:102EB600F583E582244DF582E5833428801975F083
:102EC60040E525A42526F582E435F0F583E5822440
:102ED6004DF582E5833426F583E493FF120006055B
:102EE60026E526C3944040830525E525C394045072
:042EF60003022E6E37
:012EFA0022B5
:102F8700851028751002752501AF2512328CE4F5DE
:102F970026E4F527E52644B8FF1231B8E527444073
:102FA700FF1231B8123234EF600585281080090509
:102FB70027E527C3944040DCE5106528600905260E
:102FC700E526C3940440CAE510652860090525E590
:062FD70025C3940340B382
:012FDD0022D1
:1032A40020B203E4F51920B30375190130B20630D6
:0632B400B30375190222AC
:102FDE00E50A24FE600714600C24028010751C02A2
:102FEE00751114800E751C0375110C8006751C016D
:102FFE0075111890294DE493F51AA3E493F51B85EA
:10300E001C12851117A3E493F519E4F525E525C3E4
:10301E009517500EE51A2525FFAD1B1230FF05251D
:02302E0080EB35
:01303000227D
:102DB200E51964017063C374809517C39512FFE52A
:102DC2001AD39F4003022E65E5172512FFE433FE56
:102DD200D3EF9480EE648094804003022E657525C3
:102DE20001E5122401FFE433FEC3E5259FEE648072
:102DF200F8748098501CE51A252514FFAD1B12307B
:102E0200C2E51A2517142525FFAD1B1230FF052533
:102E120080CFE512251AF51A22E5197046C3E51A84
:102E220095127480F898403B752501E5122401FF44
:102E3200E433FEC3E5259FEE6480F8748098501C4D
:102E4200E51A2517C39525FFAD1B1230C2C3E51A3B
:102E52009525FFAD1B1230FF052580CFC3E51A95DE
:032E620012F51A4C
:012E6500224A
:10308000902950E493F514A3E493F515A3E493F584
:1030900008A3E493F509A2039201A2049202AD15DC
:1030A000AF141230FFE51514FDAF141230FFE51414
:1030B00004FFAD151230FFE51404FFE51514FD0201
:0230C00030FFDF
:1031EF00AD15AF141230C2E51404FFAD151230C285
:1031FF00E51514FDAF141230C2E51404FFE51514E4
:04320F00FD0230C2CA
:10001E00E4F590200203020429E51524FEFDAF1439
:10002E001230314016E51404FFE51524FEFD1230A2
:10003E00314008E515146003020818E515D3942223
:10004E005003020102E515943E4003020102E5143D
:10005E00C3947E4003020102E51494005003020192
:10006E0002E50C131313541FF50CE4F525E50B25CF
:10007E0025FFE433FEC3EF9440EE64809480500974
:10008E007F0112328CC20B800D74C0250BF50B7FD5
:10009E000212328CD20BE50B25254440FF1231B8EB
:1000AE00E50C44B8FF1231B8E4FF120006300B061F
:1000BE007440250BF50B0525E525C3940840AEE5E8
:1000CE000C75F008A4F50CE4F513E51624FE601289
:1000DE0014601514601824037017D20075100702EF
:1000EE00050075100802050075100902050075104F
:1000FE000A020500759004E515147003020424E548
:10010E001524FEFDAF141230C2E51404FFE51524CC
:10011E00FEFD1230C2E51414FFE51524FEFD12306B
:10012E00C2E51424FEFFE51524FEFD1230C2E514CF
:10013E0024FDFFE51524FEFD1230C2E51424FCFF5C
:10014E00E51524FEFD1230C2E51424FBFFE515244F
:10015E00FEFD1230C2E5142402FFE51524FEFD1249
:10016E0030C2E5142403FFE51524FEFD1230C2E56E
:10017E00142404FFE51524FEFD1230C2E5142405F7
:10018E00FFE51524FEFD1230C2E5142406FFE51529
:10019E0024FEFD1230C2E51524FE7003020424E590
:1001AE001524FDFDAF141230C2E51404FFE515242D
:1001BE00FDFD1230C2E51414FFE51524FDFD1230CD
:1001CE00C2E51424FEFFE51524FDFD1230C2E51430
:1001DE0024FDFFE51524FDFD1230C2E51424FCFFBD
:1001EE00E51524FDFD1230C2E51424FBFFE51524B0
:1001FE00FDFD1230C2E5142402FFE51524FDFD12AB
:10020E0030C2E5142403FFE51524FDFD1230C2E5CE
:10021E00142404FFE51524FDFD1230C2E514240557
:10022E00FFE51524FDFD1230C2E5142406FFE51589
:10023E0024FDFD1230C2E51524FD7003020424E5F1
:10024E001524FCFDAF141230C2E51404FFE515248D
:10025E00FCFD1230C2E51414FFE51524FCFD12302E
:10026E00C2E51424FEFFE51524FCFD1230C2E51490
:10027E0024FDFFE51524FCFD1230C2E51424FCFF1D
:10028E00E51524FCFD1230C2E51424FBFFE5152410
:10029E00FCFD1230C2E5142402FFE51524FCFD120C
:1002AE0030C2E5142403FFE51524FCFD1230C2E52F
:1002BE00142404FFE51524FCFD1230C2E5142405B8
:1002CE00FFE51524FCFD1230C2E5142406FFE515EA
:1002DE0024FCFD1230C2E51524FC7003020424E553
:1002EE001524FBFDAF141230C2E51404FFE51524EE
:1002FE00FBFD1230C2E51414FFE51524FBFD123090
:10030E00C2E51424FEFFE51524FBFD1230C2E514F0
:10031E0024FDFFE51524FBFD1230C2E51424FCFF7D
:10032E00E51524FBFD1230C2E51424FBFFE5152470
:10033E00FBFD1230C2E5142402FFE51524FBFD126D
:10034E0030C2E5142403FFE51524FBFD1230C2E58F
:10035E00142404FFE51524FBFD1230C2E514240518
:10036E00FFE51524FBFD1230C2E5142406FFE5154A
:10037E0024FBFD1230C2E51524FB7003020424E5B4
:10038E001524FAFDAF141230C2E51404FFE515244E
:10039E00FAFD1230C2E51414FFE51524FAFD1230F1
:1003AE00C2E51424FEFFE51524FAFD1230C2E51451
:1003BE0024FDFFE51524FAFD1230C2E51424FCFFDE
:1003CE00E51524FAFD1230C2E51424FBFFE51524D1
:1003DE00FAFD1230C2E5142402FFE51524FAFD12CF
:1003EE0030C2E5142403FFE51524FAFD1230C2E5F0
:1003FE00142404FFE51524FAFD1230C2E514240579
:10040E00FFE51524FAFD1230C2E5142406FFE515AA
:10041E0024FAFD1230C2B202020818E51504FDAF2F
:10042E00141230314010E51404FFE51504FD1230AE
:10043E00314003020818E515643F7003020815E504
:10044E0015D394225003020506E515943E4003028F
:10045E000506E514C3947E4003020506E5149400D8
:10046E005003020506E50C131313541FF50CE4F5A7
:10047E0025E50B2525FFE433FEC3EF9440EE6480A3
:10048E00948050097F0112328CC20B800D74C025EE
:10049E000BF50B7F0212328CD20BE50B2525444057
:1004AE00FF1231B8E50C44B8FF1231B8E4FF120068
:1004BE0006300B067440250BF50B0525E525C39478
:1004CE000840AEE50C75F008A4F50CE4F513E5163E
:1004DE0024FE601114601314601524037014D200EE
:1004EE00751007800D75100880087510098003754A
:1004FE00100AE4F516020818759004E5152401FF9C
:10050E00E433FEEF651B7001EE7003020805E5157E
:10051E0004FDAF141230C2E51404FFE51504FD12FC
:10052E0030C2E51414FFE51504FD1230C2E51424A3
:10053E00FEFFE51504FD1230C2E51424FDFFE5159E
:10054E0004FD1230C2E51424FCFFE51504FD123043
:10055E00C2E51424FBFFE51504FD1230C2E5142498
:10056E0002FFE51504FD1230C2E5142403FFE51564
:10057E0004FD1230C2E5142404FFE51504FD12300B
:10058E00C2E5142405FFE51504FD1230C2E514245E
:10059E0006FFE51504FD1230C2E5152402FDAF1469
:1005AE001230C2E51404FFE5152402FD1230C2E537
:1005BE001414FFE5152402FD1230C2E51424FEFFCB
:1005CE00E5152402FD1230C2E51424FDFFE51524C5
:1005DE0002FD1230C2E51424FCFFE5152402FD12C3
:1005EE0030C2E51424FBFFE5152402FD1230C2E5EE
:1005FE00142402FFE5152402FD1230C2E514240373
:10060E00FFE5152402FD1230C2E5142404FFE515A2
:10061E002402FD1230C2E5142405FFE5152402FD67
:10062E001230C2E5142406FFE5152402FD1230C275
:10063E00E5152403FDAF141230C2E51404FFE515D1
:10064E002403FD1230C2E51414FFE5152403FD1238
:10065E0030C2E51424FEFFE5152403FD1230C2E579
:10066E001424FDFFE5152403FD1230C2E51424FC0D
:10067E00FFE5152403FD1230C2E51424FBFFE5153A
:10068E002403FD1230C2E5142402FFE5152403FDF8
:10069E001230C2E5142403FFE5152403FD1230C207
:1006AE00E5142404FFE5152403FD1230C2E51424DD
:1006BE0005FFE5152403FD1230C2E5142406FFE5FF
:1006CE00152403FD1230C2E5152404FDAF141230BB
:1006DE00C2E51404FFE5152404FD1230C2E514141E
:1006EE00FFE5152404FD1230C2E51424FEFFE515C6
:1006FE002404FD1230C2E51424FDFFE5152404FD8B
:10070E001230C2E51424FCFFE5152404FD1230C29C
:10071E00E51424FBFFE5152404FD1230C2E5142474
:10072E0002FFE5152404FD1230C2E5142403FFE593
:10073E00152404FD1230C2E5142404FFE51524042B
:10074E00FD1230C2E5142405FFE5152404FD123018
:10075E00C2E5142406FFE5152404FD1230C2E5158A
:10076E002405FDAF141230C2E51404FFE51524056F
:10077E00FD1230C2E51414FFE5152405FD1230C23A
:10078E00E51424FEFFE5152405FD1230C2E5142400
:10079E00FDFFE5152405FD1230C2E51424FCFFE52E
:1007AE00152405FD1230C2E51424FBFFE5152405C2
:1007BE00FD1230C2E5142402FFE5152405FD1230AA
:1007CE00C2E5142403FFE5152405FD1230C2E5141D
:1007DE002404FFE5152405FD1230C2E5142405FF9F
:1007EE00E5152405FD1230C2E5142406FFE5152497
:1007FE0005FD1230C2800C759005851208E519248E
:10080E00FF9201B2028003E4F510E510640160036B
:10081E000213AB200103020CAEE5142402FFAD154A
:10082E00123031401FE5142402FFE51514FD12307D
:10083E00314011E5142401FFE433FEEF647F4E6076
:10084E000302122EE515D39422500302090BE5156F
:10085E00943E400302090BE514C3947E4003020943
:10086E000BE5149400500302090BE50C13131354FB
:10087E001FF50CE4F525E50B2525FFE433FEC3EF4C
:10088E009440EE6480948050097F0112328CC20B2A
:10089E00800D74C0250BF50B7F0212328CD20BE546
:1008AE000B25254440FF1231B8E50C44B8FF123138
:1008BE00B8E4FF120006300B067440250BF50B054D
:1008CE0025E525C3940840AEE50C75F008A4F50C9B
:1008DE00E4F513E51624FE60121460151460182456
:1008EE00037017D200751007020D80751008020DE7
:1008FE0080751009020D8075100A020D8075900426
:10090E00E5142402FFAD151230C2E5142402FFE5F2
:10091E001514FD1230C2E5142403FFAD151230C2BA
:10092E00E5142403FFE51514FD1230C2E51424046A
:10093E00FFAD151230C2E5142404FFE51514FD12A7
:10094E0030C2E5142405FFAD151230C2E51424059E
:10095E00FFE51514FD1230C2E5142406FFAD151285
:10096E0030C2E5142406FFE51514FD1230C2E5145D
:10097E002407FFAD151230C2E5142407FFE5151448
:10098E00FD1230C2E5142408FFAD151230C2E51475
:10099E002408FFE51514FD1230C2E5142409FFAD3D
:1009AE00151230C2E5142409FFE51514FD1230C2EC
:1009BE00E514240AFFAD151230C2E514240AFFE532
:1009CE001514FD1230C2E514240BFFAD151230C202
:1009DE00E514240BFFE51514FD1230C2E514240CAA
:1009EE00FFAD151230C2E514240CFFE51514FD12EF
:1009FE0030C2E514240DFFAD151230C2E514240DDE
:100A0E00FFE51514FD1230C2E515147003020CA992
:100A1E00E5142402FFE51524FEFD1230C2E5142470
:100A2E0003FFE51524FEFD1230C2E5142404FFE594
:100A3E001524FEFD1230C2E5142405FFE51524FE33
:100A4E00FD1230C2E5142406FFE51524FEFD12301A
:100A5E00C2E5142407FFE51524FEFD1230C2E5148D
:100A6E002408FFE51524FEFD1230C2E5142409FF0B
:100A7E00E51524FEFD1230C2E514240AFFE5152407
:100A8E00FEFD1230C2E514240BFFE51524FEFD1207
:100A9E0030C2E514240CFFE51524FEFD1230C2E52C
:100AAE0014240DFFE51524FEFD1230C2E51524FEBB
:100ABE007003020CA9E5142402FFE51524FDFD12B6
:100ACE0030C2E5142403FFE51524FDFD1230C2E506
:100ADE00142404FFE51524FDFD1230C2E51424058F
:100AEE00FFE51524FDFD1230C2E5142406FFE515C1
:100AFE0024FDFD1230C2E5142407FFE51524FDFD8B
:100B0E001230C2E5142408FFE51524FDFD1230C293
:100B1E00E5142409FFE51524FDFD1230C2E5142469
:100B2E000AFFE51524FDFD1230C2E514240BFFE586
:100B3E001524FDFD1230C2E514240CFFE51524FD2D
:100B4E00FD1230C2E514240DFFE51524FDFD123013
:100B5E00C2E51524FD7003020CA9E5142402FFE57D
:100B6E001524FCFD1230C2E5142403FFE51524FC08
:100B7E00FD1230C2E5142404FFE51524FCFD1230ED
:100B8E00C2E5142405FFE51524FCFD1230C2E51460
:100B9E002406FFE51524FCFD1230C2E5142407FFE0
:100BAE00E51524FCFD1230C2E5142408FFE51524DA
:100BBE00FCFD1230C2E5142409FFE51524FCFD12DC
:100BCE0030C2E514240AFFE51524FCFD1230C2E5FF
:100BDE0014240BFFE51524FCFD1230C2E514240C81
:100BEE00FFE51524FCFD1230C2E514240DFFE515BA
:100BFE0024FCFD1230C2E51524FC7003020CA9E59D
:100C0E00142402FFE51524FBFD1230C2E514240363
:100C1E00FFE51524FBFD1230C2E5142404FFE51593
:100C2E0024FBFD1230C2E5142405FFE51524FBFD5F
:100C3E001230C2E5142406FFE51524FBFD1230C266
:100C4E00E5142407FFE51524FBFD1230C2E514243C
:100C5E0008FFE51524FBFD1230C2E5142409FFE55B
:100C6E001524FBFD1230C2E514240AFFE51524FB02
:100C7E00FD1230C2E514240BFFE51524FBFD1230E6
:100C8E00C2E514240CFFE51524FBFD1230C2E51459
:100C9E00240DFFE51524FBFD1230C2B20102122E07
:100CAE00E51414FFAD151230314014E51414FFE5B0
:100CBE001514FD1230314007E514600302122EE5C3
:100CCE0015D394225003020D86E515943E4003027F
:100CDE000D86E514C3947E4003020D86E514940040
:100CEE005003020D86E50C131313541FF50CE4F597
:100CFE0025E50B2525FFE433FEC3EF9440EE64801B
:100D0E00948050097F0112328CC20B800D74C02565
:100D1E000BF50B7F0212328CD20BE50B25254440CE
:100D2E00FF1231B8E50C44B8FF1231B8E4FF1200DF
:100D3E0006300B067440250BF50B0525E525C394EF
:100D4E000840AEE50C75F008A4F50CE4F513E516B5
:100D5E0024FE601114601314601524037014D20065
:100D6E00751007800D7510088008751009800375C1
:100D7E00100AE4F51602122E759004E514700302A3
:100D8E00122C14FFAD151230C2E51414FFE5151424
:100D9E00FD1230C2E51414700302122CE51424FE69
:100DAE00FFAD151230C2E51424FEFFE51514FD1239
:100DBE0030C2E515146046E51424FEFFE51524FE49
:100DCE00FD1230C2E51524FE6033E51424FEFFE566
:100DDE001524FDFD1230C2E51524FD6020E5142416
:100DEE00FEFFE51524FCFD1230C2E51524FC600D56
:100DFE00E51424FEFFE51524FBFD1230C2E5142494
:100E0E00FE700302122CE51424FDFFAD151230C244
:100E1E00E51424FDFFE51514FD1230C2E51514602E
:100E2E0046E51424FDFFE51524FEFD1230C2E5153E
:100E3E0024FE6033E51424FDFFE51524FDFD12307C
:100E4E00C2E51524FD6020E51424FDFFE51524FC04
:100E5E00FD1230C2E51524FC600DE51424FDFFE5FE
:100E6E001524FBFD1230C2E51424FD700302122C72
:100E7E00E51424FCFFAD151230C2E51424FCFFE589
:100E8E001514FD1230C2E515146046E51424FCFF5E
:100E9E00E51524FEFD1230C2E51524FE6033E5147F
:100EAE0024FCFFE51524FDFD1230C2E51524FD607E
:100EBE0020E51424FCFFE51524FCFD1230C2E515D7
:100ECE0024FC600DE51424FCFFE51524FBFD123017
:100EDE00C2E51424FC700302122CE51424FBFFADB2
:100EEE00151230C2E51424FBFFE51514FD1230C2B5
:100EFE00E515146046E51424FBFFE51524FEFD12EE
:100F0E0030C2E51524FE6033E51424FBFFE51524FD
:100F1E00FDFD1230C2E51524FD6020E51424FBFF13
:100F2E00E51524FCFD1230C2E51524FC600DE51418
:100F3E0024FBFFE51524FBFD1230C2E51424FB70E3
:100F4E000302122CE51424FAFFAD151230C2E5147B
:100F5E0024FAFFE51514FD1230C2E515146046E5BE
:100F6E001424FAFFE51524FEFD1230C2E51524FE09
:100F7E006033E51424FAFFE51524FDFD1230C2E5B9
:100F8E001524FD6020E51424FAFFE51524FCFD125E
:100F9E0030C2E51524FC600DE51424FAFFE5152496
:100FAE00FBFD1230C2E51424FA700302122CE51474
:100FBE0024F9FFAD151230C2E51424F9FFE515141E
:100FCE00FD1230C2E515146046E51424F9FFE5154F
:100FDE0024FEFD1230C2E51524FE6033E51424F91B
:100FEE00FFE51524FDFD1230C2E51524FD6020E558
:100FFE001424F9FFE51524FCFD1230C2E51524FC7E
:10100E00600DE51424F9FFE51524FBFD1230C2E551
:10101E001424F9700302122CE51424F8FFAD1512F6
:10102E0030C2E51424F8FFE51514FD1230C2E515A3
:10103E00146046E51424F8FFE51524FEFD1230C2B7
:10104E00E51524FE6033E51424F8FFE51524FDFDB7
:10105E001230C2E51524FD6020E51424F8FFE515D5
:10106E0024FCFD1230C2E51524FC600DE51424F8B5
:10107E00FFE51524FBFD1230C2E51424F8700302BF
:10108E00122CE51424F7FFAD151230C2E51424F727
:10109E00FFE51514FD1230C2E515146046E5142463
:1010AE00F7FFE51524FEFD1230C2E51524FE603370
:1010BE00E51424F7FFE51524FDFD1230C2E51524D5
:1010CE00FD6020E51424F7FFE51524FCFD1230C267
:1010DE00E51524FC600DE51424F7FFE51524FBFD52
:1010EE001230C2E51424F7700302122CE51424F614
:1010FE00FFAD151230C2E51424F6FFE51514FD12EE
:10110E0030C2E515146046E51424F6FFE51524FEFD
:10111E00FD1230C2E51524FE6033E51424F6FFE51A
:10112E001524FDFD1230C2E51524FD6020E51424C2
:10113E00F6FFE51524FCFD1230C2E51524FC600D0A
:10114E00E51424F6FFE51524FBFD1230C2E5142448
:10115E00F6700302122CE51424F5FFAD151230C201
:10116E00E51424F5FFE51514FD1230C2E5151460E3
:10117E0046E51424F5FFE51524FEFD1230C2E515F3
:10118E0024FE6033E51424F5FFE51524FDFD123031
:10119E00C2E51524FD6020E51424F5FFE51524FCB9
:1011AE00FD1230C2E51524FC600DE51424F5FFE5B3
:1011BE001524FBFD1230C2E51424F56061E51424FC
:1011CE00F4FFAD151230C2E51424F4FFE51514FD3D
:1011DE001230C2E515146046E51424F4FFE515241B
:1011EE00FEFD1230C2E51524FE6033E51424F4FF33
:1011FE00E51524FDFD1230C2E51524FD6020E51431
:10120E0024F4FFE51524FCFD1230C2E51524FC6024
:10121E000DE51424F4FFE51524FBFD1230C2B201D6
:10122E00C209300262752501E5092401FFE433FE8F
:10123E00C3E5259FEE6480F8748098503CE5151444
:10124E00C39525FD700BD209C3E5159525F51580BF
:10125E0028AF14123031400FE51404FFE515149534
:10126E0025FD123031500ED209E52514FFC3E515C8
:10127E009FF5158004052580AFA209B35055C3E52F
:10128E00159509F515804C752501E5092401FFE436
:10129E0033FEC3E5259FEE6480F87480985029E5EF
:1012AE00152525FDAF14123031400EE51404FFE56F
:1012BE00152525FD123031500BD209E525142515C3
:1012CE00F5158004052580C2A209B35006E509254F
:1012DE0015F515C20A30016C752501E5092401FFCB
:1012EE00E433FEC3E5259FEE6480F8748098504881
:1012FE00E5142401FFE433FE7C00EF2525FFEC3ED0
:10130E00FEEF647F4E7006D20AE5258021E51404B7
:10131E002525FFAD15123031400FE514042525FFAC
:10132E00E51514FD123031500BD20AE525142514A3
:10133E00F5148004052580A3A20AB35060E50825A4
:10134E0014F51422752501E5092401FFE433FEC3CB
:10135E00E5259FEE6480F87480985035C3E51495AA
:10136E0025FF7006D20A8F148027AD15123031403A
:10137E000EE5149525FFE51514FD123031500ED2F1
:10138E000AE52514FFC3E5149FF514800405258096
:0D139E00B6A20AB35007C3E5149508F51474
:0113AB00221F
:1031C5001231EF12001EAD15AF141230FFE51514C4
:1031D500FDAF141230FFE51404FFAD151230FFE505
:0A31E5001404FFE51514FD0230FF8D
:1013AC00E51064016002051DE5106404600302157C
:1013BC00BE759001200605F51DD2062230050302EC
:1013CC0015B6E51DC39450400302149BE51D75F042
:1013DC000A84F522E51D75F00A842401FFE433FE2E
:1013EC00C3E5229FEE6480F874809840030220C805
:1013FC00E4F524E4F523C207E52275F00FA42405D7
:10140C002524F5240523C3944050077F0112328C08
:10141C00800D7F0212328C74C02524F524D207E58E
:10142C002344B8FF1231B8E5244440FF1231B830E0
:10143C00070674402524F524E52275F00FA4240535
:10144C00FFC3E5249FF5241523FF75F00CE523A4B9
:10145C002FF582E435F0F58375F024E5221232F68F
:10146C00E582244DF582E5833424F583E493FF1261
:10147C0000060523E523C39403500302140205243C
:10148C00E524C3940C50030213FF05220213E0E57C
:10149C001DD3945050030215A9E51D947840030206
:1014AC0015A9E4FF12328C752304C37490951DF5B5
:1014BC0024E524C394405019E52344B8FF1231B8F5
:1014CC00E5244440FF1231B8E4FF120006052480E5
:1014DC00E00523E523C3940640D0E4F522E4F5248B
:1014EC00E4F523C207C374CF951DFFE52275F00701
:1014FC00A42F2524F52474042523F523E524C39473
:10150C004050077F0112328C800D7F0212328C7496
:10151C00C02524F524D207E524C39440505AE52372
:10152C0044B8FF1231B8E5244440FF1231B83007FB
:10153C000674402524F524C374CF951DFFE5227550
:10154C00F007A42FFFC3E5249FF52474FC2523F595
:10155C002375F006A42524F582E435F0F58375F0A7
:10156C000CE5221232F6E582246DF582E5833425F2
:10157C00F583E493FF1200060523E523C394025080
:10158C00030214EF0524E524C3940650030214EC63
:10159C000522E522C3940550030214E922E51DD36C
:1015AC00947850030220C8D20522751005C205C2DA
:1015BC000622E510640560030217202006030217BB
:1015CC0081D2B420B40FE4F590123213122E66754A
:1015DC001006C20622E51DD394144003021FC2E577
:1015EC001DD3940A406BE51D941450657F01123293
:1015FC008C752306752414E52344B8FF1231B8E525
:10160C00244440FF1231B8E4FF1200060524E524FF
:10161C00C3944040E20523E523C3940840D67F02DF
:10162C0012328C752306E4F524E52344B8FF1231FD
:10163C00B8E5244440FF1231B8E4FF12000605243B
:10164C00E524C3942B40E20523E523C3940840D63C
:10165C0022E51DC3941E40030220C8E4F522E4F5E4
:10166C0024E4F523C207E52275F007A424142524ED
:10167C00F52474062523F523E524C3944050077FF5
:10168C000112328C800D7F0212328C74C02524F52D
:10169C0024D207E524C394405055E52344B8FF12E7
:1016AC0031B8E5244440FF1231B8300706744025A8
:1016BC0024F524E52275F007A42414FFC3E5249F28
:1016CC00F52474FA2523F52375F006A42524F58258
:1016DC00E435F0F58375F00CE5221232F6E5822440
:1016EC00A9F582E5833425F583E493FF1200060502
:1016FC0023E523C3940250030216700524E524C38A
:10170C009406500302166D0522E522C3940B500378
:10171C0002166A22E51064067029759002200502F3
:10172C00F51D750F1EE51DC3950F500E30050302F8
:10173C0020C8AF0A122CD4D2052212313B751003EB
:10174C00C20522E51064037020200502F51D750FFB
:10175C001EE51DC3950F50093005030220C8021E5B
:10176C00B6D28CE4F590021EBEE51064076003024D
:10177C001844200605D206F51D22E51DC3943250EF
:10178C003FE51D75F00A84E5F0701AF522E522C3D9
:10179C00951740030220C8E522251AFFAD1B123015
:1017AC00C2052280E8E4F522E522C3951740030226
:1017BC0020C8E522251AFFAD1B1230FF052280E858
:1017CC00E51DB4320A751780851A18E4F51A22E55E
:1017DC001DC39464503FE51D75F00A84E5F0701A42
:1017EC00F522E522C3951740030220C8E522251AED
:1017FC00FFAD1B1230C2052280E8E4F522E522C3BE
:10180C00951740030220C8E522251AFFAD1B1230A4
:10181C00FF052280E8E4F522E522C39517500EE57A
:10182C0022251AFFAD1B1230FF052280EBC2067574
:10183C001001E4F50DD20022E510640860030219D2
:10184C0017200616C374FF958AC394555006E4F509
:10185C0023021A73752302021A73E51DC3943250C6
:10186C0073E51D75F00A84E5F07034F522E4F52477
:10187C00E4FF12328CE523252244B8FF1231B8E57F
:10188C00244440FF1231B8E4FF1200060524E5247D
:10189C00C3944040DB0522E522C3940240CF22E4EE
:1018AC00F522E4F524E4FF12328CE523252244B81A
:1018BC00FF1231B8E5244440FF1231B87FFF12000B
:1018CC00060524E524C3944040DB0522E522C3949D
:1018DC000240CF22E4F522E4F524E4FF12328CE539
:1018EC0023252244B8FF1231B8E5244440FF1231BD
:1018FC00B8E4FF1200060524E524C3944040DB0540
:10190C0022E522C3940240CF021C76E510640960E4
:10191C0003021A58850B23850C24E5241313135446
:10192C001FF524200603021A73E51DC394324003ED
:10193C000219FDE51D75F00A84E5F07059F522E5F4
:10194C00232522FFE433FEC3EF9440EE64809480A1
:10195C0050097F0112328CC208800D74C02523F50A
:10196C00237F0212328CD208E52325224440FF1239
:10197C0031B8E52444B8FF1231B890262DE493FF1A
:10198C0012000630080674402523F5230522E522B3
:10199C00C3940840AA22E4F522E5232522FFE43370
:1019AC00FEC3EF9440EE6480948050097F011232A4
:1019BC008CC208800D74C02523F5237F0212328C53
:1019CC00D208E52325224440FF1231B8E52444B85F
:1019DC00FF1231B8E52290263D93FF120006300825
:1019EC000674402523F5230522E522C3940840A95B
:1019FC0022E4F522E5232522FFE433FEC3EF9440D5
:101A0C00EE6480948050097F0112328CC208800DE4
:101A1C0074C02523F5237F0212328CD208E52325CE
:101A2C00224440FF1231B8E52444B8FF1231B8E427
:101A3C00FF12000630080674402523F5230522E525
:101A4C0022C3940840AEC20675100222E510640A47
:101A5C006003021B9B850B23850C24E524131313B5
:101A6C00541FF524200605D206021FC2E51DC3949F
:101A7C00324003021B40E51D75F00A84E5F07059F5
:101A8C00F522E5232522FFE433FEC3EF9440EE64F8
:101A9C0080948050097F0112328CC208800D74C072
:101AAC002523F5237F0212328CD208E5232522440C
:101ABC0040FF1231B8E52444B8FF1231B890262DFE
:101ACC00E493FF12000630080674402523F5230525
:101ADC0022E522C3940840AA22E4F522E52325221C
:101AEC00FFE433FEC3EF9440EE6480948050097F92
:101AFC000112328CC208800D74C02523F5237F029D
:101B0C0012328CD208E52325224440FF1231B8E56D
:101B1C002444B8FF1231B8E52290264593FF1200F9
:101B2C000630080674402523F5230522E522C394CC
:101B3C000840A922E4F522E5232522FFE433FEC365
:101B4C00EF9440EE6480948050097F0112328CC275
:101B5C0008800D74C02523F5237F0212328CD20825
:101B6C00E52325224440FF1231B8E52444B8FF1286
:101B7C0031B8E4FF12000630080674402523F52323
:101B8C000522E522C3940840AEC206E4F51022E516
:101B9C0010640B6003021C7C200607D206F51DC2E4
:101BAC000022E51DC39432503FE51D75F00A84E513
:101BBC00F0701AF522E522C3951740030220C8E500
:101BCC0022251AFFAD1B1230C2052280E8E4F52253
:101BDC00E522C3951740030220C8E522251AFFAD64
:101BEC001B1230FF052280E8E51DB4321FE4F522FC
:101BFC00E522C39517500EE522251AFFAD1B1230B6
:101C0C00C2052280EB85111785181A22E51DC39495
:101C1C0064503FE51D75F00A84E5F0701AF522E575
:101C2C0022C3951740030220C8E522251AFFAD1BDD
:101C3C001230C2052280E8E4F522E522C395174054
:101C4C00030220C8E522251AFFAD1B1230FF052226
:101C5C0080E8E4F522E522C39517500EE522251AFB
:101C6C00FFAD1B1230FF052280EBC206751001225E
:101C7C00122F87E510B4010C759003122954122D04
:101C8C00B20231C5E5106003021ECD759006E50E5B
:101C9C006003021E9E750A01200502F51DE51DC399
:101CAC00941E50093005030220C8021EB6E51D64BF
:101CBC001E6003021D75123213E4F516C200F50DF9
:101CCC00F522E4F524E4F523C207E52275F014A40B
:101CDC00241E2524F5240523C3944050077F0112AC
:101CEC00328C800D7F0212328C74C02524F524D2E4
:101CFC0007E52344B8FF1231B8E5244440FF123104
:101D0C00B830070674402524F524E52275F014A498
:101D1C00241EFFC3E5249FF5241523FF75F00CE565
:101D2C0023A42FF582E435F0F58375F024E5221217
:101D3C0032F6E5822459F582E5833421F583E49368
:101D4C00FF1200060523E523C394035003021CD4A1
:101D5C000524E524C3940C5003021CD10522E52272
:101D6C00C394045003021CCE22E51DD3941E5003D1
:101D7C000220C8D2B420B40C123213750E057510A3
:101D8C0004C20522E51DD394324004751D1F22E5C3
:101D9C001DD394284039E51D94325033E4FF1232A0
:101DAC008C752306E4F524E52344B8FF1231B8E51D
:101DBC00244440FF1231B8E4FF1200060524E52448
:101DCC00C3944040E20523E523C3940840D622E5A2
:101DDC001DC3942840030220C8E4F522E4F524E452
:101DEC00F523C207E52275F007A424142524F52455
:101DFC0074062523F523E524C3944050077F011274
:101E0C00328C800D7F0212328C74C02524F524D2C2
:101E1C0007E524C394405055E52344B8FF1231B86C
:101E2C00E5244440FF1231B830070674402524F5F0
:101E3C0024E52275F007A42414FFC3E5249FF524A0
:101E4C0074FA2523F52375F006A42524F582E435D0
:101E5C00F0F58375F00CE5221232F6E58224A9F533
:101E6C0082E5833425F583E493FF1200060523E510
:101E7C0023C394025003021DEE0524E524C39406EB
:101E8C005003021DEB0522E522C3940B5003021DE7
:101E9C00E822200505E4F51D150E750F1EE51DC382
:101EAC00950F500E3005030220C8AF0E122BF6D240
:101EBC00052212313B123080122FDE751001C20543
:101ECC0022E510640260030220C8759007F516C263
:101EDC0000F50D300503021F96D205F51D123213C5
:101EEC00E4F522E4F524E4F523C207E52275F014A9
:101EFC00A4241E2524F5240523C3944050077F01F8
:101F0C0012328C800D7F0212328C74C02524F52481
:101F1C00D207E52344B8FF1231B8E5244440FF1240
:101F2C0031B830070674402524F524E52275F014E9
:101F3C00A4241EFFC3E5249FF5241523FF75F00C84
:101F4C00E523A42FF582E435F0F58375F024E52222
:101F5C001232F6E58224C9F582E5833420F583E458
:101F6C0093FF1200060523E523C394035003021EBE
:101F7C00F50524E524C3940C5003021EF20522E55A
:101F8C0022C394045003021EEF22D2B420B42012B8
:101F9C003213E50AC39403500A050A122E66751013
:101FAC00068009750A01750E05751004C20522E537
:101FBC001DD394144004E4F51D22E51DD3940A406E
:101FCC0039E51D94145033E4FF12328C752306E46A
:101FDC00F524E52344B8FF1231B8E5244440FF1240
:101FEC0031B8E4FF1200060524E524C3944040E216
:101FFC000523E523C3940840D622E51DC3941E4057
:10200C00030220C8E4F522E4F524E4F523C207E535
:10201C002275F007A424142524F52474062523F531
:10202C0023E524C3944050077F0112328C800D7F2E
:10203C000212328C74C02524F524D207E524C394F3
:10204C00405055E52344B8FF1231B8E5244440FF15
:10205C001231B830070674402524F524E52275F0BA
:10206C0007A42414FFC3E5249FF52474FA2523F553
:10207C002375F006A42524F582E435F0F58375F07C
:10208C000CE5221232F6E58224A9F582E58334258B
:10209C00F583E493FF1200060523E523C394025055
:1020AC00030220190524E524C394065003022016CC
:0C20BC000522E522C3940B500302201300
:0120C80022F5
:06332C001232BA02321356
:03000000022EFBD2
:0C2EFB00787FE4F6D8FD75812B022F4291
:0C32F600A42582F582E5F03583F58322E3
:102F0700023271E493A3F8E493A34003F68001F23D
:102F170008DFF48029E493A3F85407240CC8C333CB
:102F2700C4540F4420C8834004F456800146F6DF9A
:102F3700E4800B010204081020408090316EE47E8B
:102F4700019360BCA3FF543F30E509541FFEE4938F
:102F5700A360010ECF54C025E060A840B8E493A356
:102F6700FAE493A3F8E493A3C8C582C8CAC583CA81
:102F7700F0A3C8C582C8CAC583CADFE9DEE780BE39
:013199000035
:00000001FF
