:08254500C2A1C2A08E80D2A049
:02254D0000226A
:1024D000EF7005C2A4C2A322BF0105C2A4D2A322E9
:0824E000BF0204D2A4C2A32232
:1024B400D2A1C2A2C2A0D2A0E58030E70CC2A0AFD4
:0B24C4002B052BEFD3940A40EDC2A0C3
:0124CF0022EA
:1023F900EEC41313540304FF1224D0EE543FFCED32
:0E240900131313541FFBED5407FDEB44B8FFF3
:0D241700AE071224B4C2A2122545C2A022B5
:0D000600AE071224B4D2A2122545C2A022DA
:1024FD007F3F1224177FC01224177FB81224177F35
:04250D00400224174D
:10247200E4FF1224D07DB8AF051224177F40122446
:1024820017E4FCE4FF1200060CBC40F70DBDC0E7E8
:012492002227
:102493001224B4D2A2D2A17580FFD2A0AF80C2A071
:1024A3001224B4D2A2D2A17580FFD2A0AF80C2A061
:0124B3002206
:02235C00AE07CA
:10235E00EEC394805033EDC39440502D1223F9EC0C
:10236E004440FF122417122493AA07AF057401A844
:10237E0007088002C333D8FC4202122413EC4440F7
:09238E00FF122417AF0212000631
:012397002223
:02231F00AE0707
:10232100EEC394805034EDC39440502E1223F9EC47
:102331004440FF122417122493AA07AF057401A881
:1023410007088002C333D8FCF45202122413EC4470
:0A23510040FF122417AF021200062D
:01235B00225F
:02228E00AE0799
:10229000EEC394805042EDC39440503CEEC41313FF
:1022A000540304FF1224D0EE543FFCED13131354D7
:1022B0001FFFED5407FDEF44B8FF122417EC444014
:1022C000FF122417122493AE05EFA806088002C35C
:0C22D00013D8FC13920E8002D20EA20E56
:0122DC0022DF
:0323CB00011D00F1
:0C252100438910758D63758BC0D28E222B
:0C252D00438902758A89758C89C28C2252
:05001600D288D28A220D
:09254F00D2AFD2ABD2A8D2AA226D
:1025110012252112252D12001612254F7590FF222A
:1024E800122511122561E51DC3940340F912001E3F
:0524F800E4F51D80F178
:03001B0002255863
:09255800051D758D63758BC03201
:030003000225676C
:03256700C2043279
:0300130002256A59
:03256A00D2043266
:100D2E0004FCFC040000000004FCFC040003FF8033
:100D3E0000FCFC0080FF03000000033F3C03033C6B
:100D4E003F030000000000040404FCFC0404040043
:100D5E00000000000000FFFF000000000000002067
:100D6E0020203F3F2020200004FCFCE00000000477
:100D7E00FCFC040000FFFF01071C70C0FFFF000019
:100D8E00203F3F20000000030F3F00000000000046
:100D9E0000FCFEFC00000000000000000003FF034A
:100DAE00000000000000000000307930000000005C
:100DBE0004FCFC0404040C1870E0800000FFFF002B
:100DCE000000000000FFFF00203F3F2020203018D1
:100DDE000E070100000000040404FCFC04040400DF
:100DEE00000000000000FFFF0000000000000020D7
:100DFE0020203F3F2020200004FCFC0404040404B7
:100E0E000C1C7C0000FFFF0808081C7F000000007F
:100E1E00203F3F202020202030383E0000000000E0
:100E2E0000FCFEFC00000000000000000003FF03B9
:100E3E0000000000000000000030793000000000CB
:100E4E0004FCFC04000000000000000000FFFF0096
:100E5E000000000000000000203F3F202020202046
:100E6E0030383E00000000040404FCFC04040400BE
:100E7E00000000000000FFFF000000000000002046
:100E8E0020203F3F2020200004FCFC040404040426
:100E9E000C1C7C0000FFFF0808081C7F00000000EF
:100EAE00203F3F20000000000000000004FCFC0476
:100EBE00040404040C1C7C0000FFFF0808081C7FBF
:100ECE0000000000203F3F202020202030383E0030
:100EDE0000000000000000000000000000C3C3C3BB
:100EEE00C3C3C3C3C3C3C30000000000000000009F
:100EFE000000000004FCFC040000000000000000E4
:100F0E0000FFFF000000000000000000203F3F2017
:100F1E002020202030383E0004FCFC04040404048D
:100F2E000C1C7C0000FFFF0808081C7F000000005E
:100F3E00203F3F202020202030383E0004FCFC04BF
:100F4E0000000004FCFC040000003FFFC000C0FFD6
:100F5E003F000000000000031F3C1F0300000000C4
:100F6E0004FCFC04040404040C1C7C0000FFFF08B9
:100F7E0008081C7F00000000203F3F20202020207A
:100F8E0030383E0004FCFC040000000000000000AD
:100F9E0000FFFF000000000000000000203F3F2087
:100FAE002020202030383E0000000000000000000D
:100FBE000000000000C3C3C3C3C3C3C3C3C3C30085
:100FCE0000000000000000000000000000C0F0382B
:100FDE000C040C38F0C00000FFFF00000000000001
:100FEE0000FFFF0000030F1C3020301C0F03000019
:100FFE000010101818FCFC0000000000000000009B
:10100E0000FFFF000000000000002020203F3F20D6
:10101E002020000060F0F80C0404040C18F0E0002E
:10102E0000000080C06030180E070100383E3F33CC
:10103E003030303030303C00003078780C04040C06
:10104E0018F8F0000000000008081C1633E1C0007C
:10105E000C1E3E3020202030181F0F000000000014
:10106E0080E038FCFC00000080E0380E030000FF3A
:10107E00FF000000010101010121213F3F2121015B
:10108E0000FCFC0C0C0C0C0C0C0C0000001F0F08D0
:10109E00040202061CF8E0000C1E3E302020203018
:1010AE001C0F030004FCFC0404040C18F0E0000008
:1010BE0000FFFF0808081C1673E18000203F3F2048
:1010CE00202020301C0F030004FCFC0404040C1828
:1010DE00F8E0000000FFFF0838F8CC06070100001A
:1010EE00203F3F200000032F3C30200004FCFC0476
:1010FE00040404040C1C7C0000FFFF0808081C7F7D
:10110E0000000000203F3F202020202030383E00ED
:10111E0000000000F00C3CF0000000000000F0FFAA
:10112E0043404043FFF00000203E3F2000000000FF
:10113E00203F3E2004FCFC040080E47C1C040400E0
:10114E0000FFFF781E7FE18000000000203F3F205F
:10115E00000001273E382020E0F0180C0404040C97
:10116E0018F0E000FFFF00000000000000FFFF008D
:10117E00070F183020202030180F070004FCFC0445
:10118E0000000004FCFC040000FFFF000000000053
:10119E00FFFF0000000F1F30202020301F0F000027
:1011AE007C1C0C0404FCFC04040C1C7C00000000E1
:1011BE0000FFFF000000000000000020203F3F2045
:1011CE002000000000FC0202028600000101010066
:1011DE000002FE0200C000010101010100FC02023A
:1011EE0002FC00000101010002FE0E7082FE0101F0
:1011FE000100010102FE123A028601010101010104
:10120E000002FE22221C0001010100000008F8105D
:10121E00080800010101010100F028282830000013
:10122E00010101010090282828D8000101010100C8
:10123E000090282828D800010101010000000000BC
:10124E000000000000000000008C921214E6000165
:10125E0000010100000602FE02060000010101006D
:10126E0000C07A4678C001010100010102FE22226F
:10127E00629C010101000000000602FE0206000051
:10128E0001010100FF8181BFBFBFBFFFFFC3BDBD15
:10129E00BDBDDBFFFFC1BFC3C3BFC1FFFF8181BDAA
:1012AE00BDDBE7FFFFFFFFFFFFFFFFFFFFFFFFFFBE
:1012BE00FFFFFFFFFFF7EFEFDFDFBF7FFFFFFFFF58
:1012CE00FFFFFFFFFFFFFF7F9FE7FBFDFFFFFFFF1E
:1012DE00FFFFFFFFFFFFFFFFFFFFFFFFFFFFFFFF10
:1012EE00FFFFFFFFFFFFFFFFFFFFFFFFFFFFFFFF00
:1012FE00FF01FDFD0DEDEDEDEDED6D6D2C2DEDED2B
:10130E00EDEDEDEDEDED2D2C6D6D6DEDEDEDEDED00
:10131E000DFDFD01FFFFFFFFFFFFFFFFFFFFFFFFC3
:10132E00FFFFFFFFFFFFFFFFFFFFFFFFFFFFFFFFBF
:10133E00FF00FFFF80BFBFBFBCBCBEBEB3ADAFB72B
:10134E00BBB9B7AFAFB5BBBFBEBEBEBFBFBFBFBFE2
:10135E0080FFFF00FFFFFFFFFFFFFFFFFFFFFFFF0D
:10136E00FFFFFFFFFFFFFFFFFFFFFFFFFFFFFFFF7F
:10137E00FFFCFDFDFDFDCDC1F1FDFDFDFDFDFDFD06
:10138E00FDFDFDFDFDFDFDFDF1C1CDFDFDFDFDFDF7
:10139E00FDFDFDFCFFFFFFFFFFFFFFFFFFFFFFFF58
:1013AE00FFFFFFFFFFFFFFFFFFFFFFFFFFFFFFFF3F
:1013BE00FFFFFFFFFFFFFFFFFFFFFFFFFFFFFF7FAF
:1013CE00BFBF7FFFFFFFFFFFFFFFFFFFFFFFFFFF1F
:1013DE00FFFFFFFFFFFFFF7FBFBF7FFFFFFFFFFF8F
:1013EE00FFFFFFFFFFFFFFFFFFFFFFFFFFFFFFFFFF
:1013FE00FFFFFFFFFF0703010101010307010603C2
:10140E00010101010307FFFFFFFFFFFFFF070301BC
:10141E000101010307010603010171F9FFFFFFFF3F
:10142E00FFFFFFFFFFFFFFFFFFFFFFFFFFFFFFFFBE
:10143E00FFFFFFFFFFF0E0C0808080808080808013
:10144E00808080C0E0F0FFFFFFFFFFFFFFF0E0C0F5
:10145E008080808080808080808080C0E0F0FFFF70
:10146E00FFFFFFFFFFFFFFFFFFFFFFFFFFFFFFFF7E
:10147E00FFFFFFFFFFFFFFFFFFFFFFFFFFFFFFFF6E
:10148E00FFFFFFFFFFFFFFFFFFFFFFFFFFFFFFFF5E
:10149E00FFFFFFFFFFFFFFFFFFFFFFFFFFFFFFFF4E
:1014AE00FFFFFFFFFFFFFFFFFFFFFFFFFFFFFFFF3E
:1014BE00FFFFFFFFFFFFFFFFFFFFFFFFFFFF7F7F2E
:1014CE007F7F7F7F7F7F7F7F7F7F7F7F7FFFFFFF9E
:1014DE00FFFFFFFFFFFFFFFFFFFFFFFFFFFFFFFF0E
:1014EE00FFFFFFFFFFFFFFFFFFFFFFFFFFFFFFFFFE
:1014FE00FFFFBF1F4FE7F3FBF9FDFDFCFEBE1E0F06
:10150E000703010140E0F0E0410103070E1EBEFC9F
:10151E00FDFDF9FBF3E74F1FBFFFFFFFFFFFFFFFCF
:10152E00FFFFFFFFFFFFFFFFFFFFFFFFFFFFFFFFBD
:10153E00FFFFFFFFFEFCF9FBF3F7F7E7EFEFCFDE60
:10154E00DCD8D0D0C0C0C1C0D0D0D8DCCEEFEFE751
:10155E00F7F7F3FBF9FCFEFFFFFFFFFFFFFFFFFFB7
:10156E00FFFFFFFFFFFFFFFFFFFFFFFFFFFFFFFF7D
:10157E00FFFFFFFFFFFFFFFFFFFFFFFFFFFFFFFF6D
:10158E00FFFFFFFFFFFFFFFFFFFFFFFFFFFFFFFF5D
:10159E00FFFFFFFFFFFFFFFFFFFFFFFFFFFFFFFF4D
:0A15AE00FFFFFFFF003F073E0001B2
:1023CE00011004010E05011C00010F00C107C10818
:1023DE00010A01011600C100010D00010B00010CE4
:0A23EE0000011300C183C105C10600
:101BB900300013E50DC394FF5004050D8008C200E1
:101BC900E4F50D75100BE5166003021DE7C374FFFC
:101BD900958A24EC7003021D6B24E27003021C73C6
:101BE90024CE7003021CEF24636003021E5A75168B
:101BF90001858A26C374FF9526F52575F005842489
:101C090021F52685250BF50C131313541FF526E42E
:101C1900F527E5252527FFE433FEC3EF9440EE645D
:101C290080948050097F011224D0C20B800D74C0AA
:101C39002525F5257F021224D0D20BE52525274439
:101C490040FF122417E52644B8FF122417E5279010
:101C5900129293FF120006300B0674402525F525D4
:101C69000527E527C3940840A922751602858A2607
:101C7900C374FF9526F52575F005842421F526857D
:101C8900250BF50C131313541FF526E4F527E52549
:101C99002527FFE433FEC3EF9440EE64809480501F
:101CA900097F011224D0C20B800D74C02525F525AA
:101CB9007F021224D0D20BE52525274440FF1224A8
:101CC90017E52644B8FF122417E52790129A93FFC7
:101CD900120006300B0674402525F5250527E52752
:101CE900C3940840A922751603858A26C374FF95F3
:101CF90026F52575F005842421F52685250BF50C97
:101D0900131313541FF526E4F527E5252527FFE4CA
:101D190033FEC3EF9440EE6480948050097F011232
:101D290024D0C20B800D74C02525F5257F0212240D
:101D3900D0D20BE52525274440FF122417E5264478
:101D4900B8FF122417E5279012A293FF120006305C
:101D59000B0674402525F5250527E527C39408407A
:101D6900A922751604858A26C374FF9526F525755B
:101D7900F005842421F52685250BF50C131313543E
:101D89001FF526E4F527E5252527FFE433FEC3EFF4
:101D99009440EE6480948050097F011224D0C20BD4
:101DA900800D74C02525F5257F021224D0D20BE5BC
:101DB9002525274440FF122417E52644B8FF12249D
:101DC90017E5279012AA93FF120006300B067440FC
:101DD9002525F5250527E527C3940840A922E513FC
:101DE900D39464406A850B25850C26E526131313C5
:101DF900541FF526E4F527E5252527FFE433FEC31F
:101E0900EF9440EE6480948050097F011224D0C27F
:101E19000B800D74C02525F5257F021224D0D20B25
:101E2900E52525274440FF122417E52644B8FF126B
:101E39002417E4FF120006300B0674402525F5250A
:101E49000527E527C3940840AEE4F513F5162205E6
:011E59001375
:011E5A002265
:10239800E4FF1224D0752904E4F52AE52944B8FF9E
:1023A800122417E52A4440FF122417E4FF120006FE
:1023B800052AE52AC3944040E20529E529C3940883
:0223C80040D6FD
:0123CA0022F0
:021E5B008F25D1
:101E5D00122398E4F528E4F527E4F526C20BE528CE
:101E6D0075F00FA424142527F52774042526F526CF
:101E7D00E527C3944050077F011224D0800D7F02C7
:101E8D001224D074C02527F527D20BE52644B8FFC0
:101E9D00122417E5274440FF122417300B06744017
:101EAD002527F527E52875F00FA42414FFC3E52792
:101EBD009FF52774FC2526F526E528C3940575F0B6
:101ECD000CE526501EA42527F582E435F0F5837523
:101EDD00F024E528122539E582244EF582E5833478
:101EED000E801CA42527F582E435F0F58375F024CA
:101EFD00E525122539E58224DAF582E583340FF5DF
:101F0D0083E493FF1200060526E526C394035003D0
:101F1D00021E690527E527C3940C5003021E6605B2
:0B1F2D0028E528C394065003021E6341
:011F38002286
:021F39008F25F2
:101F3B00122398E4F528E4F527E4F526C20BE528EF
:101F4B0075F00FA424142527F52774042526F526F0
:101F5B00E527C3944050077F011224D0800D7F02E8
:101F6B001224D074C02527F527D20BE52644B8FFE1
:101F7B00122417E5274440FF122417300B06744038
:101F8B002527F527E52875F00FA42414FFC3E527B3
:101F9B009FF52774FC2526F526E528C3940675F0D6
:101FAB000CE526501EA42527F582E435F0F5837544
:101FBB00F024E528122539E5822402F582E58334E5
:101FCB000F801CA42527F582E435F0F58375F024EA
:101FDB00E525122539E58224DAF582E583340FF500
:101FEB0083E493FF1200060526E526C394035003F2
:101FFB00021F470527E527C3940C5003021F440516
:0B200B0028E528C394075003021F4182
:0120160022A7
:1020C400E4FF1224D0E4F525E4F526E52544B8FF21
:1020D400122417E5264440FF122417E50A24FE6063
:1020E4000714601F2402803675F040E525A42526D8
:1020F400F582E435F0F583E58224B2F582E5833494
:1021040013803475F040E525A42526F582E435F0E6
:10211400F583E58224B2F582E5833414801975F0E1
:1021240040E525A42526F582E435F0F583E58224EF
:10213400B2F582E5833412F583E493FF12000605B9
:1021440026E526C3944040830525E525C394045021
:04215400030220CC96
:012158002264
:1021E500851028751002752501AF251224D0E4F558
:1021F50026E4F527E52644B8FF122417E5274440D1
:10220500FF122417122493EF600585281080090515
:1022150027E527C3944040DCE510652860090526BD
:10222500E526C3940440CAE510652860090525E53F
:0622350025C3940340B331
:01223B002280
:10223C00E50A24FE600714600C24028010751B0252
:10224C00751114800E751B0375110C8006751B011E
:10225C007511189015B2E493F519A3E493F51A854A
:10226C001B12851117A2039204E4F525E525C395ED
:10227C0017500EE5192525FFAD1A12235C05258094
:01228C00EB66
:01228D00222E
:10201700300463C374809517C39512FFE519D39FE6
:1020270040030220C3E5172512FFE433FED3EF94E4
:1020370080EE6480948040030220C3752501E51279
:102047002401FFE433FEC3E5259FEE6480F8748026
:1020570098501CE519252514FFAD1A12231FE51901
:102067002517142525FFAD1A12235C052580CFE51A
:10207700122519F51922C3E51995127480F89840AD
:102087003B752501E5122401FFE433FEC3E5259FD7
:10209700EE6480F8748098501CE5192517C39525C0
:1020A700FFAD1A12231FC3E5199525FFAD1A122399
:0C20B7005C052580CFC3E5199512F519D2
:0120C30022FA
:1022DD009015B4E493F514A3E493F515A3E493F5E5
:1022ED0008A3E493F509A2059201A2069202AD1589
:1022FD00AF1412235CE51514FDAF1412235CE51425
:10230D0004FFAD1512235CE51404FFE51514FD0261
:02231D00235C3F
:10244E00AD15AF1412231FE51404FFAD1512231F93
:10245E00E51514FDAF1412231FE51404FFE5151442
:04246E00FD02231F29
:1015B800E4F5902002030216DBE51524FEFDAF14C6
:1015C80012228E4016E51404FFE51524FEFD1222B2
:1015D8008E4008E515146003021807E515D3942218
:1015E800500302169CE515943E400302169CE51430
:1015F800C3947E400302169CE5149400500302161F
:101608009CE50C131313541FF50CE4F525E50B2585
:1016180025FFE433FEC3EF9440EE648094805009C4
:101628007F011224D0C20D800D74C0250BF50B7FED
:10163800021224D0D20DE50B25254440FF122417B1
:10164800E50C44B8FF122417E4FF120006300D061B
:101658007440250BF50B0525E525C3940840AEE538
:101668000C75F008A4F50CE4F513E51624FE6012D9
:1016780014601514601824037017D200751007023F
:1016880017B27510080217B27510090217B2751053
:101698000A0217B2759004E515146032E51524FEA8
:1016A800FDAF1412231FE51404FFE51524FEFD12F7
:1016B800231FE51524FE6016E51524FDFDAF141261
:1016C800231FE51404FFE51524FDFD12231FB202B4
:1016D800021807E51504FDAF1412228E4010E51418
:1016E80004FFE51504FD12228E4003021807E515D4
:1016F800643F7003021804E515D3942250030217BF
:10170800B7E515943E40030217B7E514C3947E402D
:10171800030217B7E514940050030217B7E50C133A
:101728001313541FF50CE4F525E50B2525FFE433C9
:10173800FEC3EF9440EE6480948050097F01122428
:10174800D0C20D800D74C0250BF50B7F021224D07A
:10175800D20DE50B25254440FF122417E50C44B8AB
:10176800FF122417E4FF120006300D067440250B03
:10177800F50B0525E525C3940840AEE50C75F00882
:10178800A4F50CE4F513E51624FE60111460131497
:10179800601524037014D200751007800D751008A9
:1017A8008008751009800375100AE4F516805075D5
:1017B8009004E5152401FFE433FEEF651A7001EE8D
:1017C800602CE51504FDAF1412231FE51404FFE592
:1017D8001504FD12231FE5152402FDAF1412231F63
:1017E800E51404FFE5152402FD12231F800A7590F5
:1017F80005851208A2049201B2028003E4F510E5FF
:101808001064016003021BB820010302192EE514BD
:101818002402FFAD1512228E401FE5142402FFE5B5
:101828001514FD12228E4011E5142401FFE433FE45
:10183800EF647F4E6003021A3BE515D394225003F0
:101848000218FAE515943E40030218FAE514C39409
:101858007E40030218FAE514940050030218FAE5D2
:101868000C131313541FF50CE4F525E50B2525FF80
:10187800E433FEC3EF9440EE6480948050097F0106
:101888001224D0C20D800D74C0250BF50B7F0212F7
:1018980024D0D20DE50B25254440FF122417E50C72
:1018A80044B8FF122417E4FF120006300D067440F6
:1018B800250BF50B0525E525C3940840AEE50C7509
:1018C800F008A4F50CE4F513E51624FE6012146084
:1018D8001514601824037017D200751007021A0037
:1018E800751008021A00751009021A0075100A020C
:1018F8001A00759004E5142402FFAD1512231FE5A4
:10190800142402FFE51514FD12231FE5142403FF18
:10191800AD1512231FE5142403FFE51514FD12234A
:101928001FB201021A3BE51414FFAD1512228E40B6
:1019380014E51414FFE51514FD12228E4007E51472
:101948006003021A3BE515D394225003021A05E5F9
:1019580015943E4003021A05E514C3947E40030221
:101968001A05E51494005003021A05E50C13131325
:10197800541FF50CE4F525E50B2525FFE433FEC3DC
:10198800EF9440EE6480948050097F011224D0C205
:101998000D800D74C0250BF50B7F021224D0D20DDB
:1019A800E50B25254440FF122417E50C44B8FF1227
:1019B8002417E4FF120006300D067440250BF50BC2
:1019C8000525E525C3940840AEE50C75F008A4F597
:1019D8000CE4F513E51624FE601114601314601569
:1019E80024037014D200751007800D751008800844
:1019F800751009800375100AE4F516803675900491
:101A0800E514602D14FFAD1512231FE51414FFE52E
:101A18001514FD12231FE514146016E51424FEFFA7
:101A2800AD1512231FE51424FEFFE51514FD12233E
:101A38001FB201C20B300262752501E5092401FFBE
:101A4800E433FEC3E5259FEE6480F8748098503C2B
:101A5800E51514C39525FD700BD20BC3E515952527
:101A6800F5158028AF1412228E400FE51404FFE507
:101A780015149525FD12228E500ED20BE52514FF64
:101A8800C3E5159FF5158004052580AFA20BB3505B
:101A980055C3E5159509F515804C752501E509240B
:101AA80001FFE433FEC3E5259FEE6480F874809857
:101AB8005029E5152525FDAF1412228E400EE51498
:101AC80004FFE5152525FD12228E500BD20BE525C6
:101AD800142515F5158004052580C2A20BB3500600
:101AE800E5092515F515C20C30016C752501E509C8
:101AF8002401FFE433FEC3E5259FEE6480F874807B
:101B0800985048E5142401FFE433FE7C00EF2525B6
:101B1800FFEC3EFEEF647F4E7006D20CE525802177
:101B2800E514042525FFAD1512228E400FE5140497
:101B38002525FFE51514FD12228E500BD20CE52544
:101B4800142514F5148004052580A3A20CB3506055
:101B5800E5082514F51422752501E5092401FFE49B
:101B680033FEC3E5259FEE6480F87480985035C332
:101B7800E5149525FF7006D20C8F148027AD151239
:101B8800228E400EE5149525FFE51514FD12228ED0
:101B9800500ED20CE52514FFC3E5149FF5148004FC
:101BA800052580B6A20CB35007C3E5149508F514B3
:011BB800220A
:1024240012244E1215B8AD15AF1412235CE5151421
:10243400FDAF1412235CE51404FFAD1512235CE513
:0A2444001404FFE51514FD02235CEB
:10001E00E51064016002051CE51064046003020231
:10002E0030759001200805F51CD208223007030216
:10003E000228E51CC39450400302010DE51C75F027
:10004E000A84F522E51C75F00A842401FFE433FED0
:10005E00C3E5229FEE6480F87480984003020D2D54
:10006E00E4F524E4F523C209E52275F00FA4240576
:10007E002524F5240523C3944050077F011224D074
:10008E00800D7F021224D074C02524F524D209E5F8
:10009E002344B8FF122417E5244440FF12241730DE
:1000AE00090674402524F524E52275F00FA42405D5
:1000BE00FFC3E5249FF5241523FF75F00CE523A45B
:1000CE002FF582E435F0F58375F024E522122539FB
:1000DE00E58224B2F582E5833410F583E493FF12B2
:1000EE0000060523E523C394035003020074052480
:1000FE00E524C3940C50030200710522020052E560
:10010E001CD39450500302021BE51C94784003024A
:10011E00021BE4FF1224D0752304C37490951CF5C2
:10012E0024E524C394405019E52344B8FF12241744
:10013E00E5244440FF122417E4FF12000605248034
:10014E00E00523E523C3940640D0E4F522E4F5242C
:10015E00E4F523C209C374CF951CFFE52275F007A1
:10016E00A42F2524F52474042523F523E524C39414
:10017E004050077F011224D0800D7F021224D074CC
:10018E00C02524F524D209E524C39440505AE52312
:10019E0044B8FF122417E5244440FF1224173009F7
:1001AE000674402524F524C374CF951CFFE52275F3
:1001BE00F007A42FFFC3E5249FF52474FC2523F537
:1001CE002375F006A42524F582E435F0F58375F049
:1001DE000CE522122539E58224D2F582E58334110D
:1001EE00F583E493FF1200060523E523C394025022
:1001FE00030201610524E524C39406500302015E47
:10020E000522E522C39405500302015B22E51CD3AF
:10021E0094785003020D2DD20722751005C207C225
:10022E000822E5106405600302039220080302030E
:10023E00F3D2B420B40FE4F5901224721220C475D8
:10024E001006C20822E51CD394144003020C27E5C5
:10025E001CD3940A406BE51C941450657F01122444
:10026E00D0752306752414E52344B8FF122417E530
:10027E00244440FF122417E4FF1200060524E5244F
:10028E00C3944040E20523E523C3940840D67F0281
:10029E001224D0752306E4F524E52344B8FF122476
:1002AE0017E5244440FF122417E4FF12000605242C
:1002BE00E524C3942B40E20523E523C3940840D6DE
:1002CE0022E51CC3941E4003020D2DE4F522E4F535
:1002DE0024E4F523C209E52275F007A4241425248D
:1002EE00F52474062523F523E524C3944050077F97
:1002FE00011224D0800D7F021224D074C02524F563
:10030E0024D209E524C394405055E52344B8FF1286
:10031E002417E5244440FF122417300906744025A3
:10032E0024F524E52275F007A42414FFC3E5249FC9
:10033E00F52474FA2523F52375F006A42524F582F9
:10034E00E435F0F58375F00CE522122539E58224AB
:10035E000EF582E5833412F583E493FF1200060551
:10036E0023E523C3940250030202E20524E524C3CD
:10037E00940650030202DF0522E522C3940B5003BC
:10038E000202DC22E5106406702975900220070235
:10039E00F51C750F1EE51CC3950F500E300703029A
:1003AE000D2DAF0A121F39D2072212239875100392
:1003BE00C20722E51064037020200702F51C750F9A
:1003CE001EE51CC3950F5009300703020D2D020BBD
:1003DE0021D28CE4F590020B29E51064076003022C
:1003EE0004B6200805D208F51C22E51CC394325031
:1003FE003FE51C75F00A84E5F0701AF522E522C37C
:10040E0095174003020D2DE5222519FFAD1A122373
:10041E001F052280E8E4F522E522C395174003026A
:10042E000D2DE5222519FFAD1A12235C052280E859
:10043E00E51CB4320A751780851918E4F51922E502
:10044E001CC39464503FE51C75F00A84E5F0701AE5
:10045E00F522E522C395174003020D2DE52225193D
:10046E00FFAD1A12231F052280E8E4F522E522C310
:10047E0095174003020D2DE5222519FFAD1A122303
:10048E005C052280E8E4F522E522C39517500EE5BF
:10049E00222519FFAD1A12235C052280EBC20875C6
:1004AE001001E4F50DD20022E51064086003020588
:1004BE0088C374FF958AC394555005E4F5238003D1
:1004CE007523022008030206E4E51CC39432507320
:1004DE00E51C75F00A84E5F07034F522E4F524E4A9
:1004EE00FF1224D0E523252244B8FF122417E52459
:1004FE004440FF122417E4FF1200060524E524C32E
:10050E00944040DB0522E522C3940240CF22E4F55D
:10051E0022E4F524E4FF1224D0E523252244B8FF7B
:10052E00122417E5244440FF1224177FFF12000601
:10053E000524E524C3944040DB0522E522C3940242
:10054E0040CF22E4F522E4F524E4FF1224D0E52383
:10055E00252244B8FF122417E5244440FF12241725
:10056E00E4FF1200060524E524C3944040DB052277
:10057E00E522C3940240CF0208E7E5106409600348
:10058E000206C9850B23850C24E524131313541F6F
:10059E00F5242008030206E4E51CC394324003024E
:1005AE00066EE51C75F00A84E5F07059F522E52318
:1005BE002522FFE433FEC3EF9440EE648094805016
:1005CE00097F011224D0C20A800D74C02523F523A1
:1005DE007F021224D0D20AE52325224440FF1224A2
:1005EE0017E52444B8FF122417901292E493FF12D9
:1005FE000006300A0674402523F5230522E522C3A2
:10060E00940840AA22E4F522E5232522FFE433FED6
:10061E00C3EF9440EE6480948050097F011224D081
:10062E00C20A800D74C02523F5237F021224D0D276
:10063E000AE52325224440FF122417E52444B8FF7F
:10064E00122417E5229012A293FF120006300A061A
:10065E0074402523F5230522E522C3940840A922E0
:10066E00E4F522E5232522FFE433FEC3EF9440EEAA
:10067E006480948050097F011224D0C20A800D74C8
:10068E00C02523F5237F021224D0D20AE52325228A
:10069E004440FF122417E52444B8FF122417E4FF48
:1006AE00120006300A0674402523F5230522E522A2
:1006BE00C3940840AEC20875100222E510640A60A9
:1006CE000302080C850B23850C24E5241313135405
:1006DE001FF524200805D208020C27E51CC394320E
:1006EE0040030207B1E51C75F00A84E5F07059F578
:1006FE0022E5232522FFE433FEC3EF9440EE64800F
:10070E00948050097F011224D0C20A800D74C02536
:10071E0023F5237F021224D0D20AE523252244405A
:10072E00FF122417E52444B8FF122417901292E406
:10073E0093FF120006300A0674402523F523052286
:10074E00E522C3940840AA22E4F522E5232522FFE0
:10075E00E433FEC3EF9440EE6480948050097F0131
:10076E001224D0C20A800D74C02523F5237F0212F5
:10077E0024D0D20AE52325224440FF122417E52473
:10078E0044B8FF122417E5229012AA93FF12000616
:10079E00300A0674402523F5230522E522C394086A
:1007AE0040A922E4F522E5232522FFE433FEC3EF20
:1007BE009440EE6480948050097F011224D0C20AC6
:1007CE00800D74C02523F5237F021224D0D20AE5B2
:1007DE002325224440FF122417E52444B8FF122497
:1007EE0017E4FF120006300A0674402523F5230590
:1007FE0022E522C3940840AEC208E4F51022E510AB
:10080E00640B60030208ED200807D208F51CC20035
:10081E0022E51CC39432503FE51C75F00A84E5F0C6
:10082E00701AF522E522C395174003020D2DE5221D
:10083E002519FFAD1A12231F052280E8E4F522E5E3
:10084E0022C395174003020D2DE5222519FFAD1A7F
:10085E0012235C052280E8E51CB4321FE4F522E584
:10086E0022C39517500EE5222519FFAD1A12231F2C
:10087E00052280EB85111785181922E51CC3946497
:10088E00503FE51C75F00A84E5F0701AF522E5225A
:10089E00C395174003020D2DE5222519FFAD1A123F
:1008AE00231F052280E8E4F522E522C395174003B5
:1008BE00020D2DE5222519FFAD1A12235C052280AB
:1008CE00E8E4F522E522C39517500EE5222519FF1F
:1008DE00AD1A12235C052280EBC20875100122129C
:1008EE0021E5E510B4010C759003121BB912201707
:1008FE00022424E5106003020B38759006E50E60A5
:10090E0003020B09750A01750E05200702F51CE599
:10091E001CC3941E5009300703020D2D020B21E556
:10092E001C641E60030209E3122472E4F522E4F54E
:10093E0024E4F523C209E52275F014A4241E25240F
:10094E00F5240523C3944050077F011224D0800D57
:10095E007F021224D074C02524F524D209E5234445
:10096E00B8FF122417E5244440FF1224173009065D
:10097E0074402524F524E52275F014A4241EFFC32B
:10098E00E5249FF5241523FF75F00CE523A42FF520
:10099E0082E435F0F58375F024E522122539E582DF
:1009AE0024BEF582E583340DF583E493FF12000631
:1009BE000523E523C3940350030209420524E524CD
:1009CE00C3940C500302093F0522E522C394045040
:1009DE000302093C22E51CD3941E5003020D2DD2B6
:1009EE00B420B409122472751004C20722E51CD378
:1009FE0094324004751C1F22E51CD394284039E51F
:100A0E001C94325033E4FF1224D0752306E4F524EF
:100A1E00E52344B8FF122417E5244440FF1224179F
:100A2E00E4FF1200060524E524C3944040E20523AA
:100A3E00E523C3940840D622E51CC3942840030244
:100A4E000D2DE4F522E4F524E4F523C209E5227523
:100A5E00F007A424142524F52474062523F523E594
:100A6E0024C3944050077F011224D0800D7F0212C0
:100A7E0024D074C02524F524D209E524C394405013
:100A8E0055E52344B8FF122417E5244440FF1224F1
:100A9E001730090674402524F524E52275F007A4C5
:100AAE002414FFC3E5249FF52474FA2523F523753A
:100ABE00F006A42524F582E435F0F58375F00CE5F7
:100ACE0022122539E582240EF582E5833412F58350
:100ADE00E493FF1200060523E523C394025003029C
:100AEE000A590524E524C394065003020A5605222A
:100AFE00E522C3940B5003020A5322200705E4F5A6
:100B0E001C150E750F1EE51CC3950F500E300703F6
:100B1E00020D2DAF0E121E5BD20722122398122247
:100B2E00DD12223C751001C20722E510640260033B
:100B3E00020D2D759007300703020BFBD207F51C33
:100B4E00122472E4F522E4F524E4F523C209E52229
:100B5E0075F014A4241E2524F5240523C3944050B7
:100B6E00077F011224D0800D7F021224D074C0257D
:100B7E0024F524D209E52344B8FF122417E52444B2
:100B8E0040FF12241730090674402524F524E5226F
:100B9E0075F014A4241EFFC3E5249FF5241523FF2E
:100BAE0075F00CE523A42FF582E435F0F58375F08E
:100BBE0024E522122539E582242EF582E583340DB3
:100BCE00F583E493FF1200060523E523C394035037
:100BDE0003020B5A0524E524C3940C5003020B5751
:100BEE000522E522C394045003020B5422D2B420F2
:100BFE00B420122472E50AC39403500A050A122087
:100C0E00C47510068009750A01750E05751004C2AB
:100C1E000722E51CD394144004E4F51C22E51CD3F2
:100C2E00940A4039E51C94145033E4FF1224D07515
:100C3E002306E4F524E52344B8FF122417E52444E3
:100C4E0040FF122417E4FF1200060524E524C39486
:100C5E004040E20523E523C3940840D622E51CC399
:100C6E00941E4003020D2DE4F522E4F524E4F52351
:100C7E00C209E52275F007A424142524F524740670
:100C8E002523F523E524C3944050077F011224D079
:100C9E00800D7F021224D074C02524F524D209E5DC
:100CAE0024C394405055E52344B8FF122417E5247D
:100CBE004440FF12241730090674402524F524E51C
:100CCE002275F007A42414FFC3E5249FF52474FABB
:100CDE002523F52375F006A42524F582E435F0F5D9
:100CEE008375F00CE522122539E582240EF582E596
:100CFE00833412F583E493FF1200060523E523C324
:100D0E0094025003020C7E0524E524C3940650037E
:0F0D1E00020C7B0522E522C3940B5003020C78D4
:010D2D0022A3
:062561001224FD022472A9
:0300000002215981
:0C215900787FE4F6D8FD75812B0221A0F0
:0C253900A42582F582E5F03583F58322AD
:102165000224E8E493A3F8E493A34003F68001F284
:1021750008DFF48029E493A3F85407240CC8C3337B
:10218500C4540F4420C8834004F456800146F6DF4A
:10219500E4800B01020408102040809023CBE47EEC
:1021A500019360BCA3FF543F30E509541FFEE4933F
:1021B500A360010ECF54C025E060A840B8E493A306
:1021C500FAE493A3F8E493A3C8C582C8CAC583CA31
:1021D500F0A3C8C582C8CAC583CADFE9DEE780BEE9
:0123F80000E4
:00000001FF
