:0806F000C2A1C2A08E80D2A0BD
:0206F8000022DE
:10069600EF7005C2A4C2A322BF0105C2A4D2A32241
:0806A600BF0204D2A4C2A3228A
:10066100D2A1C2A2C2A0D2A0E58030E70CC2A0AF45
:0B067100190519EFD3940A40EDC2A058
:01067C00225B
:10058E00EEC41313540304FF120696EE543FFCED13
:0E059E00131313541FFBED5407FDEB44B8FF7D
:0D05AC00AE07120661C2A21206F0C2A02224
:0D000600AE07120661D2A21206F0C2A022BF
:1006C3007F3F1205AC7FC01205AC7FB81205AC7F2B
:0406D300400205AC30
:1005E100E4FF1206967DB8AF051205AC7F401205F7
:1005F100ACE4FCE4FF1200060CBC40F70DBDC0E703
:0106010022D6
:10060200120661D2A2D2A17580FFD2A0AF80C2A091
:10061200120661D2A2D2A17580FFD2A0AF80C2A081
:0106220022B5
:02055200AE07F2
:10055400EEC394805033EDC39440502D12058EECBD
:100564004440FF1205AC120602AA07AF057401A8A5
:1005740007088002C333D8FC42021205A8EC4440A9
:09058400FF1205ACAF02120006E3
:01058D00224B
:02051500AE072F
:10051700EEC394805034EDC39440502E12058EECF8
:100527004440FF1205AC120602AA07AF057401A8E2
:1005370007088002C333D8FCF452021205A8EC4422
:0A05470040FF1205ACAF02120006DF
:010551002287
:02047700AE07CE
:10047900EEC394805042EDC39440503CEEC4131334
:10048900540304FF120696EE543FFCED1313135464
:100499001FFFED5407FDEF44B8FF1205ACEC4440D3
:1004A900FF1205AC120602AE05EFA806088002C3CA
:0C04B90013D8FC1392058002D205A205A6
:0104C5002214
:03062300011A00B9
:0C06E400758910758D63758BC0D28E2255
:05001600D288D28A220D
:0906FA00D2AFD2ABD2A8D2AA22E1
:090703001206E41200160206FAC7
:1006AE00120703120715E51AC3940340F91202ED5F
:0506BE00E4F51A80F1D3
:03001B0002070CCD
:09070C00051A758D63758BC0326E
:03000300020725CC
:03072500C20232DB
:03001300020728B9
:03072800D20232C8
:1001ED00FFFFFFFFFFFFFFFFFFFFFFFFFFFFFFFF12
:1001FD00FFF7EFEFDFDFBF7FFFFFFFFFFFFFFFFF2A
:10020D00FFFFFF7F9FE7FBFDFFFFFFFFFFFFFFFFEF
:10021D00FFFFFFFFFFFFFFFFFFFFFFFFFFFFFFFFE1
:10022D00FFFFFFFFFFFFFFFFFFFFFFFFFF01FDFDD3
:10023D000DEDEDEDEDED6D6D2C2DEDEDEDEDEDED42
:10024D00EDED2D2C6D6D6DEDEDEDEDED0DFDFD017E
:10025D00FFFFFFFFFFFFFFFFFFFFFFFFFFFFFFFFA1
:10026D00FFFFFFFFFFFFFFFFFFFFFFFFFF00FFFF90
:10027D0080BFBFBFBCBCBEBEB3ADAFB7BBB9B7AF20
:10028D00AFB5BBBFBEBEBEBFBFBFBFBF80FFFF0010
:10029D00FFFFFFFFFFFFFFFFFFFFFFFFFFFFFFFF61
:1002AD00FFFFFFFFFFFFFFFFFFFFFFFFFFFCFDFD58
:1002BD00FDFDCDC1F1FDFDFDFDFDFDFDFDFDFDFDD9
:1002CD00FDFDFDFDF1C1CDFDFDFDFDFDFDFDFDFCCA
:1002DD00FFFFFFFFFFFFFFFFFFFFFFFFFFFFFFFF21
:10062600010A01020F003F010B01010E10C18202F7
:0B0636000C073E02080001C100C101DA
:1004C600E4FF120696E4F511E4F512E51144B8FFCF
:1004D6001205ACE5124440FF1205AC75F040E5117B
:1004E600A42512F582E435F0F583E58224EDF58244
:1004F600E5833401F583E493FF1200060512E51245
:0E050600C3944040C60511E511C3940440BAE9
:0105140022C4
:10042000850A18750A02751501AF15120696E4F5CE
:1004300016E4F517E51644B8FF1205ACE51744407D
:10044000FF1205AC120602EF600585180A80090547
:1004500017E517C3944040DCE50A651860090516E6
:10046000E516C3940440CAE50A651860090515E558
:0604700015C3940340B324
:010476002263
:090715001206C31205E10204C63C
:10067D00E4F516E516C3950E500EE50F2516FFADE4
:08068D0010120515051680EBA3
:010695002242
:1005B900300213C37471950BFFE50FD39F5018E5F3
:1005C9000B250FF50F22C3E50F950B7480F89840A2
:0805D90006E50F950BF50F225A
:1006420012067D1205B9E4F515E515C3950E500E97
:0E065200E50F2515FFAD10120552051580EBC2
:010660002277
:07071E00AD0DAF0C02051543
:10001E0030011CE50D14FDAF0C1204774004E50D04
:10002E007047E50D14FDAF0C120515B201803AE5CF
:10003E000D04FDAF0C120477502FE50D643F6026C2
:10004E00E50D2401FFE433FEEF65107001EE600B49
:10005E00E50D04FDAF0C1205158007850B08A202F5
:10006E009200B2018003E4F50AE50A64016003021E
:10007E0001EC300016E50C04FFAD0D1204774006BE
:10008E00E50C647F701FE50C048012E50C14FFADC7
:10009E000D1204774004E50C700BE50C14FFAD0D4A
:1000AE00120515B200C203300153751501E509247E
:1000BE0001FFE433FEC3E5159FEE6480F87480986B
:1000CE00502DC3E50D9515FF7006D2038F0D801FC1
:1000DE00C3E50D9515FDAF0C120477500ED203E556
:1000EE001514FFC3E50D9FF50D8004051580BEA206
:1000FE0003B35047C3E50D9509F50D803E75150107
:10010E00E5092401FFE433FEC3E5159FEE6480F894
:10011E00748098501BE50D2515FDAF0C1204775019
:10012E000BD203E51514250DF50D8004051580D0B1
:10013E00A203B35006E509250DF50DC20430005398
:10014E00751501E5092401FFE433FEC3E5159FEEA5
:10015E006480F8748098502FE50C2515FFE433FE6B
:10016E00EF647F4E7006D204E5158011E50C25155F
:10017E00FFAD0D120477500BD204E51514250CF5C6
:10018E000C8004051580BCA204B35052E508250C62
:10019E00F50C22751501E5092401FFE433FEC3E5D4
:1001AE00159FEE6480F87480985027C3E50C951562
:1001BE00FF7006D2048F0C8019AD0D120477500E0D
:1001CE00D204E51514FFC3E50C9FF50C800405154C
:0E01DE0080C4A204B35007C3E50C9508F50CCD
:0101EC0022F0
:0D06D70012071E12001EAD0DAF0C020552E1
:1002ED00120420E50AB401061206420206D7E50AF9
:1002FD007047FF120696E4F511F512E4F513F514A7
:10030D00E51244B8FF1205ACE5144440FF1205ACEC
:10031D00E4FF1200060514E51470020513C39440A2
:10032D00E513940040DA0512E51270020511C3942D
:10033D0008E511940040C480FEE50A64027047FF91
:10034D00120696E4F511F512E4F513F514E51244D1
:10035D00B8FF1205ACE5144440FF1205AC7FFF1247
:10036D0000060514E51470020513C39440E51394BB
:10037D000040DA0512E51270020511C39408E5116B
:06038D00940040C480FE54
:010393002247
:0300000002039464
:0C039400787FE4F6D8FD7581200203DBC1
:1003A0000206AEE493A3F8E493A34003F68001F2BF
:1003B00008DFF48029E493A3F85407240CC8C3335E
:1003C000C4540F4420C8834004F456800146F6DF2D
:1003D000E4800B0102040810204080900623E47E94
:1003E000019360BCA3FF543F30E509541FFEE49322
:1003F000A360010ECF54C025E060A840B8E493A3E9
:10040000FAE493A3F8E493A3C8C582C8CAC583CA13
:10041000F0A3C8C582C8CAC583CADFE9DEE780BECB
:0106410000B8
:00000001FF
