:081A2D00C2A1C2A08E80D2A06C
:021A350000228D
:1019C700EF7005C2A4C2A322BF0105C2A4D2A322FD
:0819D700BF0204D2A4C2A32246
:1019AB00D2A1C2A2C2A0D2A0E58030E70CC2A0AFE8
:0B19BB002B052BEFD3940A40EDC2A0D7
:0119C60022FE
:1018D300EEC41313540304FF1219C7EE543FFCED77
:0E18E300131313541FFBED5407FDEB44B8FF25
:0D18F100AE071219ABC2A2121A2DC2A0221E
:0D000600AE071219ABD2A2121A2DC2A02211
:1019F4007F3F1218F17FC01218F17FB81218F17FDF
:041A0400400218F193
:10194C00E4FF1219C77DB8AF051218F17F401218C9
:10195C00F1E4FCE4FF1200060CBC40F70DBDC0E73F
:01196C002258
:10196D001219ABD2A2D2A17580FFD2A0AF80C2A0B6
:10197D001219ABD2A2D2A17580FFD2A0AF80C2A0A6
:01198D002237
:02186400AE07CD
:10186600EEC394805033EDC39440502D1218D3EC40
:101876004440FF1218F112196DAA07AF057401A8AA
:1018860007088002C333D8FC42021218EDEC44402C
:09189600FF1218F1AF0212000666
:01189F002226
:02182700AE070A
:10182900EEC394805034EDC39440502E1218D3EC7B
:101839004440FF1218F112196DAA07AF057401A8E7
:1018490007088002C333D8FCF452021218EDEC44A5
:0A18590040FF1218F1AF0212000662
:011863002262
:02179600AE079C
:10179800EEC394805042EDC39440503CEEC4131302
:1017A800540304FF1219C7EE543FFCED13131354EE
:1017B8001FFFED5407FDEF44B8FF1218F1EC444049
:1017C800FF1218F112196DAE05EFA806088002C3C2
:0C17D80013D8FC13920B8002D20BA20B62
:0117E40022E2
:03198E000117003E
:0C1A1500438910758D63758BC0D28E2242
:05001600D288D28A220D
:091A3700D2AFD2ABD2A8D2AA2290
:0D1A0800121A15120016121A377590FF22DF
:1019DF00121A08121A49E517C3940340F91208881E
:0519EF00E4F51780F192
:03001B00021A4086
:091A40000517758D63758BC0322A
:03000300021A4F8F
:031A4F00C203329D
:03001300021A527C
:031A5200D203328A
:10001E0004FCFC040000000004FCFC040003FF8050
:10002E0000FCFC0080FF03000000033F3C03033C88
:10003E003F030000000000040404FCFC0404040060
:10004E00000000000000FFFF000000000000002084
:10005E0020203F3F2020200004FCFCE00000000494
:10006E00FCFC040000FFFF01071C70C0FFFF000036
:10007E00203F3F20000000030F3F00000000000063
:10008E0000FCFEFC00000000000000000003FF0367
:10009E000000000000000000003079300000000079
:1000AE0004FCFC0404040C1870E0800000FFFF0048
:1000BE000000000000FFFF00203F3F2020203018EE
:1000CE000E070100000000040404FCFC04040400FC
:1000DE00000000000000FFFF0000000000000020F4
:1000EE0020203F3F2020200004FCFC0404040404D4
:1000FE000C1C7C0000FFFF0808081C7F000000009D
:10010E00203F3F202020202030383E0000000000FD
:10011E0000FCFEFC00000000000000000003FF03D6
:10012E0000000000000000000030793000000000E8
:10013E0004FCFC04000000000000000000FFFF00B3
:10014E000000000000000000203F3F202020202063
:10015E0030383E00000000040404FCFC04040400DB
:10016E00000000000000FFFF000000000000002063
:10017E0020203F3F2020200004FCFC040404040443
:10018E000C1C7C0000FFFF0808081C7F000000000C
:10019E00203F3F20000000000000000004FCFC0493
:1001AE00040404040C1C7C0000FFFF0808081C7FDC
:1001BE0000000000203F3F202020202030383E004D
:1001CE0000000000000000000000000000C3C3C3D8
:1001DE00C3C3C3C3C3C3C3000000000000000000BC
:1001EE000000000004FCFC04000000000000000001
:1001FE0000FFFF000000000000000000203F3F2035
:10020E002020202030383E0004FCFC0404040404AA
:10021E000C1C7C0000FFFF0808081C7F000000007B
:10022E00203F3F202020202030383E0004FCFC04DC
:10023E0000000004FCFC040000003FFFC000C0FFF3
:10024E003F000000000000031F3C1F0300000000E1
:10025E0004FCFC04040404040C1C7C0000FFFF08D6
:10026E0008081C7F00000000203F3F202020202097
:10027E0030383E0004FCFC040000000000000000CA
:10028E0000FFFF000000000000000000203F3F20A4
:10029E002020202030383E0000000000000000002A
:1002AE000000000000C3C3C3C3C3C3C3C3C3C300A2
:1002BE0000000000000000000000000000C0F03848
:1002CE000C040C38F0C00000FFFF0000000000001E
:1002DE0000FFFF0000030F1C3020301C0F03000036
:1002EE000010101818FCFC000000000000000000B8
:1002FE0000FFFF000000000000002020203F3F20F4
:10030E002020000060F0F80C0404040C18F0E0004B
:10031E0000000080C06030180E070100383E3F33E9
:10032E003030303030303C00003078780C04040C23
:10033E0018F8F0000000000008081C1633E1C00099
:10034E000C1E3E3020202030181F0F000000000031
:10035E0080E038FCFC00000080E0380E030000FF57
:10036E00FF000000010101010121213F3F21210178
:10037E0000FCFC0C0C0C0C0C0C0C0000001F0F08ED
:10038E00040202061CF8E0000C1E3E302020203035
:10039E001C0F030004FCFC0404040C18F0E0000025
:1003AE0000FFFF0808081C1673E18000203F3F2065
:1003BE00202020301C0F030004FCFC0404040C1845
:1003CE00F8E0000000FFFF0838F8CC060701000037
:1003DE00203F3F200000032F3C30200004FCFC0493
:1003EE00040404040C1C7C0000FFFF0808081C7F9A
:1003FE0000000000203F3F202020202030383E000B
:10040E0000000000F00C3CF0000000000000F0FFC7
:10041E0043404043FFF00000203E3F20000000001C
:10042E00203F3E2004FCFC040080E47C1C040400FD
:10043E0000FFFF781E7FE18000000000203F3F207C
:10044E00000001273E382020E0F0180C0404040CB4
:10045E0018F0E000FFFF00000000000000FFFF00AA
:10046E00070F183020202030180F070004FCFC0462
:10047E0000000004FCFC040000FFFF000000000070
:10048E00FFFF0000000F1F30202020301F0F000044
:10049E007C1C0C0404FCFC04040C1C7C00000000FE
:1004AE0000FFFF000000000000000020203F3F2062
:1004BE002000000000FC0202028600000101010083
:1004CE000002FE0200C000010101010100FC020257
:1004DE0002FC00000101010002FE0E7082FE01010D
:1004EE000100010102FE123A028601010101010121
:1004FE000002FE22221C0001010100000008F8107B
:10050E00080800010101010100F028282830000030
:10051E00010101010090282828D8000101010100E5
:10052E000090282828D800010101010000000000D9
:10053E000000000000000000008C921214E6000182
:10054E0000010100000602FE02060000010101008A
:10055E0000C07A4678C001010100010102FE22228C
:10056E00629C010101000000000602FE020600006E
:10057E0001010100FFFFFFFFFFFFFFFFFFFFFFFF76
:10058E00FFFFFFFFFFF7EFEFDFDFBF7FFFFFFFFF95
:10059E00FFFFFFFFFFFFFF7F9FE7FBFDFFFFFFFF5B
:1005AE00FFFFFFFFFFFFFFFFFFFFFFFFFFFFFFFF4D
:1005BE00FFFFFFFFFFFFFFFFFFFFFFFFFFFFFFFF3D
:1005CE00FF01FDFD0DEDEDEDEDED6D6D2C2DEDED68
:1005DE00EDEDEDEDEDED2D2C6D6D6DEDEDEDEDED3E
:1005EE000DFDFD01FFFFFFFFFFFFFFFFFFFFFFFF01
:1005FE00FFFFFFFFFFFFFFFFFFFFFFFFFFFFFFFFFD
:10060E00FF00FFFF80BFBFBFBCBCBEBEB3ADAFB768
:10061E00BBB9B7AFAFB5BBBFBEBEBEBFBFBFBFBF1F
:10062E0080FFFF00FFFFFFFFFFFFFFFFFFFFFFFF4A
:10063E00FFFFFFFFFFFFFFFFFFFFFFFFFFFFFFFFBC
:10064E00FFFCFDFDFDFDCDC1F1FDFDFDFDFDFDFD43
:10065E00FDFDFDFDFDFDFDFDF1C1CDFDFDFDFDFD34
:10066E00FDFDFDFCFFFFFFFFFFFFFFFFFFFFFFFF95
:10067E00FFFFFFFFFFFFFFFFFFFFFFFFFFFFFFFF7C
:10068E00FFFFFFFFFFFFFFFFFFFFFFFFFFFFFF7FEC
:10069E00BFBF7FFFFFFFFFFFFFFFFFFFFFFFFFFF5C
:1006AE00FFFFFFFFFFFFFF7FBFBF7FFFFFFFFFFFCC
:1006BE00FFFFFFFFFFFFFFFFFFFFFFFFFFFFFFFF3C
:1006CE00FFFFFFFFFF0703010101010307010603FF
:1006DE00010101010307FFFFFFFFFFFFFF070301FA
:1006EE000101010307010603010171F9FFFFFFFF7D
:1006FE00FFFFFFFFFFFFFFFFFFFFFFFFFFFFFFFFFC
:10070E00FFFFFFFFFFF0E0C0808080808080808050
:10071E00808080C0E0F0FFFFFFFFFFFFFFF0E0C032
:10072E008080808080808080808080C0E0F0FFFFAD
:10073E00FFFFFFFFFFFFFFFFFFFFFFFFFFFFFFFFBB
:10074E00FFFFFFFFFFFFFFFFFFFFFFFFFFFFFFFFAB
:10075E00FFFFFFFFFFFFFFFFFFFFFFFFFFFFFFFF9B
:10076E00FFFFFFFFFFFFFFFFFFFFFFFFFFFFFFFF8B
:10077E00FFFFFFFFFFFFFFFFFFFFFFFFFFFFFFFF7B
:10078E00FFFFFFFFFFFFFFFFFFFFFFFFFFFF7F7F6B
:10079E007F7F7F7F7F7F7F7F7F7F7F7F7FFFFFFFDB
:1007AE00FFFFFFFFFFFFFFFFFFFFFFFFFFFFFFFF4B
:1007BE00FFFFFFFFFFFFFFFFFFFFFFFFFFFFFFFF3B
:1007CE00FFFFBF1F4FE7F3FBF9FDFDFCFEBE1E0F43
:1007DE000703010140E0F0E0410103070E1EBEFCDD
:1007EE00FDFDF9FBF3E74F1FBFFFFFFFFFFFFFFF0D
:1007FE00FFFFFFFFFFFFFFFFFFFFFFFFFFFFFFFFFB
:10080E00FFFFFFFFFEFCF9FBF3F7F7E7EFEFCFDE9D
:10081E00DCD8D0D0C0C0C1C0D0D0D8DCCEEFEFE78E
:10082E00F7F7F3FBF9FCFEFFFFFFFFFFFFFFFFFFF4
:10083E00FFFFFFFFFFFFFFFFFFFFFFFFFFFFFFFFBA
:10084E00FFFFFFFFFFFFFFFFFFFFFFFFFFFFFFFFAA
:10085E00FFFFFFFFFFFFFFFFFFFFFFFFFFFFFFFF9A
:10086E00FFFFFFFFFFFFFFFFFFFFFFFFFFFFFFFF8A
:0A087E00FFFFFFFF003F073E0001EF
:10199100010D04010B05011600010C00C106C10770
:0919A100010A01C182C104C10563
:1018A000E4FF1219C7752904E4F52AE52944B8FFB5
:1018B0001218F1E52A4440FF1218F1E4FF12000665
:1018C000052AE52AC3944040E20529E529C3940886
:0218D00040D600
:0118D20022F3
:021379008F25BE
:10137B001218A0E4F528E4F527E4F526C209E528C0
:10138B0075F00FA424142527F52774042526F526BC
:10139B00E527C3944050077F011219C7800D7F02C8
:1013AB001219C774C02527F527D209E52644B8FFC3
:1013BB001218F1E5274440FF1218F130090674406A
:1013CB002527F527E52875F00FA42414FFC3E5277F
:1013DB009FF52774FC2526F526E528C3940575F0A3
:1013EB000CE526501EA42527F582E435F0F5837510
:1013FB00F024E528121A21E582243EF582E5833498
:10140B0001801CA42527F582E435F0F58375F024C3
:10141B00E525121A21E58224CAF582E5833402F50B
:10142B0083E493FF1200060526E526C394035003BD
:10143B000213870527E527C3940C50030213840579
:0B144B0028E528C3940650030213811B
:011456002273
:021457008F25DF
:101459001218A0E4F528E4F527E4F526C209E528E1
:1014690075F00FA424142527F52774042526F526DD
:10147900E527C3944050077F011219C7800D7F02E9
:101489001219C774C02527F527D209E52644B8FFE4
:101499001218F1E5274440FF1218F130090674408B
:1014A9002527F527E52875F00FA42414FFC3E527A0
:1014B9009FF52774FC2526F526E528C3940675F0C3
:1014C9000CE526501EA42527F582E435F0F5837531
:1014D900F024E528121A21E58224F2F582E5833405
:1014E90001801CA42527F582E435F0F58375F024E5
:1014F900E525121A21E58224CAF582E5833402F52D
:1015090083E493FF1200060526E526C394035003DE
:101519000214650527E527C3940C500302146205DC
:0B15290028E528C39407500302145F5C
:011534002294
:1015CC00E4FF1219C7E4F525E4F526E52544B8FF38
:1015DC001218F1E5264440FF1218F1E50A24FE60CA
:1015EC000714601F2402803675F040E525A42526DB
:1015FC00F582E435F0F583E5822482F582E58334C7
:10160C0006803475F040E525A42526F582E435F0F6
:10161C00F583E5822482F582E5833407801975F021
:10162C0040E525A42526F582E435F0F583E58224F2
:10163C0082F582E5833405F583E493FF12000605F9
:10164C0026E526C3944040830525E525C394045024
:04165C00030215D49C
:011660002267
:1016ED00850D28750D02752501AF251219C7E4F575
:1016FD0026E4F527E52644B8FF1218F1E527444006
:10170D00FF1218F112196DEF600585280D8009057E
:10171D0027E527C3944040DCE50D652860090526C3
:10172D00E526C3940440CAE50D652860090525E545
:06173D0025C3940340B334
:011743002283
:10174400E50A24FE600714600C240280107515035A
:10175400750E14800E751506750E0C800675150130
:10176400750E18900882E493F513A3E493F5148599
:10177400150F850E12A2029203E4F525E525C39503
:1017840012500EE5132525FFAD14121864052580AB
:01179400EB69
:011795002231
:1015350030034DC374809512C3950FFFE513D39FF8
:1015450040030215CB752501E50F2401FFE433FEA9
:10155500C3E5259FEE6480F8748098501CE513253B
:101565002514FFAD14121827E5132512142525FFA0
:10157500AD14121864052580CFE50F2513F5132248
:10158500C3E513950F7480F898403B752501E50F69
:101595002401FFE433FEC3E5259FEE6480F87480E3
:1015A50098501CE5132512C39525FFAD1412182775
:1015B500C3E5139525FFAD14121864052580CFC327
:0615C500E513950FF5137C
:0115CB0022FD
:1017E500900884E493F510A3E493F511A3E493F52D
:1017F50008A3E493F509A2049200A2059201AD1194
:10180500AF10121864E51114FDAF10121864E5103D
:1018150004FFAD11121864E51004FFE51114FD0273
:02182500186445
:10192800AD11AF10121827E51004FFAD11121827DA
:10193800E51114FDAF10121827E51004FFE5111486
:04194800FD0218275D
:10107D0030015DE51124FEFDAF101217964016E507
:10108D001004FFE51124FEFD1217964008E511141A
:10109D006003021145E511146032E51124FEFDAF28
:1010AD0010121827E51004FFE51124FEFD12182774
:1010BD00E51124FE6016E51124FDFDAF1012182771
:1010CD00E51004FFE51124FDFD121827B20180681B
:1010DD00E51104FDAF10121796400DE51004FFE564
:1010ED001104FD1217965050E511643F6047E5114C
:1010FD002401FFE433FEEF65147001EE602CE51161
:10110D0004FDAF10121827E51004FFE51104FD12C0
:10111D001827E5112402FDAF10121827E51004FF62
:10112D00E5112402FD1218278007850F08A20392EE
:10113D0000B2018003E4F50DE50D640160030213B7
:10114D007830005BE5102402FFAD11121796401F99
:10115D00E5102402FFE51114FD1217964011E5105C
:10116D002401FFE433FEEF647F4E60030211FBE5C3
:10117D00102402FFAD11121827E5102402FFE5110E
:10118D0014FD121827E5102403FFAD11121827E5E1
:10119D00102403FFE51114FD121827B200804FE54E
:1011AD001014FFAD111217964011E51014FFE51143
:1011BD0014FD1217964004E5107033E510602D14E0
:1011CD00FFAD11121827E51014FFE51114FD1218CB
:1011DD0027E510146016E51024FEFFAD1112182737
:1011ED00E51024FEFFE51114FD121827B200C20907
:1011FD00300162752501E5092401FFE433FEC3E5E5
:10120D00259FEE6480F8748098503CE51114C395C9
:10121D0025FD700BD209C3E5119525F5118028AF79
:10122D0010121796400FE51004FFE511149525FDDA
:10123D00121796500ED209E52514FFC3E5119FF53F
:10124D00118004052580AFA209B35055C3E5119552
:10125D0009F511804C752501E5092401FFE433FEE4
:10126D00C3E5259FEE6480F87480985029E511251B
:10127D0025FDAF10121796400EE51004FFE5112560
:10128D0025FD121796500BD209E525142511F511E0
:10129D008004052580C2A209B35006E5092511F584
:1012AD0011C20A30006C752501E5092401FFE433F4
:1012BD00FEC3E5259FEE6480F87480985048E510D4
:1012CD002401FFE433FE7C00EF2525FFEC3EFEEF0D
:1012DD00647F4E7006D20AE5258021E51004252590
:1012ED00FFAD11121796400FE510042525FFE511EE
:1012FD0014FD121796500BD20AE525142510F51082
:10130D008004052580A3A20AB35060E5082510F5D9
:10131D001022752501E5092401FFE433FEC3E525FF
:10132D009FEE6480F87480985035C3E5109525FFC5
:10133D007006D20A8F108027AD11121796400EE558
:10134D00109525FFE51114FD121796500ED20AE5E2
:10135D002514FFC3E5109FF5108004052580B6A266
:0B136D000AB35007C3E5109508F51007
:011378002252
:1018FE0012192812107DAD11AF10121864E51114D3
:10190E00FDAF10121864E51004FFAD11121864E556
:0A191E001004FFE51114FD02186427
:10088800E50D640160020516E50D64046003020AC3
:100898009A759001200705F516D207223006030243
:1008A8000A92E516C394504003020977E51675F0DD
:1008B8000A84F522E51675F00A842401FFE433FE64
:1008C800C3E5229FEE6480F8748098400302107C90
:1008D800E4F524E4F523C208E52275F00FA4240505
:1008E8002524F5240523C3944050077F011219C716
:1008F800800D7F021219C774C02524F524D208E59B
:100908002344B8FF1218F1E5244440FF1218F130CF
:10091800080674402524F524E52275F00FA4240563
:10092800FFC3E5249FF5241523FF75F00CE523A4E8
:100938002FF582E435F0F58375F024E522121A21AB
:10094800E58224A2F582E5833403F583E493FF125C
:1009580000060523E523C3940350030208DE05249B
:10096800E524C3940C50030208DB05220208BCE509
:1009780016D394505003020A85E516947840030272
:100988000A85E4FF1219C7752304C374909516F5F8
:1009980024E524C394405019E52344B8FF1218F104
:1009A800E5244440FF1218F1E4FF120006052480F4
:1009B800E00523E523C3940640D0E4F522E4F524BA
:1009C800E4F523C208C374CF9516FFE52275F00736
:1009D800A42F2524F52474042523F523E524C394A2
:1009E8004050077F011219C7800D7F021219C77482
:1009F800C02524F524D208E524C39440505AE523A1
:100A080044B8FF1218F1E5244440FF1218F13008E9
:100A18000674402524F524C374CF9516FFE5227586
:100A2800F007A42FFFC3E5249FF52474FC2523F5C4
:100A38002375F006A42524F582E435F0F58375F0D6
:100A48000CE522121A21E58224C2F582E5833404DA
:100A5800F583E493FF1200060523E523C3940250AF
:100A6800030209CB0524E524C3940650030209C8F0
:100A78000522E522C3940550030209C522E516D3D1
:100A88009478500302107CD20622750D05C206C266
:100A98000722E50D64056003020BFE200705D20757
:100AA800F51622D2B420B40FE4F59012194C1215A1
:100AB800CC750D06C20722E516D394144003020F25
:100AC80076E516D3940A406BE516941450657F01B9
:100AD8001219C7752306752414E52344B8FF1218A4
:100AE800F1E5244440FF1218F1E4FF120006052442
:100AF800E524C3944040E20523E523C3940840D687
:100B08007F021219C7752306E4F524E52344B8FFCC
:100B18001218F1E5244440FF1218F1E4FF12000610
:100B28000524E524C3942B40E20523E523C3940858
:100B380040D622E516C3941E400302107CE4F52239
:100B4800E4F524E4F523C208E52275F007A424148B
:100B58002524F52474062523F523E524C394405061
:100B6800077F011219C7800D7F021219C774C025AB
:100B780024F524D208E524C394405055E52344B80D
:100B8800FF1218F1E5244440FF1218F130080674EA
:100B9800402524F524E52275F007A42414FFC3E5B5
:100BA800249FF52474FA2523F52375F006A425243B
:100BB800F582E435F0F58375F00CE522121A21E58B
:100BC8008224FEF582E5833404F583E493FF120062
:100BD800060523E523C394025003020B4E0524E5C2
:100BE80024C394065003020B4B0522E522C3940B41
:100BF8005003020B4822E50D640670297590022007
:100C08000602F516750C1EE516C3950C500E300637
:100C18000302107CAF0A121457D206221218A075CC
:100C28000D03C20622E50D6403701B200602F516AB
:100C3800750C1EE516C3950C500930060302107C8E
:100C4800020E76020E7E1216EDE50DB4010612159F
:100C5800350218FEE50D6003020E8DE50B600302F8
:100C68000E5E750A01200602F516E516C3941E509D
:100C78000930060302107C020E76E516641E600336
:100C8800020D3812194CE4F522E4F524E4F523C2E8
:100C980008E52275F014A4241E2524F5240523C391
:100CA800944050077F011219C7800D7F021219C79F
:100CB80074C02524F524D208E52344B8FF1218F19E
:100CC800E5244440FF1218F130080674402524F545
:100CD80024E52275F014A4241EFFC3E5249FF524FF
:100CE8001523FF75F00CE523A42FF582E435F0F504
:100CF8008375F024E522121A21E58224AEF582E5F7
:100D0800833400F583E493FF1200060523E523C32B
:100D180094035003020C970524E524C3940C500354
:100D2800020C940522E522C394045003020C91227C
:100D3800E516D3941E500302107CD2B420B40912D5
:100D4800194C750D04C20622E516D3943240047579
:100D5800161F22E516D394284039E51694325033ED
:100D6800E4FF1219C7752306E4F524E52344B8FF08
:100D78001218F1E5244440FF1218F1E4FF120006AE
:100D88000524E524C3944040E20523E523C39408E1
:100D980040D622E516C39428400302107CE4F522CD
:100DA800E4F524E4F523C208E52275F007A4241429
:100DB8002524F52474062523F523E524C3944050FF
:100DC800077F011219C7800D7F021219C774C02549
:100DD80024F524D208E524C394405055E52344B8AB
:100DE800FF1218F1E5244440FF1218F13008067488
:100DF800402524F524E52275F007A42414FFC3E553
:100E0800249FF52474FA2523F52375F006A42524D8
:100E1800F582E435F0F58375F00CE522121A21E528
:100E28008224FEF582E5833404F583E493FF1200FF
:100E3800060523E523C394025003020DAE0524E5FD
:100E480024C394065003020DAB0522E522C3940B7C
:100E58005003020DA822200605E4F516150B750CA3
:100E68001EE516C3950C500E30060302107CAF0B1E
:100E7800121379D206221218A01217E51217447518
:100E88000D01C20622E50D6402600302107C3006E3
:100E980003020F4DD206F51612194CE4F522E4F5BB
:100EA80024E4F523C208E52275F014A4241E2524A1
:100EB800F5240523C3944050077F011219C7800DFC
:100EC8007F021219C774C02524F524D208E52344EB
:100ED800B8FF1218F1E5244440FF1218F130080653
:100EE80074402524F524E52275F014A4241EFFC3BC
:100EF800E5249FF5241523FF75F00CE523A42FF5B1
:100F080082E435F0F58375F024E522121A21E58292
:100F1800241EF582E5833400F583E493FF1200066E
:100F28000523E523C394035003020EAC0524E524EE
:100F3800C3940C5003020EA90522E522C394045061
:100F480003020EA622D2B420B41D12194CE50AC31E
:100F58009403500A050A1215CC750D068006750A09
:100F680001750D04C20622E516D394144004E4F575
:100F78001622E516D3940A4039E51694145033E442
:100F8800FF1219C7752306E4F524E52344B8FF12B8
:100F980018F1E5244440FF1218F1E4FF1200060599
:100FA80024E524C3944040E20523E523C394084084
:100FB800D622E516C3941E400302107CE4F522E411
:100FC800F524E4F523C208E52275F007A4241425C6
:100FD80024F52474062523F523E524C394405007FB
:100FE8007F011219C7800D7F021219C774C025240A
:100FF800F524D208E524C394405055E52344B8FFAE
:101008001218F1E5244440FF1218F1300806744024
:101018002524F524E52275F007A42414FFC3E5244C
:101028009FF52474FA2523F52375F006A42524F5E5
:1010380082E435F0F58375F00CE522121A21E58279
:1010480024FEF582E5833404F583E493FF12000659
:101058000523E523C394025003020FCD0524E5249C
:10106800C394065003020FCA0522E522C3940B500D
:0410780003020FC799
:01107C002251
:061A49001219F402194C11
:0300000002166184
:0C166100787FE4F6D8FD75812B0216A8F6
:0C1A2100A42582F582E5F03583F58322D0
:10166D000219DFE493A3F8E493A34003F68001F29B
:10167D0008DFF48029E493A3F85407240CC8C3337E
:10168D00C4540F4420C8834004F456800146F6DF4D
:10169D00E4800B010204081020408090198EE47E36
:1016AD00019360BCA3FF543F30E509541FFEE49342
:1016BD00A360010ECF54C025E060A840B8E493A309
:1016CD00FAE493A3F8E493A3C8C582C8CAC583CA34
:1016DD00F0A3C8C582C8CAC583CADFE9DEE780BEEC
:0119AA00003C
:00000001FF
