:0819E200C2A1C2A08E80D2A0B8
:0219EA000022D9
:10198900EF7005C2A4C2A322BF0105C2A4D2A3223B
:08199900BF0204D2A4C2A32284
:10196D00D2A1C2A2C2A0D2A0E58030E70CC2A0AF26
:0B197D002B052BEFD3940A40EDC2A015
:01198800223C
:10189500EEC41313540304FF121989EE543FFCEDF3
:0E18A500131313541FFBED5407FDEB44B8FF63
:0D18B300AE0712196DC2A21219E2C2A022E6
:0D000600AE0712196DD2A21219E2C2A0229B
:1019B6007F3F1218B37FC01218B37FB81218B37FD7
:0419C600400218B310
:10190E00E4FF1219897DB8AF051218B37F40121883
:10191E00B3E4FCE4FF1200060CBC40F70DBDC0E7BB
:01192E002296
:10192F0012196DD2A2D2A17580FFD2A0AF80C2A032
:10193F0012196DD2A2D2A17580FFD2A0AF80C2A022
:01194F002275
:02182600AE070B
:10182800EEC394805033EDC39440502D121895ECBC
:101838004440FF1218B312192FAA07AF057401A864
:1018480007088002C333D8FC42021218AFEC4440A8
:09185800FF1218B3AF02120006E2
:011861002264
:0217E900AE0749
:1017EB00EEC394805034EDC39440502E121895ECF8
:1017FB004440FF1218B312192FAA07AF057401A8A2
:10180B0007088002C333D8FCF452021218AFEC4421
:0A181B0040FF1218B3AF02120006DE
:0118250022A0
:02175800AE07DA
:10175A00EEC394805042EDC39440503CEEC4131340
:10176A00540304FF121989EE543FFCED131313546A
:10177A001FFFED5407FDEF44B8FF1218B3EC4440C5
:10178A00FF1218B312192FAE05EFA806088002C37C
:0C179A0013D8FC13920B8002D20BA20BA0
:0117A6002220
:031950000117007C
:0C19CA00758910758D63758BC0D28E225C
:05001600D288D28A220D
:0919EC00D2AFD2ABD2A8D2AA22DC
:0919F5001219CA1200160219ECC5
:1019A1001219F5121A07E517C3940340F9120888B2
:0519B100E4F51780F1D0
:03001B000219FEC9
:0919FE000517758D63758BC0326D
:03000300021A0DD1
:031A0D00C20332DF
:03001300021A10BE
:031A1000D20332CC
:10001E0004FCFC040000000004FCFC040003FF8050
:10002E0000FCFC0080FF03000000033F3C03033C88
:10003E003F030000000000040404FCFC0404040060
:10004E00000000000000FFFF000000000000002084
:10005E0020203F3F2020200004FCFCE00000000494
:10006E00FCFC040000FFFF01071C70C0FFFF000036
:10007E00203F3F20000000030F3F00000000000063
:10008E0000FCFEFC00000000000000000003FF0367
:10009E000000000000000000003079300000000079
:1000AE0004FCFC0404040C1870E0800000FFFF0048
:1000BE000000000000FFFF00203F3F2020203018EE
:1000CE000E070100000000040404FCFC04040400FC
:1000DE00000000000000FFFF0000000000000020F4
:1000EE0020203F3F2020200004FCFC0404040404D4
:1000FE000C1C7C0000FFFF0808081C7F000000009D
:10010E00203F3F202020202030383E0000000000FD
:10011E0000FCFEFC00000000000000000003FF03D6
:10012E0000000000000000000030793000000000E8
:10013E0004FCFC04000000000000000000FFFF00B3
:10014E000000000000000000203F3F202020202063
:10015E0030383E00000000040404FCFC04040400DB
:10016E00000000000000FFFF000000000000002063
:10017E0020203F3F2020200004FCFC040404040443
:10018E000C1C7C0000FFFF0808081C7F000000000C
:10019E00203F3F20000000000000000004FCFC0493
:1001AE00040404040C1C7C0000FFFF0808081C7FDC
:1001BE0000000000203F3F202020202030383E004D
:1001CE0000000000000000000000000000C3C3C3D8
:1001DE00C3C3C3C3C3C3C3000000000000000000BC
:1001EE000000000004FCFC04000000000000000001
:1001FE0000FFFF000000000000000000203F3F2035
:10020E002020202030383E0004FCFC0404040404AA
:10021E000C1C7C0000FFFF0808081C7F000000007B
:10022E00203F3F202020202030383E0004FCFC04DC
:10023E0000000004FCFC040000003FFFC000C0FFF3
:10024E003F000000000000031F3C1F0300000000E1
:10025E0004FCFC04040404040C1C7C0000FFFF08D6
:10026E0008081C7F00000000203F3F202020202097
:10027E0030383E0004FCFC040000000000000000CA
:10028E0000FFFF000000000000000000203F3F20A4
:10029E002020202030383E0000000000000000002A
:1002AE000000000000C3C3C3C3C3C3C3C3C3C300A2
:1002BE0000000000000000000000000000C0F03848
:1002CE000C040C38F0C00000FFFF0000000000001E
:1002DE0000FFFF0000030F1C3020301C0F03000036
:1002EE000010101818FCFC000000000000000000B8
:1002FE0000FFFF000000000000002020203F3F20F4
:10030E002020000060F0F80C0404040C18F0E0004B
:10031E0000000080C06030180E070100383E3F33E9
:10032E003030303030303C00003078780C04040C23
:10033E0018F8F0000000000008081C1633E1C00099
:10034E000C1E3E3020202030181F0F000000000031
:10035E0080E038FCFC00000080E0380E030000FF57
:10036E00FF000000010101010121213F3F21210178
:10037E0000FCFC0C0C0C0C0C0C0C0000001F0F08ED
:10038E00040202061CF8E0000C1E3E302020203035
:10039E001C0F030004FCFC0404040C18F0E0000025
:1003AE0000FFFF0808081C1673E18000203F3F2065
:1003BE00202020301C0F030004FCFC0404040C1845
:1003CE00F8E0000000FFFF0838F8CC060701000037
:1003DE00203F3F200000032F3C30200004FCFC0493
:1003EE00040404040C1C7C0000FFFF0808081C7F9A
:1003FE0000000000203F3F202020202030383E000B
:10040E0000000000F00C3CF0000000000000F0FFC7
:10041E0043404043FFF00000203E3F20000000001C
:10042E00203F3E2004FCFC040080E47C1C040400FD
:10043E0000FFFF781E7FE18000000000203F3F207C
:10044E00000001273E382020E0F0180C0404040CB4
:10045E0018F0E000FFFF00000000000000FFFF00AA
:10046E00070F183020202030180F070004FCFC0462
:10047E0000000004FCFC040000FFFF000000000070
:10048E00FFFF0000000F1F30202020301F0F000044
:10049E007C1C0C0404FCFC04040C1C7C00000000FE
:1004AE0000FFFF000000000000000020203F3F2062
:1004BE002000000000FC0202028600000101010083
:1004CE000002FE0200C000010101010100FC020257
:1004DE0002FC00000101010002FE0E7082FE01010D
:1004EE000100010102FE123A028601010101010121
:1004FE000002FE22221C0001010100000008F8107B
:10050E00080800010101010100F028282830000030
:10051E00010101010090282828D8000101010100E5
:10052E000090282828D800010101010000000000D9
:10053E000000000000000000008C921214E6000182
:10054E0000010100000602FE02060000010101008A
:10055E0000C07A4678C001010100010102FE22228C
:10056E00629C010101000000000602FE020600006E
:10057E0001010100FFFFFFFFFFFFFFFFFFFFFFFF76
:10058E00FFFFFFFFFFF7EFEFDFDFBF7FFFFFFFFF95
:10059E00FFFFFFFFFFFFFF7F9FE7FBFDFFFFFFFF5B
:1005AE00FFFFFFFFFFFFFFFFFFFFFFFFFFFFFFFF4D
:1005BE00FFFFFFFFFFFFFFFFFFFFFFFFFFFFFFFF3D
:1005CE00FF01FDFD0DEDEDEDEDED6D6D2C2DEDED68
:1005DE00EDEDEDEDEDED2D2C6D6D6DEDEDEDEDED3E
:1005EE000DFDFD01FFFFFFFFFFFFFFFFFFFFFFFF01
:1005FE00FFFFFFFFFFFFFFFFFFFFFFFFFFFFFFFFFD
:10060E00FF00FFFF80BFBFBFBCBCBEBEB3ADAFB768
:10061E00BBB9B7AFAFB5BBBFBEBEBEBFBFBFBFBF1F
:10062E0080FFFF00FFFFFFFFFFFFFFFFFFFFFFFF4A
:10063E00FFFFFFFFFFFFFFFFFFFFFFFFFFFFFFFFBC
:10064E00FFFCFDFDFDFDCDC1F1FDFDFDFDFDFDFD43
:10065E00FDFDFDFDFDFDFDFDF1C1CDFDFDFDFDFD34
:10066E00FDFDFDFCFFFFFFFFFFFFFFFFFFFFFFFF95
:10067E00FFFFFFFFFFFFFFFFFFFFFFFFFFFFFFFF7C
:10068E00FFFFFFFFFFF7EFEFDFDFBF7FFFFFFFFF94
:10069E00FFFFFFFFFFFFFF7F9FE7FBFDFFFFFFFF5A
:1006AE00FFFFFFFFFFFFFFFFFFFFFFFFFFFFFFFF4C
:1006BE00FFFFFFFFFFFFFFFFFFFFFFFFFFFFFFFF3C
:1006CE00FF01FDFD0DEDEDEDEDED6D6D2C2DEDED67
:1006DE00EDEDEDEDEDED2D2C6D6D6DEDEDEDEDED3D
:1006EE000DFDFD01FFFFFFFFFFFFFFFFFFFFFFFF00
:1006FE00FFFFFFFFFFFFFFFFFFFFFFFFFFFFFFFFFC
:10070E00FF00FFFF80BFBFBFBCBCBEBEB3ADAFB767
:10071E00BBB9B7AFAFB5BBBFBEBEBEBFBFBFBFBF1E
:10072E0080FFFF00FFFFFFFFFFFFFFFFFFFFFFFF49
:10073E00FFFFFFFFFFFFFFFFFFFFFFFFFFFFFFFFBB
:10074E00FFFCFDFDFDFDCDC1F1FDFDFDFDFDFDFD42
:10075E00FDFDFDFDFDFDFDFDF1C1CDFDFDFDFDFD33
:10076E00FDFDFDFCFFFFFFFFFFFFFFFFFFFFFFFF94
:10077E00FFFFFFFFFFFFFFFFFFFFFFFFFFFFFFFF7B
:10078E00FFFFFFFFFFF7EFEFDFDFBF7FFFFFFFFF93
:10079E00FFFFFFFFFFFFFF7F9FE7FBFDFFFFFFFF59
:1007AE00FFFFFFFFFFFFFFFFFFFFFFFFFFFFFFFF4B
:1007BE00FFFFFFFFFFFFFFFFFFFFFFFFFFFFFFFF3B
:1007CE00FF01FDFD0DEDEDEDEDED6D6D2C2DEDED66
:1007DE00EDEDEDEDEDED2D2C6D6D6DEDEDEDEDED3C
:1007EE000DFDFD01FFFFFFFFFFFFFFFFFFFFFFFFFF
:1007FE00FFFFFFFFFFFFFFFFFFFFFFFFFFFFFFFFFB
:10080E00FF00FFFF80BFBFBFBCBCBEBEB3ADAFB766
:10081E00BBB9B7AFAFB5BBBFBEBEBEBFBFBFBFBF1D
:10082E0080FFFF00FFFFFFFFFFFFFFFFFFFFFFFF48
:10083E00FFFFFFFFFFFFFFFFFFFFFFFFFFFFFFFFBA
:10084E00FFFCFDFDFDFDCDC1F1FDFDFDFDFDFDFD41
:10085E00FDFDFDFDFDFDFDFDF1C1CDFDFDFDFDFD32
:10086E00FDFDFDFCFFFFFFFFFFFFFFFFFFFFFFFF93
:0A087E00FFFFFFFF003F073E0001EF
:10195300010D04010B05011600010C00C106C107AE
:09196300010A01C182C104C105A1
:10186200E4FF121989752904E4F52AE52944B8FF31
:101872001218B3E52A4440FF1218B3E4FF1200061F
:10188200052AE52AC3944040E20529E529C39408C4
:0218920040D63E
:011894002231
:02133B008F25FC
:10133D00121862E4F528E4F527E4F526C209E5283C
:10134D0075F00FA424142527F52774042526F526FA
:10135D00E527C3944050077F01121989800D7F0244
:10136D0012198974C02527F527D209E52644B8FF3F
:10137D001218B3E5274440FF1218B3300906744024
:10138D002527F527E52875F00FA42414FFC3E527BD
:10139D009FF52774FC2526F526E528C3940575F0E1
:1013AD000CE526501EA42527F582E435F0F583754E
:1013BD00F024E5281219D6E582243EF582E5833422
:1013CD0001801CA42527F582E435F0F58375F02402
:1013DD00E5251219D6E58224CAF582E5833402F596
:1013ED0083E493FF1200060526E526C394035003FC
:1013FD000213490527E527C3940C50030213460534
:0B140D0028E528C39406500302134397
:0114180022B1
:021419008F251D
:10141B00121862E4F528E4F527E4F526C209E5285D
:10142B0075F00FA424142527F52774042526F5261B
:10143B00E527C3944050077F01121989800D7F0265
:10144B0012198974C02527F527D209E52644B8FF60
:10145B001218B3E5274440FF1218B3300906744045
:10146B002527F527E52875F00FA42414FFC3E527DE
:10147B009FF52774FC2526F526E528C3940675F001
:10148B000CE526501EA42527F582E435F0F583756F
:10149B00F024E5281219D6E58224F2F582E583348F
:1014AB0001801CA42527F582E435F0F58375F02423
:1014BB00E5251219D6E58224CAF582E5833402F5B7
:1014CB0083E493FF1200060526E526C3940350031D
:1014DB000214270527E527C3940C50030214240597
:0B14EB0028E528C394075003021421D9
:0114F60022D3
:10158E00E4FF121989E4F525E4F526E52544B8FFB4
:10159E001218B3E5264440FF1218B3E50A24FE6084
:1015AE000714601F2402803675F040E525A4252619
:1015BE00F582E435F0F583E5822482F582E5833405
:1015CE0006803475F040E525A42526F582E435F035
:1015DE00F583E5822482F582E5833407801975F060
:1015EE0040E525A42526F582E435F0F583E5822431
:1015FE0082F582E5833405F583E493FF1200060538
:10160E0026E526C3944040830525E525C394045062
:04161E000302159618
:0116220022A5
:1016AF00850D28750D02752501AF25121989E4F5F1
:1016BF0026E4F527E52644B8FF1218B3E527444082
:1016CF00FF1218B312192FEF600585280D80090539
:1016DF0027E527C3944040DCE50D65286009052602
:1016EF00E526C3940440CAE50D652860090525E584
:0616FF0025C3940340B373
:0117050022C1
:10170600E50A24FE600714600C2402801075150398
:10171600750E14800E751506750E0C80067515016E
:10172600750E18900882E493F513A3E493F51485D7
:10173600150F850E12A2029203E4F525E525C39541
:1017460012500EE5132525FFAD1412182605258027
:01175600EBA7
:01175700226F
:1014F70030034DC374809512C3950FFFE513D39F37
:10150700400302158D752501E50F2401FFE433FE25
:10151700C3E5259FEE6480F8748098501CE5132579
:101527002514FFAD141217E9E5132512142525FF1D
:10153700AD14121826052580CFE50F2513F51322C4
:10154700C3E513950F7480F898403B752501E50FA7
:101557002401FFE433FEC3E5259FEE6480F8748021
:1015670098501CE5132512C39525FFAD141217E9F2
:10157700C3E5139525FFAD14121826052580CFC3A3
:06158700E513950FF513BA
:01158D00223B
:1017A700900884E493F510A3E493F511A3E493F56B
:1017B70008A3E493F509A2049200A2059201AD11D2
:1017C700AF10121826E51114FDAF10121826E510F8
:1017D70004FFAD11121826E51004FFE51114FD02F0
:0217E7001826C2
:1018EA00AD11AF101217E9E51004FFAD111217E997
:1018FA00E51114FDAF101217E9E51004FFE5111404
:04190A00FD0217E9DA
:10103F0030015DE51124FEFDAF101217584016E583
:10104F001004FFE51124FEFD1217584008E5111496
:10105F006003021107E511146032E51124FEFDAFA4
:10106F00101217E9E51004FFE51124FEFD1217E930
:10107F00E51124FE6016E51124FDFDAF101217E9EE
:10108F00E51004FFE51124FDFD1217E9B201806898
:10109F00E51104FDAF10121758400DE51004FFE5E0
:1010AF001104FD1217585050E511643F6047E511C8
:1010BF002401FFE433FEEF65147001EE602CE5119F
:1010CF0004FDAF101217E9E51004FFE51104FD123E
:1010DF0017E9E5112402FDAF101217E9E51004FF1F
:1010EF00E5112402FD1217E98007850F08A203926C
:1010FF0000B2018003E4F50DE50D640160030213F6
:10110F003A30005BE5102402FFAD11121758401F53
:10111F00E5102402FFE51114FD1217584011E510D8
:10112F002401FFE433FEEF647F4E60030211BDE53F
:10113F00102402FFAD111217E9E5102402FFE5118B
:10114F0014FD1217E9E5102403FFAD111217E9E59D
:10115F00102403FFE51114FD1217E9B200804FE5CB
:10116F001014FFAD111217584011E51014FFE511BF
:10117F0014FD1217584004E5107033E510602D145C
:10118F00FFAD111217E9E51014FFE51114FD121749
:10119F00E9E510146016E51024FEFFAD111217E9F2
:1011AF00E51024FEFFE51114FD1217E9B200C20984
:1011BF00300162752501E5092401FFE433FEC3E523
:1011CF00259FEE6480F8748098503CE51114C39508
:1011DF0025FD700BD209C3E5119525F5118028AFB8
:1011EF0010121758400FE51004FFE511149525FD57
:1011FF00121758500ED209E52514FFC3E5119FF5BC
:10120F00118004052580AFA209B35055C3E5119590
:10121F0009F511804C752501E5092401FFE433FE22
:10122F00C3E5259FEE6480F87480985029E5112559
:10123F0025FDAF10121758400EE51004FFE51125DC
:10124F0025FD121758500BD209E525142511F5115C
:10125F008004052580C2A209B35006E5092511F5C2
:10126F0011C20A30006C752501E5092401FFE43332
:10127F00FEC3E5259FEE6480F87480985048E51012
:10128F002401FFE433FE7C00EF2525FFEC3EFEEF4B
:10129F00647F4E7006D20AE5258021E510042525CE
:1012AF00FFAD11121758400FE510042525FFE5116A
:1012BF0014FD121758500BD20AE525142510F510FE
:1012CF008004052580A3A20AB35060E5082510F518
:1012DF001022752501E5092401FFE433FEC3E5253E
:1012EF009FEE6480F87480985035C3E5109525FF04
:1012FF007006D20A8F108027AD11121758400EE5D5
:10130F00109525FFE51114FD121758500ED20AE55E
:10131F002514FFC3E5109FF5108004052580B6A2A4
:0B132F000AB35007C3E5109508F51045
:01133A002290
:1018C0001218EA12103FAD11AF10121826E51114CC
:1018D000FDAF10121826E51004FFAD11121826E511
:0A18E0001004FFE51114FD021826A4
:10088800E50D640160020516E50D64046003020AC3
:1008980097200705F516D20722300603020A8FE5CE
:1008A80016C394504003020974E51675F00A84F5DE
:1008B80022E51675F00A842401FFE433FEC3E5221D
:1008C8009FEE6480F8748098400302103EE4F5249B
:1008D800E4F523C208E52275F00FA424052524F5C4
:1008E800240523C3944050077F01121989800D7F86
:1008F8000212198974C02524F524D208E52344B8C6
:10090800FF1218B3E5244440FF1218B330080674E8
:10091800402524F524E52275F00FA42405FFC3E53E
:10092800249FF5241523FF75F00CE523A42FF582E9
:10093800E435F0F58375F024E5221219D6E5822412
:10094800A2F582E5833403F583E493FF12000605DC
:1009580023E523C3940350030208DB0524E524C3DD
:10096800940C50030208D805220208B9E516D3945E
:10097800505003020A82E51694784003020A82E482
:10098800FF121989752304C374909516F524E5247C
:10099800C394405019E52344B8FF1218B3E5244422
:1009A80040FF1218B3E4FF120006052480E0052377
:1009B800E523C3940640D0E4F522E4F524E4F523C6
:1009C800C208C374CF9516FFE52275F007A42F253A
:1009D80024F52474042523F523E524C39440500703
:1009E8007F01121989800D7F0212198974C025248C
:1009F800F524D208E524C39440505AE52344B8FFAF
:100A08001218B3E5244440FF1218B33008067440A6
:100A18002524F524C374CF9516FFE52275F007A4A5
:100A28002FFFC3E5249FF52474FC2523F52375F0D7
:100A380006A42524F582E435F0F58375F00CE5224B
:100A48001219D6E58224C2F582E5833404F583E4DD
:100A580093FF1200060523E523C3940250030209FD
:100A6800C80524E524C3940650030209C50522E5F8
:100A780022C3940550030209C222E516D394785084
:100A88000302103ED20622750D05C206C20722E5F2
:100A98000D64056003020BC6200705D207F5162270
:100AA800D2B420B40C12190E12158E750D06C20799
:100AB80022E516D394144003020F38E516D3940A9E
:100AC8004039E51694145033E4FF1219897523064A
:100AD800E4F524E52344B8FF1218B3E5244440FFA5
:100AE8001218B3E4FF1200060524E524C39440401D
:100AF800E20523E523C3940840D622E516C3941ED5
:100B0800400302103EE4F522E4F524E4F523C2088C
:100B1800E52275F007A424142524F524740625235A
:100B2800F523E524C3944050077F01121989800DED
:100B38007F0212198974C02524F524D208E524C33C
:100B480094405055E52344B8FF1218B3E5244440B7
:100B5800FF1218B330080674402524F524E52275E1
:100B6800F007A42414FFC3E5249FF52474FA252371
:100B7800F52375F006A42524F582E435F0F5837590
:100B8800F00CE5221219D6E58224FEF582E58334BD
:100B980004F583E493FF1200060523E523C39402BA
:100BA8005003020B160524E524C394065003020BD8
:100BB800130522E522C3940B5003020B1022E50D06
:100BC80064067026200602F516750C1EE516C395F8
:100BD8000C500E30060302103EAF0A121419D2064A
:100BE80022121862750D03C20622E50D6403701BFC
:100BF800200602F516750C1EE516C3950C50093033
:100C0800060302103E020E38020E401216AFE50D22
:100C1800B401061214F70218C0E50D6003020E4F66
:100C2800E50B6003020E20200602F516E516C394B4
:100C38001E500930060302103E020E38E516641EE7
:100C48006003020CFA12190EE4F522E4F524E4F527
:100C580023C208E52275F014A4241E2524F52405D2
:100C680023C3944050077F01121989800D7F021217
:100C7800198974C02524F524D208E52344B8FF1245
:100C880018B3E5244440FF1218B330080674402511
:100C980024F524E52275F014A4241EFFC3E5249F3F
:100CA800F5241523FF75F00CE523A42FF582E43510
:100CB800F0F58375F024E5221219D6E58224AEF505
:100CC80082E5833400F583E493FF1200060523E5EB
:100CD80023C394035003020C590524E524C3940C40
:100CE8005003020C560522E522C394045003020C5B
:100CF8005322E516D3941E500302103ED2B420B4FA
:100D08000912190E750D04C20622E516D394324055
:100D18000475161F22E516D394284039E516943237
:100D28005033E4FF121989752306E4F524E52344BA
:100D3800B8FF1218B3E5244440FF1218B3E4FF12B9
:100D480000060524E524C3944040E20523E523C3B7
:100D5800940840D622E516C39428400302103EE4C6
:100D6800F522E4F524E4F523C208E52275F007A48A
:100D780024142524F52474062523F523E524C39497
:100D88004050077F01121989800D7F02121989745A
:100D9800C02524F524D208E524C394405055E52302
:100DA80044B8FF1218B3E5244440FF1218B33008C2
:100DB8000674402524F524E52275F007A42414FFC1
:100DC800C3E5249FF52474FA2523F52375F006A4BA
:100DD8002524F582E435F0F58375F00CE522121927
:100DE800D6E58224FEF582E5833404F583E493FF97
:100DF8001200060523E523C394025003020D700573
:100E080024E524C394065003020D6D0522E522C390
:100E1800940B5003020D6A22200605E4F516150B03
:100E2800750C1EE516C3950C500E30060302103ED5
:100E3800AF0B12133BD206221218621217A7121711
:100E480006750D01C20622E50D6402600302103E1C
:100E5800300603020F0FD206F51612190EE4F5221A
:100E6800E4F524E4F523C208E52275F014A4241E51
:100E78002524F5240523C3944050077F01121989BE
:100E8800800D7F0212198974C02524F524D208E543
:100E98002344B8FF1218B3E5244440FF1218B330B6
:100EA800080674402524F524E52275F014A4241EB0
:100EB800FFC3E5249FF5241523FF75F00CE523A453
:100EC8002FF582E435F0F58375F024E5221219D662
:100ED800E582241EF582E5833400F583E493FF124E
:100EE80000060523E523C394035003020E6E052470
:100EF800E524C3940C5003020E6B0522E522C3942B
:100F0800045003020E6822D2B420B41D12190EE553
:100F18000AC39403500A050A12158E750D06800639
:100F2800750A01750D04C20622E516D3941440040F
:100F3800E4F51622E516D3940A4039E516941450C0
:100F480033E4FF121989752306E4F524E52344B830
:100F5800FF1218B3E5244440FF1218B3E4FF12004F
:100F6800060524E524C3944040E20523E523C39401
:100F78000840D622E516C3941E400302103EE4F54D
:100F880022E4F524E4F523C208E52275F007A42439
:100F9800142524F52474062523F523E524C3944059
:100FA80050077F01121989800D7F0212198974C0B8
:100FB8002524F524D208E524C394405055E523445C
:100FC800B8FF1218B3E5244440FF1218B3300806DE
:100FD80074402524F524E52275F007A42414FFC3E2
:100FE800E5249FF52474FA2523F52375F006A42536
:100FF80024F582E435F0F58375F00CE5221219D654
:10100800E58224FEF582E5833404F583E493FF1238
:1010180000060523E523C394025003020F8F05241D
:10102800E524C394065003020F8C0522E522C394DD
:061038000B5003020F89BA
:01103E00228F
:061A07001219B602190ECF
:03000000021623C2
:0C162300787FE4F6D8FD75812B02166A72
:0C19D600A42582F582E5F03583F583221C
:10162F000219A1E493A3F8E493A34003F68001F217
:10163F0008DFF48029E493A3F85407240CC8C333BC
:10164F00C4540F4420C8834004F456800146F6DF8B
:10165F00E4800B0102040810204080901950E47EB2
:10166F00019360BCA3FF543F30E509541FFEE49380
:10167F00A360010ECF54C025E060A840B8E493A347
:10168F00FAE493A3F8E493A3C8C582C8CAC583CA72
:10169F00F0A3C8C582C8CAC583CADFE9DEE780BE2A
:01196C00007A
:00000001FF
