:100144005F554C473F3932302A2624201C19BEAA59
:10015400978F7F71655F0F0F111313110F0F111319
:1001640013110F0F10111000151514131214151379
:1001740014151500000100020015141312110F0FBD
:040184000F1616003C
:0901C600010800010900010A0012
:10018800EF90014393FEE508C39E4025E4F508057A
:1001980009E5099400400EE50994BE5008EF64167D
:1001A800600FB2B722E509C394BE4005050AE4F51D
:0201B80009221A
:0C01BA00438902758AEC758CECD28C2213
:0501D000D2AFD2A9220C
:08000300C2B71201BA0201D0DC
:10000E00120003E5A0700BC28C758AECF50AD28C37
:10001E0080F1E5A0B4010DE50A90015A93FF7067D7
:10002E00F50A80DFE5A0B4020FE50A90016C93FF9C
:10003E007004F50A80CD804FE5A0B4030FE50A9059
:10004E00017893FF7004F50A80B9803BE5A0B404F3
:10005E000FE50A90017993FF7004F50A80A58027B9
:10006E00E5A0B4050FE50A90017B93FF7004F50A35
:10007E0080918013E5A0B40614E50A90017D93FFEC
:10008E007005F50A020011120188020011E5A06444
:10009E00076003020011E50A90015A93FF7005F5FF
:0A00AE000A0200111201880200117D
:03000B000201D51A
:0301D500050832E8
:030000000200B843
:0C00B800787FE4F6D8FD75810A0200FF95
:1000C40002000EE493A3F8E493A34003F68001F244
:1000D40008DFF48029E493A3F85407240CC8C3333D
:1000E400C4540F4420C8834004F456800146F6DF0C
:1000F400E4800B01020408102040809001C6E47ED5
:10010400019360BCA3FF543F30E509541FFEE49300
:10011400A360010ECF54C025E060A840B8E493A3C7
:10012400FAE493A3F8E493A3C8C582C8CAC583CAF2
:10013400F0A3C8C582C8CAC583CADFE9DEE780BEAA
:0101CF00002F
:00000001FF
