:10010A005F554C473F3932302A2624201C19BEAA93
:10011A00978F7F71655F0F0F111313110F0F111353
:0C012A0013110F0F101110000F0F020036
:09014200010800010900010A0096
:1000D800EF90010993FEE508C39E4025E4F5080565
:1000E80009E509941E400EE50994DC5008EF6416F2
:1000F800600FB2B722E509C394FA4005050AE4F592
:020108000922CA
:0C013600438902758AEC758CECD28C2297
:05014C00D2AFD2A92290
:08000300C2B712013602014CE4
:10009A00120003E5A07009C28C758AECD28C80F339
:1000AA00E5A0B40112E50A90012093FF7004F50A55
:1000BA0080E11200D880DCE5A0B402D7E50A9001FD
:0E00CA003293FF7004F50A80CA1200D880C578
:03000B000201519E
:030151000508326C
:0300000002000EED
:0C000E00787FE4F6D8FD75810A020055E9
:10001A0002009AE493A3F8E493A34003F68001F262
:10002A0008DFF48029E493A3F85407240CC8C333E7
:10003A00C4540F4420C8834004F456800146F6DFB6
:10004A00E4800B0102040810204080900142E47E03
:10005A00019360BCA3FF543F30E509541FFEE493AB
:10006A00A360010ECF54C025E060A840B8E493A372
:10007A00FAE493A3F8E493A3C8C582C8CAC583CA9D
:10008A00F0A3C8C582C8CAC583CADFE9DEE780BE55
:01014B0000B3
:00000001FF
